:020000040002F8
:10600000D0410020C1630200C9630200CB630200DB
:10601000CD630200CF630200D163020000000000E4
:10602000000000000000000000000000D363020038
:10603000D563020000000000D7630200D9630200AC
:10604000AD650200DB63020041690200DB63020010
:10605000DB630200DB63020009650200DB63020010
:10606000DB630200DB630200DB630200DB63020030
:10607000DB630200DB630200DB630200DB63020020
:10608000DB63020005660200DB630200DB630200E3
:10609000DB630200DB63020015660200DB630200C3
:1060A000DB630200DB630200DB630200DB630200F0
:1060B000DB630200DB630200000000000000000060
:1060C000DB630200DB630200DB630200DB630200D0
:1060D000DB630200DB630200DB6302000000000000
:1060E00000000000000000000000000000000000B0
:1060F00000000000000000000000000000000000A0
:10610000000000000000000000000000000000008F
:10611000000000000000000000000000000000007F
:10612000000000000000000000000000000000006F
:10613000000000000000000000000000000000005F
:10614000000000000000000000000000000000004F
:10615000000000000000000000000000000000003F
:10616000000000000000000000000000000000002F
:10617000000000000000000000000000000000001F
:10618000000000000000000000000000000000000F
:1061900000000000000000000000000000000000FF
:1061A00000000000000000000000000000000000EF
:1061B00000000000000000000000000000000000DF
:1061C00000000000000000000000000000000000CF
:1061D00000000000000000000000000000000000BF
:1061E00000000000000000000000000000000000AF
:1061F000000000000000000000000000000000009F
:10620000DFF80CD000F06EF900480047017D020075
:10621000D041002030B450E8012F93B2C489234408
:106220008489A34228BF1B1B0489A34202BFBFF37A
:106230002F8F002007E0C3EA020340E80134002C5E
:10624000E9D14FF001000A6030BC704750E8012FDF
:10625000C2EA024240E801210029F7D1704730B478
:1062600050E8022F1FFAA2F3C488A34202BFBFF373
:106270002F8F00200DE0C48923448489A34228BFC6
:106280001B1BC2EA034340E80234002CE8D14FF064
:1062900001000A6030BC704750E8022FC2EA224277
:1062A00040E802210029F7D17047034653E8022F46
:1062B000D988B2EB324F4FF0000017BF92B241EADB
:1062C000014142EA014104E05A68B2EB324F08BF93
:1062D000012043E80212002AE8D1704730B4044696
:1062E00054E8000F0D4644E80053002BF8D1156028
:1062F00030BC704730B4044654E8000F40EA010552
:1063000044E80053002BF7D1156030BC704730B41F
:10631000044654E8000F00EA010544E80053002B4E
:10632000F7D1156030BC704730B4044654E8000F14
:1063300080EA010544E80053002BF7D1156030BC1A
:10634000704730B4044654E8000F00EB010544E800
:106350000053002BF7D1156030BC704730B40446B1
:1063600054E8000FA0EB010544E80053002BF7D1DF
:10637000156030BC704770B404464FF0000054E81C
:10638000006F0D68AE4207BF44E80023012044E8D7
:1063900000630E60002B1CBF0020F0E770BC70474C
:1063A00030B4044654E8000F88422CBF451A054615
:1063B00044E80053002BF5D1156030BC7047000055
:1063C0000648804706480047FEE7FEE7FEE7FEE78F
:1063D000FEE7FEE7FEE7FEE7FEE7FEE719660200DE
:1063E000016202002DE9F05F0546002092469B46BF
:1063F00088460646814640241BE0284641464746DB
:10640000224600F05EF853465A46C01A914110D316
:1064100011461846224600F016F82D1A67EB0108BF
:106420004F4622460120002100F00DF817EB00092D
:106430004E41201EA4F10104DFDC484631462A46C5
:106440004346BDE8F09F202A04DB203A00FA02F11F
:10645000002070479140C2F1200320FA03F3194352
:106460009040704700487047D8A9020040EA0103F5
:106470009B0703D009E008C9121F08C0042AFAD2FA
:1064800003E011F8013B00F8013B521EF9D27047BE
:10649000D2B201E000F8012B491EFBD27047002266
:1064A000F6E710B513460A4604461946FFF7F0FF13
:1064B000204610BD421C10F8011B0029FBD1801A98
:1064C0007047202A04DB203A21FA02F000217047AD
:1064D00021FA02F3D040C2F120029140084319464C
:1064E00070470000064C074D06E0E06840F00103ED
:1064F00094E8070098471034AC42F6D3FFF784FEC7
:106500004CB002006CB002002DE9F8430025DFF822
:1065100094804FF4807601242F460095304602F097
:1065200049F838B1D8F80403204203D0304602F0CD
:1065300037F82543361D64007F1CB6B2082FEDD313
:106540004FF4BE74204602F035F848B1204602F000
:1065500027F845F000456A460121002001F0F0FFD0
:1065600015F0FF0F16D0012600242E420ED008EBA6
:106570008401D1F81005D1F81015C0F304200A4A9F
:10658000C1F3014152F8242002B190477600641C07
:10659000082CEAD3002D02DA684603F021FABDE8A0
:1065A000F883000000600040BC1A002070B54FF472
:1065B0008076304601F0AEFD114CB50560B1304635
:1065C00001F0AFFD0120C5F80803607920B9012072
:1065D00060712168002088474FF48276304601F0D0
:1065E00099FD00280AD0304601F09BFD0220C5F835
:1065F00008032168BDE870400120084770BD000015
:10660000FC18002002490248091F09680068084771
:106610005019002002F018BDF0B5B74AB7494FF045
:1066200080541368D4F830010978D4F83421451C1B
:10663000C1F3031106D0844601270025BCF1060FE3
:1066400003D00AE003F0FF0CF6E7B4F82463DFF8A8
:10665000B0C2C6F30426CCF80060DEB2062E06D126
:10666000032904D1DFF8A0C2A64ECCF87460461C02
:1066700004D08446BCF1060F03D00AE003F0FF0CFF
:10668000F8E7D4F84462DFF884C2C6F34236CCF8A7
:106690000060DEB2062E08D1032906D19C4ED6F842
:1066A00000C02CF0807CC6F800C0461C04D0844694
:1066B000BCF1060F03D00BE003F0FF0CF8E74FF03E
:1066C0008046C6F80C51C6F81051904E361F356002
:1066D000DEB2062E08D1032906D1DFF830C2032628
:1066E0000CF1640CCCF80060DEB2062E11D1032947
:1066F0000FD1DFF820C20526CCF80060854E783631
:106700003760844E083635600CF1040C3F26CCF817
:106710000060461C06D084464FEA0206BCF1060F14
:1067200004D081E003F0FF0C0E46F7E7032E7BD088
:10673000042E79D0784E3668DFF8E0C1CCF80060DE
:10674000754E361D36680CF1040CCCF80060724EA4
:10675000083636680CF1040CCCF800606E4E0C362E
:1067600036680CF1040CCCF800606B4E10363668BD
:106770000CF1040CCCF80060674E143636680CF14E
:10678000040CCCF80060644E18363668DFF88CC113
:106790000CF1200CCCF800605F4E1C3636680CF112
:1067A000040CCCF800605C4E203636680CF1040C0A
:1067B000CCF80060584E243636680CF1040CCCF846
:1067C0000060554E283636680CF1040CCCF8006099
:1067D000514E2C3636680CF1040CCCF800604E4E4D
:1067E00030363668DFF834C10CF1400CCCF800606C
:1067F000494E343636680CF1040CCCF80060464E35
:10680000383636680CF1040CCCF80060424E3C3649
:1068100036680CF1040CCCF800603F4E4036366808
:106820000CF1040CCCF80060461C05D04FEA000CBB
:10683000BCF1060F03D008E003F0FF0CF8E7D4F832
:106840005842374E04F04F043460441C03D00346D2
:10685000062B02D008E0DBB2FAE732490B68DB070F
:1068600002D06FF001030B6006280AD1032A08D07A
:10687000042A06D0052A04D02B48016841F480611F
:10688000016023487438016841F470010160BFF36E
:106890004F8FBFF36F8F4FF01021D1F80002002807
:1068A00003DBD1F80402002822DA204A17602048CE
:1068B0000368002BFCD01523C1F800320468002CBB
:1068C000FCD0C1F8043201680029FCD015600168D1
:1068D0000029FCD0BFF34F8F0D48F0380168154AEE
:1068E00001F4E06111430160BFF34F8F00BFFDE78A
:1068F000124911480860F0BDE00F00F0E80F00F009
:10690000403501400DF0ADBA00C007403C050040E5
:10691000FCED00E0105600400404001020C50040CB
:10692000E40E0040000400403C17004004E5014034
:1069300000E401400400FA050090D003D8190020BB
:1069400001480068004700000419002002E008C860
:10695000121F08C1002AFAD170477047002001E0D9
:1069600001C1121F002AFBD170470000012120281D
:1069700003DA81400548014003E0402802DA20386C
:10698000814009B10120704700207047FC06FFBD1F
:1069900070B5A2B004259DF8840026A120F00F0058
:1069A000401C20F0F00010308DF88400132221A844
:1069B0007CDF3C210FA8FFF772FD234C02268DF8E7
:1069C0003C6004F10C020FA8A16800F009FA41F242
:1069D0002210ADF87800A01F20900320ADF87C00B5
:1069E0003C216846FFF75BFD1EA88DF8006009900A
:1069F0008DF8035018211548FFF751FD1348042165
:106A0000A022017000214160017582608181221DF8
:106A10006846216800F0E4F908B100F0B1F80A49CD
:106A20000A4AA1F1080072DF002801D000F0A8F89E
:106A300022B070BD4475795472756F6E67205965C8
:106A4000752054684D616900D0180020DC190020C1
:106A5000022000F0E1BA000070B50024064D06E007
:106A60006868012110F8340002F006FC641C2878E4
:106A70008442F5D3002070BD10190020F8B51646E9
:106A80000C4605460A2A01D20720F8BD02F0EEFCAA
:106A900018B902F0B1FC0028F7D1134F10211348A8
:106AA0007D603C70BE60FFF7FAFC0020C7E904007F
:106AB0000F4E0DE005EBC4003168009181788DF830
:106AC000011000780B4A694602F026FC0028DCD150
:106AD000641EE4B2EED2BDE8F84005480021064A43
:106AE000001D00F05FB8000010190020881B002076
:106AF000D8A60200797A02007176020072B601F01F
:106B0000F3FF00BF01F03CFE0028FBD11148124901
:106B1000401AC408012000EB044010A101F04CFF12
:106B200011480068C00700D000BE022000EB0440FE
:106B30000EA101F041FFBFF34F8F0B48E43801680D
:106B40000E4A01F4E06111430160BFF34F8F00BFB3
:106B5000FDE70000CCB002007CB002004661746129
:106B60006C206572726F7200F0ED00E053797374FF
:106B7000656D207265736574000000000400FA05FD
:106B80000EB500210091CDE901106A4644F20100E2
:106B9000FFF7B4FF0EBD0000014800F0D0BD0000BB
:106BA000301900203AB100680129426100D000216B
:106BB00001610020704707207047000038B5114878
:106BC00008235822416800910F49006801F0E7F955
:106BD000002815D10D4A69460D4800F0B5FD0400A6
:106BE0000ED101210A4800F02AFE0123094A194664
:106BF000074800F07CFD064901200839087020464E
:106C000038BD0000E0A60200A81B0020919B0200F6
:106C100030190020FFFF7F0070B50446007F0D464D
:106C200008B1002070BDA26100F00CFF401941F1D5
:106C30000001C4E90201206900B125612146BDE8D7
:106C40007040002003F034BA01460020087701208C
:106C500003F02EBA30B5EFF3108172B60D4A946886
:106C6000012324B10370002900D162B630BD9360C6
:106C70004FF0E023D3F88051074C25401560C3F84E
:106C80008041D3F8844154605A17C3F8842100220C
:106C90000270E8E7001C0020FC06FFBD0B498A6873
:106CA000002A11D000280FD1EFF3108072B60B68C4
:106CB0004FF0E022C2F800314B68C2F804310022E4
:106CC0008A60002800D162B670470000001C0020D6
:106CD0002DE9F041064608680C46411C4FF0A047DC
:106CE0004FF0010506D005FA00F1C7F80815206835
:106CF00001F000FC6068411C02D0002101F0E8FBBB
:106D00003168A069C1F82405607D227D3168104397
:106D1000C1F86C05D4E900123068C0F81425C0F839
:106D20000C15207D012815D1A068411C02D000213E
:106D300001F0CEFBE068411C05D08540C7F808553E
:106D4000E06801F0D7FBD4E902123068C0F80825EA
:106D5000C0F81015BDE8F0812DE9F041064608683D
:106D60000C46411C4FF0A0474FF0010506D005FA34
:106D700000F1C7F80815206801F0C6FB6068411CE7
:106D800002D0002101F0ADFB3168A069C1F82405F3
:106D9000607D217D32680843C2F86C05D4E9001299
:106DA0003068C0F80C15C0F81425207D012815D1D5
:106DB000A068411C02D0002101F093FBE068411C57
:106DC00005D08540C7F80855E06801F09DFBD4E97F
:106DD00002123068C0F80825C0F81015BDE8F0812F
:106DE0002DE9FC47002517880646158090F82D00F0
:106DF0001446894630B13A462146484600F0B1F87B
:106E0000051E09D1B0784FF00C0A18B32088C84687
:106E1000001DB84202D95046BDE8FC87684679DFBC
:106E20000028F9D12088032108F8001020881921B2
:106E3000401C80B2208008F800102088401C80B2DE
:106E4000208000EB0801BDF8000003F000FB218862
:106E500008442080F0780222C8B1218896F90330D6
:106E600001F1030C4846BC45D5D8425421884FF067
:106E7000010C491C89B2218000F801C02188491CFD
:106E800089B2218009F801302088401C2080706878
:106E9000B8B1218890F9003001F1030C4846BC4597
:106EA000B9D8425421880A22491C89B2218042540F
:106EB0002188491C89B2218009F801302088401CB2
:106EC0002080308950B1CDE900474B46062202218F
:106ED00006F1080003F070FB051E9DD1308A50B109
:106EE000CDE900474B460722032106F1100003F0CD
:106EF00063FB051E90D1308B50B1CDE900474B4666
:106F00001522142106F1180003F056FB051E83D14B
:106F1000306A30B13B462246494600F065FB051E0B
:106F2000DBD1706A30B13B462246494600F05AFF39
:106F3000051ED2D196F82C0038B13B462246494670
:106F4000304602F069FF051EC7D1307838B13B46A4
:106F500022464946304600F0CFFF051EBDD12846E7
:106F60005AE77CB5054608880C460930904201D99D
:106F70000C207CBD68466DDF0028FAD121880820EE
:106F8000685420881B21401C80B22080295420880E
:106F9000401C80B220802844DDF801100160BDF85B
:106FA000051081802088801D80B220809DF800100F
:106FB000490800D0012129542088401C208000204D
:106FC0007CBD00002DE9FC410646C0074FF00005DE
:106FD0000ED0104F00240122385D00950023114689
:106FE000019501F01BFA641C042CF4D300F046F860
:106FF000B0070DD5074E0024361D0022305D032357
:1070000000951146019501F009FA641C042CF4D393
:10701000BDE8FC8196A6020007490B5C4FF0A04139
:10702000D1F804250120984020EA0203C1F8083570
:107030001040C1F80C05704796A602000249085C92
:10704000012101F0A2BA000096A602000249085CE4
:10705000002101F09ABA000096A602000649095CD8
:107060004FF0A040D0F80405C84010F0010000D057
:10707000012080F00100704796A6020010B50024A0
:107080002046FFF7DBFF641C042CF9D310BD10B5BC
:1070900000242046FFF7DAFF641C042CF9D310BD4E
:1070A00010B50246064B4FF0FF3000215C5C944265
:1070B00001D1084610BD491C0429F7D310BD0000BA
:1070C0009AA602002DE9F0470D468146FFF7E8FF3A
:1070D0000446042836D2DFF874801B481C4EA8F101
:1070E0000C0725B3012D0ED0022D2BD104EB44004B
:1070F00030444578002D25D0B968002922D0284693
:10710000BDE8F047084704EB4401755C0E44717814
:1071100049B10E4A4FF48041093A8068FFF77CFD7F
:1071200008B987F80390B17808F80410E2E780689E
:10713000FFF78AFD04EB4401314418F804008D7810
:10714000A842D7D0BDE8F087A0A60200EC18002026
:10715000781A002070B50023042810D20D4D00EBE2
:107160004004012A02D101290CD00022094E00EB73
:107170004000304461B1012906D0022906D007231E
:10718000184670BD0E30C2B22A55F9E74270F7E7D3
:107190008270F5E7781A0020044A0146002012792F
:1071A000D20702D0084600F04DB87047E018002022
:1071B00070B506461E480024C0E90161B00720D51D
:1071C0000025012211462846FFF7C4FF6D1C044626
:1071D000042D02D2002CF4D013E094B940F23332E3
:1071E00004211448FFF74AFC04000AD1FFF734FCDD
:1071F000040006D10F48104A0021001FFFF7D2FCFF
:107200000446F00712D00120FFF7DCFE74B90948EC
:107210000A4A00210C38FFF7C5FC040006D10548D6
:10722000074A01210838FFF7BDFC0446204670BD1F
:10723000E0180020ACA6020011750200497C020093
:10724000516A02002DE9F05F6E4C05460026607819
:10725000B34618B184F801B000F0DEFC6A4F4FF479
:107260007A694FF4C87A4FF00108182D69D2DFE827
:1072700005F00C1313384754696E727B727BC5841A
:1072800084848484B3B6B9BCC5C500F0C5FC386835
:10729000FFF7DAFC06465CE00020FFF7DFFE00287F
:1072A0004FF0000008D0FFF7C9FE022D02D14FF4C5
:1072B000E16008E0484606E0FFF7C8FE022D01D174
:1072C000C82000E05046410CC0034FF47A72801889
:1072D00041F10001257052000023FFF783F80146B9
:1072E0002AE00020FFF7BAFE00284FF0000004D08B
:1072F000FFF7A4FE4FF44870E5E7FFF7A7FEDFE7CE
:107300000020FFF7ABFE00284FF0000002D0FFF78F
:1073100095FECFE7FFF79AFED4E70020FFF79EFE29
:1073200000284FF0000002D0FFF788FE01E0FFF7D1
:107330008DFE257040F6CD4100223868FFF76CFCC9
:10734000064646E00020FFF767FE257008E00020B3
:1073500051E025703DE084F801800120FFF75CFEDC
:10736000002240F26661E8E784F801800120FFF71F
:1073700053FE00224FF40051DFE77868FFF764FC0A
:107380000646D5F1110000D02EB10220FFF756FEBF
:1073900084F802B01DE0012816D980B2C821484304
:1073A000C117C90341EA5041C0034FF47A728018F3
:1073B00041F1000152000023FFF714F801460022BA
:1073C0007868FFF729FC06460220FFF73FFE84F8A5
:1073D00002803046BDE8F09F00F01EFCB9E700F0E7
:1073E0001BFCB4E700F018FC04E000F015FC0020E2
:1073F000FFF72CFE0120FFF729FEAAE7FFF747FE63
:10740000A7E70000E0180020A0A602002DE9F84F31
:107410000546861C00208DF8000091460F464FF06F
:10742000010A6846FFF716FC1B4C04F21C48606812
:107430003860D4E90101194F401A3968081A0EE082
:107440000121404600F0F0FD00F008FC01464046F6
:1074500000F0EAFDD4E90101401A3968081A401C1D
:107460008642EDD8B9F1000F03D0052065F38910ED
:1074700002E0062065F39F5061683A68114004EB12
:107480008101C8606068304460609DF80000FFF7CB
:1074900005FC5046BDE8F88FB01D00208019002083
:1074A00070B50D4604460A2902D10D21FFF7F8FFF9
:1074B000A0682268411CA1601554D4E901018142F1
:1074C00004D32046BDE8704000F0AFBE70BD0000A0
:1074D000044881684068814201D101207047002042
:1074E00070470000B01D0020034630B5074800215A
:1074F0000478426806E000BF02EBC10005789D42B7
:1075000003D0491CA142F7DB002030BD1019002038
:1075100000780221FFF7D6BD05494FF0FF32082859
:1075200041F8202002D3084480F84820704700002A
:10753000BC1A0020F0B54FF0FF3512B10023082629
:1075400001E008230C260C4C05E000BF54F8237022
:107550007F1C04D05B1CB342F8D32846F0BD26182C
:107560005DB286F8305044F82310002AF5D1E118B6
:1075700081F84800F1E70000BC1A002002490844E5
:1075800090F9300070470000BC1A002070B5084C1C
:10759000050009D010342168002907D00868206050
:1075A000496828468847F6E70834F4E770BD0000CC
:1075B000A81A0020054A012120B1012805D19170A7
:1075C000FFF7E4BF51700020FAE77047A81A0020C7
:1075D00010B5D0E90234D1E90220D11AA04101D37B
:1075E000012010BD002010BD2DE9F041178806468E
:1075F000B81D14460D46984202D90C20BDE8F08112
:107600003188072206290AD34FF4486C4FF6FF73DE
:10761000614501D9994202D17088062801D21046ED
:10762000ECE7604501D99842F9D1994203D09842DC
:1076300001D08142F3D80520E85520881221401C52
:1076400080B2208029542088401C80B220804119BB
:10765000308802F0FCFE2188084480B22080411965
:10766000708802F0F4FE2188084420800020C5E7DD
:1076700070B500240F4D10E0686800EBC406307848
:1076800001F0B0FE7178012901D0012100E0002154
:107690004140307800F05CF9641C28788442EBDBD0
:1076A000D5E90401084303D0BDE8704002F01CBDD9
:1076B00070BD00001019002010B50021024800F034
:1076C000BEFC80F3100010BDCC2100204FF48032AE
:1076D0008A400168C1F848230068C0F80823704751
:1076E0004FF4A07202EB810189B200F0A1B92DE93B
:1076F000F04105460E464FF4A07000EB860081B2C3
:1077000028684FF48034B440984622F07F47C0F890
:1077100008432868C0F84843286801F007FB286838
:1077200000EB8600C0F840752868C0F84443B8F103
:10773000000F02D02868C0F80443BDE8F08100685B
:10774000D0F804057047000070B54379234C44F825
:1077500023204279231D03EBC202224C1579204AD3
:10776000121BD4082DB10825022000EB04401EA1F5
:1077700030E005680A88C5F8082590F90420897862
:10778000002A4FEA411104DB02F1E02282F80014E2
:1077900005E002F00F0202F1E02282F8141D90F9D8
:1077A00004100122002909DB01F01F0502FA05F58A
:1077B0004909890001F1E021C1F800514179002512
:1077C00003EBC1010A71417943F83100032000EB5A
:1077D00004400EA101F0F0F8284670BD4C190020BD
:1077E000B4B002007CB0020052544320696E73743E
:1077F000616E636520616C726561647920696E6990
:107800007469616C697A65642E0000005254433AD1
:1078100020696E697469616C697A65642E00000084
:1078200090F90400002809DB00F01F0201219140BB
:107830004009800000F1E020C0F8001270470A46BD
:10784000022100F07BB84FF4827100F0F1B80068BB
:1078500001210160704700680121416070472DE9F6
:10786000F05F07460C464FF4A07000EB84001FFA4F
:1078700080FA38684FF48036A6409B4622F07F4558
:10788000C0F848633868C0F808633868D0F80485E1
:1078900000EB8402D2F84095C2F840855146386822
:1078A00001F044FAA9EB080020F07F40012806D13E
:1078B000102001F0D9FC5146386801F037FA3868D9
:1078C000D0F80485C0F84463A5EB080121F07F419E
:1078D0003868012900EB840010D0C0F840553868A2
:1078E000D0F804156FF07F4C6A1A521E22F07F42C6
:1078F000ACEB0B03934217D362B118E06D1CC0F8D8
:107900004055102001F0B0FC3868D0F8040540451F
:107910000AD10CE000EB84006D1CC0F840553868BB
:10792000D0F80405884202D00D20BDE8F09F012266
:107930003146384600F002F80020F6E70368C3F845
:107940004413002A02D00068C0F8041370470000F6
:107950002DE9F84F0E463449804601EB5001C0072F
:10796000097801D00F0901E001F00F074FF000097D
:10797000424601204946FEF766FDDFF8B0A0044606
:107980000D46052F4ED2DFE807F003161B282C000A
:10799000002E47D00121404602F0C0FA8DF8009039
:1079A0006846FFF757F95046D0E904120C431543D7
:1079B000CAE9044532E00EB1022114E0002112E0D0
:1079C0004EB10321404602F0A9FA4046BDE8F84F07
:1079D000012102F0E1BD012105E0002E22D10421A8
:1079E00001E02EB103214046BDE8F84F02F096BAFF
:1079F0000021404602F092FA0021404602F0CCFD00
:107A00008DF800906846FFF725F95046E243D0E92B
:107A100004341A4024EA0501CAE904219DF8000053
:107A2000FFF73CF9BDE8F88F881B002010190020F3
:107A300010B5006842581AB101F078F9012010BD64
:107A4000002010BD10B50B48FFF779FE094A083A2F
:107A5000D2E90434C018D2E9063244F10001C31A55
:107A600071EB020204D24FF08072801841F10001E4
:107A700010BD00003019002010B5C0B2FFF734FD72
:107A80000446007801F0AEFC01466078012801D080
:107A9000012000E0002090EA010F08D00449D1E95C
:107AA0000401084303D1BDE8104002F01DBB10BD26
:107AB000101900202DE9FC5F0E008346DDE90C471C
:107AC000C6F1000098469246814600D4084601253A
:107AD00003E000BF90FBFAF06D1C5045FADAA845B0
:107AE00000D9454624B1002E01DB780700D5641E7D
:107AF000B80702D5B8F1000F0AD0F80708D13CB199
:107B0000A54205D220215846641EFFF7C9FCF6E7BE
:107B1000002E02DA4E462D2102E0780703D52B21F4
:107B20005846FFF7BDFC07F0030002280BD1B8F15F
:107B3000000F08D13CB1A54205D230215846641E41
:107B4000FFF7AEFCF6E7CDE9004743465246314623
:107B5000584602F081FCBDE8FC9F000070B50D4660
:107B6000044600684FF4887101F032FB4FF49071C5
:107B7000206801F02DFB4FF49271206801F028FB82
:107B80004FF4A271206801F023FB4FF4AC71206820
:107B900001F01EFB20681249C0F804132068690731
:107BA00040F30730090E002804DB00F1E02080F8E4
:107BB000001405E000F00F0000F1E02080F8141D33
:107BC000206840F30730002809DB00F01F02012184
:107BD00091404009800000F1E020C0F8001170BD24
:107BE00010034200024600201268530713D502F02A
:107BF0000300012802D002280CD105E0C2F3831053
:107C00000B68801C184404E00223086803EB9252BE
:107C100010440860012070470A4810B5807860B1B0
:107C2000002401E0022C06D02046FFF707FA641C6E
:107C3000042CF7D310BD0324F6E7BDE81040FFF78E
:107C40001DBA0000E018002003480179C90702D0DE
:107C50000078FFF7F7BA7047E01800202DE9FF41E0
:107C60000026244800F0DDF92248001F074600F0F6
:107C7000D8F9214C2149A06800900D6800E00098D7
:107C80006946284004EB80000C30FFF7ABFF00286A
:107C9000F5D101AA009901EA050304EB8303491C0D
:107CA000DB6842F82030401C00910228F2D3019892
:107CB00000F0030001280BD0022810D10198032105
:107CC00001EB90500099BDF80A6001EB900005E0CF
:107CD0000198BDF80A60C0F383100844009038464C
:107CE00000F09CF908B10098A06004B03046BDE8EF
:107CF000F0810000C8210020B01D00208019002064
:107D000008B54FF48041002000F0C2FE08B1FEF734
:107D100037FF00F027FDFEF751FF08B1FEF730FFF7
:107D200000210120FFF744FA08B1FEF729FF00F017
:107D3000B9FF08B1FEF724FF01F04CF908B1FEF7D6
:107D40001FFF002000906946012000F0FFFF08B1EE
:107D5000FEF716FF684601F077F808B1FEF710FF4E
:107D6000FEF716FE15481649401AC008032101EB1C
:107D7000004014A100F020FE18480121007873DFB4
:107D800008B1FEF7FDFE0220FFF706FA08B1FEF784
:107D9000F7FE4FF47A76124D5FEA861702F0B6FBD3
:107DA0003446691C38468847641EFAD100F0E8FC66
:107DB0000028F3D100F08AFFF0E70000CCB0020009
:107DC0007CB00200426561636F6E206578616D7002
:107DD0006C6520737461727465642E00C81800208D
:107DE00090A6020070B5144682880E46054620888B
:107DF000111D0144921C994201D8FE2A01D90C2080
:107E000070BD521C32542088FF21401C80B220805B
:107E100031542088401C80B220808119288802F0CB
:107E200016FB2188084480B22080AA8842B1A96844
:107E300041B13044FEF71AFB2088A988084420800D
:107E4000002070BD072070BD2DE9F047C5881E1DBC
:107E5000B6FBF5F78946B6FBF5F1044605FB176C52
:107E6000407916686843DDF820A0F718001F8742A4
:107E700000D9C61A166001E02468491E0029FBD10A
:107E8000A5EB0C078846B74216D818E004EB0C00A7
:107E9000001D09EB0803BAF1000F3A4602D0014673
:107EA000184600E01946FEF7E1FA2468F61B4FF089
:107EB000000CB844B54201D9374600E02F46002EE9
:107EC000E4D1BDE8F087000030B5024651B100F0C2
:107ED000F3FD0021074C08E034F821301568AB426F
:107EE00002D11160002030BD491C8142F4D305202D
:107EF00030BD000000000000F8B50F4601781446C0
:107F00000546012901D1687830B12088821C9A4247
:107F100032D8012902D006E00720F8BD6978014473
:107F2000891C994228D8181A801E86B2ADF80060C4
:107F30002188B81C084469467DDF0028EDD12978E6
:107F4000022904D06878BDF80020904205D3BDF81E
:107F50000000B04201D809200AE00820012905D11B
:107F60006978B14202D8ADF8001001E0ADF80060C8
:107F7000BDF80010FE2901D90C20F8BD2288491C4B
:107F8000B9542188491C89B2218078542088401C2A
:107F90002080BDF80010084420800020F8BD10B5F6
:107FA00031B1B2FBF3F403FB14241CB1092010BD62
:107FB0000E2010BD01600021416081608281C3817B
:107FC000084610BD70B50C460546FEF723F900289B
:107FD00002D021882868084470BD10B50A884988F5
:107FE0008A4203D1FEF758F9012010BD002010BDD0
:107FF00070B50C460546FEF732F9002802D06188BC
:108000002868084470BD10B50A8849888A4203D19F
:10801000FEF71CF9012010BD002010BD002100F06A
:1080200009B8012100F010B808B56A46FEF789F9D1
:10803000009808BD08B56A46FEF769F908BD08B59D
:108040006A46FEF74BF908BD08B56A46FEF752F9D5
:10805000009808BD08B56A46FEF780F9009808BD8B
:1080600038B5044600258DF800506846FEF7F2FD4D
:1080700021686268086890420ED9401E0860017845
:10808000238AE26801FB0325227A2168101AC0B214
:108090000A79824200D208719DF80000FEF7FEFDC9
:1080A000284638BD38B5054600208DF800000C463E
:1080B0006846FEF7CFFDE868298A201AB0FBF1F187
:1080C0002A681068431C136001709DF80000FEF7D9
:1080D000E5FD38BD10B530B1017A42680368891AF0
:1080E000C9B21A6006E00E2010BD03681A68541C5D
:1080F0001C601170491EC9B2F7D2006800210171DD
:10810000084610BDC20800F007030120895C9840B2
:108110000840704700F180400068002800D001202E
:10812000704708B500F180400021016000680090B0
:1081300008BD000070B50D4C0125207808B18526DA
:108140000EE00020A06060602061E060084801F05F
:1081500063F8064600F08AFF08B901F047F8257079
:1081600001F03CF800B1A570304670BDA81A00209F
:10817000B575020038B500258DF800506846FEF749
:1081800069FD084CE068401EE060E06828B901F035
:1081900025F810B901F050F8A5709DF80000FEF721
:1081A0007DFD38BDA81A0020F0B5054604781548B5
:1081B00089B0164640F82420124A0869121DA2F11F
:1081C000080742F82400487F385520226846FEF709
:1081D0004DF904942878385C48B10EB10A4A00E0A1
:1081E00000226946281D01F0B7FA09B0F0BD0EB1B2
:1081F000064A00E00022694605F10C0001F076F91C
:10820000F3E70000F41800200DA3020055A10200BE
:108210000FB408B50399002904D004AA00926A4655
:1082200000F00FF801B05DF814FB10B58268044649
:10823000002A05D0D4E90403216898470020A060F3
:1082400010BD2DE9FC4791460C00804676D014F80D
:10825000011B39B125290ED04046FFF721F92078BE
:108260000028F4D198F80C00002867D04046BDE8FB
:10827000FC47FFF7DABF0020012221782B291BD011
:108280002D2902D0302908D102E040F0010001E0A0
:1082900040F00200641C002AEFD100252A290ED0EC
:1082A0002178A1F130020A2A11D205EB850201EBF7
:1082B0004205641C303DF1E740F00400EAE7D9F8DC
:1082C00000100B1DC9F800300968641C0D442178AA
:1082D00000232E290BD114F8011FA1F130020A2A24
:1082E00005D203EB830201EB4203303BF3E76C2939
:1082F0000DD068290BD0692921D00BDC252918D095
:10830000582931D063290ED0642915D117E014F80B
:10831000011FECE7702969D0732932D075291BD071
:10832000782909D120E0D9F80000011DC9F8001012
:1083300001784046FFF7B4F8641C90E76CE0D9F888
:1083400000100A1DC9F800200968CDE900500A2272
:108350004046FFF7AFFBEFE7D9F800100A1DC9F858
:10836000002009680A2206E0D9F800100A1DC9F8A1
:10837000002009681022CDE90050404602F06CF858
:10838000DAE7D9F8001000270A1DC9F800200E68A6
:10839000C00705D112E04046761C7F1CFFF780F82D
:1083A00031780029F7D104E0202140466D1EFFF707
:1083B00077F8BD42C0D9002DF6D1BDE74EB13046A9
:1083C000FEF778F8074604E0202140466D1EFFF7CF
:1083D00067F8BD4206D9002DF6D103E04046761C71
:1083E000FFF75EF831780029F8D1A5E7D9F8000049
:1083F000011DC9F80010056830214046FFF750F80C
:1084000078214046FFF74CF808200021CDE9000113
:10841000034610222946B0E7BDE8FC8770B541EA63
:108420004201DDE904564FF0A04441EA830141EAEC
:10843000052104EB800041EA0641C0F8001770BD39
:1084400070B541EA4201DDE904564FF0A04441EA2B
:10845000830141EA052104EB800041EA0641C0F8AE
:10846000001770BD70B541EA4201DDE904564FF0D6
:10847000A04441EA830141EA052104EB800041EA7E
:108480000641C0F8001770BD70B541EA4201DDE950
:1084900004564FF0A04441EA830141EA052104EB70
:1084A000800041EA0641C0F8001770BD1CB50021EC
:1084B00000910B4601220191FFF7D4FF1CBD1CB5B2
:1084C000002100910B4601220191FFF7DDFF1CBD49
:1084D0001CB500220B46009211460192FFF7C2FF25
:1084E0001CBD1CB500220B46009211460192FFF7FD
:1084F000CBFF1CBD1CB5002100910B460122019150
:108500001146FFF7AFFF1CBD1CB5002100910B46C3
:10851000012201911146FFF7B7FF1CBD4FF0A042A9
:1085200002EB8000D0F8002722F44032C0F8002788
:10853000D0F8002742EA0141C0F800177047000058
:1085400038B5094B44181B6800936B4608E000BF20
:1085500053F82010D1F8205520C2C1F82055401CF6
:108560008442F5D838BD0000CCA6020042094FF085
:10857000000100D1491E00F01F00012282400A4282
:1085800001D0012070470020704701224FF0A04326
:10859000824011B1C3F808257047C3F80C25704715
:1085A000034908B50844002101600068009008BD37
:1085B0000060004002494058012800D00020704768
:1085C0000060004030B5154A01460020D2F8104442
:1085D00023460AE0DB681D79854205D1401C0A2844
:1085E000F6DB4FF0FF3030BD1B68002BF2D1431C8F
:1085F000F9D0CB681871D2F8103443B1DB68CC687D
:108600001B682360D2F81024D268116030BDC2F814
:108610001014C96800220A6030BD0000B01D00209F
:10862000F0B595B01C4615460F4608461A9E00F058
:1086300013FB182109A8FDF732FF0E96CDE9095466
:108640000023082203A9384600F01BFB059806907A
:10865000BDF81000ADF81C00BDF81200ADF81E000A
:1086600000208DF821000398082600F0030001285F
:1086700002D0022818D032E003983346850AC0F3AE
:10868000C2008DF8200003980FA9C0F38314A20044
:10869000384600F0F6FA09A8009006AB22460FA96A
:1086A000284600F035FA1AE00398840DC0F3C200A2
:1086B0008DF82000082C01D2254600E0082533461D
:1086C0002A460FA9384600F0DCFA2E44641B09AB99
:1086D00006AA29460FA800F083F9002CEAD13846F3
:1086E00000F0C0FA15B0F0BD7047012001F050BD98
:1086F000084810B50178084A515C19B1001D01F015
:10870000C5F802E00C3000F0BFFFBDE810400020CB
:1087100001F03EBD64190020F018002008B5034A9E
:1087200000924023024AFFF77BFF08BDD99D02005B
:10873000181C00200A4A012902EBC00007D00229B8
:1087400007D0032907D0042907D000207047022052
:1087500070470420704700797047407970470000E7
:108760007CB0020010B5FFF7C0FF04210348FFF7FB
:1087700029FF02490120C968487110BD6CB0020090
:108780002DE9F04F8DB0FEF7A3FE18B100200DB01B
:10879000BDE8F08F7E4C4FF0000BC4F818B4BFF367
:1087A0004F8F7C49A06802900D68D846284004EBA2
:1087B00080000BE0D4F8180470B961680298814217
:1087C00001D8A160E2E7284004EB80000C3002A948
:1087D000FFF708FA0028EDD1002005AA029901EA66
:1087E000050304EB8303491CDB6842F82030401C7E
:1087F00002910228F2D3059800F00300022802D06B
:1088000001284DD0AAE005985022810D8946B2EB8F
:10881000905F00D850210E4666F39F5005900831B6
:108820005D4800F0D0F9070078D000F015FA434613
:10883000082205A9384600F02CFA029908F1080A26
:108840002940681A8000001D864222D9504D0C35FF
:1088500030B1C2B204EB8101301A90460C3104E011
:108860002946F2B2002590462846C6B253463846FD
:1088700000F00FFA0AEB080325B1324629463846C4
:1088800000F007FA029909F1030001EB9000029051
:108890003BE004EB81015346324638460C31EFE7AA
:1088A0000598C0F38310062800D30620059960F3CD
:1088B0008911C1F38310801C05918100364800F0B6
:1088C00082F907004AD000F0C7F94346082205A9FB
:1088D000384600F0DEF908F1080800260FE002989B
:1088E000434600EA0501401C04EB8101029004228A
:1088F00038460C3100F0CDF908F10408761C0598D3
:10890000C0F38310B042EAD847B1D4F81054D4F879
:10891000180478B1384600F0A5F934E01EE0E868A4
:108920004079012804D12A682846394612689047C0
:10893000E8680568002DF2D1384600F093F98DF80B
:1089400000B06846FEF786F9D4F8180408B9029812
:10895000A0609DF80000FEF7A1F914E0D4F81044DF
:1089600005E02168204689688847E0680468002C93
:10897000F7D10A480A49401AC008022101EB004019
:1089800008A100F019F8FEF7A3FD80F00100FEE653
:10899000B01D002080190020ECB00200CCB0020015
:1089A0007CB002004261636B656E647320666C7517
:1089B000736865640000000000231A4601F0C6BA1F
:1089C00008B5012300926A4601F0C0FA08BD1CB543
:1089D000CDE9002302236A4601F0B8FA1CBD00006D
:1089E0002DE9F0470E4680461C469246082940D89D
:1089F00094F80C90002020731946104601F070F88E
:108A00000025B54206D218F805201BA12046FFF725
:108A1000FFFB03E01AA12046FFF7FAFB6D1C082DAF
:108A2000EFD318A12046FFF7F3FB0025B54212D281
:108A300018F805707E2F08D8FDF714FD0068C05D9A
:108A400010F03E0F01D03A4600E02E220EA1204643
:108A5000FFF7DEFB03E00DA12046FFF7D9FB6D1CFD
:108A6000082DE3D301222146504601F01BF884F87B
:108A70000C90BDE8F087000020253032780000001F
:108A8000202020007C000000256300002000000062
:108A9000064910B500200870054800F0E1F80028EC
:108AA00003D1044800F034F9002010BDB01D0020AF
:108AB000ECB00200A4A8020002480349401AC00812
:108AC00070470000ECB002007CB0020013B56846AD
:108AD000FFF7FAF908B100201CBD0248009950F8D0
:108AE00031001CBD7CB0020070B508480125D0F8EB
:108AF0001044057007E0E068457121682046496828
:108B00008847E0680468002CF5D170BDB01D0020D6
:108B10002DE9FF4781460C9D00200C462F7B2873D2
:108B2000984616462946184600F0DAFF072E42D22C
:108B3000DFE806F004090F161F2A360049462846CA
:108B4000FFF766FB37E0494628462268FFF760FBDF
:108B500031E0D4E9002349462846FFF759FB2AE0D3
:108B6000A0680090D4E9002349462846FFF750FB4F
:108B700021E0D4E90201CDE90001D4E9002349460E
:108B80002846FFF745FB16E004F1080007C88DE80A
:108B90000700D4E9002349462846FFF739FB0AE0DD
:108BA00004F108000FC88DE80F00D4E900234946FE
:108BB0002846FFF72DFB00222946404600F072FFB1
:108BC0002F73BDE8FF872DE9F041058A80462D1FF0
:108BD0004819C01CB0FBF5F0C6B24046FFF740FA9A
:108BE000041E19D00020207101206071E58000274B
:108BF0002546761EC4F800800BE04046FFF730FAA9
:108C000060B16179491C6171286005467F1CC0F81C
:108C10000080B742F1D32046BDE8F081204600F045
:108C200002F80020F8E72DE9F041457901466B1E76
:108C3000002201E00968521C9A42FBD30F680146EA
:108C4000002605E038460C68FFF72CFA2146761C12
:108C5000AE42F7D3BDE8F0810121001DFFF7E4B972
:108C6000FFF738BA10B504460121001DFFF7F2F9ED
:108C700010F0FF0F04D12046BDE81040FFF7D3BF2E
:108C800010BD1CB501920122009201AAFFF7DCF889
:108C90001CBD1CB501920022009201AAFFF7D4F876
:108CA0001CBD0000064910B500204870091D086071
:108CB000BFF35F8F0349044800F0FCF9002010BDAA
:108CC0005819002030A702000C1C002008B5002015
:108CD0008DF800006846FDF7BDFFF1EE100A20F0A8
:108CE0009F00E1EE100ABFF35F8F08494020C1F8F2
:108CF00080029DF80000FDF7D1FF00F0B7F908B140
:108D000041DF08BD20BF40BF20BF08BD04E000E038
:108D10008268002191608268116182685161826875
:108D2000D1608268516080680160704708B5002298
:108D300042504058009008BD20B1034909680160C5
:108D4000002070470E20704728A90200FEB5024699
:108D50000E460846FFF7F0FF002866D10024009475
:108D60008DF8002001208DF8020001940620ADF856
:108D70000400029469462020326869DF2B492C4A9E
:108D8000891AC908012202EB014530B100F000FA4E
:108D9000024628462749FFF713FE00948DF801404C
:108DA0008DF80240019402948DF8034069464020FA
:108DB000326869DF30B100F0EBF9024628461E49FF
:108DC000FFF7FEFD0094019402948DF8004069467F
:108DD0000120326869DF30B100F0DAF90246284636
:108DE0001649FFF7EDFDF8200090019402946946C2
:108DF000A120326869DF30B100F0CAF90246284686
:108E00000F49FFF7DDFD0094019402948DF80040B6
:108E10006946A020326869DF30B100F0B9F9024636
:108E200028460849FFF7CCFD0020FEBDDCB002005B
:108E30007CB0020024AF02006CAF020084AE0200DE
:108E4000D0AE020030AE02002DE9F04105460768C1
:108E500060DF804619491A482A68081AC608BA42CB
:108E600019D9022000EB064416A12046FFF7A4FD05
:108E700020463A461FA12B68FFF7A9FD4FF080500E
:108E8000D0F80C012968800200F10050421A2046F7
:108E900025A1FFF795FDB8F100004FF001040AD0BD
:108EA00000F076F9024604EB06402AA1FFF788FDA0
:108EB0004046BDE8F0812F480470F9E7DCB00200BD
:108EC0007CB00200496E73756666696369656E748D
:108ED0002052414D20616C6C6F6361746564206643
:108EE0006F722074686520536F6674446576696399
:108EF000652E00004368616E6765207468652052C6
:108F0000414D207374617274206C6F636174696F7A
:108F10006E2066726F6D203078257820746F203057
:108F20007825782E000000004D6178696D756D2000
:108F300052414D2073697A6520666F7220617070AE
:108F40006C69636174696F6E20697320307825786D
:108F50002E00000073645F626C655F656E61626C19
:108F60006528292072657475726E65642025732EDC
:108F700000000000D719002030B5144891B00078E7
:108F8000002820D05FF03405ADF8405010A903A8A8
:108F900061DF30B1052816D011B0BDE83040FDF7D3
:108FA000EFBD03AC0A49684600F084F807E000BF53
:108FB000D0E9002120469047684600F092F80298D8
:108FC0000028E1D0F4E711B030BD0000D71900202F
:108FD0002CA902007CB5194C207808B108207CBD72
:108FE0000120A070002000F0C9FE112819D0002037
:108FF00000F0DCFE12480026006801908DF8006049
:109000006846FDF727FE0F4901A810DF05000AD0CA
:10901000002020709DF80000FDF740FE2DB128468D
:109020007CBD00207CBD0120F3E7A670667000F0D7
:1090300043FF012000F0BAFEF3E70000D41900203E
:10904000C0A80200FD6A02000EB50749684600F09C
:1090500031F805E0D0E900108847684600F041F893
:1090600002980028F6D10EBDDCA802000148007865
:1090700070470000D41900201FB568464BDF30B19F
:10908000052814D004B0BDE81040FDF779BD0849AB
:1090900001A800F00FF806E0D0E900210098904701
:1090A00001A800F01EF803980028E6D0F4E71FBDE1
:1090B00048A90200016009684160AFF3008010B563
:1090C000D0E900215368994201D1002104E0D1E99F
:1090D0000034A34202D01946816010BD08314160BE
:1090E000F0E7816800290BD0026892680A44826028
:1090F00041684B689A4203D108314160FFF7DFBFF6
:10910000704770B50D460646446804E0B2682946CB
:10911000904718B1246820680028F7D1206828609B
:10912000256070BD40680068704741680868002885
:1091300001D002680A60704702460020526806E0CB
:109140008B4203D108681060012070471A461368EB
:10915000002BF5D1704700000C4A10B502F594734E
:109160000EE0991AC91001EBD171491002EBC1014F
:109170000C68844201D90B4602E005D201F10802D5
:109180009A42EED3002010BD486810BD50A70200DF
:1091900000B5FFF7E1FF002800D1014800BD000045
:1091A0003CA702004058002800D00120704708B5B5
:1091B000002242504058009008BDD0F804030840F7
:1091C00000D0012070474058002800D0012070478F
:1091D00008B5002242504058009008BD024800687F
:1091E000002800D0012070470004014008480068B2
:1091F000012110F0010F06D14FF0E020C02280F8CD
:1092000000248430C16703490120086070470000D2
:1092100000E100E0180500400649024600200B79F5
:109220000BB1852070470A6001220A7100224A7141
:1092300070470000FC180020022010B54107C1F85B
:1092400008034FF48270FEF76CFF054901200860A7
:1092500004480168C1F300410029FAD110BD0000A3
:109260000C00004018040040002802D00149800191
:109270000847704701A702002DE9F0410E46054658
:1092800000F096FB0028284619D0FEF777F9083839
:1092900000F000FC032802D001280ED007E04FF0B8
:1092A000A040D0F81005E84010F0010F05D00321D0
:1092B0002846BDE8F041FFF731B90221F8E700F098
:1092C00083FB002822D02846FEF758F904464FF4C5
:1092D000807000EB84000E4F81B207EB8400D0F861
:1092E000102542F00102C0F810250846FFF758F992
:1092F000002E0BD02846FEF741F9064951F8200010
:10930000002803D00120A040C7F80403BDE8F08185
:1093100000600040BC1A00202DE9FC41DFF8B88055
:10932000044608EB0400002790F930001346C017EC
:109330000E46401C01D008274AE0B0781946C0F319
:1093400040022046FEF7F6F80546401C3FD0B078B4
:10935000410717D4C0070AD04FF0A04000EB8400AB
:10936000D0F8001721F00201C0F8001707E0002133
:109370007378204600910A460191FFF761F8204674
:1093800000F008FBB078800718D51448317800EB5E
:109390008500D0F81025124B1A40C0F810254FF464
:1093A000F8524FF4403302EA042203EA01410A432F
:1093B000D0F810150A43C0F8102509E008EB0500A5
:1093C000327810F8481F41EA8211017000E004274A
:1093D0003846BDE8FC810000BC1A00200060004057
:1093E000FFE0FCFF4FF0A041D1F81015C14011F093
:1093F000010000D00120704770B5194D95F8580054
:1094000008B1082070BD0024661E2046FFF7AEF8A4
:1094100010B1281980F83060641CE4B2202CF4D319
:1094200000242046FEF778F8641CE4B20C2CF8D334
:1094300000200D4968650B4CC02081F8000401260E
:109440004020891FC1F800014FF4BE70FFF7A8F853
:10945000A004C4F8040385F85860002070BD000023
:10946000BC1A00200060004006E000E0034890F8CD
:109470005800002800D0012070470000BC1A0020CE
:109480000121B1EB507F01D10120704700207047CE
:1094900038B50D4600F070FB040014D000208DF8A4
:1094A00000006846FDF7D6FB207928B19DF8000042
:1094B000FDF7F4FB112038BD0120256020719DF8D7
:1094C0000000FDF7EBFB002038BD10B500F054FBA9
:1094D000002802D000210160017110BD014902483D
:1094E00000F07EBE181B0020002000402DE9F04156
:1094F0000546007916460F4600EB40012D4A01EB68
:10950000C00102EB810494F82A1011B10820BDE8D3
:10951000F081294951F820102868FFF7B9FF08B1F8
:109520001120F4E739462846FDF7D2FB666038691A
:10953000206030004FF001062FD03F7F4FF48E7136
:109540002868FFF734FE4FF4A2712868FFF72FFE5A
:1095500028681A49C0F8041328684FEA471140F3F5
:109560000730002804DB00F1E02080F8001405E05B
:1095700000F00F0000F1E02080F8141D286840F38F
:109580000730002809DB00F01F0106FA01F140094D
:10959000800000F1E020C0F8001128680421C0F824
:1095A00000150020A061E06184F8290044F8140F40
:1095B000A675ACE7181B0020D0A6020080000200B0
:1095C0002DE9F05F054600790B4600EB400101EB09
:1095D000C000244901EB8004284600F045F810B192
:1095E0001120BDE8F09F62614FF00009C4F820909F
:1095F000A36084F828904FF48E784E464146286840
:10960000FFF7D5FD28684FF0010AC0F808A02146F1
:10961000286800F075FD606808BBD5F800B0676980
:109620000FE000BF94F8280008B10F2615E041466E
:109630005846FFF7B7FD0028F4D02146584600F001
:109640005FFD206AB842F2D3574641462868FFF7CB
:10965000A9FD0028F9D02868C760C4F814903046E6
:10966000BFE70000181B0020007900EB400101EB70
:10967000C000044901EB80004069002800D00120AF
:1096800070470000181B00202DE9F04704460079C0
:109690004FF0000900EB400101EBC000284901EB4D
:1096A00080072068C0F800957868B0B12068254927
:1096B000C0F80813206840F3073000280DDB00F0E5
:1096C0001F02012191404009800000F1E020C0F814
:1096D0008011BFF34F8FBFF36F8F2068D0F80C2538
:1096E000D0F81485D0F80865D0F810554FF0FF3148
:1096F000C0F81415C0F80C152068C0F80815C0F89B
:109700001015501C02D01046FEF7D0FEB8F1FF3FF6
:1097100002D04046FEF7CAFE681C02D02846FEF77B
:10972000C5FE701C02D03046FEF7C0FE2068FFF771
:10973000CCFE87F82A90C7F80490BDE8F0870000B7
:10974000181B0020840202000149024800F0F6BD07
:10975000441B0020002000402DE9F041054616463C
:1097600000790F46154A00EBC00102EB810494F822
:10977000201011B10820BDE8F081114951F82010E6
:109780002868FFF785FE08B11120F4E7394628461E
:10979000FDF7E2FA6660386920601EB1397F28461D
:1097A000FEF7DCF928680821C0F800150020A06148
:1097B000E0616061012184F82010DCE7441B002097
:1097C000D4A602002DE9F04704460E460079274949
:1097D00000EBC00001EB800517463046FFF750FE56
:1097E00030B1204600F044F820B11120BDE8F087E8
:1097F0001020FBE76F61AE604FF490774FF00008E8
:1098000039462068FFF7E4FC4FF4AC763146206817
:10981000FFF7DEFC2068AA686969C0F84425C0F833
:10982000481520684FF00109C0F808906868D0B961
:10983000BA4651462068FFF7C6FC07463146206805
:10984000FFF7C1FC0743F4D010B14FF00F0808E058
:109850002068C0F80C9031462068FFF7B4FC00285F
:10986000F9D0002068614046C0E70000441B00209A
:109870000079054900EBC00001EB80004069002839
:1098800000D0012070470000441B00202DE9F04764
:10989000064600793D4900EBC00001EB80053468C5
:1098A00068680127A8B13A49C4F80813306840F342
:1098B000073000280DDB00F01F0107FA01F1400915
:1098C000800000F1E020C0F88011BFF34F8FBFF39C
:1098D0006F8FD4F8000220F02000C4F80002A869BD
:1098E0004FF4A27820B141462046FFF771FC676033
:1098F0004FF4AC7949462046FFF76AFCE7604746DB
:1099000049462046FFF75FFC0028F9D0A86928B136
:1099100039462046FFF757FC0028F1D04FF0000AE7
:10992000C4F800A53068D0F80C25D0F81495D0F80C
:109930000885D0F810754FF0FF31C0F80C15C0F84D
:1099400014153068C0F80815C0F81015501C02D066
:109950001046FEF7B4FDB9F1FF3F02D04846FEF7CE
:10996000AEFD781C02D03846FEF7A9FDB8F1FF3FE6
:1099700002D04046FEF7A3FD2046FFF7A6FD85F87E
:1099800020A0C5F804A0BDE8F0870000441B00201B
:109990001003420010B50549C20800F00703885CB7
:1099A00001249C402043885410BD0000101B00205F
:1099B0000449084490F93000082801DB0120704771
:1099C00000207047BC1A00200449084490F9300078
:1099D000082801D20120704700207047BC1A0020DF
:1099E0002DE9F05F2A4F06464FF0A04A4FF0010BD9
:1099F0000024381990F95010491C3CD090F85000C0
:109A0000314620F0C0052846FEF77CFB20B32046F7
:109A100000F040F881460AEB8500D0F80007C0F35B
:109A20000148B8F1020F18D002212846FEF776FD52
:109A30000BFA05F1CAF820152846FDF79FFD57F8E7
:109A400020204AB14846B9F1030F11D0B8F1020FF6
:109A500005D0B8F1030F07D00DE00321E5E7484634
:109A6000B9F1010F04D006E04846B9F1020F02D166
:109A7000014628469047641C042CBAD33246012183
:109A80000020FEF75DFD30680028B1D1BDE8F09FF1
:109A9000BC1A00200249084490F850008009704721
:109AA000BC1A002010B50C46017A052908D0407A6E
:109AB00038B1084808A102682046FEF7A9FB00E07B
:109AC0001AB106A12046FEF7A3FB2046BDE81040D0
:109AD000FEF7ABBBB0190020257300000D0A000093
:109AE00038B5C3880D46044633B114A0009015A2C2
:109AF00016A12846FEF78CFB217A05291CD0607A36
:109B000048B1A088FEF716FE164951F8202016A18C
:109B10002846FEF77DFBA0880021FEF7D7FF03460D
:109B20001049207A143951F8202001B02846BDE8A8
:109B300030400EA1FEF76CBB38BD00001B5B306DE2
:109B4000000000001B5B313B33316D0025734C6F0F
:109B500067732064726F70706564202825642925FE
:109B6000730D0A00B0190020257300003C25733ED8
:109B70002025733A200000000349884201D10348A0
:109B800070470020704700000020004004190020AA
:109B900070B50546FDF757FE134C40B1D4E90402F9
:109BA0004FF08071411842F10000C4E90410002117
:109BB0002846FDF795FD30B1606820B1606800F07F
:109BC0000FFA0020606001212846FDF789FD18B1D9
:109BD000FDF738FFC4E90601284600F02DFA2846B3
:109BE000BDE8704000F034B82819002070B5054673
:109BF00000200C460870FDF725FFD5E90223101A56
:109C000063EB010300263146361A994112DAB0F5AA
:109C1000350F03D3FCF7C0FF0B4942184FF49603EE
:109C200000210A48FDF71BFE10B10D2806D009E0FF
:109C3000012070BD00210548FDF748FD284600F0D1
:109C4000CFF92070002070BDFFFFB4003019002054
:109C5000F8B51A4C074600261948FFF763FAD0B149
:109C6000616871B1D0E902106268D2E90232C91AA2
:109C7000904120D26068007F18B161681048FFF7FA
:109C800040FA00F045F905466946FFF7AFFF98B185
:109C9000606840B10AE0606800280CD13846BDE831
:109CA000F840FDF7D8BD3846FDF7D1FD65609DF859
:109CB00000000028D0D1F8BD6660CDE7281900204B
:109CC000E8A6020070B5054688690C4600284FF4E6
:109CD000847128460AD0FFF76AFAD5F81805626A37
:109CE000E1688854606A401C606270BDFFF75FFAEB
:109CF000D5F8180570BD1FB501238DF80030CDE9EA
:109D00000121D0E90012684690471FBD1FB501230D
:109D10008DF80030CDE90121D0E900126846904766
:109D20001FBD000038B50021012548B1012810D021
:109D300003280DD1FFF75AFABDE83840FEF71ABAEA
:109D40004FF0E020C0F88051BFF34F8FBFF36F8F0B
:109D500038BD8DF800106846FCF77CFF064C207873
:109D600008B9FEF7E7F9E068401CE060A5709DF8CF
:109D70000000FCF793FF38BDA81A00203EB504464A
:109D800009496846FFF796F908E000BFD0E90021CD
:109D90002046904730B16846FFF7A3F902980028A3
:109DA000F4D13EBD11203EBDC4A802003EB504461C
:109DB00008496846FFF77EF907E000BFD0E90021B7
:109DC000204690476846FFF78CF902980028F5D1A5
:109DD0003EBD0000D0A8020070B50D4C0020D2B2EC
:109DE0002070201D0B4D0378EB5C1BB1001DFFF7AD
:109DF000E9FC02E00C30FFF7E3FB08B1FCF7C0FE22
:109E00006078002802D021780029FAD070BD0000C7
:109E100060190020F01800202DE9F0410746806A03
:109E200014468846C8B3002531E000BFB96A05EB87
:109E3000450001EB8006B088801CFE2802D90C206A
:109E4000BDE8F0812288401C08F802002088162214
:109E5000401C80B2208008F800202088401C80B27E
:109E6000208000EB0801308800F0F1FA21880844D6
:109E700080B22080B28842B1B16871B14044FCF731
:109E8000F5FA2088B188084420806D1CEDB297F85F
:109E90002C00A842CAD80020D2E7FFE70720CFE76E
:109EA000002805D10349012048700020FDF76EBB52
:109EB00070470000A81A002010B51620FCF756FDC8
:109EC000A0B1114890F800044009082811D20121DE
:109ED000814011F0EC0F0CD00C4882684FF48001E7
:109EE0006AB1016841F48001016010BD42F20100D5
:109EF00001E042F20200BDE81040FCF741BE4FF025
:109F0000E020C0F8001110BD16E000E0001C0020A9
:109F10000148FFF70AB90000E8A60200C207002ABC
:109F200003D000BF4FF00F0201E04FF0F00201D06C
:109F30004FEA0111044B03EB5003187800EA0200CA
:109F400040EA010018707047881B00202DE9F84F87
:109F5000074621489146884605681E460122694603
:109F60001846FDF753FADFF874A060B3009800219B
:109F70000446801C0AE000BF00EA050259F821C02F
:109F80000AEB8202401C491CC2F80CC0B142F3D358
:109F90004FEA1749FDF790FB611C29400AEB81014C
:109FA00049EA00422C40CA600AEB8401C86867F3A2
:109FB000C50066F3891068F39F2020F00300401C61
:109FC00020F00400C8609AF8000001E0FEF7D8FB1A
:109FD0000028FBD1BDE8F88F80190020B01D0020BB
:109FE00070B50446124800250078F8B1F4B1207F1E
:109FF000E0B1FDF727FDD4E90223801A994110D37F
:10A000002069002600B92677D4E905108847206921
:10A0100060B1217F51B1D4E9022110187141C4E926
:10A02000020121460348FFF76CF80125284670BD60
:10A0300028190020E8A60200F8B51B4C69462068E4
:10A04000FDF7D6FF00260127184D29E0017821B140
:10A0500001290CD002291BD114E041680A7FBAB94A
:10A060000F77416810480830FFF74BF810E041685F
:10A070006868814201D16E600AE00B480830FFF742
:10A080005BF805E0FFF744FF08B10677FAE72F70A9
:10A0900069462068FDF7A1FF69462068FDF7A8FF23
:10A0A0000028D3D1F8BD0000E0A602002819002046
:10A0B000F8B50B4C0D46064669462068FDF782FF51
:10A0C00058B10670456069462068FDF79CFF10B1E5
:10A0D0000448FDF7A5FB0020F8BD0420F8BD0000F2
:10A0E000E0A60200301900200348806841080348B8
:10A0F00000224068FCF790BD10190020D8A602008D
:10A1000070B50C4605464FF48E71FFF750F8216A82
:10A11000A068415C206A401C2062C5F81C1570BD17
:10A120001FB500228DF800200291816801914261E3
:10A13000D0E90012684690471FBD1FB500228DF878
:10A1400000200291816801914261D0E900126846C5
:10A1500090471FBD1FB50A4601788DF80010416871
:10A160000191017A8DF80810C0680390044850F8F6
:10A170002210001F50F82220684690471FBD0000A3
:10A18000F81800200149012008707047601900206C
:10A1900010B588B0044620220E496846FCF766F9DF
:10A1A00006200090C01F0190029003904FF0EB70CA
:10A1B00006900CB1084A00E0002269460748FDF706
:10A1C000F3FF08B1FCF7DCFC0448001F447008B042
:10A1D00010BD000084A8020085A1020064190020BF
:10A1E0002DE9FF470C4605464FF40071FEF7E5FFE9
:10A1F00001274FF40178002618B34FF492794946AD
:10A200002846FEF7CFFFE0B149462846FEF7CFFFCC
:10A21000C5F8088394F8290000B96F6002208DF812
:10A220000000D5F88004C5F880040390A06902906E
:10A23000E0680190A661E661D4E9001268469047A3
:10A2400028E004212846FEF7B8FF18B34FF48471C4
:10A250002846FEF7A7FFE8B121462846FFF732FD62
:10A26000616AA069884215D1E06938B1E268616A23
:10A27000A0612069E6616662E06008E094F8290068
:10A2800000B96F60C5F80883A661E268616A20467C
:10A29000FFF731FD4FF48E7841462846FEF782FFE6
:10A2A00080B16069216A814202D294F8280028B303
:10A2B00041462846FEF77BFF606918B16169204678
:10A2C000FFF72EFF4FF4A27841462846FEF76AFFBB
:10A2D000002818D041462846FEF769FF94F8290067
:10A2E00000B12F60A06900280DD0A661E268616A04
:10A2F00004B02046BDE8F047FFF7FDBC21462846E4
:10A30000FFF7FEFEDEE7BDE8FF8700001FB50A4647
:10A3100001788DF8001041680191017A8DF80810DC
:10A32000C0680390044850F82210001F50F8222003
:10A33000684690471FBD0000F81800202DE9FF4136
:10A340000C464FF4927705463946FEF73CFF00264F
:10A35000B8B139462846FEF73BFF02208DF80000D1
:10A36000D5F88004C5F880040390D5F83C05029028
:10A37000E0680190A661E661D4E900126846904762
:10A3800023E04FF4887739462846FEF71CFFE0B1FA
:10A3900039462846FEF71CFFD5F83C15A0698842CF
:10A3A00013D1E06960B1E268D5F8000220F0200026
:10A3B000C5F80002E069A0612069E661E06001E0A3
:10A3C000A661E2682046FFF7A1FC4FF4A277394668
:10A3D0002846FEF7F8FE68B139462846FEF7F8FE33
:10A3E000A06938B1A661E661D5F83C152046E2685F
:10A3F000FFF78CFC4FF4907631462846FEF7E3FEDB
:10A4000060B131462846FEF7E3FE0120E86060694E
:10A4100020B1D5F84C152046FFF78FFE4FF4AC76EF
:10A4200031462846FEF7CFFE00280ED0314628469A
:10A43000FEF7CEFE6069002807D0D5F84C1504B0B1
:10A440002046BDE8F041FFF778BEBDE8FF81087007
:10A45000000A4870022070472DE9F05F8346DDE96D
:10A460000A4A994690460D460846012703E000BF78
:10A47000B0FBF8F07F1C4045FAD2B94500D94F46F1
:10A480005FEACA7012D18CB15FEA8A7002D5B9F165
:10A49000000F01D0202607E0302605E0314658465F
:10A4A000641EFCF7FDFF0CB1A742F7D35FF0010675
:10A4B000B9F1010F02D9A9F1010903E0B5FBF6F0EA
:10A4C000404502D306FB08F6F2E7DFF83C9000BFF8
:10A4D000B5FBF6F000FB165519F800105846FCF7CE
:10A4E000DFFFB6FBF8F6002EF2D15FEACA7009D0A2
:10A4F000002C07D0A74205D220215846641EFCF745
:10A50000CFFFF5E7BDE8F09F06A7020030B5204C6D
:10A5100093B0A11C60780425401C6070087041F263
:10A520002210ADF83C0003201191ADF840003C2111
:10A530006846FBF7B4FF02208DF800000FA80990D1
:10A540008DF8035018211348FBF7A9FF1148042187
:10A55000A02201700021416001758260818104F1B7
:10A560000802684602CAFCF73BFC08B1FCF708FB8E
:10A57000207874DF0649074A0831054872DF08B1C0
:10A58000FCF7FEFA0121207873DF13B030BD000024
:10A59000C8180020DC19002070B50C460546FCF7F1
:10A5A000A3FF002807D04268002A04D0214628468D
:10A5B000BDE87040104770BD2DE9FC411646DDE94D
:10A5C0000854CDE900541F468046022200F00CF8E2
:10A5D000002807D1CDE900543B46102231464046C1
:10A5E00000F002F8BDE8FC812DE9FC5F0026DDE902
:10A5F0000C4B994692468E4680462788354630E079
:10A60000D8F80400002200EB85006946006801903C
:10A6100001A864DF002830D19DF8000050451FD10B
:10A620000EB1002100E0022122880844111859458A
:10A6300022D846B9521C90B2208009F800E0208848
:10A64000401C20800126218801A801EB09026946EF
:10A6500064DF002811D120889DF800100844208074
:10A660006D1CB8F80000A842CADC56B12088C01B97
:10A67000401E80B2FF2802D90C20BDE8FC9F09F8DB
:10A6800007000020F9E700000000000000000000C3
:10A690000338FDD87047111213140D0E0F1000006F
:10A6A000381A0020581A0020881A00200D000300D4
:10A6B000C57002000E000300C57002000F00030009
:10A6C000C570020010000300C570020000000050B9
:10A6D000DD9402004997020003000000681B00207F
:10A6E000981B00200100060000000000481900200F
:10A6F000D175020000000000000000000000000012
:10A700000338FDD870473031323334353637383975
:10A7100041424344454600000000000000000000A4
:10A720000000000000000000000000000000000029
:10A7300018A7020030A7020004000000556E6B6EDF
:10A740006F776E206572726F7220636F64650000B0
:10A750000000000054AD02000100000000AC020047
:10A7600002000000F4A902000300000074AC020023
:10A7700004000000C8AC020005000000A8AB020005
:10A780000600000044AB020007000000B0AC02006D
:10A7900008000000BCAB02000900000020AC020071
:10A7A0000A0000003CAD02000B000000DCA9020022
:10A7B0000C000000D4AB02000D000000A4AD0200AC
:10A7C0000E000000A0AC02000F000000DCAC020094
:10A7D0001000000010AD020011000000B8AD020032
:10A7E000120000008CAD02001300000028AD020032
:10A7F000800000005CAB02008100000098AA02000B
:10A800008200000058AA02008300000038AA02005B
:10A810008400000074AA02008500000080AB0200E2
:10A820008600000088AC02009000000024AB02000B
:10A830009100000018AA020092000000E8AB02009C
:10A8400000820000F0AC0200018200003CAC02007B
:10A850000282000058AC020000840000B4AA02008A
:10A860000184000060AD020002840000FCAA020026
:10A8700003840000D8AA02001D870200F1860200AE
:10A88000E9860200FFFFFFFFFFFFFFFFFFFFFFFF63
:10A89000FFFFFFFF00000000000000000000D601E5
:10A8A00006010000181D00207F000000981D0020F8
:10A8B0000000000000000000000000000000000098
:10A8C00001000007B0A80200C0A8020008000000B4
:10A8D000E8A80200F8A8020008000000F8A802009A
:10A8E00008A902000800000018B1020020B102000F
:10A8F000000000000000000008B1020018B10200D2
:10A900000000000000000000000000000000000047
:10A910000000000000000000000000000000000037
:10A920000000000000000000C818002008A9020074
:10A9300028A902000800000000B1020008B10200CE
:10A94000000000000000000038A9020048A9020031
:10A95000080000000040404040404040404041412D
:10A9600041414140404040404040404040404040E4
:10A97000404040404005020202020202020202027E
:10A98000020202020220202020202020202020027B
:10A99000020202020202909090909090101010100B
:10A9A00010101010101010101010101010101010A7
:10A9B000020202020202888888888888080808083B
:10A9C0000808080808080808080808080808080807
:10A9D000020202024000000055A902004E52465FEA
:10A9E0004552524F525F494E56414C49445F444193
:10A9F000544100004E52465F4552524F525F534FF2
:10AA000046544445564943455F4E4F545F454E4179
:10AA1000424C4544000000004E52465F4552524FA2
:10AA2000525F464541545552455F4E4F545F454E27
:10AA300041424C45440000004E52465F4552524F41
:10AA4000525F4D555445585F554E4C4F434B5F46F2
:10AA500041494C45440000004E52465F4552524F1A
:10AA6000525F4D555445585F4C4F434B5F464149EB
:10AA70004C4544004E52465F4552524F525F4D5531
:10AA80005445585F434F4E445F494E49545F4641D9
:10AA9000494C4544000000004E52465F4552524F1B
:10AAA000525F4D555445585F494E49545F464149A0
:10AAB0004C4544004E52465F4552524F525F424C05
:10AAC000455F495053505F52585F504B545F54524A
:10AAD000554E4341544544004E52465F4552524FF5
:10AAE000525F424C455F495053505F504545525F5D
:10AAF00052454A4543544544000000004E52465FCB
:10AB00004552524F525F424C455F495053505F4C43
:10AB1000494E4B5F444953434F4E4E454354454481
:10AB2000000000004E52465F4552524F525F415066
:10AB3000495F4E4F545F494D504C454D454E54452D
:10AB4000440000004E52465F4552524F525F4E4FF6
:10AB5000545F535550504F52544544004E52465F37
:10AB60004552524F525F4D4F44554C455F4E4F54E6
:10AB70005F494E495449414C495A45440000000040
:10AB80004E52465F4552524F525F4D4F44554C45D1
:10AB90005F414C52454144595F494E495449414CEB
:10ABA000495A4544000000004E52465F4552524FFC
:10ABB000525F4E4F545F464F554E44004E52465FD3
:10ABC0004552524F525F494E56414C49445F53548F
:10ABD000415445004E52465F4552524F525F4441E8
:10ABE00054415F53495A45004E52465F4552524FB9
:10ABF000525F494F5F50454E44494E4700000000A8
:10AC00004E52465F4552524F525F5356435F484142
:10AC10004E444C45525F4D495353494E4700000046
:10AC20004E52465F4552524F525F494E56414C4933
:10AC3000445F4C454E475448000000004E52465F6A
:10AC40004552524F525F4452565F5457495F4552E6
:10AC5000525F414E41434B004E52465F4552524F68
:10AC6000525F4452565F5457495F4552525F444EBB
:10AC700041434B004E52465F4552524F525F494E40
:10AC80005445524E414C00004E52465F4552524F81
:10AC9000525F53544F524147455F46554C4C00005C
:10ACA0004E52465F4552524F525F4E554C4C00003B
:10ACB0004E52465F4552524F525F494E56414C49A3
:10ACC000445F504152414D004E52465F4552524FF3
:10ACD000525F4E4F5F4D454D000000004E52465FA3
:10ACE0004552524F525F464F5242494444454E00EE
:10ACF0004E52465F4552524F525F4452565F545730
:10AD0000495F4552525F4F56455252554E00000022
:10AD10004E52465F4552524F525F494E56414C4942
:10AD2000445F4144445200004E52465F4552524FE8
:10AD3000525F5245534F5552434553004E52465F62
:10AD40004552524F525F494E56414C49445F464C22
:10AD5000414753004E52465F5355434345535300BA
:10AD60004E52465F4552524F525F424C455F4950EA
:10AD700053505F4348414E4E454C5F414C52454114
:10AD800044595F4558495354530000004E52465FA2
:10AD90004552524F525F434F4E4E5F434F554E54B4
:10ADA000000000004E52465F4552524F525F5449D8
:10ADB0004D454F55540000004E52465F4552524F8C
:10ADC000525F4255535900007761726E696E670099
:10ADD00064656275670000001B5B313B33306D00BA
:10ADE0001B5B306D000000001B5B313B33316D009D
:10ADF0001B5B313B33326D001B5B313B33336D00EA
:10AE00001B5B313B33346D001B5B313B33356D00D5
:10AE10001B5B313B33366D001B5B313B33376D00C1
:10AE2000696E666F000000006572726F720000004C
:10AE300073645F626C655F6366675F73657428291E
:10AE40002072657475726E6564202573207768655D
:10AE50006E20617474656D7074696E6720746F2004
:10AE600073657420424C455F47415454535F4346D9
:10AE7000475F534552564943455F4348414E474516
:10AE8000442E000073645F626C655F6366675F7386
:10AE9000657428292072657475726E656420257347
:10AEA000207768656E20617474656D7074696E6773
:10AEB00020746F2073657420424C455F434F4D4DA5
:10AEC0004F4E5F4346475F56535F555549442E00EA
:10AED00073645F626C655F6366675F73657428297E
:10AEE0002072657475726E656420257320776865BD
:10AEF0006E20617474656D7074696E6720746F2064
:10AF000073657420424C455F47415454535F434638
:10AF1000475F415454525F5441425F53495A452E52
:10AF20000000000073645F626C655F6366675F7357
:10AF3000657428292072657475726E6564202573A6
:10AF4000207768656E20617474656D7074696E67D2
:10AF500020746F2073657420424C455F434F4E4E02
:10AF60005F4346475F4741502E00000073645F62B5
:10AF70006C655F6366675F7365742829207265740A
:10AF800075726E6564202573207768656E20617424
:10AF900074656D7074696E6720746F2073657420BA
:10AFA000424C455F4741505F4346475F524F4C45D7
:10AFB0005F434F554E542E00636C6F636B0000006F
:10AFC000434C4F434B0000004750494F544500004D
:10AFD0005052530055415254000000005541525404
:10AFE000450000006170705F627574746F6E0000E0
:10AFF0006170705F74696D65720000007077725FD8
:10B000006D676D7400000000736F72746C69737407
:10B0100000000000756172745F6C6F675F6261634E
:10B020006B656E6400000000617070006E72665F98
:10B03000736468006E72665F7364685F626C65005B
:10B040006E72665F7364685F736F630020B10200A5
:10B05000C8180020140100004C69020034B202003C
:10B06000DC190020F42700005C69020078A80200C7
:10B070000000000014B0020078190020B8AF0200F0
:10B0800000000000C0AF020000000000C8AF0200D6
:10B0900000000000D0AF020000000000D4AF0200AA
:10B0A00000000000DCAF020000000000E4AF02007E
:10B0B00000000000F0AF020000000000FCAF020042
:10B0C0000000000008B002000000000028B00200EC
:10B0D000000003032CB002000000030334B00200A0
:10B0E0000000030340B00200000003038C1900209D
:10B0F000841900208C190020581C00201800000022
:10B10000A19E020000000000798F020000000000F4
:10B110007990020000000000259D02000000000060
:10B12000FF00010203000000F41900201F000000CE
:10B13000131A00201F0000000000000000000000A3
:10B1400000000000000000000000000000000000FF
:10B1500000000000000000000000000000000000EF
:10B1600000000000000000000000000000000000DF
:10B1700000000000000000000000000000000000CF
:10B180000000000000000000001001401100040059
:10B1900000000000000000000000000000000000AF
:10B1A000000000000000000000000000000000009F
:10B1B000000000000000000000000000000000008F
:10B1C00000200040000000000020004000000000BF
:10B1D00000000000FF000000FF0000000000000071
:10B1E000000000000000000000000000000000005F
:10B1F000000000000000000028AE0200C8AD020000
:10B2000020AE0200D0AD0200E0AD0200D8AD0200D9
:10B21000E8AD0200F0AD0200F8AD020000AE0200A1
:10B2200008AE020010AE020018AE020000000000DE
:04B230000090D003B7
:040000050002620192
:00000001FF
