:020000040002F8
:10700000E0410020C1730200C9730200CB7302008B
:10701000CD730200CF730200D173020000000000A4
:10702000000000000000000000000000D373020018
:10703000D573020000000000D7730200D97302006C
:10704000AD750200DB730200ED770200DB73020016
:10705000DB730200DB73020009750200DB730200C0
:10706000DB730200DB730200DB730200DB730200E0
:10707000DB730200DB730200DB730200DB730200D0
:10708000DB73020005760200DB730200DB73020093
:10709000DB730200DB73020015760200DB73020073
:1070A000DB730200DB730200DB730200DB730200A0
:1070B000DB730200DB730200000000000000000030
:1070C000DB730200DB730200DB730200DB73020080
:1070D000DB730200DB730200DB730200DB73020070
:1070E000DB730200DB730200DB73020000000000B0
:1070F00000000000DB73020000000000DB730200F0
:10710000000000000000000000000000000000007F
:10711000000000000000000000000000000000006F
:10712000000000000000000000000000000000005F
:10713000000000000000000000000000000000004F
:10714000000000000000000000000000000000003F
:10715000000000000000000000000000000000002F
:10716000000000000000000000000000000000001F
:10717000000000000000000000000000000000000F
:1071800000000000000000000000000000000000FF
:1071900000000000000000000000000000000000EF
:1071A00000000000000000000000000000000000DF
:1071B00000000000000000000000000000000000CF
:1071C00000000000000000000000000000000000BF
:1071D00000000000000000000000000000000000AF
:1071E000000000000000000000000000000000009F
:1071F000000000000000000000000000000000008F
:10720000DFF80CD000F06EF900480047818B0200D7
:10721000E041002030B450E8012F93B2C4892344E8
:107220008489A34228BF1B1B0489A34202BFBFF36A
:107230002F8F002007E0C3EA020340E80134002C4E
:10724000E9D14FF001000A6030BC704750E8012FCF
:10725000C2EA024240E801210029F7D1704730B468
:1072600050E8022F1FFAA2F3C488A34202BFBFF363
:107270002F8F00200DE0C48923448489A34228BFB6
:107280001B1BC2EA034340E80234002CE8D14FF054
:1072900001000A6030BC704750E8022FC2EA224267
:1072A00040E802210029F7D17047034653E8022F36
:1072B000D988B2EB324F4FF0000017BF92B241EACB
:1072C000014142EA014104E05A68B2EB324F08BF83
:1072D000012043E80212002AE8D1704730B4044686
:1072E00054E8000F0D4644E80053002BF8D1156018
:1072F00030BC704730B4044654E8000F40EA010542
:1073000044E80053002BF7D1156030BC704730B40F
:10731000044654E8000F00EA010544E80053002B3E
:10732000F7D1156030BC704730B4044654E8000F04
:1073300080EA010544E80053002BF7D1156030BC0A
:10734000704730B4044654E8000F00EB010544E8F0
:107350000053002BF7D1156030BC704730B40446A1
:1073600054E8000FA0EB010544E80053002BF7D1CF
:10737000156030BC704770B404464FF0000054E80C
:10738000006F0D68AE4207BF44E80023012044E8C7
:1073900000630E60002B1CBF0020F0E770BC70473C
:1073A00030B4044654E8000F88422CBF451A054605
:1073B00044E80053002BF5D1156030BC7047000045
:1073C0000648804706480047FEE7FEE7FEE7FEE77F
:1073D000FEE7FEE7FEE7FEE7FEE7FEE719760200BE
:1073E000017202002DE9F05F0546002092469B469F
:1073F00088460646814640241BE0284641464746CB
:10740000224600F05EF853465A46C01A914110D306
:1074100011461846224600F016F82D1A67EB0108AF
:107420004F4622460120002100F00DF817EB00091D
:107430004E41201EA4F10104DFDC484631462A46B5
:107440004346BDE8F09F202A04DB203A00FA02F10F
:10745000002070479140C2F1200320FA03F3194342
:107460009040704700487047C8B8020040EA0103E6
:107470009B0703D009E008C9121F08C0042AFAD2EA
:1074800003E011F8013B00F8013B521EF9D27047AE
:10749000D2B201E000F8012B491EFBD27047002256
:1074A000F6E710B513460A4604461946FFF7F0FF03
:1074B000204610BD421C10F8011B0029FBD1801A88
:1074C0007047202A04DB203A21FA02F0002170479D
:1074D00021FA02F3D040C2F120029140084319463C
:1074E00070470000064C074D06E0E06840F00103DD
:1074F00094E8070098471034AC42F6D3FFF784FEB7
:107500003CBF02005CBF02002DE9FC410025DFF812
:10751000948000954FF4807601242F4601953046E3
:1075200002F002F838B1D8F80403204203D0304604
:1075300001F0F0FF2543361D64007F1CB6B2082F12
:10754000EDD34FF4BE74204601F0EEFF48B1204663
:1075500001F0E0FF45F000456A460221002001F0FD
:1075600041FF15F0FF0F16D0012600242E420ED049
:1075700008EB8401D1F81005D1F81015C0F30520EF
:10758000094AC1F3014152F8242002B19047760024
:10759000641C082CEAD3002D02DA684603F0D8F9FF
:1075A000BDE8FC8100600040AC1A002070B54FF4CB
:1075B0008076304601F0DEFC114CB50560B13046F6
:1075C00001F0DFFC0120C5F80803607920B9012033
:1075D00060712168002088474FF48276304601F0C0
:1075E000C9FC00280AD0304601F0CBFC0220C5F8C7
:1075F00008032168BDE870400120084770BD000005
:107600001019002002490248091F0968006808474C
:107610006019002002F0D2BC70B54FF080520124F6
:10762000D2E94C100023082906D1CD06C5F80C314B
:10763000C5F810315E4D2B60082955D15D4D2D6880
:107640005D4E35605B4D2D1D2D68361D3560594DE5
:1076500008352D68361D3560564D0C352D68361DA4
:107660003560544D10352D68361D3560514D14353B
:107670002D68361D35604F4D18352D684E4E20361D
:1076800035604C4D1C352D68361D3560494D203513
:107690002D68361D3560474D24352D68361D356003
:1076A000444D28352D68361D3560424D2C352D68EA
:1076B000361D35603F4D30352D683F4E40363560C4
:1076C0003C4D34352D68361D35603A4D38352D68C2
:1076D000361D3560374D3C352D68361D3560354DCE
:1076E00040352D68361D3560082904D1050002D1CA
:1076F000334E324D3560082904D1050002D1314E98
:10770000FB253560082908D1050006D192F858629A
:107710002D4A156866F303051560082904D1020097
:1077200002D12A4D8A012A60082906D12848016819
:10773000C90702D06FF0010101602648016841F4D9
:1077400070010160BFF34F8FBFF36F8F4FF01021B7
:10775000D1F80002002803DBD1F80402002822DA65
:107760001D4A14601D480468002CFCD01224C1F886
:1077700000420568002DFCD0C1F8044201680029D0
:10778000FCD0136001680029FCD0BFF34F8F114873
:107790007C380168124A01F4E06111430160BFF3D3
:1077A0004F8F00BFFDE710490E48086070BD000014
:1077B000380500400404001020C500404881030043
:1077C0008C56004018F50040E40E00404096024000
:1077D0000004004088ED00E004E5014000E40140C1
:1077E0000400FA050090D003E81900200148006861
:1077F000004700001819002002E008C8121F08C145
:10780000002AFAD170477047002001E001C1121F21
:10781000002AFBD1704700000121202803DA8140B3
:107820000548014003E0402802DA2038814009B1D0
:107830000120704700207047FC06FFBD10B594B0D2
:1078400004249DF8480020A120F00F00401C20F0E7
:10785000F00010308DF84800132212A87CDF41F2AE
:107860002210ADF83C001D4811900320ADF84000F7
:107870003C216846FFF713FE02208DF800000FA898
:1078800009908DF8034018211548FFF708FE1448A9
:107890000521A022017000214160017582600F4A1C
:1078A0008181D21C684602CA00F0D2F908B100F00A
:1078B000B1F80A490A4AC91C081F72DF002801D022
:1078C00000F0A8F814B010BD4475795472756F6E4D
:1078D00067205965752054684D616900D9180020EA
:1078E000EC190020022000F0CFBA000070B500248F
:1078F000064D06E06868012110F8340002F076FCBD
:10790000641C28788442F5D3002070BD2019002023
:10791000F8B516460C4605460A2A01D20720F8BDDE
:1079200002F05CFD18B902F01DFD0028F7D1134FDD
:10793000202113487D603C70BE60FFF7B0FD002041
:10794000C7E904000F4E0DE005EBC400316800915B
:1079500081788DF8011000780B4A694602F092FC9C
:107960000028DCD1641EE4B2EED2BDE8F840054840
:107970000021064A001D00F05FB800002019002019
:10798000881B0020CCB50200F9880200F1840200B7
:1079900072B602F063F800BF01F0ACFE0028FBD124
:1079A00011481249401AC408012000EB044010A1FC
:1079B00001F0BCFF11480068C00700D000BE0220E3
:1079C00000EB04400EA101F0B1FFBFF34F8F0B4855
:1079D000E43801680E4A01F4E06111430160BFF32D
:1079E0004F8F00BFFDE70000BCBF02006CBF02006C
:1079F000466174616C206572726F7200F0ED00E098
:107A000053797374656D20726573657400000000AE
:107A10000400FA050EB500210091CDE901106A4677
:107A200044F20100FFF7B4FF0EBD0000014800F072
:107A3000C6BD0000401900203AB10068012942612A
:107A400000D000210161002070470720704700002E
:107A500038B5114808235822416800910F49006841
:107A600001F0CDF9002815D10D4A69460D4800F006
:107A7000ABFD04000ED101210A4800F020FE0123D5
:107A8000094A1946074800F072FD064901200839E5
:107A90000870204638BD0000D4B50200B81B002095
:107AA0001DAB020040190020FFFF7F0070B50446A7
:107AB000007F0D4608B1002070BDA26100F002FFFA
:107AC000401941F10001C4E90201206900B12561BA
:107AD0002146BDE87040002003F0B0BA0146002006
:107AE0000877012003F0AABA30B5EFF3108172B61F
:107AF0000D4A9468012324B10370002900D162B6B5
:107B000030BD93604FF0E023D3F88051074C2540FF
:107B10001560C3F88041D3F8844154605A17C3F804
:107B2000842100220270E8E7101C0020FC06FFBD43
:107B30000B498A68002A11D000280FD1EFF310807A
:107B400072B60B684FF0E022C2F800314B68C2F801
:107B5000043100228A60002800D162B6704700001C
:107B6000101C002070B5054608680C46411C04D066
:107B700001F0A9FC206801F009FC6068411C02D0FA
:107B8000002101F0F1FB2968A069C1F82405607D9E
:107B9000227D29681043C1F86C05D4E900122868D9
:107BA000C0F81425C0F80C15207D012814D1A06858
:107BB000411C02D0002101F0D7FBE068411C04D039
:107BC00001F081FCE06801F0E1FBD4E902122868D1
:107BD000C0F80825C0F8101570BD70B505460868D6
:107BE0000C46411C04D001F078FC206801F0D8FB61
:107BF0006068411C02D0002101F0BFFB2968A06928
:107C0000C1F82405607D217D2A680843C2F86C050F
:107C1000D4E900122868C0F80C15C0F81425207D9E
:107C2000012814D1A068411C02D0002101F0A5FB5D
:107C3000E068411C04D001F050FCE06801F0B0FBAA
:107C4000D4E902122868C0F80825C0F8101570BDE4
:107C50002DE9FC47002517880646158090F82D0071
:107C60001446894630B13A462146484600F0B1F8FC
:107C7000051E09D1B0784FF00C0A18B32088C84609
:107C8000001DB84202D95046BDE8FC87684679DF3E
:107C90000028F9D12088032108F800102088192134
:107CA000401C80B2208008F800102088401C80B260
:107CB000208000EB0801BDF8000003F08EFB218856
:107CC00008442080F0780222C8B1218896F9033058
:107CD00001F1030C4846BC45D5D8425421884FF0E9
:107CE000010C491C89B2218000F801C02188491C7F
:107CF00089B2218009F801302088401C20807068FA
:107D0000B8B1218890F9003001F1030C4846BC4518
:107D1000B9D8425421880A22491C89B22180425490
:107D20002188491C89B2218009F801302088401C33
:107D30002080308950B1CDE900474B460622022110
:107D400006F1080003F0B8FB051E9DD1308A50B142
:107D5000CDE900474B460722032106F1100003F04E
:107D6000ABFB051E90D1308B50B1CDE900474B469F
:107D70001522142106F1180003F09EFB051E83D185
:107D8000306A30B13B462246494600F06DFB051E85
:107D9000DBD1706A30B13B462246494600F052FFC3
:107DA000051ED2D196F82C0038B13B4622464946F2
:107DB000304602F0F7FF051EC7D1307838B13B4698
:107DC00022464946304600F0C7FF051EBDD1284671
:107DD0005AE77CB5054608880C460930904201D91F
:107DE0000C207CBD68466DDF0028FAD12188082070
:107DF000685420881B21401C80B220802954208890
:107E0000401C80B220802844DDF801100160BDF8DC
:107E1000051081802088801D80B220809DF8001090
:107E2000490800D0012129542088401C20800020CE
:107E30007CBD00002DE9FC410646C0074FF000055F
:107E40000ED0104F00240122385D0095002311460A
:107E5000019501F013FA641C042CF4D300F04EF8E1
:107E6000B0070DD5074E0024361D0022305D0323D8
:107E700000951146019501F001FA641C042CF4D31D
:107E8000BDE8FC8186B50200094908B5085C009090
:107E9000684601F0BFFAD0F80425009B0121994003
:107EA00021EA0203C0F808351140C0F80C1508BDDE
:107EB00086B502000249085C012101F018BB0000F0
:107EC00086B502000249085C002101F010BB0000E9
:107ED00086B50200084908B5085C0090684601F0C4
:107EE00099FAD0F804050099C84010F0010000D0BC
:107EF000012080F0010008BD86B5020010B5002405
:107F00002046FFF7D7FF641C042CF9D310BD10B531
:107F100000242046FFF7D6FF641C042CF9D310BDC3
:107F200010B50246064B4FF0FF3000215C5C9442D6
:107F300001D1084610BD491C0429F7D310BD00002B
:107F40008AB502002DE9F0470D468146FFF7E8FFAC
:107F50000446042836D2DFF874801B481C4EA8F172
:107F60000C0725B3012D0ED0022D2BD104EB4400BC
:107F700030444578002D25D0B968002922D0284604
:107F8000BDE8F047084704EB4401755C0E44717886
:107F900049B10E4A4FF48041093A8068FFF786FDE7
:107FA00008B987F80390B17808F80410E2E7806810
:107FB000FFF794FD04EB4401314418F804008D7878
:107FC000A842D7D0BDE8F08790B50200F81800208D
:107FD000681A002070B50023042810D20D4D00EB64
:107FE0004004012A02D101290CD00022094E00EBE5
:107FF0004000304461B1012906D0022906D0072390
:10800000184670BD0E30C2B22A55F9E74270F7E744
:108010008270F5E7681A0020044A014600201279B0
:10802000D20702D0084600F04DB87047EC18002087
:1080300070B506461E480024C0E90161B00720D58E
:108040000025012211462846FFF7C4FF6D1C044697
:10805000042D02D2002CF4D013E094B940F2333254
:1080600004211448FFF754FC04000AD1FFF73EFC3A
:10807000040006D10F48104A0021001FFFF7DCFC66
:108080000446F00712D00120FFF7D4FE74B9094866
:108090000A4A00210C38FFF7CFFC040006D105483E
:1080A000074A01210838FFF7C7FC0446204670BD87
:1080B000EC1800209CB5020091830200C98A0200DE
:1080C000E57802002DE9F05F6E4C054600266078E9
:1080D000B34618B184F801B000F0DEFC6A4F4FF4EB
:1080E0007A694FF4C87A4FF00108182D69D2DFE899
:1080F00005F00C1313384754696E727B727BC5848C
:1081000084848484B3B6B9BCC5C500F0C5FC3868A6
:10811000FFF7E4FC06465CE00020FFF7DBFE0028EA
:108120004FF0000008D0FFF7C5FE022D02D14FF43A
:10813000E16008E0484606E0FFF7C4FE022D01D1E9
:10814000C82000E05046410CC0034FF47A728018FA
:1081500041F10001257052000023FFF743F9014669
:108160002AE00020FFF7B6FE00284FF0000004D000
:10817000FFF7A0FE4FF44870E5E7FFF7A3FEDFE747
:108180000020FFF7A7FE00284FF0000002D0FFF705
:1081900091FECFE7FFF796FED4E70020FFF79AFEA7
:1081A00000284FF0000002D0FFF784FE01E0FFF747
:1081B00089FE257040F6CD4100223868FFF776FC35
:1081C000064646E00020FFF75FFE257008E000202D
:1081D00051E025703DE084F801800120FFF754FE56
:1081E000002240F26661E8E784F801800120FFF791
:1081F0004BFE00224FF40051DFE77868FFF76EFC7A
:108200000646D5F1110000D02EB10220FFF752FE34
:1082100084F802B01DE0012816D980B2C821484375
:10822000C117C90341EA5041C0034FF47A72801864
:1082300041F1000152000023FFF7D4F8014600226B
:108240007868FFF733FC06460220FFF73BFE84F810
:1082500002803046BDE8F09F00F01EFCB9E700F058
:108260001BFCB4E700F018FC04E000F015FC002053
:10827000FFF728FE0120FFF725FEAAE7FFF747FEDC
:10828000A7E70000EC18002090B502002DE9F84F98
:108290000546861C00208DF8000091460F464FF0E1
:1082A000010A6846FFF720FC1B4C04F21C4860687A
:1082B0003860D4E90101194F401A3968081A0EE0F4
:1082C0000121404600F0E0FD00F008FC0146404678
:1082D00000F0DAFDD4E90101401A3968081A401C9F
:1082E0008642EDD8B9F1000F03D0052065F389105F
:1082F00002E0062065F39F5061683A68114004EB84
:108300008101C8606068304460609DF80000FFF73C
:108310000FFC5046BDE8F88FC01D002090190020CA
:1083200070B50D4604460A2902D10D21FFF7F8FF6A
:10833000A0682268411CA1601554D4E90101814262
:1083400004D32046BDE8704000F09FBE70BD000021
:10835000044881684068814201D1012070470020B3
:1083600070470000C01D0020034630B507480021BB
:108370000478426806E000BF02EBC10005789D4228
:1083800003D0491CA142F7DB002030BD201900209A
:1083900000780221FFF7D6BD05494FF0FF320828CB
:1083A00041F8202002D3084480F85820704700008C
:1083B000AC1A0020F0B54FF0FF3512B100230826AB
:1083C00001E008230C260C4C05E000BF54F8237094
:1083D0007F1C04D05B1CB342F8D32846F0BD26189E
:1083E0005DB286F8305044F82310002AF5D1E11828
:1083F00081F85800F1E70000AC1A00200249084457
:1084000090F9300070470000AC1A002070B5084C9D
:10841000050009D010342168002907D008682060C1
:10842000496828468847F6E70834F4E770BD00003D
:10843000981A0020054A012120B1012805D1917028
:10844000FFF7E4BF51700020FAE77047981A002048
:1084500010B5D0E90234D1E90220D11AA04101D3EC
:10846000012010BD002010BD2DE9F04117880646FF
:10847000B81D14460D46984202D90C20BDE8F08183
:108480003188072206290AD34FF4486C4FF6FF7350
:10849000614501D9994202D17088062801D210465F
:1084A000ECE7604501D99842F9D1994203D098424E
:1084B00001D08142F3D80520E85520881221401CC4
:1084C00080B2208029542088401C80B2208041192D
:1084D000308802F082FF2188084480B22080411950
:1084E000708802F07AFF2188084420800020C5E7C8
:1084F00070B500240F4D10E0686800EBC4063078BA
:1085000001F028FF7178012901D0012100E000214C
:108510004140307800F05CF9641C28788442EBDB41
:10852000D5E90401084303D0BDE8704002F0A2BDC4
:1085300070BD00002019002010B50021024800F095
:10854000AEFC80F3100010BDDC2100204FF480321F
:108550008A400168C1F848230068C0F808237047C2
:108560004FF4A07202EB810189B200F0A1B92DE9AC
:10857000F04105460E464FF4A07000EB860081B234
:1085800028684FF48034B440984622F07F47C0F802
:1085900008432868C0F84843286801F081FB286830
:1085A00000EB8600C0F840752868C0F84443B8F175
:1085B000000F02D02868C0F80443BDE8F0810068CD
:1085C000D0F804057047000070B54379234C44F897
:1085D00023204279231D03EBC202224C1579204A45
:1085E000121BD4082DB10825022000EB04401EA167
:1085F00030E005680A88C5F8082590F904208978D4
:10860000002A4FEA411104DB02F1E02282F8001453
:1086100005E002F00F0202F1E02282F8141D90F949
:1086200004100122002909DB01F01F0502FA05F5FB
:108630004909890001F1E021C1F800514179002583
:1086400003EBC1010A71417943F83100032000EBCB
:1086500004400EA101F06AF9284670BD5C190020A3
:10866000A4BF02006CBF020052544320696E7374B1
:10867000616E636520616C726561647920696E6901
:108680007469616C697A65642E0000005254433A43
:1086900020696E697469616C697A65642E000000F6
:1086A00090F90400002809DB00F01F02012191402D
:1086B0004009800000F1E020C0F8001270470A462F
:1086C000022100F07BB84FF4827100F0F1B800682D
:1086D00001210160704700680121416070472DE968
:1086E000F05F07460C464FF4A07000EB84001FFAC1
:1086F00080FA38684FF48036A6409B4622F07F45CA
:10870000C0F848633868C0F808633868D0F8048552
:1087100000EB8402D2F84095C2F840855146386893
:1087200001F0BEFAA9EB080020F07F40012806D135
:10873000102001F053FD5146386801F0B1FA386855
:10874000D0F80485C0F84463A5EB080121F07F410F
:108750003868012900EB840010D0C0F84055386813
:10876000D0F804156FF07F4C6A1A521E22F07F4237
:10877000ACEB0B03934217D362B118E06D1CC0F849
:108780004055102001F02AFD3868D0F80405404516
:108790000AD10CE000EB84006D1CC0F8405538682D
:1087A000D0F80405884202D00D20BDE8F09F0122D8
:1087B0003146384600F002F80020F6E70368C3F8B7
:1087C0004413002A02D00068C0F804137047000068
:1087D0002DE9F84F0E463449804601EB5001C007A1
:1087E000097801D00F0901E001F00F074FF00009EF
:1087F000424601204946FEF726FEDFF8B0A00446B7
:108800000D46052F4ED2DFE807F003161B282C007B
:10881000002E47D00121404602F046FB8DF8009023
:108820006846FFF761F95046D0E904120C4315433E
:10883000CAE9044532E00EB1022114E0002112E041
:108840004EB10321404602F02FFB4046BDE8F84FF1
:10885000012102F021BE012105E0002E22D10421D8
:1088600001E02EB103214046BDE8F84F02F01CBBE9
:108870000021404602F018FB0021404602F00CFEA9
:108880008DF800906846FFF72FF95046E243D0E993
:1088900004341A4024EA0501CAE904219DF80000C5
:1088A000FFF746F9BDE8F88F881B0020201900204B
:1088B00010B5006842581AB101F0F2F9012010BD5C
:1088C000002010BD10B50B48FFF779FE094A083AA1
:1088D000D2E90434C018D2E9063244F10001C31AC7
:1088E00071EB020204D24FF08072801841F1000156
:1088F00010BD00004019002010B5C0B2FFF734FDD4
:108900000446007801F026FD01466078012801D078
:10891000012000E0002090EA010F08D00449D1E9CD
:108920000401084303D1BDE8104002F0A3BB10BD11
:10893000201900202DE9FC5F0E008346DDE90C477D
:10894000C6F1000098469246814600D408460125AB
:1089500003E000BF90FBFAF06D1C5045FADAA84521
:1089600000D9454624B1002E01DB780700D5641EEE
:10897000B80702D5B8F1000F0AD0F80708D13CB10A
:10898000A54205D220215846641EFFF7C9FCF6E730
:10899000002E02DA4E462D2102E0780703D52B2166
:1089A0005846FFF7BDFC07F0030002280BD1B8F1D1
:1089B000000F08D13CB1A54205D230215846641EB3
:1089C000FFF7AEFCF6E7CDE9004743465246314695
:1089D000584602F007FDBDE8FC9F000070B50D464B
:1089E000044600684FF4887101F0ACFB4FF49071BD
:1089F000206801F0A7FB4FF49271206801F0A2FB00
:108A00004FF4A271206801F09DFB4FF4AC71206817
:108A100001F098FB20681249C0F804132068690728
:108A200040F30730090E002804DB00F1E02080F855
:108A3000001405E000F00F0000F1E02080F8141DA4
:108A4000206840F30730002809DB00F01F020121F5
:108A500091404009800000F1E020C0F8001170BD95
:108A600010034200024600201268530713D502F09B
:108A70000300012802D002280CD105E0C2F38310C4
:108A80000B68801C184404E00223086803EB925230
:108A900010440860012070470A4810B5807860B122
:108AA000002401E0022C06D02046FFF703FA641CE4
:108AB000042CF7D310BD0324F6E7BDE81040FFF700
:108AC0001DBA0000EC18002003480179C90702D044
:108AD0000078FFF7F7BA7047EC1800202DE9FF4146
:108AE0000026244800F0CDF92248001F074600F078
:108AF000C8F9214C2149A06800900D6800E0009859
:108B00006946284004EB80000C30FFF7ABFF0028DB
:108B1000F5D101AA009901EA050304EB8303491C7E
:108B2000DB6842F82030401C00910228F2D3019803
:108B300000F0030001280BD0022810D10198032176
:108B400001EB90500099BDF80A6001EB900005E040
:108B50000198BDF80A60C0F38310084400903846BD
:108B600000F08CF908B10098A06004B03046BDE870
:108B7000F0810000D8210020C01D002090190020A5
:108B800008B54FF48041002000F03CFF08B1FEF72B
:108B900041FF00F0A1FDFEF75BFF08B1FEF73AFFD1
:108BA00000210120FFF744FA08B1FEF733FF01F07E
:108BB00033F808B1FEF72EFF01F0C6F908B1FEF751
:108BC00029FF002000906946012001F079F808B1E2
:108BD000FEF720FF684601F0F1F808B1FEF71AFF32
:108BE000FEF72CFE0E480F49401AC008032101EB86
:108BF00000400DA100F09AFE11480121007873DFBA
:108C000008B1FEF707FF0220FFF706FA08B1FEF7EA
:108C100001FF00F06FFD0028FBD101F011F8F8E72B
:108C2000BCBF02006CBF0200426561636F6E2065CD
:108C300078616D706C6520737461727465642E0068
:108C4000D818002070B5144682880E460546208844
:108C5000111D0144921C994201D8FE2A01D90C2011
:108C600070BD521C32542088FF21401C80B22080ED
:108C700031542088401C80B220808119288802F05D
:108C8000ACFB2188084480B22080AA8842B1A96840
:108C900041B13044FEF7EAFB2088A98808442080CF
:108CA000002070BD072070BD2DE9F047C5881E1D4E
:108CB000B6FBF5F78946B6FBF5F1044605FB176CE4
:108CC000407916686843DDF820A0F718001F874236
:108CD00000D9C61A166001E02468491E0029FBD19C
:108CE000A5EB0C078846B74216D818E004EB0C0039
:108CF000001D09EB0803BAF1000F3A4602D0014605
:108D0000184600E01946FEF7B1FB2468F61B4FF049
:108D1000000CB844B54201D9374600E02F46002E7A
:108D2000E4D1BDE8F087000030B5024651B100F053
:108D30007DFE0021074C08E034F821301568AB4275
:108D400002D11160002030BD491C8142F4D30520BE
:108D500030BD000000000000F8B50F460178144651
:108D60000546012901D1687830B12088821C9A42D9
:108D700032D8012902D006E00720F8BD6978014405
:108D8000891C994228D8181A801E86B2ADF8006056
:108D90002188B81C084469467DDF0028EDD1297878
:108DA000022904D06878BDF80020904205D3BDF8B0
:108DB0000000B04201D809200AE00820012905D1AD
:108DC0006978B14202D8ADF8001001E0ADF800605A
:108DD000BDF80010FE2901D90C20F8BD2288491CDD
:108DE000B9542188491C89B2218078542088401CBC
:108DF0002080BDF80010084420800020F8BD10B588
:108E000031B1B2FBF3F403FB14241CB1092010BDF3
:108E10000E2010BD01600021416081608281C3810C
:108E2000084610BD70B50C460546FEF7F3F900285C
:108E300002D021882868084470BD10B50A88498886
:108E40008A4203D1FEF728FA012010BD002010BD90
:108E500070B50C460546FEF702FA002802D061887C
:108E60002868084470BD10B50A8849888A4203D131
:108E7000FEF7ECF9012010BD002010BD002100F02C
:108E800009B8012100F010B808B56A46FEF759FA92
:108E9000009808BD08B56A46FEF739FA08BD08B55E
:108EA0006A46FEF71BFA08BD08B56A46FEF722FAC5
:108EB000009808BD08B56A46FEF750FA009808BD4C
:108EC00038B5044600258DF800506846FEF70CFEC4
:108ED00021686268086890420ED9401E08600178D7
:108EE000238AE26801FB0325227A2168101AC0B2A6
:108EF0000A79824200D208719DF80000FEF718FE40
:108F0000284638BD38B5054600208DF800000C46CF
:108F10006846FEF7E9FDE868298A201AB0FBF1F1FE
:108F20002A681068431C136001709DF80000FEF76A
:108F3000FFFD38BD10B530B1017A42680368891A67
:108F4000C9B21A6006E00E2010BD03681A68541CEE
:108F50001C601170491EC9B2F7D20068002101716E
:108F6000084610BDC20800F007030120895C984044
:108F70000840704700F180400068002800D00120C0
:108F8000704708B500F18040002101600068009042
:108F900008BD000070B50D4C0125207808B185266C
:108FA0000EE00020A06060602061E060084801F0F1
:108FB000EDF8064601F014F808B901F0D1F8257073
:108FC00001F0C6F800B1A570304670BD981A0020B7
:108FD0003584020038B500258DF800506846FEF74C
:108FE00083FD084CE068401EE060E06828B901F0AD
:108FF000AFF810B901F0DAF8A5709DF80000FEF79F
:1090000097FD38BD981A0020F0B50546047815483C
:1090100089B0164640F82420124A08690832A2F1A5
:109020000C0742F82400487F385520226846FEF796
:109030001DFA04942878385C48B10EB10A4A00E061
:1090400000226946281D01F03FFB09B0F0BD0EB1BA
:10905000064A00E00022694605F10C0001F0FEF925
:10906000F3E700000019002099B20200E1B002000D
:109070000FB408B50399002904D004AA00926A46E7
:1090800000F00FF801B05DF814FB10B582680446DB
:10909000002A05D0D4E90403216898470020A06085
:1090A00010BD2DE9FC4791460C00804676D014F89F
:1090B000011B39B125290ED04046FFF731F9207840
:1090C0000028F4D198F80C00002867D04046BDE88D
:1090D000FC47FFF7DABF0020012221782B291BD0A3
:1090E0002D2902D0302908D102E040F0010001E032
:1090F00040F00200641C002AEFD100252A290ED07E
:109100002178A1F130020A2A11D205EB850201EB88
:109110004205641C303DF1E740F00400EAE7D9F86D
:1091200000100B1DC9F800300968641C0D4421783B
:1091300000232E290BD114F8011FA1F130020A2AB5
:1091400005D203EB830201EB4203303BF3E76C29CA
:109150000DD068290BD0692921D00BDC252918D026
:10916000582931D063290ED0642915D117E014F89D
:10917000011FECE7702969D0732932D075291BD003
:10918000782909D120E0D9F80000011DC9F80010A4
:1091900001784046FFF7C4F8641C90E76CE0D9F80A
:1091A00000100A1DC9F800200968CDE900500A2204
:1091B0004046FFF7BFFBEFE7D9F800100A1DC9F8DA
:1091C000002009680A2206E0D9F800100A1DC9F833
:1091D000002009681022CDE90050404602F002F953
:1091E000DAE7D9F8001000270A1DC9F800200E6838
:1091F000C00705D112E04046761C7F1CFFF790F8AF
:1092000031780029F7D104E0202140466D1EFFF798
:1092100087F8BD42C0D9002DF6D1BDE74EB130462A
:10922000FEF748F9074604E0202140466D1EFFF78F
:1092300077F8BD4206D9002DF6D103E04046761CF2
:10924000FFF76EF831780029F8D1A5E7D9F80000CA
:10925000011DC9F80010056830214046FFF760F88D
:1092600078214046FFF75CF808200021CDE9000195
:10927000034610222946B0E7BDE8FC872DE9FF41EF
:109280001C46DDE90A7815460E46684600F0C2F82D
:1092900046EA450141EA840141EA072242EA0841DF
:1092A000009A00EB8200C0F80017BDE8FF812DE9AD
:1092B000FF411C46DDE90A7815460E46684600F077
:1092C000B7F846EA450141EA840141EA072242EA49
:1092D0000841009A00EB8200C0F80017BDE8FF814A
:1092E0002DE9FF411C46DDE90A7815460E46684621
:1092F00000F0ACF846EA450141EA840141EA072260
:1093000042EA0841009A00EB8200C0F80017BDE86D
:10931000FF812DE9FF411C46DDE90A7815460E461E
:10932000684600F0A1F846EA450141EA840141EAB5
:10933000072242EA0841009A00EB8200C0F80017B9
:10934000BDE8FF811CB5002100910B46012201916F
:10935000FFF7C6FF1CBD1CB5002100910B46012282
:109360000191FFF7D6FF1CBD1CB500220B460092F1
:1093700011460192FFF7B4FF1CBD1CB500220B463D
:10938000009211460192FFF7C4FF1CBD1CB50021DD
:1093900000910B46012201911146FFF7A1FF1CBD70
:1093A0001CB5002100910B46012201911146FFF7E7
:1093B000B0FF1CBD13B50C46684600F039F80099A3
:1093C00000EB8101D1F8002722F44032C1F80027D8
:1093D000009900EB8100D0F8001741EA0441C0F881
:1093E00000171CBD3CB50A4CD4E90034CDE900346B
:1093F0006B46441808E000BF53F82010D1F8205500
:1094000020C2C1F82055401C8442F5D83CBD000064
:10941000BCB502000168202902D24FF0A04070477D
:1094200001F01F0101600148704700000003005077
:109430000168202902D24FF0A040704701F01F01BF
:1094400001600148704700000003005001682029B6
:1094500002D24FF0A040704701F01F0101600148A7
:1094600070470000000300500168202902D24FF02D
:10947000A040704701F01F010160014870470000E3
:109480000003005042094FF0000102D0012A05D12B
:1094900002E04FF0FF3101E04FF6FF7100F01F00D6
:1094A000012282400A4201D001207047002070470B
:1094B00001B56846FFF7BCFFD0F810050099C84019
:1094C00000F0010008BD01B56846FFF7BFFF009A34
:1094D00001219140C0F8081508BD01B56846FFF7A5
:1094E000C3FF009A01219140C0F8081508BD38B5A6
:1094F00001240090684631B1FFF78CFF00998C4041
:10950000C0F8084538BDFFF785FF00998C40C0F8CA
:109510000C4538BD034908B50844002101600068C6
:10952000009008BD0060004002494058012800D06A
:10953000002070470060004030B5154A0146002009
:10954000D2F8104423460AE0DB681D79854205D134
:10955000401C0A28F6DB4FF0FF3030BD1B68002BA3
:10956000F2D1431CF9D0CB681871D2F8103443B152
:10957000DB68CC681B682360D2F81024D2681160C5
:1095800030BDC2F81014C96800220A6030BD000066
:10959000C01D0020F0B595B01C4615460F46084684
:1095A0001A9E00F013FB182109A8FDF778FF0E960C
:1095B000CDE909540023082203A9384600F01BFB1B
:1095C00005980690BDF81000ADF81C00BDF812001B
:1095D000ADF81E0000208DF821000398082600F049
:1095E0000300012802D0022818D032E00398334645
:1095F000850AC0F3C2008DF8200003980FA9C0F3BC
:109600008314A200384600F0F6FA09A8009006ABD1
:1096100022460FA9284600F035FA1AE00398840D77
:10962000C0F3C2008DF82000082C01D2254600E0CE
:10963000082533462A460FA9384600F0DCFA2E44A6
:10964000641B09AB06AA29460FA800F083F9002C79
:10965000EAD1384600F0C0FA15B0F0BD70470120DD
:1096600001F05CBD084810B50178084A515C19B199
:10967000001D01F0C3F802E00C3000F0BDFFBDE8B2
:109680001040002001F04ABD74190020FC18002091
:1096900008B5034A00924023024AFFF77BFF08BD4A
:1096A00065AD0200281C00200A4A012902EBC00017
:1096B00007D0022907D0032907D0042907D00020AA
:1096C0007047022070470420704700797047407946
:1096D000704700006CBF020010B5FFF7C0FF042107
:1096E0000348FFF729FF02490120C968487110BDEE
:1096F0005CBF02002DE9F04F8DB0FEF729FE18B1D6
:1097000000200DB0BDE8F08F7E4C4FF0000BC4F888
:1097100018B4BFF34F8F7C49A06802900D68D846FB
:10972000284004EB80000BE0D4F8180470B961689D
:109730000298814201D8A160E2E7284004EB800052
:109740000C3002A9FFF78EF90028EDD1002005AA00
:10975000029901EA050304EB8303491CDB6842F824
:109760002030401C02910228F2D3059800F003003B
:10977000022802D001284DD0AAE005985022810D80
:109780008946B2EB905F00D850210E4666F39F5099
:10979000059008315D4800F0D0F9070078D000F05E
:1097A00015FA4346082205A9384600F02CFA02991A
:1097B00008F1080A2940681A8000001D864222D953
:1097C000504D0C3530B1C2B204EB8101301A9046D5
:1097D0000C3104E02946F2B2002590462846C6B274
:1097E0005346384600F00FFA0AEB080325B132461B
:1097F0002946384600F007FA029909F1030001EB07
:10980000900002903BE004EB81015346324638461B
:109810000C31EFE70598C0F38310062800D306202B
:10982000059960F38911C1F38310801C05918100B3
:10983000364800F082F907004AD000F0C7F94346E5
:10984000082205A9384600F0DEF908F108080026CC
:109850000FE00298434600EA0501401C04EB810139
:109860000290042238460C3100F0CDF908F10408CA
:10987000761C0598C0F38310B042EAD847B1D4F8FB
:109880001054D4F8180478B1384600F0A5F934E043
:109890001EE0E8684079012804D12A682846394644
:1098A00012689047E8680568002DF2D1384600F04C
:1098B00093F98DF800B06846FEF716F9D4F818044D
:1098C00008B90298A0609DF80000FEF731F914E095
:1098D000D4F8104405E02168204689688847E0688C
:1098E0000468002CF7D10A480A49401AC00802212E
:1098F00001EB004008A100F019F8FEF729FD80F007
:109900000100FEE6C01D002090190020DCBF02000F
:10991000BCBF02006CBF02004261636B656E647382
:1099200020666C75736865640000000000231A46A9
:1099300001F0D2BA08B5012300926A4601F0CCFAD0
:1099400008BD1CB5CDE9002302236A4601F0C4FA24
:109950001CBD00002DE9F0470E4680461C4692468D
:10996000082940D894F80C9000202073194610461E
:1099700001F07CF80025B54206D218F805201BA19D
:109980002046FFF775FB03E01AA12046FFF770FBA6
:109990006D1C082DEFD318A12046FFF769FB0025A9
:1099A000B54212D218F805707E2F08D8FDF75AFD7F
:1099B0000068C05D10F03E0F01D03A4600E02E2254
:1099C0000EA12046FFF754FB03E00DA12046FFF750
:1099D0004FFB6D1C082DE3D301222146504601F0B8
:1099E00027F884F80C90BDE8F0870000202530327D
:1099F00078000000202020007C000000256300008B
:109A000020000000064910B500200870054800F04D
:109A1000E1F8002803D1044800F034F9002010BD1B
:109A2000C01D0020DCBF020094B7020002480349B9
:109A3000401AC00870470000DCBF02006CBF020083
:109A400013B56846FFF770F908B100201CBD024845
:109A5000009950F831001CBD6CBF020070B5084879
:109A60000125D0F81044057007E0E06845712168D1
:109A7000204649688847E0680468002CF5D170BD2D
:109A8000C01D00202DE9FF4781460C9D00200C469B
:109A90002F7B2873984616462946184600F0E6FFA5
:109AA000072E42D2DFE806F004090F161F2A3600FF
:109AB00049462846FFF7DCFA37E04946284622683F
:109AC000FFF7D6FA31E0D4E9002349462846FFF7EC
:109AD000CFFA2AE0A0680090D4E90023494628463E
:109AE000FFF7C6FA21E0D4E90201CDE90001D4E98B
:109AF000002349462846FFF7BBFA16E004F10800A8
:109B000007C88DE80700D4E9002349462846FFF737
:109B1000AFFA0AE004F108000FC88DE80F00D4E99D
:109B2000002349462846FFF7A3FA0022294640466B
:109B300000F07EFF2F73BDE8FF872DE9F041058A15
:109B400080462D1F4819C01CB0FBF5F0C6B2404638
:109B5000FFF7B6F9041E19D00020207101206071B2
:109B6000E58000272546761EC4F800800BE04046BD
:109B7000FFF7A6F960B16179491C6171286005465B
:109B80007F1CC0F80080B742F1D32046BDE8F081C9
:109B9000204600F002F80020F8E72DE9F041457971
:109BA00001466B1E002201E00968521C9A42FBD359
:109BB0000F680146002605E038460C68FFF7A2F959
:109BC0002146761CAE42F7D3BDE8F0810121001D8D
:109BD000FFF75AB9FFF7AEB910B504460121001DD1
:109BE000FFF768F910F0FF0F04D12046BDE81040E0
:109BF000FFF7D3BF10BD1CB501920122009201AA4C
:109C0000FFF752F81CBD1CB501920022009201AA78
:109C1000FFF74AF81CBD0000064910B50020487047
:109C2000091D0860BFF35F8F0349044800F0FCF989
:109C3000002010BD6819002020B602001C1C002066
:109C400008B500208DF800006846FDF74DFFF1EEE5
:109C5000100A20F09F00E1EE100ABFF35F8F084961
:109C60004020C1F880029DF80000FDF761FF00F080
:109C7000B7F908B141DF08BD20BF40BF20BF08BD14
:109C800004E000E0826800219160826811618268CE
:109C900051618268D160826851608068016070475C
:109CA00008B5002242504058009008BD20B1034939
:109CB00009680160002070470E20704718B8020044
:109CC000FEB502460E460846FFF7F0FF002866D1B3
:109CD000002400948DF8002001208DF802000194EA
:109CE0000620ADF80400029469462020326869DF3E
:109CF0002B492C4A891AC908012202EB014530B1CF
:109D000000F000FA024628462749FFF713FE0094A8
:109D10008DF801408DF80240019402948DF80340C3
:109D200069464020326869DF30B100F0EBF9024645
:109D300028461E49FFF7FEFD0094019402948DF819
:109D4000004069460120326869DF30B100F0DAF97D
:109D5000024628461649FFF7EDFDF82000900194D1
:109D600002946946A120326869DF30B100F0CAF977
:109D7000024628460F49FFF7DDFD00940194029446
:109D80008DF800406946A020326869DF30B100F0EC
:109D9000B9F9024628460849FFF7CCFD0020FEBD70
:109DA000CCBF02006CBF020014BE02005CBE020009
:109DB00074BD0200C0BD020020BD02002DE9F041CB
:109DC0000546076860DF804619491A482A68081A5C
:109DD000C608BA4219D9022000EB064416A1204653
:109DE000FFF7A4FD20463A461FA12B68FFF7A9FD07
:109DF0004FF08050D0F80C012968800200F100502B
:109E0000421A204625A1FFF795FDB8F100004FF05A
:109E100001040AD000F076F9024604EB06402AA1BC
:109E2000FFF788FD4046BDE8F0812F480470F9E750
:109E3000CCBF02006CBF0200496E73756666696331
:109E400069656E742052414D20616C6C6F63617462
:109E5000656420666F722074686520536F66744471
:109E600065766963652E00004368616E67652074DE
:109E700068652052414D207374617274206C6F6369
:109E80006174696F6E2066726F6D2030782578205E
:109E9000746F20307825782E000000004D617869BD
:109EA0006D756D2052414D2073697A6520666F7221
:109EB000206170706C69636174696F6E20697320D2
:109EC000307825782E00000073645F626C655F65F2
:109ED0006E61626C6528292072657475726E6564A6
:109EE0002025732E00000000E719002030B514482B
:109EF00091B00078002820D05FF03405ADF84050D4
:109F000010A903A861DF30B1052816D011B0BDE853
:109F10003040FDF77FBD03AC0A49684600F084F885
:109F200007E000BFD0E9002120469047684600F0D6
:109F300092F802980028E1D0F4E711B030BD00009B
:109F4000E71900201CB802007CB5194C207808B134
:109F500008207CBD0120A070002000F0D5FE112853
:109F600019D0002000F0E8FE124800260068019099
:109F70008DF800606846FDF7B7FD0F4901A810DFB6
:109F800005000AD0002020709DF80000FDF7D0FDEC
:109F90002DB128467CBD00207CBD0120F3E7A670D2
:109FA000667000F04FFF012000F0C6FEF3E70000EE
:109FB000E4190020B0B70200917902000EB50749FC
:109FC000684600F031F805E0D0E90010884768469F
:109FD00000F041F802980028F6D10EBDCCB702007F
:109FE0000148007870470000E41900201FB568465A
:109FF0004BDF30B1052814D004B0BDE81040FDF7A8
:10A0000009BD084901A800F00FF806E0D0E90021D9
:10A010000098904701A800F01EF803980028E6D0A9
:10A02000F4E71FBD38B80200016009684160AFF372
:10A03000008010B5D0E900215368994201D1002178
:10A0400004E0D1E90034A34202D01946816010BD7A
:10A0500008314160F0E7816800290BD002689268FE
:10A060000A44826041684B689A4203D108314160DA
:10A07000FFF7DFBF704770B50D460646446804E041
:10A08000B2682946904718B1246820680028F7D1A3
:10A0900020682860256070BD40680068704741688E
:10A0A0000868002801D002680A6070470246002054
:10A0B000526806E08B4203D10868106001207047A7
:10A0C0001A461368002BF5D1704700000C4A10B5F2
:10A0D00002F594730EE0991AC91001EBD171491081
:10A0E00002EBC1010C68844201D90B4602E005D2A3
:10A0F00001F108029A42EED3002010BD486810BD5D
:10A1000040B6020000B5FFF7E1FF002800D101488A
:10A1100000BD00002CB602004058002800D00120ED
:10A12000704708B5002242504058009008BDD0F852
:10A130000403084000D0012070474058002800D098
:10A140000120704708B5002242504058009008BDD9
:10A1500002480068002800D0012070470004014038
:10A1600008480068012110F0010F06D14FF0E020EF
:10A17000C02280F800248430C167034901200860B0
:10A180007047000000E100E0180500400649024663
:10A1900000200B790BB1852070470A6001220A71FB
:10A1A00000224A717047000010190020022010B5EB
:10A1B0004107C1F808034FF48270FEF7E2FE05493B
:10A1C0000120086004480168C1F300410029FAD168
:10A1D00010BD00000C00004018040040002802D010
:10A1E0000149800108477047F1B502002DE9F041AF
:10A1F0000D46064600F094FB0028304615D0FEF7C9
:10A20000FDF8083800F00CFC032802D001280AD021
:10A2100003E03046FFF74CF928B103213046BDE892
:10A22000F041FFF7C7B80221F8E700F085FB0028EE
:10A2300022D03046FEF7E2F804464FF4807000EB7F
:10A2400084000E4F81B207EB8400D0F8102542F055
:10A250000102C0F810250846FFF75CF9002D0BD06D
:10A260003046FEF7CBF8064951F82000002803D00D
:10A270000120A040C7F80403BDE8F0810060004061
:10A28000AC1A00202DE9FC41DFF8BC80044608EB45
:10A290000400002790F930001346C0170E46401CFA
:10A2A00001D008274DE0B0781946C0F3400220469F
:10A2B000FEF780F80546401C42D0B07841071AD41A
:10A2C000C0070DD068460094FFF7B2F8009900EB84
:10A2D0008101D1F8000720F00200C1F8000707E073
:10A2E00000217378204600910A460191FEF7DFFFB6
:10A2F000204600F007FBB078800718D51348317866
:10A3000000EB8500D0F81025114B1A40C0F810253D
:10A310004FF47C524FF4403302EA042203EA014135
:10A320000A43D0F810150A43C0F8102509E008EBDD
:10A330000500327810F8581F41EA8211017000E0E0
:10A3400004273846BDE8FC81AC1A002000600040BC
:10A35000FFC0FCFF10B5FFF7ABF8002800D00120CC
:10A3600010BD000070B51A4D95F86A0008B10820BC
:10A3700070BD0024661E2046FFF784F810B128192E
:10A3800080F83060641CE4B2302CF4D30024204602
:10A39000FEF702F8641CE4B20C2CF8D30C48002140
:10A3A0000C4C4166A0F868100B49C02081F80004ED
:10A3B00001264020891FC1F800014FF4BE70FFF74D
:10A3C000A9F8A004C4F8040385F86A60002070BDF1
:10A3D000AC1A00200060004006E000E0034890F85E
:10A3E0006A00002800D0012070470000AC1A00204D
:10A3F0000121B1EB507F01D101207047002070474F
:10A4000038B50D4600F07EFB040014D000208DF816
:10A4100000006846FDF768FB207928B19DF8000030
:10A42000FDF786FB112038BD0120256020719DF8C5
:10A430000000FDF77DFB002038BD10B500F062FB89
:10A44000002802D000210160017110BD01490248BD
:10A4500000F08CBE181B0020002000402DE9F041C8
:10A460000546007916460F4600EB40012D4A01EBE8
:10A47000C00102EB810494F82A1011B10820BDE854
:10A48000F081294951F820102868FFF7B9FF08B179
:10A490001120F4E739462846FDF764FB6660386909
:10A4A000206030004FF001062FD03F7F4FF48E71B7
:10A4B0002868FFF736FE4FF4A2712868FFF731FED7
:10A4C00028681A49C0F8041328684FEA471140F376
:10A4D0000730002804DB00F1E02080F8001405E0DC
:10A4E00000F00F0000F1E02080F8141D286840F310
:10A4F0000730002809DB00F01F0106FA01F14009CE
:10A50000800000F1E020C0F8001128680421C0F8A4
:10A5100000150020A061E06184F8290044F8140FC0
:10A52000A675ACE7181B0020C4B50200800002002D
:10A530002DE9F05F054600790B4600EB400101EB89
:10A54000C000244901EB8004284600F045F810B112
:10A550001120BDE8F09F62614FF00009C4F820901F
:10A56000A36084F828904FF48E784E4641462868C0
:10A57000FFF7D7FD28684FF0010AC0F808A0214670
:10A58000286800F083FD606808BBD5F800B06769F3
:10A590000FE000BF94F8280008B10F2615E04146EF
:10A5A0005846FFF7B9FD0028F4D02146584600F080
:10A5B0006DFD206AB842F2D3574641462868FFF73E
:10A5C000ABFD0028F9D02868C760C4F81490304665
:10A5D000BFE70000181B0020007900EB400101EBF1
:10A5E000C000044901EB80004069002800D0012030
:10A5F00070470000181B00202DE9F0470446007941
:10A600004FF0000900EB400101EBC000284901EBCD
:10A6100080072068C0F800957868B0B120682549A7
:10A62000C0F80813206840F3073000280DDB00F065
:10A630001F02012191404009800000F1E020C0F894
:10A640008011BFF34F8FBFF36F8F2068D0F80C25B8
:10A65000D0F81485D0F80865D0F810554FF0FF31C8
:10A66000C0F81415C0F80C152068C0F80815C0F81B
:10A670001015501C02D01046FEF764FEB8F1FF3FE3
:10A6800002D04046FEF75EFE681C02D02846FEF768
:10A6900059FE701C02D03046FEF754FE2068FFF7CA
:10A6A000CCFE87F82A90C7F80490BDE8F087000038
:10A6B000181B0020840202000149024800F004BE79
:10A6C000441B0020002000402DE9F04105461646BD
:10A6D00000790F46154A00EBC00102EB810494F8A3
:10A6E000201011B10820BDE8F081114951F8201067
:10A6F0002868FFF785FE08B11120F4E7394628469F
:10A70000FDF76BFA6660386920601EB1397F284614
:10A71000FEF764F928680821C0F800150020A06140
:10A72000E0616061012184F82010DCE7441B002017
:10A73000C8B502002DE9F04704460E4600792749C6
:10A7400000EBC00001EB800517463046FFF750FED6
:10A7500030B1204600F044F820B11120BDE8F08768
:10A760001020FBE76F61AE604FF490774FF0000868
:10A7700039462068FFF7E6FC4FF4AC763146206896
:10A78000FFF7E0FC2068AA686969C0F84425C0F8B2
:10A79000481520684FF00109C0F808906868D0B9E2
:10A7A000BA4651462068FFF7C8FC07463146206884
:10A7B000FFF7C3FC0743F4D010B14FF00F0808E0D7
:10A7C0002068C0F80C9031462068FFF7B6FC0028DE
:10A7D000F9D0002068614046C0E70000441B00201B
:10A7E0000079054900EBC00001EB800040690028BA
:10A7F00000D0012070470000441B00202DE9F047E5
:10A80000064600793D4900EBC00001EB8005346845
:10A8100068680127A8B13A49C4F80813306840F3C2
:10A82000073000280DDB00F01F0107FA01F1400995
:10A83000800000F1E020C0F88011BFF34F8FBFF31C
:10A840006F8FD4F8000220F02000C4F80002A8693D
:10A850004FF4A27820B141462046FFF773FC6760B1
:10A860004FF4AC7949462046FFF76CFCE760474659
:10A8700049462046FFF761FC0028F9D0A86928B1B5
:10A8800039462046FFF759FC0028F1D04FF0000A66
:10A89000C4F800A53068D0F80C25D0F81495D0F88D
:10A8A0000885D0F810754FF0FF31C0F80C15C0F8CE
:10A8B00014153068C0F80815C0F81015501C02D0E7
:10A8C0001046FEF748FDB9F1FF3F02D04846FEF7BB
:10A8D00042FD781C02D03846FEF73DFDB8F1FF3F3F
:10A8E00002D04046FEF737FD2046FFF7A6FD85F86B
:10A8F00020A0C5F804A0BDE8F0870000441B00209C
:10A900001003420010B50549C20800F00703885C37
:10A9100001249C402043885410BD0000101B0020DF
:10A920000449084490F93000082801DB01207047F1
:10A9300000207047AC1A00200449084490F9300008
:10A94000082801D20120704700207047AC1A00206F
:10A950002DE9F84F314F05464FF001090024381911
:10A9600090F96010491C46D090F86000294620F00C
:10A97000C0063046FEF7F6FA70B3204600F050F8F5
:10A98000824668460096FEF753FD009900EB810071
:10A99000D0F80007C0F30148B8F1020F1DD0022122
:10A9A0003046FEF707FD68460096FEF741FD009A27
:10A9B00009FA02F1C0F820153046FDF71FFD57F8DF
:10A9C00020204AB15046BAF1030F11D0B8F1020F5E
:10A9D00005D0B8F1030F07D00DE00321E0E75046A2
:10A9E000BAF1010F04D006E05046BAF1020F02D1CD
:10A9F000014630469047641C042CB0D32A460221FD
:10AA00000020FEF7EFFC002055F820100029A5D10A
:10AA1000401C0228F8D3BDE8F88F0000AC1A0020D3
:10AA20000249084490F8600080097047AC1A002081
:10AA300010B50C46017A052908D0407A38B108488B
:10AA400008A102682046FEF713FB00E01AB106A138
:10AA50002046FEF70DFB2046BDE81040FEF715BB73
:10AA6000C0190020257300000D0A000038B5C38806
:10AA70000D46044633B114A0009015A216A1284635
:10AA8000FEF7F6FA217A05291CD0607A48B1A08831
:10AA9000FEF70AFE164951F8202016A12846FEF7B7
:10AAA000E7FAA0880021FEF7CBFF03461049207A81
:10AAB000143951F8202001B02846BDE830400EA1DD
:10AAC000FEF7D6BA38BD00001B5B306D00000000F9
:10AAD0001B5B313B33316D0025734C6F6773206412
:10AAE000726F70706564202825642925730D0A0033
:10AAF000C0190020257300003C25733E2025733AC1
:10AB0000200000000349884201D10348704700201B
:10AB100070470000002000401819002070B505465D
:10AB2000FDF7D1FD134C40B1D4E904024FF0807120
:10AB3000411842F10000C4E9041000212846FDF745
:10AB40000FFD30B1606820B1606800F00FFA00209E
:10AB5000606001212846FDF703FD18B1FDF7B2FE44
:10AB6000C4E90601284600F02DFA2846BDE87040E9
:10AB700000F034B83819002070B5054600200C46A6
:10AB80000870FDF79FFED5E90223101A63EB01035D
:10AB900000263146361A994112DAB0F5350F03D343
:10ABA000FCF744FF0B4942184FF4960300210A4872
:10ABB000FDF795FD10B10D2806D009E0012070BD0C
:10ABC00000210548FDF7C2FC284600F0CFF92070AF
:10ABD000002070BDFFFFB40040190020F8B51A4CEA
:10ABE000074600261948FFF757FAD0B1616871B1DE
:10ABF000D0E902106268D2E90232C91A904120D22B
:10AC00006068007F18B161681048FFF734FA00F0FF
:10AC100045F905466946FFF7AFFF98B1606840B156
:10AC20000AE0606800280CD13846BDE8F840FDF71E
:10AC300052BD3846FDF74BFD65609DF800000028C9
:10AC4000D0D1F8BD6660CDE738190020DCB5020030
:10AC500070B5054688690C4600284FF48471284673
:10AC60000AD0FFF75EFAD5F81805626AE1688854E1
:10AC7000606A401C606270BDFFF753FAD5F8180592
:10AC800070BD1FB501238DF80030CDE90121D0E959
:10AC90000012684690471FBD1FB501238DF8003094
:10ACA000CDE90121D0E90012684690471FBD0000A0
:10ACB00038B50021012548B1012810D003280DD155
:10ACC000FFF74EFABDE83840FEF784B94FF0E020B8
:10ACD000C0F88051BFF34F8FBFF36F8F38BD8DF831
:10ACE00000106846FCF700FF064C207808B9FEF714
:10ACF00051F9E068401CE060A5709DF80000FCF789
:10AD000017FF38BD981A00203EB504460949684629
:10AD1000FFF78AF908E000BFD0E9002120469047FC
:10AD200030B16846FFF797F902980028F4D13EBD8C
:10AD300011203EBDB4B702003EB50446084968463E
:10AD4000FFF772F907E000BFD0E9002120469047E5
:10AD50006846FFF780F902980028F5D13EBD000053
:10AD6000C0B7020070B50D4C0020D2B22070201D7B
:10AD70000B4D0378EB5C1BB1001DFFF7DBFC02E021
:10AD80000C30FFF7D5FB08B1FCF744FE60780028D3
:10AD900002D021780029FAD070BD0000701900207F
:10ADA000FC1800202DE9F0410746806A14468846C9
:10ADB000C8B3002531E000BFB96A05EB450001EBDF
:10ADC0008006B088801CFE2802D90C20BDE8F081E6
:10ADD0002288401C08F8020020881622401C80B2FD
:10ADE000208008F800202088401C80B2208000EBE2
:10ADF0000801308800F0F1FA2188084480B22080F0
:10AE0000B28842B1B16871B14044FCF72FFB208891
:10AE1000B188084420806D1CEDB297F82C00A84240
:10AE2000CAD80020D2E7FFE70720CFE7002805D1E6
:10AE30000349012048700020FDF7E8BA7047000080
:10AE4000981A002010B51620FCF7E6FCA0B11148B6
:10AE500090F800044009082811D20121814011F026
:10AE6000EC0F0CD00C4882684FF480016AB1016885
:10AE700041F48001016010BD42F2010001E042F2A4
:10AE80000200BDE81040FCF7C5BD4FF0E020C0F85F
:10AE9000001110BD16E000E0101C00200148FFF773
:10AEA000FEB80000DCB50200C207002A03D000BFD4
:10AEB0004FF00F0201E04FF0F00201D04FEA011114
:10AEC000044B03EB5003187800EA020040EA01004B
:10AED00018707047881B00202DE9F84F074621485D
:10AEE0009146884605681E46012269461846FDF7C8
:10AEF000CDF9DFF874A060B3009800210446801CEF
:10AF00000AE000BF00EA050259F821C00AEB8202FC
:10AF1000401C491CC2F80CC0B142F3D34FEA174998
:10AF2000FDF70AFB611C29400AEB810149EA004256
:10AF30002C40CA600AEB8401C86867F3C50066F359
:10AF4000891068F39F2020F00300401C20F00400CB
:10AF5000C8609AF8000001E0FEF7CCFB0028FBD1A6
:10AF6000BDE8F88F90190020C01D002070B5044680
:10AF7000124800250078F8B1F4B1207FE0B1FDF768
:10AF8000A1FCD4E90223801A994110D3206900263C
:10AF900000B92677D4E905108847206960B1217F80
:10AFA00051B1D4E9022110187141C4E902012146CE
:10AFB0000348FFF760F80125284670BD38190020C6
:10AFC000DCB50200F8B51B4C69462068FDF740FF70
:10AFD00000260127184D29E0017821B101290CD064
:10AFE00002291BD114E041680A7FBAB90F77416882
:10AFF00010480830FFF73FF810E041686868814268
:10B0000001D16E600AE00B480830FFF74FF805E009
:10B01000FFF744FF08B10677FAE72F70694620680A
:10B02000FDF70BFF69462068FDF712FF0028D3D11A
:10B03000F8BD0000D4B5020038190020F8B50B4C5B
:10B040000D46064669462068FDF7ECFE58B10670CD
:10B05000456069462068FDF706FF10B10448FDF71A
:10B060001FFB0020F8BD0420F8BD0000D4B502008D
:10B0700040190020034880684108034800224068C6
:10B08000FCF714BD20190020CCB5020070B50C46A9
:10B0900005464FF48E71FFF744F8216AA068415CC1
:10B0A000206A401C2062C5F81C1570BD1FB5002227
:10B0B0008DF800200291816801914261D0E900126F
:10B0C000684690471FBD1FB500228DF800200291F1
:10B0D000816801914261D0E90012684690471FBD26
:10B0E0001FB50A4601788DF8001041680191017A78
:10B0F0008DF80810C0680390044850F822100838F2
:10B1000050F82220684690471FBD00000819002013
:10B1100001490120087070477019002010B588B0EF
:10B12000044620220E496846FCF7A0F9062000904C
:10B13000C01F0190029003904FF0EB7006900CB18D
:10B14000084A00E0002269460748FDF75DFF08B1A4
:10B15000FCF760FC0448001F447008B010BD0000FC
:10B1600074B7020011B10200741900202DE9FF47E5
:10B170000C4605464FF40071FEF7D9FF01274FF446
:10B180000178002618B34FF4927949462846FEF715
:10B19000C3FFE0B149462846FEF7C3FFC5F8088360
:10B1A00094F8290000B96F6002208DF80000D5F8EE
:10B1B0008004C5F880040390A0690290E0680190C3
:10B1C000A661E661D4E900126846904728E00421B0
:10B1D0002846FEF7ACFF18B34FF484712846FEF7FB
:10B1E0009BFFE8B121462846FFF732FD616AA0695E
:10B1F000884215D1E06938B1E268616AA0612069CE
:10B20000E6616662E06008E094F8290000B96F60CA
:10B21000C5F80883A661E268616A2046FFF731FD40
:10B220004FF48E7841462846FEF776FF80B160697C
:10B23000216A814202D294F8280028B34146284668
:10B24000FEF76FFF606918B161692046FFF72EFFB6
:10B250004FF4A27841462846FEF75EFF002818D03A
:10B2600041462846FEF75DFF94F8290000B12F60A3
:10B27000A06900280DD0A661E268616A04B020468A
:10B28000BDE8F047FFF7FDBC21462846FFF7FEFE6C
:10B29000DEE7BDE8FF8700001FB50A4601788DF89C
:10B2A000001041680191017A8DF80810C068039080
:10B2B000044850F82210083850F822206846904779
:10B2C0001FBD0000081900202DE9FF410C464FF476
:10B2D000927705463946FEF730FF0026B8B1394669
:10B2E0002846FEF72FFF02208DF80000D5F88004D5
:10B2F000C5F880040390D5F83C050290E068019001
:10B30000A661E661D4E900126846904723E04FF455
:10B31000887739462846FEF710FFE0B139462846BF
:10B32000FEF710FFD5F83C15A069884213D1E069FB
:10B3300060B1E268D5F8000220F02000C5F80002F4
:10B34000E069A0612069E661E06001E0A661E26871
:10B350002046FFF7A1FC4FF4A27739462846FEF7B6
:10B36000ECFE68B139462846FEF7ECFEA06938B11C
:10B37000A661E661D5F83C152046E268FFF78CFC33
:10B380004FF4907631462846FEF7D7FE60B131463D
:10B390002846FEF7D7FE0120E860606920B1D5F8A5
:10B3A0004C152046FFF78FFE4FF4AC763146284609
:10B3B000FEF7C3FE00280ED031462846FEF7C2FE37
:10B3C0006069002807D0D5F84C1504B02046BDE8C8
:10B3D000F041FFF778BEBDE8FF810870000A4870B1
:10B3E000022070472DE9F05F8346DDE90A4A99465D
:10B3F00090460D460846012703E000BFB0FBF8F079
:10B400007F1C4045FAD2B94500D94F465FEACA7061
:10B4100012D18CB15FEA8A7002D5B9F1000F01D068
:10B42000202607E0302605E031465846641EFCF72A
:10B4300077FF0CB1A742F7D35FF00106B9F1010F16
:10B4400002D9A9F1010903E0B5FBF6F0404502D3AA
:10B4500006FB08F6F2E7DFF83C9000BFB5FBF6F01C
:10B4600000FB165519F800105846FCF759FFB6FBBB
:10B47000F8F6002EF2D15FEACA7009D0002C07D08E
:10B48000A74205D220215846641EFCF749FFF5E784
:10B49000BDE8F09FF6B5020070B50C460546FCF716
:10B4A00063FF002807D04268002A04D021462846BE
:10B4B000BDE87040104770BD2DE9FC411646DDE93E
:10B4C0000854CDE900541F468046022200F00CF8D3
:10B4D000002807D1CDE900543B46102231464046B2
:10B4E00000F002F8BDE8FC812DE9FC5F0026DDE9F3
:10B4F0000C4B994692468E4680462788354630E06A
:10B50000D8F80400002200EB85006946006801902D
:10B5100001A864DF002830D19DF8000050451FD1FC
:10B520000EB1002100E0022122880844111859457B
:10B5300022D846B9521C90B2208009F800E0208839
:10B54000401C20800126218801A801EB09026946E0
:10B5500064DF002811D120889DF800100844208065
:10B560006D1CB8F80000A842CADC56B12088C01B88
:10B57000401E80B2FF2802D90C20BDE8FC9F09F8CC
:10B5800007000020F9E70D0E0F100B0C1819000032
:10B59000281A0020481A0020781A00200B00030007
:10B5A000457F02000C000300457F020018000300E5
:10B5B000457F020019000300457F02000000005093
:10B5C000000300504DA40200B9A6020003000000D1
:10B5D000681B0020A81B00200100060000000000DE
:10B5E00058190020518402000000000000000000F3
:10B5F0000338FDD870473031323334353637383977
:10B6000041424344454600000000000000000000A5
:10B61000000000000000000000000000000000002A
:10B6200008B6020020B6020004000000556E6B6EE2
:10B630006F776E206572726F7220636F64650000B1
:10B640000000000044BC020001000000F0BA02004B
:10B6500002000000E4B802000300000064BB020026
:10B6600004000000B8BB02000500000098BA020008
:10B670000600000034BA020007000000A0BB020070
:10B6800008000000ACBA02000900000010BB020074
:10B690000A0000002CBC02000B000000CCB8020025
:10B6A0000C000000C4BA02000D00000094BC0200AF
:10B6B0000E00000090BB02000F000000CCBB020097
:10B6C0001000000000BC020011000000A8BC020035
:10B6D000120000007CBC02001300000018BC020035
:10B6E000800000004CBA02008100000088B902000E
:10B6F0008200000048B902008300000028B902005F
:10B700008400000064B902008500000070BA0200E5
:10B710008600000078BB02009000000014BA02000E
:10B720009100000008B9020092000000D8BA02009F
:10B7300000820000E0BB0200018200002CBB02007E
:10B740000282000048BB020000840000A4B902008D
:10B750000184000050BC020002840000ECB9020029
:10B7600003840000C8B902009196020065960200A9
:10B770005D960200FFFFFFFFFFFFFFFFFFFFFFFFE0
:10B78000FFFFFFFF00000000000000000000D601E6
:10B7900006010000281D00207F000000A81D0020D9
:10B7A0000000000000000000000000000000000099
:10B7B00001000007A0B70200B0B7020008000000B7
:10B7C000D8B70200E8B7020008000000E8B702009E
:10B7D000F8B702000800000008C0020010C0020014
:10B7E0000000000000000000F8BF020008C00200D6
:10B7F0000000000000000000000000000000000049
:10B800000000000000000000000000000000000038
:10B810000000000000000000D8180020F8B7020067
:10B8200018B8020008000000F0BF0200F8BF0200D4
:10B83000000000000000000028B8020038B8020034
:10B84000080000000040404040404040404041412E
:10B8500041414140404040404040404040404040E5
:10B86000404040404005020202020202020202027F
:10B87000020202020220202020202020202020027C
:10B88000020202020202909090909090101010100C
:10B8900010101010101010101010101010101010A8
:10B8A000020202020202888888888888080808083C
:10B8B0000808080808080808080808080808080808
:10B8C000020202024000000045B802004E52465FEC
:10B8D0004552524F525F494E56414C49445F444194
:10B8E000544100004E52465F4552524F525F534FF3
:10B8F00046544445564943455F4E4F545F454E417B
:10B90000424C4544000000004E52465F4552524FA3
:10B91000525F464541545552455F4E4F545F454E28
:10B9200041424C45440000004E52465F4552524F42
:10B93000525F4D555445585F554E4C4F434B5F46F3
:10B9400041494C45440000004E52465F4552524F1B
:10B95000525F4D555445585F4C4F434B5F464149EC
:10B960004C4544004E52465F4552524F525F4D5532
:10B970005445585F434F4E445F494E49545F4641DA
:10B98000494C4544000000004E52465F4552524F1C
:10B99000525F4D555445585F494E49545F464149A1
:10B9A0004C4544004E52465F4552524F525F424C06
:10B9B000455F495053505F52585F504B545F54524B
:10B9C000554E4341544544004E52465F4552524FF6
:10B9D000525F424C455F495053505F504545525F5E
:10B9E00052454A4543544544000000004E52465FCC
:10B9F0004552524F525F424C455F495053505F4C45
:10BA0000494E4B5F444953434F4E4E454354454482
:10BA1000000000004E52465F4552524F525F415067
:10BA2000495F4E4F545F494D504C454D454E54452E
:10BA3000440000004E52465F4552524F525F4E4FF7
:10BA4000545F535550504F52544544004E52465F38
:10BA50004552524F525F4D4F44554C455F4E4F54E7
:10BA60005F494E495449414C495A45440000000041
:10BA70004E52465F4552524F525F4D4F44554C45D2
:10BA80005F414C52454144595F494E495449414CEC
:10BA9000495A4544000000004E52465F4552524FFD
:10BAA000525F4E4F545F464F554E44004E52465FD4
:10BAB0004552524F525F494E56414C49445F535490
:10BAC000415445004E52465F4552524F525F4441E9
:10BAD00054415F53495A45004E52465F4552524FBA
:10BAE000525F494F5F50454E44494E4700000000A9
:10BAF0004E52465F4552524F525F5356435F484144
:10BB00004E444C45525F4D495353494E4700000047
:10BB10004E52465F4552524F525F494E56414C4934
:10BB2000445F4C454E475448000000004E52465F6B
:10BB30004552524F525F4452565F5457495F4552E7
:10BB4000525F414E41434B004E52465F4552524F69
:10BB5000525F4452565F5457495F4552525F444EBC
:10BB600041434B004E52465F4552524F525F494E41
:10BB70005445524E414C00004E52465F4552524F82
:10BB8000525F53544F524147455F46554C4C00005D
:10BB90004E52465F4552524F525F4E554C4C00003C
:10BBA0004E52465F4552524F525F494E56414C49A4
:10BBB000445F504152414D004E52465F4552524FF4
:10BBC000525F4E4F5F4D454D000000004E52465FA4
:10BBD0004552524F525F464F5242494444454E00EF
:10BBE0004E52465F4552524F525F4452565F545731
:10BBF000495F4552525F4F56455252554E00000024
:10BC00004E52465F4552524F525F494E56414C4943
:10BC1000445F4144445200004E52465F4552524FE9
:10BC2000525F5245534F5552434553004E52465F63
:10BC30004552524F525F494E56414C49445F464C23
:10BC4000414753004E52465F5355434345535300BB
:10BC50004E52465F4552524F525F424C455F4950EB
:10BC600053505F4348414E4E454C5F414C52454115
:10BC700044595F4558495354530000004E52465FA3
:10BC80004552524F525F434F4E4E5F434F554E54B5
:10BC9000000000004E52465F4552524F525F5449D9
:10BCA0004D454F55540000004E52465F4552524F8D
:10BCB000525F4255535900007761726E696E67009A
:10BCC00064656275670000001B5B313B33306D00BB
:10BCD0001B5B306D000000001B5B313B33316D009E
:10BCE0001B5B313B33326D001B5B313B33336D00EB
:10BCF0001B5B313B33346D001B5B313B33356D00D7
:10BD00001B5B313B33366D001B5B313B33376D00C2
:10BD1000696E666F000000006572726F720000004D
:10BD200073645F626C655F6366675F73657428291F
:10BD30002072657475726E6564202573207768655E
:10BD40006E20617474656D7074696E6720746F2005
:10BD500073657420424C455F47415454535F4346DA
:10BD6000475F534552564943455F4348414E474517
:10BD7000442E000073645F626C655F6366675F7387
:10BD8000657428292072657475726E656420257348
:10BD9000207768656E20617474656D7074696E6774
:10BDA00020746F2073657420424C455F434F4D4DA6
:10BDB0004F4E5F4346475F56535F555549442E00EB
:10BDC00073645F626C655F6366675F73657428297F
:10BDD0002072657475726E656420257320776865BE
:10BDE0006E20617474656D7074696E6720746F2065
:10BDF00073657420424C455F47415454535F43463A
:10BE0000475F415454525F5441425F53495A452E53
:10BE10000000000073645F626C655F6366675F7358
:10BE2000657428292072657475726E6564202573A7
:10BE3000207768656E20617474656D7074696E67D3
:10BE400020746F2073657420424C455F434F4E4E03
:10BE50005F4346475F4741502E00000073645F62B6
:10BE60006C655F6366675F7365742829207265740B
:10BE700075726E6564202573207768656E20617425
:10BE800074656D7074696E6720746F2073657420BB
:10BE9000424C455F4741505F4346475F524F4C45D8
:10BEA0005F434F554E542E00636C6F636B00000070
:10BEB000434C4F434B0000004750494F544500004E
:10BEC0005052530055415254000000005541525405
:10BED000450000006170705F627574746F6E0000E1
:10BEE0006170705F74696D65720000007077725FD9
:10BEF0006D676D7400000000736F72746C69737409
:10BF000000000000756172745F6C6F675F6261634F
:10BF10006B656E6400000000617070006E72665F99
:10BF2000736468006E72665F7364685F626C65005C
:10BF30006E72665F7364685F736F630010C00200A7
:10BF4000D818002014010000F877020024C1020074
:10BF5000EC190020F42700000878020068B70200FE
:10BF60000000000004BF020088190020A8BE0200E3
:10BF700000000000B0BE020000000000B8BE0200D9
:10BF800000000000C0BE020000000000C4BE0200AD
:10BF900000000000CCBE020000000000D4BE020081
:10BFA00000000000E0BE020000000000ECBE020045
:10BFB00000000000F8BE02000000000018BF0200F0
:10BFC000000003031CBF02000000030324BF0200A3
:10BFD0000000030330BF0200000003039C1900208F
:10BFE000941900209C190020681C002018000000F3
:10BFF0002DAE020000000000ED9E020000000000D7
:10C00000ED9F020000000000B1AC02000000000043
:10C01000FF112233041A00201F000000000000005E
:10C020000000000000000000000000000000000010
:10C030000000000000000000000000000000000000
:10C0400000000000000000000000000000000000F0
:10C0500000000000000000000000000000000000E0
:10C0600000000000000000000000000000000000D0
:10C07000000000000000000000100140110004005A
:10C0800000000000000000000000000000000000B0
:10C0900000000000000000000000000000000000A0
:10C0A0000000000000000000000000000000000090
:10C0B00000200040000000000020004000000000C0
:10C0C00000000000FF000000FF0000000000000072
:10C0D0000000000000000000000000000000000060
:10C0E000000000000000000018BD0200B8BC020003
:10C0F00010BD0200C0BC0200D0BC0200C8BC0200DF
:10C10000D8BC0200E0BC0200E8BC0200F0BC0200A7
:10C11000F8BC020000BD020008BD020000000000E3
:04C120000090D003B8
:040000050002720182
:00000001FF
