:100000000000042089030000710300007303000056
:100010007503000077030000790300000000000072
:100020000000000000000000000000007B03000052
:100030007D030000000000007F030000810300003A
:100040008303000083030000830300008303000098
:100050008303000083030000830300008303000088
:100060008303000083030000830300008303000078
:100070008303000083030000830300008303000068
:100080008303000083030000830300008303000058
:100090008303000083030000830300008303000048
:1000A0008303000083030000830300008303000038
:1000B0008303000083030000000000000000000034
:1000C0008303000083030000830300008303000018
:1000D0008303000083030000830300008303000008
:1000E000830300008303000083030000000000007E
:1000F00000000000830300000000000083030000F4
:1001000000000000000000000000000000000000EF
:1001100000000000000000000000000000000000DF
:1001200000000000000000000000000000000000CF
:1001300000000000000000000000000000000000BF
:1001400000000000000000000000000000000000AF
:10015000000000000000000000000000000000009F
:10016000000000000000000000000000000000008F
:10017000000000000000000000000000000000007F
:10018000000000000000000000000000000000006F
:10019000000000000000000000000000000000005F
:1001A000000000000000000000000000000000004F
:1001B000000000000000000000000000000000003F
:1001C000000000000000000000000000000000002F
:1001D000000000000000000000000000000000001F
:1001E000000000000000000000000000000000000F
:1001F00000000000000000000000000000000000FF
:100200003A493B480A1A02D0072291438D463949A0
:1002100039480A1A06D00722914381F3098802223D
:1002200082F3148835483649364A00F041F836489A
:100230003649374A00F03CF836483749374A00F02B
:1002400037F837483749384A00F032F837483849E4
:10025000384A00F02DF838483849394A00F028F873
:1002600038483949394A00F023F8394839490022D9
:1002700000F036F838483949002200F031F83848A3
:100280003849091A00F0B4FC374A904725482649F6
:10029000884205D00268043003B4904703BCF7E7F6
:1002A00000208646EC4600200021304A9047FEE7B9
:1002B000884214D0521A12D003460B43134303242E
:1002C000234206D1036804300B600431043AF9D1AB
:1002D0007047037801300B700131013AF9D1704752
:1002E000884202D002700130FAE770470000042013
:1002F00000E003200000042000000420480C00005F
:100300000000002004000020E4030000E4030000DB
:10031000080C0000480C0000000000200000002035
:10032000080C0000080C0000080C0000080C00007D
:10033000080C0000080C0000080C0000080C00006D
:10034000460C00004C0C00000400002004000020BB
:1003500004000020280000202800002028000020A1
:100360002800002028200020B1030000F106000032
:10037000FEE7FEE7FEE7FEE7FEE7FEE7FEE7FEE755
:10038000FEE7FEE700F002B8FFF7FCBF0F484FF0B2
:100390000701884385460E4880470E48016841F4AE
:1003A00070010160BFF34F8FBFF36F8FFFF728BF5E
:1003B00009480A490A4A884207D0521A05D00378E8
:1003C00001300B700131013AF9D17047000004206F
:1003D0009D09000088ED00E0080C000000000020EE
:0403E00000000020F9
:1003E40086B003900291019201238DF817309DF895
:1003F4001730204A039B13601E4A029B53601D4A18
:10040400019B9360039B44F20102934212D0039B2D
:1004140044F20202934220D1019B164AD360154B49
:10042400DB681B68134A9361124BDB685B68114AF3
:10043400D36112E0019B0F4A13610E4B1B699B6849
:100444000C4A53610B4B1B691B680A4A9361094BA5
:100454001B695B68074AD36100BF72B600BF00BF67
:100464009DF81730DBB2002BFAD162B600BF00BF93
:1004740006B070470400002000B587B003900291D5
:10048400019272B600BF039B44F20102934207D06B
:10049400039B44F20202934205D1019B059303E0BE
:1004A400019B049300E000BF074B1B6803F00103AA
:1004B400002B00D000BE019A02990398FFF790FF29
:1004C40000BF07B05DF804FBF0ED00E000B585B0B7
:1004D40003460091ADF80630BDF806300293009B48
:1004E400039302AB1A46002144F20200FFF7C4FF53
:1004F40000BF05B05DF804FB00B585B00190019B19
:10050400002B0AD0074B43F001030393019B9B018B
:100514000293039B0298984700E000BF05B05DF882
:1005240004FB00BF400C000000B583B00190019BA8
:10053400002B0AD04FF47A70FFF7DEFF019B013BDA
:100544000193019B002BF5D100E000BF03B05DF8DF
:1005540004FB000000B583B00190019B1B681846A2
:1005640000F09CF80346002B04D10B494FF4F670BD
:10057400FFF7ACFF019B1B681F2B02D84FF0A04371
:1005840006E0019B1B6803F01F02019B1A60034BEA
:10059400184603B05DF804FB080C0000000300508B
:1005A40000B585B00190084611461A4603468DF8F9
:1005B40003300B468DF8023013468DF8013001AB41
:1005C4001846FFF7C7FF03909DF803209DF80230FB
:1005D4005B001A439DF801309B001A439DF81830C4
:1005E4001B0242EA03019DF81C301B04019A1943C3
:1005F400039B02F5E07243F8221000BF05B05DF8DA
:1006040004FB00B585B003900023019300230093FD
:100614000023012201210398FFF7C2FF00BF05B0A8
:100624005DF804FB00B585B0019001AB1846FFF7F7
:1006340091FF0390019B012202FA03F319460398E8
:1006440000F018F800BF05B05DF804FB00B585B0F4
:10065400019001AB1846FFF77DFF0390019B012237
:1006640002FA03F31946039800F00EF800BF05B030
:100674005DF804FB82B001900091019B009AC3F8DD
:10068400082500BF02B0704782B001900091019B21
:10069400009AC3F80C2500BF02B0704784B00190E3
:1006A400019B5B09029300230393029B002B03D05D
:1006B400029B012B04D007E04FF0FF33039303E0C8
:1006C4004FF6FF73039300BF019B03F01F030193D5
:1006D400039A019B22FA03F303F00103002B14BFD6
:1006E40001230023DBB2184604B0704708B50F207D
:1006F400FFF787FF0F20FFF795FFC820FFF714FFD0
:100704000F20FFF7A3FFC820FFF70EFFF2E700005A
:10071400BFF34F8F00BF064BDB6803F4E06204496C
:10072400044B1343CB60BFF34F8F00BF00BFFDE703
:1007340000ED00E00400FA0582B0124B1B6801933F
:10074400114B1B680093019B082B17D1009B032BB3
:1007540012D801A252F823F06D07000071070000BF
:100764007507000079070000012308E0012306E073
:10077400012304E0012302E0012300E000231846E2
:1007840002B07047300100103401001082B0124BE7
:100794001B680193114B1B680093019B082B17D115
:1007A400009B032B12D801A252F823F0C1070000CA
:1007B400C5070000C9070000CD070000012308E0B9
:1007C400012306E0012304E0012302E0012300E009
:1007D4000023184602B070473001001034010010A5
:1007E40082B0124B1B680193114B1B680093019B51
:1007F400082B17D1009B032B12D801A252F823F027
:1008040015080000190800001D0800002108000058
:10081400012308E0002306E0002304E0002302E0B3
:10082400002300E00023184602B070473001001096
:100834003401001082B0124B1B680193114B1B68EA
:100844000093019B082B17D1009B032B12D801A204
:1008540052F823F0690800006D08000071080000D8
:1008640075080000012308E0002306E0002304E0EB
:10087400002302E0002300E00023184602B0704782
:10088400300100103401001082B0124B1B68019338
:10089400114B1B680093019B082B17D1009B032B62
:1008A40012D801A252F823F0BD080000C1080000CC
:1008B400C5080000C9080000012308E0002306E081
:1008C400002304E0002302E0002300E00023184694
:1008D40002B07047300100103401001082B0124B96
:1008E4001B680193114B1B680093019B082B17D1C4
:1008F400009B032B12D801A252F823F01109000027
:1009040015090000190900001D090000012308E071
:10091400002306E0002304E0002302E0002300E0BB
:100924000023184602B07047300100103401001053
:1009340082B0124B1B680193114B1B680093019BFF
:10094400082B17D1009B032B12D801A252F823F0D5
:1009540065090000690900006D09000071090000C3
:10096400012308E0012306E0012304E0012302E05F
:10097400012300E00023184602B070473001001044
:1009840034010010024B034A1A6000BF704700BFD5
:10099400000000200090D00308B5FFF7CDFE034609
:1009A400002B0ED04FF080430022C3F80C214FF0EF
:1009B40080430022C3F810214FF080430022C3F883
:1009C4003825FFF7E3FE0346002B76D04FF0805323
:1009D4007D4AD3F80434C2F820354FF080537A4A64
:1009E400D3F80834C2F824354FF08053764AD3F84C
:1009F4000C34C2F828354FF08053734AD3F81034BE
:100A0400C2F82C354FF080536F4AD3F81434C2F82F
:100A140030354FF080536C4AD3F81834C2F834356B
:100A24004FF08053684AD3F81C34C2F840354FF075
:100A34008053654AD3F82034C2F844354FF08053CC
:100A4400614AD3F82434C2F848354FF080535E4AE3
:100A5400D3F82834C2F84C354FF080535A4AD3F8AF
:100A64002C34C2F850354FF08053574AD3F8303401
:100A7400C2F854354FF08053534AD3F83434C2F893
:100A840060354FF08053504AD3F83834C2F8643597
:100A94004FF080534C4AD3F83C34C2F868354FF0D9
:100AA4008053494AD3F84034C2F86C354FF0805330
:100AB400454AD3F84434C2F87035FFF791FE034633
:100AC400002B02D0414B424A1A60FFF7B3FE0346A3
:100AD400002B03D03F4BFB22C3F81825FFF7D4FEAD
:100AE4000346002B0AD03C4B1B6823F00F023B4B00
:100AF4001B6803F00F03384913430B60FFF7EEFE46
:100B04000346002B03D0364B4FF400721A60FFF7F4
:100B14000FFF0346002B0DD04FF08043D3F8003471
:100B240003F00103002B05D04FF080436FF0010266
:100B3400C3F800242B4BD3F888302A4A43F47003BB
:100B4400C2F88830BFF34F8F00BFBFF36F8F00BF71
:100B54004FF01023D3F80032002B05DB4FF01023A5
:100B6400D3F80432002B2BDA1F4B0122C3F80425DF
:100B740000BF1D4BD3F80034002BFAD04FF01023E4
:100B84001222C3F8002200BF174BD3F80034002B05
:100B9400FAD04FF010231222C3F8042200BF124BE4
:100BA400D3F80034002BFAD00F4B0022C3F80425ED
:100BB40000BF0D4BD3F80034002BFAD0FFF7A8FD8B
:100BC400FFF7E0FE00BF08BD00C000408C560040A7
:100BD4004881030000F00040E40E00405802001079
:100BE4004096024000ED00E000E00140082938BFD3
:100BF40070470022C0E9002140F22401C2F2000142
:040C040008607047CD
:100C08002E2E2F2E2E2F2E2E2F2E2E2F2E2E2F2EF7
:100C18002E2F6D6F64756C65732F6E7266782F68F2
:100C2800616C2F6E72665F6770696F2E68000000D6
:0E0C380000000000000000000338FDD87047E7
:040C48000090D00345
:04000003000003896D
:00000001FF
