:020000040002F8
:10700000B05E0020C1730200C9730200CB7302009E
:10701000CD730200CF730200D173020000000000A4
:10702000000000000000000000000000D373020018
:10703000D573020000000000D7730200D97302006C
:1070400015760200DB730200B5780200DB730200E4
:10705000DB730200DB73020071750200DB73020058
:10706000DB730200DB730200DB730200DB730200E0
:10707000DB730200DB730200DB730200DB730200D0
:10708000DB7302006D760200DB730200DB7302002B
:10709000DB730200DB730200DD760200DB730200AB
:1070A000DB730200DB730200DB730200DB730200A0
:1070B000DB730200DB730200000000000000000030
:1070C000DB730200DB730200DB730200DB73020080
:1070D000DB730200DB730200DB730200DB73020070
:1070E000DB730200DB730200DB73020000000000B0
:1070F00000000000DB73020000000000DB730200F0
:10710000000000000000000000000000000000007F
:10711000000000000000000000000000000000006F
:10712000000000000000000000000000000000005F
:10713000000000000000000000000000000000004F
:10714000000000000000000000000000000000003F
:10715000000000000000000000000000000000002F
:10716000000000000000000000000000000000001F
:10717000000000000000000000000000000000000F
:1071800000000000000000000000000000000000FF
:1071900000000000000000000000000000000000EF
:1071A00000000000000000000000000000000000DF
:1071B00000000000000000000000000000000000CF
:1071C00000000000000000000000000000000000BF
:1071D00000000000000000000000000000000000AF
:1071E000000000000000000000000000000000009F
:1071F000000000000000000000000000000000008F
:10720000DFF80CD000F076F900480047F99D020045
:10721000B05E002030B450E8012F93B2C4892344FB
:107220008489A34228BF1B1B0489A34202BFBFF36A
:107230002F8F002007E0C3EA020340E80134002C4E
:10724000E9D14FF001000A6030BC704750E8012FCF
:10725000C2EA024240E801210029F7D1704730B468
:1072600050E8022F1FFAA2F3C488A34202BFBFF363
:107270002F8F00200DE0C48923448489A34228BFB6
:107280001B1BC2EA034340E80234002CE8D14FF054
:1072900001000A6030BC704750E8022FC2EA224267
:1072A00040E802210029F7D17047034653E8022F36
:1072B000D988B2EB324F4FF0000017BF92B241EACB
:1072C000014142EA014104E05A68B2EB324F08BF83
:1072D000012043E80212002AE8D1704730B4044686
:1072E00054E8000F0D4644E80053002BF8D1156018
:1072F00030BC704730B4044654E8000F40EA010542
:1073000044E80053002BF7D1156030BC704730B40F
:10731000044654E8000F00EA010544E80053002B3E
:10732000F7D1156030BC704730B4044654E8000F04
:1073300080EA010544E80053002BF7D1156030BC0A
:10734000704730B4044654E8000F00EB010544E8F0
:107350000053002BF7D1156030BC704730B40446A1
:1073600054E8000FA0EB010544E80053002BF7D1CF
:10737000156030BC704770B404464FF0000054E80C
:10738000006F0D68AE4207BF44E80023012044E8C7
:1073900000630E60002B1CBF0020F0E770BC70473C
:1073A00030B4044654E8000F88422CBF451A054605
:1073B00044E80053002BF5D1156030BC7047000045
:1073C0000648804706480047FEE7FEE7FEE7FEE77F
:1073D000FEE7FEE7FEE7FEE7FEE7FEE7E1760200F6
:1073E000017202002DE9F05F0546002092469B469F
:1073F00088460646814640241BE0284641464746CB
:10740000224600F067F853465A46C01A914110D3FD
:1074100011461846224600F016F82D1A67EB0108AF
:107420004F4622460120002100F00DF817EB00091D
:107430004E41201EA4F10104DFDC484631462A46B5
:107440004346BDE8F09F202A04DB203A00FA02F10F
:10745000002070479140C2F1200320FA03F3194342
:1074600090407047004870479CD5020040EA0103F5
:107470009B0703D009E008C9121F08C0042AFAD2EA
:1074800003E011F8013B00F8013B521EF9D27047AE
:10749000D2B201E000F8012B491EFBD27047002256
:1074A000F6E710B513460A4604461946FFF7F0FF03
:1074B000204610BD421C10F8011B0029FBD1801A88
:1074C0007047034611F8012B00F8012B002AF9D16F
:1074D00018467047202A04DB203A21FA02F00021E6
:1074E000704721FA02F3D040C2F1200291400843D4
:1074F00019467047064C074D06E0E06840F001036E
:1075000094E8070098471034AC42F6D3FFF77CFEAE
:1075100010DD020030DD020070B58C1810F8015B40
:1075200015F0070301D110F8013B2A1106D110F81C
:10753000012B03E010F8016B01F8016B5B1EF9D120
:107540002B0705D40023521E0DD401F8013BFAE7A6
:1075500010F8013BCB1A921C03E013F8015B01F811
:10756000015B521EF9D5A142D8D3002070BD0000A6
:107570002DE9FC410025DFF8948000954FF48076DA
:1075800001242F460195304603F040FB38B1D8F86E
:107590000403204203D0304603F02EFB2543361D62
:1075A00064007F1CB6B2082FEDD34FF4BE742046A2
:1075B00003F02CFB48B1204603F01EFB45F00045CC
:1075C0006A460221002003F07FFA15F0FF0F16D063
:1075D000012600242E420ED008EB8401D1F81005BC
:1075E000D1F81015C0F30520094AC1F3014152F842
:1075F000242002B190477600641C082CEAD3002DA9
:1076000002DA684604F0C4FEBDE8FC810060004078
:10761000D034002070B54FF48076304603F00EF879
:10762000114CB50560B1304603F00FF80120C5F8E4
:107630000803607920B90120607121680020884723
:107640004FF48276304602F0F9FF00280AD0304627
:1076500002F0FBFF0220C5F808032168BDE8704076
:107660000120084770BD0000502B0020024902484D
:10767000091F096800680847BC2B002000F020B9EA
:1076800070B50E46144900EB400001EBC0051446EE
:10769000E86A183520B101280FD0022805D113E07F
:1076A000284600F041F9A04201D2002411E0224610
:1076B0003146284600F070F90BE0284600F034F916
:1076C000A042F4D20446F2E73146284600F037F9EA
:1076D0000446204670BD0000283C002003F0E8BFAF
:1076E00070B54FF080520124D2E94C1000230829D4
:1076F00006D1CD06C5F80C31C5F810315E4D2B60B2
:10770000082955D15D4D2D685D4E35605B4D2D1DB1
:107710002D68361D3560594D08352D68361D35608C
:10772000564D0C352D68361D3560544D10352D687D
:10773000361D3560514D14352D68361D35604F4D61
:1077400018352D684E4E203635604C4D1C352D6851
:10775000361D3560494D20352D68361D3560474D45
:1077600024352D68361D3560444D28352D68361D6D
:107770003560424D2C352D68361D35603F4D303516
:107780002D683F4E403635603C4D34352D68361DF2
:1077900035603A4D38352D68361D3560374D3C35EE
:1077A0002D68361D3560354D40352D68361D3560E8
:1077B000082904D1050002D1334E324D3560082925
:1077C00004D1050002D1314EFB253560082908D1CE
:1077D000050006D192F858622D4A156866F3030534
:1077E0001560082904D1020002D12A4D8A012A60BD
:1077F000082906D128480168C90702D06FF00101A5
:1078000001602648016841F470010160BFF34F8FA9
:10781000BFF36F8F4FF01021D1F80002002803DB77
:10782000D1F80402002822DA1D4A14601D480468B9
:10783000002CFCD01224C1F800420568002DFCD0B9
:10784000C1F8044201680029FCD0136001680029D6
:10785000FCD0BFF34F8F11487C380168124A01F405
:10786000E06111430160BFF34F8F00BFFDE7104996
:107870000E48086070BD0000380500400404001088
:1078800020C50040488103008C56004018F5004098
:10789000E40E0040409602400004004088ED00E005
:1078A00004E5014000E401400400FA050090D00323
:1078B000342C00200148006800470000582B0020AD
:1078C00010B5124C02202061606111A0A06104F18A
:1078D0007800E0614FF4007020620020A0626062D6
:1078E0000BA1A164E06204F51E71E1641021A065A2
:1078F000C4E91410E06509A1E01DFFF7E2FD08A14D
:107900002046FFF7DEFD2020A07110BD283C00209E
:107910005465726D696E616C000000005254540031
:1079200053454747455200000269C1688A4203D85F
:107930008068401A104400E0501A401E70472DE93C
:10794000F047C4681746894606464FF0000830697C
:10795000A04201D9051B02E0B168201A0D1AB068D7
:107960006D1E001BA84200D80546BD4200D33D460F
:1079700070682A4620444946FFF778FDB0687F1BAF
:107980002C44A844A944A04200D10024F460002F54
:10799000DDD14046BDE8F0872DE9F0410446884638
:1079A000D4E90207C51BE168606816460844B54281
:1079B00006D94146FFF75AFDB819E060BDE8F081ED
:1079C0002A464146FFF752FD761B08EB0501324679
:1079D0006068FFF74BFDE660F0E70000014A0249EE
:1079E00000F026B8319A0200CC2B002002E008C833
:1079F000121F08C1002AFAD170477047002001E029
:107A000001C1121F002AFBD170470000012120286C
:107A100003DA81400548014003E0402802DA2038BB
:107A2000814009B10120704700207047FC06FFBD6E
:107A30002DE9F04116460F460446002503E039467D
:107A4000B047641C6D1C20780028F8D12846BDE89A
:107A5000F08190F82400012801D01F207047EE200B
:107A6000704710B501220221002001F0CBF908B1C6
:107A7000072810D107220221012001F0C3F908B123
:107A8000072808D100210A22084601F0BBF908B1F5
:107A9000072800D1002010BD022001F0B5B8000079
:107AA00070B50024064D06E06868012110F8340026
:107AB00003F016FF641C28788442F5D3002070BDC3
:107AC000602B0020F8B516460C4605460A2A01D25E
:107AD0000720F8BD03F0FCFF18B903F0BDFF002834
:107AE000F7D1134F202113487D603C70BE60FFF733
:107AF000D6FC0020C7E904000F4E0DE005EBC400E2
:107B00003168009181788DF8011000780B4A694640
:107B100003F032FF0028DCD1641EE4B2EED2BDE8EF
:107B2000F84005480021064A001D00F087B8000013
:107B3000602B0020B035002094D20200019B02008F
:107B40000596020072B603F0E5FA00BF03F02EF9C5
:107B50000028FBD111481249401AC408012000EB4B
:107B6000044010A103F03EFA11480068C00700D09D
:107B700000BE022000EB04400EA103F033FABFF375
:107B80004F8F0B48E43801680E4A01F4E06111435D
:107B90000160BFF34F8F00BFFDE70000A0DD0200D2
:107BA00040DD0200466174616C206572726F720084
:107BB000F0ED00E053797374656D20726573657440
:107BC000000000000400FA050EB500210091CDE987
:107BD00001106A4644F20100FFF7B4FF0EBD10B574
:107BE0008268C368934203D001F0F6FE002010BD06
:107BF000052010BD29B112B1531E134203D0092034
:107C000070470E2070470160838000218160C16051
:107C10000846704710B58268C3689A1A83889A42EA
:107C200003D801F0E3FE002010BD042010BD0000C9
:107C3000014801F04EBD0000802B00203AB10068E1
:107C40000129426100D00021016100207047072016
:107C50007047000038B51148082358224168009148
:107C60000F49006802F0CBFA002815D10D4A694689
:107C70000D4801F033FD04000ED101210A4801F046
:107C8000A8FD0123094A1946074801F0FAFC0649F4
:107C9000012008390870204638BD00009CD202003F
:107CA000E03500205DC50200802B0020FFFF7F0033
:107CB00070B50446007F0D4608B1002070BDA2617A
:107CC00001F004FF401941F10001C4E902012069FB
:107CD00000B125612146BDE87040002004F01ABFC4
:107CE000014600200877012004F014BF70B50A4E49
:107CF00001460A48B578FFF772FF04464DB10020EF
:107D0000B070711C0122C81D02F016FD08B1FFF70A
:107D10005BFF204670BD00009C2B00203836002001
:107D2000F0B5244E89B01F460D00044672603FD066
:107D3000A888296882B22048FFF75CFF002835D167
:107D4000A889A96882B21C481030FFF753FF0028A9
:107D50002CD1202219496846FFF788FB60690690FC
:107D6000207C00B101208DF814008DF81C70607C1F
:107D700000B10E208DF81500E0680290A068039015
:107D800020680190606800900A480D4A69460830F2
:107D900002F09EFC002809D1B0702068401C05D07C
:107DA00004490122491CC81D02F0C6FC09B0F0BDFF
:107DB0000720FBE79C2B002038360020B0D20200C1
:107DC00031CC020010B501461048FFF723FF040034
:107DD00019D10F480F4A0178515C19B1001D04F008
:107DE00009F902E00C3003F0DFFF60B908490748E9
:107DF0000839FFF7F4FE30B9054901220839044873
:107E000002F0AAFC0446204610BD000048360020BF
:107E1000A42B00203C2B002030B5EFF3108172B66C
:107E20000D4A9468012324B10370002900D162B681
:107E300030BD93604FF0E023D3F88051074C2540CC
:107E40001560C3F88041D3F8844154605A17C3F8D1
:107E5000842100220270E8E758360020FC06FFBDAE
:107E60000B498A68002A11D000280FD1EFF3108047
:107E700072B60B684FF0E022C2F800314B68C2F8CE
:107E8000043100228A60002800D162B670470000E9
:107E90005836002070B5054608680C46411C04D0D1
:107EA00002F083FE206802F0E3FD6068411C02D00E
:107EB000002102F0CBFD2968A069C1F82405607D8E
:107EC000227D29681043C1F86C05D4E900122868A6
:107ED000C0F81425C0F80C15207D012814D1A06825
:107EE000411C02D0002102F0B1FDE068411C04D029
:107EF00002F05BFEE06802F0BBFDD4E902122868E4
:107F0000C0F80825C0F8101570BD70B505460868A2
:107F10000C46411C04D002F052FE206802F0B2FD73
:107F20006068411C02D0002102F099FD2968A06917
:107F3000C1F82405607D217D2A680843C2F86C05DC
:107F4000D4E900122868C0F80C15C0F81425207D6B
:107F5000012814D1A068411C02D0002102F07FFD4D
:107F6000E068411C04D002F02AFEE06802F08AFDBD
:107F7000D4E902122868C0F80825C0F8101570BDB1
:107F800070B51500044609D00020286034B120687F
:107F900020B1A079800703D0072070BD0E2070BDEE
:107FA000084600F01BFBC0B2142804D0217981429E
:107FB00003D8042070BD052070BDE288216800FB55
:107FC00002102860002070BD2DE9FC4700251788AD
:107FD0000646158090F82D001446894630B13A4681
:107FE0002146484600F00EFB051E09D1B0784FF03F
:107FF0000C0A18B32088C846001DB84202D9504662
:10800000BDE8FC87684679DF0028F9D12088032184
:1080100008F8001020881921401C80B2208008F840
:1080200000102088401C80B2208000EB0801BDF8C1
:10803000000004F09EFF218808442080F07802228E
:10804000C8B1218896F9033001F1030C4846BC45BC
:10805000D5D8425421884FF0010C491C89B22180A7
:1080600000F801C02188491C89B2218009F801303B
:108070002088401C20807068B8B1218890F90030B9
:1080800001F1030C4846BC45B9D8425421880A2264
:10809000491C89B2218042542188491C89B221801F
:1080A00009F801302088401C2080308950B1CDE98A
:1080B00000474B460622022106F1080005F01AF897
:1080C000051E9DD1308A50B1CDE900474B460722AD
:1080D000032106F1100005F00DF8051E90D1308B3C
:1080E00050B1CDE900474B461522142106F1180086
:1080F00005F000F8051E83D1306A30B13B462246B8
:10810000494601F0B4F9051EDBD1706A30B13B4637
:108110002246494601F096FF051ED2D196F82C0062
:1081200038B13B4622464946304604F07BFB051EEB
:10813000C7D1307838B13B4622464946304602F036
:108140000BF8051EBDD128465AE718B50446002095
:10815000ADF8000013466A46204600F006F80028F5
:1081600002D0BDF80000204418BD70B5E0B1DAB10E
:10817000002402E0045D2C44A4B2651C8D4206D2AA
:108180001688A642F6D8061976789E42F2D18C421D
:108190000AD2A31C005D9BB200B1401E0004000C7B
:1081A00002D01C188C4201D9002070BD138070BD14
:1081B00080F8301070472DE9F0410D00044606D0DC
:1081C0002CB195F87A000026012803D006E00E2095
:1081D000BDE8F08195F89800012821D04FF0010802
:1081E000A6702C2205F17801201DFFF73FF984F8D5
:1081F0003060D5F8A4006063D5F8A800A0634FF6FE
:10820000FF70A4F8240404F58260C4F82004C4F8C4
:108210002664A4F82A6484F82C64207810B104E061
:108220000720D5E7FF2084F8540004F155072046C5
:10823000C4F81074FFF70DFCA4F8140404F21442FF
:1082400039462846FFF7C0FE0028C1D104F231208C
:10825000C4F818042046FFF7FCFBA4F81C0404F241
:108260001C4205F13C00D4F81814FFF7ADFE0028BD
:10827000AED184F85180208BA4F8480084F83C806B
:10828000266484F85060606900216064454604F10A
:108290003C02781E72DF00289AD1257098E710B54D
:1082A0000288102A1BD0112A20D0262A1DD1007A3C
:1082B0000C46012801D0022817D1A0780521401CC6
:1082C000B0FBF1F201FB1201204600F03AF8002861
:1082D0000BD0A16B002908D0BDE810400847C27B35
:1082E000012A02D18088A1F8240410BD0C46002187
:1082F00084F82E148088B4F824148842F5D12079AB
:108300000028F2D10121DFE710B5044690F85400AF
:1083100074DF012084F82E04002084F8300484F8EF
:1083200050000621204601F06FFB002808D1A178FB
:10833000204600F006F810B1A16B01B1884700207B
:1083400010BD2DE9F05F044600780F4698B1A77084
:108350000025C4F82654A4F82A5484F82C54A07993
:10836000012608B1012F09D0E07980B1012F05D095
:10837000022F03D00BE00820BDE8F09F616B21B114
:1083800084F82D640820884701E084F82D5404F215
:10839000274100200A5C0AB1304603E0401C062851
:1083A000F8D300204FF002084FF0030B012F06D046
:1083B000022F0CD0032F0FD0042F15D110E0A1797C
:1083C00029B194F8241011B908B130460DE0E179D3
:1083D00011B108B1404608E0207A08B1584604E0DF
:1083E000607A08B1042000E02846A070616B41B1BA
:1083F000032801D0042804D1607910B194F82E0428
:1084000098B184F82F5404F13C0018210746FFF777
:1084100046F884F83C6004F12C0003F087FF58B163
:1084200094F82C0084F8510008E084F8305484F863
:108430002F6407208847E6E784F8516094F8240009
:1084400058B104F1280003F071FF20B194F828001E
:1084500084F8520001E084F8526084F85050A27809
:1084600004F2264104F582694FF0060A052A64D217
:10847000DFE802F07C030F22420084F83160C4F888
:108480002054C4E9101584F83C808020A4F84800EA
:1084900055E084F8318094F82420384612B1072240
:1084A000027001E080F800B0228A8281C4F8205472
:1084B0004160E168B96042E06069B860208BB881D2
:1084C00094F824003D460028204602D084F83CA0C1
:1084D00001E084F83C6004F0DFFD50B185F81480C1
:1084E0000421204601F090FA38BB052184F83110B0
:1084F00021E084F831B01EE0E069B860208CB881DA
:1085000094F824003D460028204602D084F83CA080
:1085100001E084F83C6004F0BFFD48B185F81480A8
:108520000421204601F070FA38B984F831A002E045
:10853000042084F83100C4F82094A07878B13A4639
:1085400004F15400D4F8201472DF00287FF414AF33
:1085500094F8301094F8540073DF0028F6D1616B62
:1085600011B194F831008847002005E784F83150B4
:10857000F5E7000070B5040012D001461C22144833
:10858000FEF774FF1248134D0560206850B17ADF82
:10859000002806D12068016829604068686005E00D
:1085A0000E2070BD0B487BDF0028FAD108484FF63B
:1085B000FF711438084A20F8041B0549343901605A
:1085C0000021FFF73BFB0028EBD0032070BD00002B
:1085D00024340020342B002031D0020010B5044692
:1085E00000F006F808B1204610BD142010BD0000B0
:1085F000142801D3002070470146014801F049BE0C
:10860000443400207CB5054608880C460930904269
:1086100001D90C207CBD68466DDF0028FAD1218885
:108620000820685420881B21401C80B220802954D7
:108630002088401C80B220802844DDF801100160B1
:10864000BDF8051081802088801D80B220809DF8B3
:108650000010490800D0012129542088401C2080A6
:1086600000207CBDF8B52B4D018804466E88212979
:108670003BD015DC2848294A1029A0EB02004FEA1C
:10868000D0004FF0030202EB004013D0112925D097
:10869000132929D100231A46852130467FDF17E0B0
:1086A0003B2932D052292AD056291DD18088132146
:1086B00076DF0DE01AA102F095FC072000F0C4FB64
:1086C00008B1FFF781FAA1886980184801F03EFFE0
:1086D000002809D0BDE8F840FFF776BA14A102F0EF
:1086E00081FC4FF6FF706880F8BD00200090A088E4
:1086F00069468FDF0028F7D0FFF766FAF8BD002340
:108700001A4619463046B1DFE2E78088132176DF4A
:10871000DEE70000F02A0020A0DD020040DD0200BC
:10872000436F6E6E6563746564000000402F002027
:10873000446973636F6E6E65637465640000000066
:1087400010B51A4C0188606810290ED011292BD160
:10875000401E606028D1FFF784F9002824D02168EA
:10876000002921D0BDE810400847D0B900210122DE
:10877000084600F047FB08B107280FD10722022165
:10878000012000F03FFB08B1072807D10422022195
:10879000002000F037FB20B1072802D0216801B18A
:1087A00088476068401C606010BD00002C2B0020D2
:1087B0002DE9F04701883B4E40F2F3194FF6FF7563
:1087C00010291BD011293ED0122954D0502946D14E
:1087D000C188F289841D914241D1618902293ED12B
:1087E0008688304601F0AAF9050038D004F10C0063
:1087F00000F0C1F9A8B3294630464EE0C17B878816
:10880000044601292BD1A846284601F097F9050016
:1088100017D02F8000202872234843464A4601681B
:10882000C5F80A104068C5F80E0004F1100105F102
:108830000A0001F03FFA6872F08900280FD129463A
:108840002AE0042013E0808801F078F9040006D0C3
:108850006068FFF745FA08B103F0B4FF2580BDE872
:10886000F087FFE76868FFF73BFA0028F7D0BDE81C
:10887000F04703F0A7BF87880646384601F05EF947
:108880000400ECD02B464A4606F1080104F10A0028
:1088900001F010FA607221463846BDE8F04700F05A
:1088A0002DBE000024340020342B00202DE9F04F91
:1088B000044686880188424897B0834610290CD028
:1088C000112950D0103019296AD01A2974D1217A6F
:1088D0000C09042C4DD301224CE0394D083DA86809
:1088E000C0430B9069680BA801F0F4FC0B990CA82D
:1088F00000F09EFD2C220CA96846FEF7B7FD00276C
:10890000E946A84610E000BF09EB47005FF000050C
:10891000B0F804A008EB85005146001D01F0AEFC44
:108920006D1C1E2DF6D37F1C0098B842ECD8142E77
:1089300005D317B00420BDE8F04FFFF745B9314625
:10894000584601F0B1FC314608F1040001F0ACFCDE
:10895000E07B022830D117B03146BDE8F04F18480F
:10896000001D01F0A1BC17B03146BDE8F04F01F089
:1089700085BC0022314601F042F8032C01D30122CC
:1089800000E000220E4831460C3001F038F8022C8D
:1089900001D3012200E0002209483146083006E0F8
:1089A000217A002908D1617AC1F3C002314617B09B
:1089B000BDE8F04F01F023B817B0BDE8F08F00001C
:1089C00048340020F0B585B016460F4604001D4619
:1089D00014D004AA19466069FFF7D2FA00280BD117
:1089E000A5F57F40FF380BD0049848B1007848B116
:1089F0003088F42808D9072005B0F0BD0E20FBE729
:108A00000520F9E70820F7E7002000900190029088
:108A10000390A088ADF8000001208DF80200CDE998
:108A2000026769462846AEDFE6E7000070B5334DC1
:108A300004008EB02DCD08AE86E82D005BD0E9B3E2
:108A40000868A061214608A862DF002851D120787B
:108A500001258DF83200ADF83050A21C0CA9284633
:108A6000A8DF002845D120216846FEF718FD022026
:108A7000ADF8000020788DF802008DF80C509DF8BC
:108A80000D00F426ADF8046040F00C008DF8115094
:108A9000ADF806508DF80D008DF81250608804F185
:108AA0000C02694600F0CEFB002822D12021684646
:108AB000FEF7F5FC0320ADF8000000E01BE0207895
:108AC0008DF802008DF80C509DF80D008DF81150B6
:108AD000ADF8046040F010008DF81250ADF806506B
:108AE0008DF80D008DF813506088221D694600F046
:108AF000A9FB0EB070BD0E20FBE7000074D202008F
:108B000070B588B00446002927D0002C25D008462F
:108B10002188102923D0502927D057291DD1054657
:108B2000A188406906AAFFF72BFA002815D1069EF6
:108B30003078002811D0A86900280ED01821684686
:108B4000FEF7ADFC01208DF800000195A088ADF87E
:108B500008000396A9696846884708B070BD08B048
:108B60002146BDE8704003F0BFBA08B02146BDE819
:108B7000704003F099BB007800F0010070470000DE
:108B80000149085C704700002CD20200084908B572
:108B9000085C0090684601F0AFFFD0F8100500991E
:108BA000C84010F0010000D0012080F0010008BD95
:108BB0002CD202002DE9FC410646C0074FF000050B
:108BC0000ED0104F00240122385D0095002311467D
:108BD000019501F0D7FE641C042CF4D300F04EF88C
:108BE000B0070DD5074E0024361D0022305D03234B
:108BF00000951146019501F0C5FE641C042CF4D3C8
:108C0000BDE8FC8128D20200094908B5085C009043
:108C1000684601F071FFD0F80425009B01219940BE
:108C200021EA0203C0F808351140C0F80C1508BD50
:108C300028D202000249085C012101F0CABF0000ED
:108C400028D202000249085C002101F0C2BF0000E6
:108C500028D20200084908B5085C0090684601F077
:108C60004BFFD0F804050099C84010F0010000D077
:108C7000012080F0010008BD28D2020010B50024B8
:108C80002046FFF7D7FF641C042CF9D310BD10B5A4
:108C900000242046FFF7D6FF641C042CF9D310BD36
:108CA00010B50246064B4FF0FF3000215C5C944249
:108CB00001D1084610BD491C0429F7D310BD00009E
:108CC0002CD2020070B50C4E0C004FF00005306045
:108CD0000BD0012000F06AF808B1022004E0002067
:108CE00000F064F800B10B202070706810B9FEF736
:108CF000B8FE0546284670BD2C2B002010B500207C
:108D000000F0DCF908B1062806D1012000F0D6F900
:108D100008B1062800D1002010BD00002DE9F04761
:108D20000D468146FFF7BCFF0446042836D2DFF823
:108D300074801B481C4EA8F10C0725B3012D0ED0E2
:108D4000022D2BD104EB440030444578002D25D072
:108D5000B968002922D02846BDE8F047084704EB4F
:108D60004401755C0E44717849B10E4A4FF480415C
:108D7000093A8068FEF79CFF08B987F80390B1783C
:108D800008F80410E2E78068FEF7AAFF04EB44014C
:108D9000314418F804008D78A842D7D0BDE8F08798
:108DA00030D20200282B0020C0330020042801D23A
:108DB000FFF7ECBE002070470146104810B5408810
:108DC000042907D007290ED00A2915D1BDE8104083
:108DD00003F084BD132176DF0CE000280CD0BDE841
:108DE0001040FEF7F1BEA0F57F41FF3904D10448E1
:108DF000FFF78AFA0828F0D110BD0000F02A002001
:108E00004C2F002070B50023042810D20D4D00EB2C
:108E10004004012A02D101290CD00022094E00EBA6
:108E20004000304461B1012906D0022906D0072351
:108E3000184670BD0E30C2B22A55F9E74270F7E706
:108E40008270F5E7C0330020044A01460020127901
:108E5000D20702D0084600F04DB870471C2B002006
:108E600070B506461E480024C0E90161B00720D550
:108E70000025012211462846FFF7C4FF6D1C044659
:108E8000042D02D2002CF4D013E094B940F2333216
:108E900004211448FEF716FE04000AD1FEF700FE76
:108EA000040006D10F48104A0021001FFEF7C6FE3D
:108EB0000446F00712D00120FFF77CFE74B9094880
:108EC0000A4A00210C38FEF7B9FE040006D1054815
:108ED000074A01210838FEF7B1FE0446204670BD5E
:108EE0001C2B00203CD20200C9910200299D0200E7
:108EF000997A02002DE9F05F6E4C054600266078F5
:108F0000B34618B184F801B000F0F6FE6A4F4FF492
:108F10007A694FF4C87A4FF00108182D69D2DFE85A
:108F200005F00C1313384754696E727B727BC5844D
:108F300084848484B3B6B9BCC5C500F0DDFE38684E
:108F4000FEF7CEFE06465CE00020FFF783FE002819
:108F50004FF0000008D0FFF76DFE022D02D14FF454
:108F6000E16008E0484606E0FFF76CFE022D01D103
:108F7000C82000E05046410CC0034FF47A728018BC
:108F800041F10001257052000023FEF72BFA014643
:108F90002AE00020FFF75EFE00284FF0000004D01A
:108FA000FFF748FE4FF44870E5E7FFF74BFEDFE7B9
:108FB0000020FFF74FFE00284FF0000002D0FFF71F
:108FC00039FECFE7FFF73EFED4E70020FFF742FE71
:108FD00000284FF0000002D0FFF72CFE01E0FFF761
:108FE00031FE257040F6CD4100223868FEF760FE64
:108FF000064646E00020FFF707FE257008E0002047
:1090000051E025703DE084F801800120FFF7FCFD70
:10901000002240F26661E8E784F801800120FFF752
:10902000F3FD00224FF40051DFE77868FEF758FEA9
:109030000646D5F1110000D02EB10220FFF7FAFD4F
:1090400084F802B01DE0012816D980B2C821484337
:10905000C117C90341EA5041C0034FF47A72801826
:1090600041F1000152000023FEF7BCF90146002245
:109070007868FEF71DFE06460220FFF7E3FD84F840
:1090800002803046BDE8F09F00F036FEB9E700F000
:1090900033FEB4E700F030FE04E000F02DFE0020C7
:1090A000FFF7D0FD0120FFF7CDFDAAE7FFF7EFFDA9
:1090B000A7E700001C2B002030D20200012104F0A1
:1090C00081B800002DE9F84F0546861C00208DF878
:1090D000000091460F464FF0010A6846FEF79CFEDD
:1090E0001B4C04F21C4860683860D4E90101194F38
:1090F000401A3968081A0EE00121404601F0E4F8F0
:1091000000F028FE0146404601F0DEF8D4E90101F6
:10911000401A3968081A401C8642EDD8B9F1000F90
:1091200003D0052065F3891002E0062065F39F5007
:1091300061683A68114004EB8101C860606830449E
:1091400060609DF80000FEF78BFE5046BDE8F88F8A
:1091500008380020DC2B002070B50D4604460A2993
:1091600002D10D21FFF7F8FFA0682268411CA16021
:109170001554D4E90101814204D32046BDE8704072
:1091800001F007BB70BD000004488168406881425F
:1091900001D10120704700207047000008380020EE
:1091A000034630B5074800210478426806E000BF56
:1091B00002EBC10005789D4203D0491CA142F7DBB8
:1091C000002030BD602B002000780221FFF7A6BDF3
:1091D00005494FF0FF32082841F8202002D3084407
:1091E00080F8582070470000D0340020F0B54FF0D0
:1091F000FF3512B10023082601E008230C260C4C91
:1092000005E000BF54F823707F1C04D05B1CB34200
:10921000F8D32846F0BD26185DB286F8305044F8E1
:109220002310002AF5D1E11881F85800F1E7000079
:10923000D03400200249084490F930007047000003
:10924000D03400202DE9F0438146887891B09046D3
:109250000C4600B901208DF83E002088ADF83C0096
:1092600000250095607C694603F020FB6E46A07CDB
:10927000711C03F01BFBE07B00289DF8020002D06C
:1092800040F0080001E020F008008DF80200217C89
:1092900011B140F0100001E020F010008DF8020044
:1092A000217B11B140F0010001E020F001008DF8B8
:1092B0000200217D09B1022100E0012161F3420099
:1092C0008DF802001C2102A8FEF7E9F8607BC106B8
:1092D00001D4800617D50E950EAFE07C791C03F003
:1092E000E5FA9DF83800079720F00F00401C20F0A9
:1092F000F00010308DF838009DF83A0020F006009C
:10930000801C8DF83A00607B8DF80800A07B8DF8FA
:109310000900142109A8FEF7C2F80FA8CDE9090633
:10932000A088ADF83000A06820B1E088ADF82C002E
:10933000A0680D90A06998B301950088ADF8100061
:10934000A06901AD01A94088ADF81200A06940688C
:1093500006950390A069007B03F0A8FAA069691C38
:10936000407B03F0A3FAA069807A00289DF80600EC
:1093700002D040F0080001E020F008008DF806005F
:10938000A169C97A11B140F0100001E020F010008D
:109390008DF80600A169097A19B140F0010002E0D8
:1093A0000DE020F001008DF80600A169897B09B16C
:1093B000022100E0012161F342008DF80600E0691E
:1093C00000B10590434609AA02A94846AADF11B098
:1093D000BDE8F08370B5084C050009D01034216851
:1093E000002907D008682060496828468847F6E7C2
:1093F0000834F4E770BD0000BC340020054A0121A8
:1094000020B1012805D19170FFF7E4BF5170002011
:10941000FAE77047BC34002010B5D0E90234D1E936
:109420000220D11AA04101D3012010BD002010BD9F
:1094300073B58CB00646002000900D9880B10024D2
:109440006D4621460DA800F024FF30B1009805EBD1
:10945000400084800098401C0090641C142CF0D3C1
:109460002C2269463046FEF701F80EB070BD2DE99A
:10947000F04117880646B81D14460D46984202D999
:109480000C20BDE8F0813188072206290AD34FF469
:10949000486C4FF6FF73614501D9994202D170883B
:1094A000062801D21046ECE7604501D99842F9D16F
:1094B000994203D0984201D08142F3D80520E85563
:1094C00020881221401C80B2208029542088401C12
:1094D00080B220804119308803F04BFD2188084478
:1094E00080B220804119708803F043FD2188084430
:1094F00020800020C5E7FEF767BB000038B54A7A38
:109500000F4B62B100220A725969002906D001226C
:109510008DF80020ADF802006846884738BD0A7A09
:1095200062B19B684C68024619462046FEF7C0FBB4
:109530000028F3D0BDE8384003F044B95B68F1E798
:109540002434002070B588B00646002005900690AF
:10955000ADF81410ADF816100190029001AA05A9FB
:10956000304690DF050021D002F046F9034611484D
:1095700011493246401AC108012000EB014004465F
:109580000E4901F03AFDBDF8042012B9BDF80600FD
:1095900028B1BDF80630204609A101F02EFDBDF826
:1095A00008201AB12046164901F020FD08B02846CF
:1095B00070BD000040DD020040DD0200A0D50200C9
:1095C00054686520726571756573746564205458BC
:1095D0002F5258207061636B6574206C656E6774E0
:1095E0006820697320746F6F206C6F6E67206279DA
:1095F0002025752F2575206F63746574732E000008
:10960000ECD5020070B500240F4D10E0686800EB47
:10961000C406307802F018FA7178012901D00121CE
:1096200000E000214140307800F05CF9641C2878AB
:109630008442EBDBD5E90401084303D0BDE8704068
:1096400003F084BA70BD0000602B002010B500212B
:10965000024800F04AFE80F3100010BD243C0020B8
:109660004FF480328A400168C1F848230068C0F88E
:10967000082370474FF4A07202EB810189B200F019
:10968000A1B92DE9F04105460E464FF4A07000EB5C
:10969000860081B228684FF48034B440984622F0A6
:1096A0007F47C0F808432868C0F84843286801F09D
:1096B00055FE286800EB8600C0F840752868C0F8A1
:1096C0004443B8F1000F02D02868C0F80443BDE855
:1096D000F0810068D0F804057047000070B5437948
:1096E000234C44F823204279231D03EBC202224C71
:1096F0001579204A121BD4082DB10825022000EB51
:1097000004401EA130E005680A88C5F8082590F9D4
:1097100004208978002A4FEA411104DB02F1E0229B
:1097200082F8001405E002F00F0202F1E02282F854
:10973000141D90F904100122002909DB01F01F0516
:1097400002FA05F54909890001F1E021C1F800514B
:109750004179002503EBC1010A71417943F83100D9
:10976000032000EB04400EA101F03CFC284670BD34
:10977000B82B002088DD020040DD02005254432057
:10978000696E7374616E636520616C726561647982
:1097900020696E697469616C697A65642E000000E5
:1097A0005254433A20696E697469616C697A6564E0
:1097B0002E00000090F90400002809DB00F01F02D1
:1097C000012191404009800000F1E020C0F8001222
:1097D00070470A46022100F07BB84FF4827100F016
:1097E000F1B8006801210160704700680121416003
:1097F00070472DE9F05F07460C464FF4A07000EB70
:1098000084001FFA80FA38684FF48036A6409B46E1
:1098100022F07F45C0F848633868C0F808633868AC
:10982000D0F8048500EB8402D2F84095C2F8408558
:109830005146386801F092FDA9EB080020F07F4006
:10984000012806D1102002F043F85146386801F093
:1098500085FD3868D0F80485C0F84463A5EB08019D
:1098600021F07F413868012900EB840010D0C0F856
:1098700040553868D0F804156FF07F4C6A1A521EB4
:1098800022F07F42ACEB0B03934217D362B118E096
:109890006D1CC0F84055102002F01AF83868D0F856
:1098A000040540450AD10CE000EB84006D1CC0F8B3
:1098B00040553868D0F80405884202D00D20BDE834
:1098C000F09F01223146384600F002F80020F6E70A
:1098D0000368C3F84413002A02D00068C0F80413D8
:1098E000704700002DE9F84F0E463449804601EBE1
:1098F0005001C007097801D00F0901E001F00F07FE
:109900004FF00009424601204946FDF79CFDDFF873
:10991000B0A004460D46052F4ED2DFE807F003162F
:109920001B282C00002E47D00121404603F028F8C8
:109930008DF800906846FEF76FFA5046D0E90412A1
:109940000C431543CAE9044532E00EB1022114E08C
:10995000002112E04EB10321404603F011F84046C9
:10996000BDE8F84F012103F0B5BB012105E0002E51
:1099700022D1042101E02EB103214046BDE8F84F79
:1099800002F0FEBF0021404602F0FAFF00214046EF
:1099900003F0A0FB8DF800906846FEF73DFA5046B4
:1099A000E243D0E904341A4024EA0501CAE904215B
:1099B0009DF80000FEF754FABDE8F88FB03500209E
:1099C000602B002010B5006842581AB101F0C6FCA7
:1099D000012010BD002010BD826883881A400368F2
:1099E0009A5C0A708168491C81607047C2688388EC
:1099F0001A4003689954C168491CC16070470AB194
:109A000000F052BC00F03ABC70B50D460446B0F808
:109A10001414D0F810040122FEF797FB00B1057072
:109A200004F13C0204F5826104F1540072DF70BD60
:109A300010B50446C0B2FEF7C5F9204610BD0000BF
:109A40000C484A8843889A4213D10A88A2F52063B9
:109A5000773B0ED18988C91E8AB2828006480749A1
:109A60001346401AC008032101EB004004A101F095
:109A7000C4BA7047F02A0020A0DD020040DD0200D9
:109A800044617461206C656E206973207365742075
:109A9000746F2030782558282564290010B50949AD
:109AA000094800F099FC08B1FEF78EF8F721064846
:109AB00000F086FC002803D0BDE81040FEF784B813
:109AC00010BD0000419A02002C2F002010B50B4859
:109AD000FFF7FFFD094A083AD2E90434C018D2E979
:109AE000063244F10001C31A71EB020204D24FF0B6
:109AF0008072801841F1000110BD0000802B002011
:109B000010B5C0B2FFF74CFB0446007801F09CFF93
:109B100001466078012801D0012000E0002090EA91
:109B2000010F08D00449D1E90401084303D1BDE87D
:109B3000104003F00BB810BD602B00200146034815
:109B400002888A4200D000207047000010340020B4
:109B50002DE9FC5F0E008346DDE90C47C6F10000ED
:109B600098469246814600D40846012503E000BF8E
:109B700090FBFAF06D1C5045FADAA84500D945462D
:109B800024B1002E01DB780700D5641EB80702D58A
:109B9000B8F1000F0AD0F80708D13CB1A54205D2B0
:109BA00020215846641EFFF7D7FAF6E7002E02DAA6
:109BB0004E462D2102E0780703D52B215846FFF7AA
:109BC000CBFA07F0030002280BD1B8F1000F08D13F
:109BD0003CB1A54205D230215846641EFFF7BCFABD
:109BE000F6E7CDE90047434652463146584603F072
:109BF000C5F9BDE8FC9F000070B50D46044600683D
:109C00004FF4887101F018FE4FF49071206801F054
:109C100013FE4FF49271206801F00EFE4FF4A27112
:109C2000206801F009FE4FF4AC71206801F004FED9
:109C300020681249C0F804132068690740F3073010
:109C4000090E002804DB00F1E02080F8001405E094
:109C500000F00F0000F1E02080F8141D206840F3B0
:109C60000730002809DB00F01F0201219140400964
:109C7000800000F1E020C0F8001170BD1003420028
:109C8000024600201268530713D502F00300012892
:109C900002D002280CD105E0C2F383100B68801CAF
:109CA000184404E00223086803EB92521044086051
:109CB00001207047F0B58488A518944200D8224648
:109CC000A41AC288D6189A4200D81346D21A4B88D2
:109CD0000788BB420CD34088834209D88888A042B9
:109CE00006D3A84204D8C888904201D3B04201D913
:109CF0000020F0BD0120F0BD0A4810B5807860B1A9
:109D0000002401E0022C06D02046FEF793FF641CDD
:109D1000042CF7D310BD0324F6E7BDE81040FEF78E
:109D2000ADBF00001C2B002003480179C90702D0F9
:109D30000078FFF7DFB870471C2B0020F721018067
:109D400017214180002101714171FB2181711B218B
:109D5000C17170472DE9FF410026244800F0B1FA97
:109D60002248001F074600F0ACFA214C2149A068A8
:109D700000900D6800E000986946284004EB8000E0
:109D80000C30FFF77DFF0028F5D101AA009901EA08
:109D9000050304EB8303491CDB6842F82030401CB8
:109DA00000910228F2D3019800F0030001280BD0A3
:109DB000022810D10198032101EB90500099BDF8C1
:109DC0000A6001EB900005E00198BDF80A60C0F35D
:109DD000831008440090384600F070FA08B10098EB
:109DE000A06004B03046BDE8F0810000203C0020B7
:109DF00008380020DC2B0020ACB0182270496846DF
:109E0000FDF734FB6F4806906F494FF48070CDE941
:109E10000701099007236D4A06A96846FDF780FFF0
:109E200008B1FDF7D1FE4FF48041002001F046F962
:109E300008B1FDF7C9FE00F0ABFFFDF70BFF08B15D
:109E4000FDF7C2FE62490320FFF70AF808B1FDF7EB
:109E5000BBFE69460020FEF735FF08B1FDF7B4FEF2
:109E600001F036FA08B1FDF7AFFE01F0E7FB08B1EB
:109E7000FDF7AAFE002469460120009401F07EFA55
:109E800008B1FDF7A1FE684601F010FB08B1FDF72F
:109E90009BFE9DF808004FA120F00F00401C20F011
:109EA000F00010308DF808000B2202A87CDF08B10A
:109EB000FDF78AFE00941020ADF800003C200194CC
:109EC000ADF80200ADF804404FF4C870ADF80600DC
:109ED00068467ADF08B1FDF777FEFFF7DFFD4048FF
:109EE000019001A93F4800F03CFB08B1FDF76CFE72
:109EF0003D48009069463D48FEF798FD08B1FDF7E2
:109F000063FEAC216846FDF7CAFA02208DF8000016
:109F10008DF8024005208DF803000120ADF84C00BB
:109F200032498DF87C004020891F2290149144F220
:109F3000506023902E4829902A4869460C30FEF73D
:109F40003AF908B1FDF740FE264801210C30FEF732
:109F50002FF91C216846FDF7A2FA4FF4A030CDE995
:109F600000404FF4F020029022480590032522483B
:109F70008DF80C500690ADF80E408DF810406846F4
:109F8000FEF7F8FA08B1FDF71FFE1CA0FDF726FD4D
:109F90001F482049401AC00805EB00401EA101F0EF
:109FA00021F8104803210C30FEF7CBF908B1FDF77A
:109FB0000BFE00F0FBFE0028FBD101F09DF9F8E755
:109FC00010D202002C2D00202C2E0020B9CB020034
:109FD000B98D02004E6F726469635F55415254003F
:109FE0003DB30200402F002011C00200FC2A0020D7
:109FF000A9C00200CDC00200F79402000D0A55412D
:10A00000525420737461727465642E0D0A0000004E
:10A01000A0DD020040DD02004465627567206C6FC0
:10A020006767696E6720666F722055415254206FD2
:10A030007665722052545420737461727465642E74
:10A040000000000070B5144682880E460546208840
:10A05000111D0144921C994201D8FE2A01D90C20FD
:10A0600070BD521C32542088FF21401C80B22080D9
:10A0700031542088401C80B220808119288802F049
:10A0800078FF2188084480B22080AA8842B1A9685C
:10A0900041B13044FDF7EAF92088A98808442080BE
:10A0A000002070BD072070BD2DE9F047C5881E1D3A
:10A0B000B6FBF5F78946B6FBF5F1044605FB176CD0
:10A0C000407916686843DDF820A0F718001F874222
:10A0D00000D9C61A166001E02468491E0029FBD188
:10A0E000A5EB0C078846B74216D818E004EB0C0025
:10A0F000001D09EB0803BAF1000F3A4602D00146F1
:10A10000184600E01946FDF7B1F92468F61B4FF038
:10A11000000CB844B54201D9374600E02F46002E66
:10A12000E4D1BDE8F087000030B5024651B100F03F
:10A13000D9FF0021074C08E034F821301568AB4204
:10A1400002D11160002030BD491C8142F4D30520AA
:10A1500030BD000000000000F8B50F46017814463D
:10A160000546012901D1687830B12088821C9A42C5
:10A1700032D8012902D006E00720F8BD69780144F1
:10A18000891C994228D8181A801E86B2ADF8006042
:10A190002188B81C084469467DDF0028EDD1297864
:10A1A000022904D06878BDF80020904205D3BDF89C
:10A1B0000000B04201D809200AE00820012905D199
:10A1C0006978B14202D8ADF8001001E0ADF8006046
:10A1D000BDF80010FE2901D90C20F8BD2288491CC9
:10A1E000B9542188491C89B2218078542088401CA8
:10A1F0002080BDF80010084420800020F8BD10B574
:10A2000031B1B2FBF3F403FB14241CB1092010BDDF
:10A210000E2010BD01600021416081608281C381F8
:10A22000084610BD70B50C460546FCF7F3FF002844
:10A2300002D021882868084470BD10B50A88498872
:10A240008A4203D1FDF728F8012010BD002010BD7F
:10A2500070B50C460546FDF702F8002802D061886B
:10A260002868084470BD10B50A8849888A4203D11D
:10A27000FCF7ECFF012010BD002010BD01F01F0312
:10A2800001229A40D243490900EB8100114600F0B7
:10A2900021B84A0950F8220001F01F020121914023
:10A2A000084000D00120704701F01F0301229A40AE
:10A2B000490900EB8100114600F01CB8002100F0B4
:10A2C0000FB8012100F016B808B56A46FDF739F855
:10A2D000009808BD08B56A46FDF719F8009808BD52
:10A2E00008B56A46FDF713F808BD08B56A46FCF7DD
:10A2F000F5FF08BD08B56A46FCF7FCFF009808BDED
:10A3000008B56A46FDF72AF8009808BD38B5044636
:10A3100000258DF800506846FDF77EFD21686268D3
:10A32000086890420ED9401E08600178238AE268CE
:10A3300001FB0325227A2168101AC0B20A798242F1
:10A3400000D208719DF80000FDF78AFD284638BD4F
:10A3500038B5054600208DF800000C466846FDF72C
:10A360005BFDE868298A201AB0FBF1F12A681068C1
:10A37000431C136001709DF80000FDF771FD38BDAE
:10A3800010B530B1017A42680368891AC9B21A60FF
:10A3900006E00E2010BD03681A68541C1C60117082
:10A3A000491EC9B2F7D2006800210171084610BDEC
:10A3B000C20800F007030120895C984008407047FC
:10A3C00028B1A1F11702E12A03D3072070470E201C
:10A3D000704701800020704710B560B10161F7211E
:10A3E00020F8021B20F8021BFB2100F8021BFFF7DC
:10A3F000A5FC002010BD0E2010BD0000F0B5858822
:10A4000093B00C46002D39D1018800263F4F2429F6
:10A410003BD006DC102909D011290CD0232958D1B2
:10A420004FE03A290BD0552953D129E00146204667
:10A4300001F090FE4DE0A01DFFF780FC49E02246B0
:10A44000408934F8061F814200D8084660801728EA
:10A4500000D217206080106970B1607960B1D7E9CF
:10A460000001CDE90301ADF80E506088ADF8100091
:10A47000136903A9104698476671267113B0F0BDA1
:10A480000146204601F0BAFE23E0011D2C2206A859
:10A49000FCF7ECFFBDF81800BDF81C2004EBC00170
:10A4A0004A732269AAB1D7E90423CDE90423ADF8A0
:10A4B0001200487B8DF814002269204604A99047B9
:10A4C00007E0017A207B884200D201462846FFF748
:10A4D00039F8A07A0028D1D0E1882846A5DF0125E7
:10A4E00080B11128CAD001F087F90246084809490D
:10A4F00013B0401AC00805EB0040BDE8F04006A1CB
:10A5000000F074BDA672E572B8E700005CD20200EC
:10A5100040DD020040DD020073645F626C655F67CE
:10A52000617474635F65786368616E67655F6D749D
:10A53000755F72657175657374282920726574750D
:10A54000726E65642025732E0000000020B1027831
:10A55000DE2A03D0082070470E207047418000207B
:10A56000704760B159B10278DE2A0AD009684160AB
:10A57000DE2101704FF6FF714180002070470E20F0
:10A580007047082070477FB5054600294DD0002D43
:10A590004BD008780C46DE2847D1A88861888842CD
:10A5A00002D1204602F084FD2888012825D0022807
:10A5B0003BD011283AD0512837D135F8040F6188A3
:10A5C000884232D1A978A81C02292ED1017A042907
:10A5D00003D0062901D0052927D1002100910222AC
:10A5E0008DF8002001914FF4C07202910391ADF8F3
:10A5F0000420007A05280FD010E0297A204601298E
:10A6000013D1A988428891420FD10121017204B06F
:10A61000BDE8704002F04CBDADF8041028886946D2
:10A62000B0DF002801D0616888477FBDA8886188B5
:10A630008842FAD14FF6FF7060807FBD00F1804004
:10A640000068002800D00120704708B500F1804064
:10A65000002101600068009008BD000070B50D4C3D
:10A660000125207808B185260EE00020A0606060FA
:10A670002061E060084801F003F9064601F02AF87D
:10A6800008B901F0E7F8257001F0DCF800B1A57019
:10A69000304670BDBC340020FD93020038B5002563
:10A6A0008DF800506846FDF7B7FB084CE068401E87
:10A6B000E060E06828B901F0C5F810B901F0F0F8E1
:10A6C000A5709DF80000FDF7CBFB38BDBC34002021
:10A6D000F0B505460478154889B0164640F82420A0
:10A6E000124A08690832A2F10C0742F82400487F98
:10A6F000385520226846FCF7B9FE04942878385C67
:10A7000048B10EB10A4A00E000226946281D01F056
:10A7100063FB09B0F0BD0EB1064A00E000226946B5
:10A7200005F10C0001F00CFAF3E70000402B0020CB
:10A7300031CE0200D5CC020030B40378054CE35C86
:10A740001BB130BC001D01F07DBB30BC0C3001F0F2
:10A7500061BA00003C2B002030B40378054CE35C68
:10A760001BB130BC001D01F0EFBB30BC0C3001F060
:10A77000C7BA00003C2B00200FB408B5039900298C
:10A7800004D004AA00926A4600F00FF801B05DF808
:10A7900014FB10B582680446002A05D0D4E90403EE
:10A7A000216898470020A06010BD2DE9FC47914624
:10A7B0000C00804676D014F8011B39B125290ED043
:10A7C0004046FEF7C9FC20780028F4D198F80C0028
:10A7D000002867D04046BDE8FC47FFF7DABF0020FD
:10A7E000012221782B291BD02D2902D0302908D114
:10A7F00002E040F0010001E040F00200641C002A89
:10A80000EFD100252A290ED02178A1F130020A2AA1
:10A8100011D205EB850201EB4205641C303DF1E7E6
:10A8200040F00400EAE7D9F800100B1DC9F8003029
:10A830000968641C0D44217800232E290BD114F8DB
:10A84000011FA1F130020A2A05D203EB830201EBBA
:10A850004203303BF3E76C290DD068290BD06929FE
:10A8600021D00BDC252918D0582931D063290ED0EE
:10A87000642915D117E014F8011FECE7702969D09D
:10A88000732932D075291BD0782909D120E0D9F855
:10A890000000011DC9F8001001784046FEF75CFC7D
:10A8A000641C90E76CE0D9F800100A1DC9F800207C
:10A8B0000968CDE900500A224046FFF749F9EFE761
:10A8C000D9F800100A1DC9F8002009680A2206E01C
:10A8D000D9F800100A1DC9F8002009681022CDE936
:10A8E0000050404602F04AFBDAE7D9F80010002792
:10A8F0000A1DC9F800200E68C00705D112E04046C5
:10A90000761C7F1CFEF728FC31780029F7D104E083
:10A91000202140466D1EFEF71FFCBD42C0D9002D10
:10A92000F6D1BDE74EB13046FCF7C4FD074604E062
:10A93000202140466D1EFEF70FFCBD4206D9002DBA
:10A94000F6D103E04046761CFEF706FC317800297C
:10A95000F8D1A5E7D9F80000011DC9F80010056875
:10A9600030214046FEF7F8FB78214046FEF7F4FB25
:10A9700008200021CDE90001034610222946B0E756
:10A98000BDE8FC872DE9FF411C46DDE90A78154644
:10A990000E46684600F0B0F846EA450141EA8401F7
:10A9A00041EA072242EA0841009A00EB8200C0F81F
:10A9B0000017BDE8FF812DE9FF411C46DDE90A785B
:10A9C00015460E46684600F0A5F846EA450141EAFC
:10A9D000840141EA072242EA0841009A00EB820022
:10A9E000C0F80017BDE8FF812DE9FF411C46DDE9F5
:10A9F0000A7815460E46684600F09AF846EA450180
:10AA000041EA840141EA072242EA0841009A00EB48
:10AA10008200C0F80017BDE8FF812DE9FF411C4608
:10AA2000DDE90A7815460E46684600F08FF846EADA
:10AA3000450141EA840141EA072242EA0841009ABD
:10AA400000EB8200C0F80017BDE8FF811CB50022B2
:10AA50000B46009211460192FFF7C6FF1CBD1CB5C4
:10AA600000220B46009211460192FFF7D6FF1CBD53
:10AA70001CB5002100910B46012201911146FFF700
:10AA8000B3FF1CBD1CB5002100910B4601220191B2
:10AA90001146FFF7C2FF1CBD13B50C46684600F017
:10AAA00039F8009900EB8101D1F8002722F44032F7
:10AAB000C1F80027009900EB8100D0F8001741EAA7
:10AAC0000441C0F800171CBD3CB50A4CD4E9003461
:10AAD000CDE900346B46441808E000BF53F820105D
:10AAE000D1F8205520C2C1F82055401C8442F5D829
:10AAF0003CBD000084D202000168202902D24FF040
:10AB0000A040704701F01F0101600148704700003C
:10AB1000000300500168202902D24FF0A040704786
:10AB200001F01F0101600148704700000003005060
:10AB30000168202902D24FF0A040704701F01F01A8
:10AB4000016001487047000000030050016820299F
:10AB500002D24FF0A040704701F01F010160014890
:10AB6000704700000003005042094FF0000102D07E
:10AB7000012A05D102E04FF0FF3101E04FF6FF71ED
:10AB800000F01F00012282400A4201D001207047DC
:10AB90000020704701B56846FFF7BCFFD0F81005EC
:10ABA0000099C84000F0010008BD01B56846FFF7F4
:10ABB000BFFF009A01219140C0F8081508BD01B5FA
:10ABC0006846FFF7C3FF009A01219140C0F80815BD
:10ABD00008BD38B501240090684631B1FFF78CFFFD
:10ABE00000998C40C0F8084538BDFFF785FF0099F3
:10ABF0008C40C0F80C4538BD034908B50844002115
:10AC000001600068009008BD0060004002494058A3
:10AC1000012800D0002070470060004030B5154A80
:10AC200001460020D2F8104423460AE0DB681D7973
:10AC3000854205D1401C0A28F6DB4FF0FF3030BDBD
:10AC40001B68002BF2D1431CF9D0CB681871D2F8E5
:10AC5000103443B1DB68CC681B682360D2F8102441
:10AC6000D268116030BDC2F81014C96800220A60B1
:10AC700030BD0000083800207047FCF7FFBC70476B
:10AC800008B5034A00924023024A00F005F808BDC7
:10AC9000D5C7020070360020F0B595B01C461546A9
:10ACA0000F4608461A9E00F0EDFA182109A8FCF795
:10ACB000F6FB0E96CDE909540023082203A9384675
:10ACC00000F0F5FA05980690BDF81000ADF81C00EC
:10ACD000BDF81200ADF81E0000208DF82100039889
:10ACE000082600F00300012802D0022818D032E024
:10ACF00003983346850AC0F3C2008DF820000398FC
:10AD00000FA9C0F38314A200384600F0D0FA09A8B6
:10AD1000009006AB22460FA9284600F00FFA1AE071
:10AD20000398840DC0F3C2008DF82000082C01D2D6
:10AD3000254600E0082533462A460FA9384600F08C
:10AD4000B6FA2E44641B09AB06AA29460FA800F0E8
:10AD50005DF9002CEAD1384600F09AFA15B0F0BD42
:10AD60000A4A012902EBC00007D0022907D00329B3
:10AD700007D0042907D00020704702207047042024
:10AD800070470079704740797047000040DD02004D
:10AD900010B5FFF772FF04210348FFF73FFF024998
:10ADA0000120C968487110BD30DD02002DE9F04F67
:10ADB0008DB0FEF7E9F918B100200DB0BDE8F08FB5
:10ADC0007E4C4FF0000BC4F818B4BFF34F8F7C4992
:10ADD000A06802900D68D846284004EB80000BE084
:10ADE000D4F8180470B961680298814201D8A16052
:10ADF000E2E7284004EB80000C3002A9FEF740FF98
:10AE00000028EDD1002005AA029901EA050304EB10
:10AE10008303491CDB6842F82030401C0291022861
:10AE2000F2D3059800F00300022802D001284DD08B
:10AE3000AAE005985022810D8946B2EB905F00D8B8
:10AE400050210E4666F39F50059008315D4800F092
:10AE5000D0F9070078D000F015FA4346082205A97A
:10AE6000384600F02CFA029908F1080A2940681ABD
:10AE70008000001D864222D9504D0C3530B1C2B23F
:10AE800004EB8101301A90460C3104E02946F2B2FD
:10AE9000002590462846C6B25346384600F00FFAC1
:10AEA0000AEB080325B132462946384600F007FA76
:10AEB000029909F1030001EB900002903BE004EBE2
:10AEC00081015346324638460C31EFE70598C0F30E
:10AED0008310062800D30620059960F38911C1F379
:10AEE0008310801C05918100364800F082F907002C
:10AEF0004AD000F0C7F94346082205A9384600F0B9
:10AF0000DEF908F1080800260FE00298434600EA3F
:10AF10000501401C04EB81010290042238460C31EB
:10AF200000F0CDF908F10408761C0598C0F38310F1
:10AF3000B042EAD847B1D4F81054D4F8180478B124
:10AF4000384600F0A5F934E01EE0E86840790128B1
:10AF500004D12A682846394612689047E86805688F
:10AF6000002DF2D1384600F093F98DF800B0684614
:10AF7000FCF752FFD4F8180408B90298A0609DF8B5
:10AF80000000FCF76DFF14E0D4F8104405E02168E0
:10AF9000204689688847E0680468002CF7D10A4891
:10AFA0000A49401AC008022101EB004008A100F044
:10AFB00019F8FEF7E9F880F00100FEE608380020F5
:10AFC000DC2B0020C0DD0200A0DD020040DD02001D
:10AFD0004261636B656E647320666C75736865644B
:10AFE0000000000000231A4601F0E2BC08B501236E
:10AFF00000926A4601F0DCFC08BD1CB5CDE90023D7
:10B0000002236A4601F0D4FC1CBD00002DE9F04784
:10B010000E4680461C469246082940D894F80C906B
:10B02000002020731946104601F040FA0025B54271
:10B0300006D218F805201BA12046FFF79DFB03E070
:10B040001AA12046FFF798FB6D1C082DEFD318A11D
:10B050002046FFF791FB0025B54212D218F8057083
:10B060007E2F08D8FCF7FEF90068C05D10F03E0F97
:10B0700001D03A4600E02E220EA12046FFF77CFBCD
:10B0800003E00DA12046FFF777FB6D1C082DE3D3ED
:10B0900001222146504601F0EBF984F80C90BDE8FE
:10B0A000F0870000202530327800000020202000AA
:10B0B0007C0000002563000020000000064910B558
:10B0C00000200870054800F0E1F8002803D104488A
:10B0D00000F036F9002010BD08380020C0DD020065
:10B0E00068D4020002480349401AC00870470000B3
:10B0F000C0DD020040DD020013B56846FFF714F81A
:10B1000008B100201CBD0248009950F831001CBD58
:10B1100040DD020070B508480125D0F810440570E4
:10B1200007E0E06845712168204649688847E06883
:10B130000468002CF5D170BD083800202DE9FF47C8
:10B1400081460C9D00200C462F7B2873984616469E
:10B150002946184601F0AAF9072E42D2DFE806F088
:10B1600004090F161F2A360049462846FFF704FB3C
:10B1700037E0494628462268FFF7FEFA31E0D4E975
:10B18000002349462846FFF7F7FA2AE0A068009016
:10B19000D4E9002349462846FFF7EEFA21E0D4E936
:10B1A0000201CDE90001D4E9002349462846FFF712
:10B1B000E3FA16E004F1080007C88DE80700D4E9B7
:10B1C000002349462846FFF7D7FA0AE004F10800B1
:10B1D0000FC88DE80F00D4E9002349462846FFF741
:10B1E000CBFA00222946404601F042F92F73BDE810
:10B1F000FF872DE9F041058A80462D1F4819C01CA4
:10B20000B0FBF5F0C6B24046FFF780F8041E19D037
:10B210000020207101206071E58000272546761E00
:10B22000C4F800800BE04046FFF770F860B1617928
:10B23000491C6171286005467F1CC0F80080B74238
:10B24000F1D32046BDE8F081204600F002F800204E
:10B25000F8E72DE9F041457901466B1E002201E037
:10B260000968521C9A42FBD30F680146002605E08C
:10B2700038460C68FFF76CF82146761CAE42F7D3CF
:10B28000BDE8F0810121001DFFF71EB8FFF778B877
:10B2900010B504460121001DFFF732F810F0FF0F32
:10B2A00004D12046BDE81040FFF7D3BF10BD1CB548
:10B2B00001920122009201AAFEF7F6FE1CBD1CB508
:10B2C00001920022009201AAFEF7EEFE1CBD0000D2
:10B2D000064910B500204870091D0860BFF35F8F54
:10B2E0000349044800F01AFA002010BDC42B0020C6
:10B2F00000D302006436002008B500208DF800005D
:10B300006846FCF789FDF1EE100A20F09F00E1EE9F
:10B31000100ABFF35F8F08494020C1F880029DF8F2
:10B320000000FCF79DFD00F0D5F908B141DF08BD34
:10B3300020BF40BF20BF08BD04E000E0FCF744BCD4
:10B34000826800219160826811618268516182681F
:10B35000D1608268516080680160704708B5002242
:10B3600042504058009008BD20B10349096801606F
:10B37000002070470E207047ECD402002DE9FE43F8
:10B3800007460E460846FFF7EFFF00287CD1002451
:10B390000094019406208DF800704FF00108ADF87C
:10B3A000040002948DF8028069462020326869DF2B
:10B3B0003649374A891AC908012202EB014530B1E2
:10B3C00000F01AFA024628463249FFF70FFE0094B1
:10B3D0008DF801808DF80240019402948DF80340AD
:10B3E00069464020326869DF30B100F005FA024654
:10B3F00028462949FFF7FAFD00948DF80070F720E0
:10B40000ADF802000194029469462320326869DF96
:10B4100030B100F0F1F9024628462049FFF7E6FD79
:10B420000094019402948DF80080694601203268EE
:10B4300069DF30B100F0E0F9024628461849FFF70D
:10B44000D5FD4FF4B0600090019402946946A120AC
:10B45000326869DF30B100F0CFF902462846114961
:10B46000FFF7C4FD0094019402948DF800406946F2
:10B47000A020326869DF30B100F0BEF902462846EC
:10B480000949FFF7B3FD0020BDE8FE83B0DD0200EF
:10B4900040DD02008CDB0200D4DB020020DC020075
:10B4A000ECDA020038DB020098DA02002DE9F04104
:10B4B0000546076860DF804619491A482A68081A55
:10B4C000C608BA4219D9022000EB064416A120464C
:10B4D000FFF788FD20463A461FA12B68FFF78DFD38
:10B4E0004FF08050D0F80C012968800200F1005024
:10B4F000421A204625A1FFF779FDB8F100004FF070
:10B5000001040AD000F078F9024604EB06402AA1B3
:10B51000FFF76CFD4046BDE8F0812F480470F9E765
:10B52000B0DD020040DD0200496E73756666696336
:10B5300069656E742052414D20616C6C6F6361745B
:10B54000656420666F722074686520536F6674446A
:10B5500065766963652E00004368616E67652074D7
:10B5600068652052414D207374617274206C6F6362
:10B570006174696F6E2066726F6D20307825782057
:10B58000746F20307825782E000000004D617869B6
:10B590006D756D2052414D2073697A6520666F721A
:10B5A000206170706C69636174696F6E20697320CB
:10B5B000307825782E00000073645F626C655F65EB
:10B5C0006E61626C6528292072657475726E65649F
:10B5D0002025732E00000000332C002030B51548C4
:10B5E000ADF5017D0078002821D04FF4FA7500BF39
:10B5F000ADF8005280A9684661DF38B1052816D041
:10B600000DF5017DBDE83040FCF7DEBA6C460A4915
:10B610007DA800F083F806E0D0E90021204690479D
:10B620007DA800F092F87F980028E1D0F4E70DF5AE
:10B63000017D30BD332C0020F0D402007CB5194CC4
:10B64000207808B108207CBD0120A070002001F006
:10B650008BF8112819D0002001F09EF8124800261E
:10B66000006801908DF800606846FCF7D5FB0F4933
:10B6700001A810DF05000AD0002020709DF800000E
:10B68000FCF7EEFB2DB128467CBD00207CBD0120DF
:10B69000F3E7A670667001F041F9012001F07CF833
:10B6A000F3E70000302C002084D40200457B020028
:10B6B0000EB50749684600F031F805E0D0E9001002
:10B6C0008847684600F041F802980028F6D10EBD80
:10B6D000A0D402000148007870470000302C002000
:10B6E0001FB568464BDF30B1052814D004B0BDE863
:10B6F0001040FCF769BA084901A800F00FF806E00D
:10B70000D0E900210098904701A800F01EF80398A6
:10B710000028E6D0F4E71FBD0CD5020001600968DF
:10B720004160AFF3008010B5D0E900215368994221
:10B7300001D1002104E0D1E90034A34202D019462E
:10B74000816010BD08314160F0E7816800290BD0AD
:10B75000026892680A44826041684B689A4203D149
:10B7600008314160FFF7DFBF704770B50D460646F0
:10B77000446804E0B2682946904718B124682068FC
:10B780000028F7D120682860256070BD40680068F7
:10B79000704741680868002801D002680A60704755
:10B7A00002460020526806E08B4203D10868106010
:10B7B000012070471A461368002BF5D1704700002E
:10B7C0000C4A10B502F594730EE0991AC91001EBFA
:10B7D000D171491002EBC1010C68844201D90B46BA
:10B7E00002E005D201F108029A42EED3002010BD1A
:10B7F000486810BD20D3020000B5FFF7E1FF002824
:10B8000000D1014800BD00000CD3020040580028C0
:10B8100000D00120704708B50022425040580090E7
:10B8200008BDD0F80403084000D0012070474058FC
:10B83000002800D00120704708B50022425040582F
:10B84000009008BD02480068002800D00120704721
:10B850000004014008480068012110F0010F06D1E2
:10B860004FF0E020C02280F800248430C1670349F3
:10B87000012008607047000000E100E0180500406A
:10B880000649024600200B790BB1852070470A60FB
:10B8900001220A7100224A7170470000502B0020DB
:10B8A000022010B54107C1F808034FF48270FEF77B
:10B8B000CCFE05490120086004480168C1F300413D
:10B8C0000029FAD110BD00000C000040180400400F
:10B8D000002802D00149800108477047D1D20200F8
:10B8E0002DE9F0410D46064600F03AFD00283046AD
:10B8F00015D0FDF79FFC083800F0B2FD032802D0F8
:10B9000001280AD003E03046FFF744F928B10321AB
:10B910003046BDE8F041FFF7BFB80221F8E700F07C
:10B920002BFD002822D03046FDF784FC04464FF45E
:10B93000807000EB84000E4F81B207EB8400D0F8DA
:10B94000102542F00102C0F810250846FFF754F90F
:10B95000002D0BD03046FDF76DFC064951F8200054
:10B96000002803D00120A040C7F80403BDE8F081FF
:10B9700000600040D03400202DE9FC41DFF8BC809D
:10B98000044608EB0400002790F930001346C01766
:10B990000E46401C01D008274DE0B0781946C0F390
:10B9A00040022046FDF722FC0546401C42D0B078FC
:10B9B00041071AD4C0070DD068460094FFF7AAF8D3
:10B9C000009900EB8101D1F8000720F00200C1F8D6
:10B9D000000707E000217378204600910A46019194
:10B9E000FEF7E9FF204600F0ADFCB078800718D5DF
:10B9F0001348317800EB8500D0F81025114B1A4020
:10BA0000C0F810254FF47C524FF4403302EA042270
:10BA100003EA01410A43D0F810150A43C0F8102583
:10BA200009E008EB0500327810F8581F41EA82114E
:10BA3000017000E004273846BDE8FC81D0340020C6
:10BA400000600040FFC0FCFF10B5FFF7A3F800281E
:10BA500000D0012010BD000070B51A4D95F86A00A5
:10BA600008B1082070BD0024661E2046FFF77CF850
:10BA700010B1281980F83060641CE4B2302CF4D383
:10BA800000242046FDF7A4FB641CE4B20C2CF8D380
:10BA90000C4800210C4C4166A0F868100B49C020EE
:10BAA00081F8000401264020891FC1F800014FF4ED
:10BAB000BE70FFF7A1F8A004C4F8040385F86A601B
:10BAC000002070BDD03400200060004006E000E09F
:10BAD000034890F86A00002800D001207047000059
:10BAE000D03400200121B1EB507F01D101207047FB
:10BAF0000020704738B50D4600F024FD040014D036
:10BB000000208DF800006846FCF786F9207928B1FE
:10BB10009DF80000FCF7A4F9112038BD0120256034
:10BB200020719DF80000FCF79BF9002038BD000053
:10BB30000149024801F0E6B83C35002000200040F1
:10BB40002DE9F0410546007916460F4600EB40010D
:10BB50002D4A01EBC00102EB810494F82A1011B1C7
:10BB60000820BDE8F081294951F820102868FFF726
:10BB7000C1FF08B11120F4E739462846FCF78AF9DD
:10BB800066603869206030004FF001062FD03F7F9B
:10BB90004FF48E712868FFF73EFE4FF4A2712868BB
:10BBA000FFF739FE28681A49C0F8041328684FEADD
:10BBB000471140F30730002804DB00F1E02080F853
:10BBC000001405E000F00F0000F1E02080F8141DE3
:10BBD000286840F30730002809DB00F01F0106FA4F
:10BBE00001F14009800000F1E020C0F80011286850
:10BBF0000421C0F800150020A061E06184F829004C
:10BC000044F8140FA675ACE73C3500208CD2020036
:10BC1000800002002DE9F05F054600794FF40176BF
:10BC200000EB400303EBC000344B03EB8004002027
:10BC3000636813B12B68C3F80863A3694FF0000968
:10BC40006BB1E06938B1606810B12868C0F804636E
:10BC50001120BDE8F09FE2610120216105E0C4F8F8
:10BC60002490A261E160C4F81C9094F8291001436B
:10BC700002D1284600F03BFD60680028286803D008
:10BC8000C0F804630020E4E74FF4A2763146FFF7E2
:10BC9000C2FDB2464FF4927B59462868FFF7B6FDC5
:10BCA00006464FF484712868FFF7B0FD8046514680
:10BCB0002868FFF7ABFD074648EA07003043EBD0A2
:10BCC00056EA070007D12146286800F0E1FCA16987
:10BCD000606A8142E0D8C4F818900EB10320B8E73A
:10BCE0000FB10F20B5E794F8291001200029296829
:10BCF00001D00860C6E74860C4E700003C3500207A
:10BD00002DE9F05F054600790B4600EB400101EBA1
:10BD1000C000244901EB8004284600F045F810B12A
:10BD20001120BDE8F09F62614FF00009C4F8209037
:10BD3000A36084F828904FF48E784E4641462868D8
:10BD4000FFF769FD28684FF0010AC0F808A02146F6
:10BD5000286800F007FF606808BBD5F800B0676985
:10BD60000FE000BF94F8280008B10F2615E0414607
:10BD70005846FFF74BFD0028F4D02146584600F006
:10BD8000F1FE206AB842F2D3574641462868FFF7D1
:10BD90003DFD0028F9D02868C760C4F814903046EB
:10BDA000BFE700003C350020007900EB400101EBCB
:10BDB000C000044901EB80004069002800D0012048
:10BDC000704700003C3500200149024801F048B8A6
:10BDD00068350020002000402DE9F0410546164658
:10BDE00000790F46154A00EBC00102EB810494F87C
:10BDF000201011B10820BDE8F081114951F8201040
:10BE00002868FFF777FE08B11120F4E73946284685
:10BE1000FCF77BF86660386920601EB1397F2846E0
:10BE2000FDF7EAFE28680821C0F800150020A0618F
:10BE3000E0616061012184F82010DCE768350020B2
:10BE400090D202002DE9F05F044600790E4600EB27
:10BE5000C001DFF8F0A017460AEB81053046FFF776
:10BE600041FEB0B168684FF000084FF4047910B19A
:10BE70002168C1F80893A8694FF0000B80B1E86908
:10BE800048B1686810B12068C0F804931120BDE87B
:10BE9000F09F1020FBE7EF614FF001082E6102E0F8
:10BEA000EE60C5E9067B00254FF488712068FFF736
:10BEB000C3FC4FF4A2712068FFF7BEFC2068C0F8F5
:10BEC0003465C0F838752068B8F1000F12D0D0F88A
:10BED000001241F02001C0F800122079D04600EB9A
:10BEE000C0010AEB8100406838B12068C0F80493B3
:10BEF0002846CCE701210160EFE74FF4887A4FF440
:10BF0000A27951462068FFF792FC0746494620680F
:10BF1000FFF78DFC06464FF492712068FFF787FC0F
:10BF2000014647EA06000843EBD0227902EBC20340
:10BF300008EB8302C2F818B001B10325002ED7D058
:10BF40000F25D5E7683500202DE9F04704460E4659
:10BF50000079274900EBC00001EB80051746304609
:10BF6000FFF7C0FD30B1204600F044F820B11120A9
:10BF7000BDE8F0871020FBE76F61AE604FF490776B
:10BF80004FF0000839462068FFF756FC4FF4AC76B6
:10BF900031462068FFF750FC2068AA686969C0F83C
:10BFA0004425C0F8481520684FF00109C0F80890F2
:10BFB0006868D0B9BA4651462068FFF738FC074692
:10BFC00031462068FFF733FC0743F4D010B14FF03F
:10BFD0000F0808E02068C0F80C9031462068FFF791
:10BFE00026FC0028F9D0002068614046C0E7000028
:10BFF000683500200079054900EBC00001EB8000A6
:10C000004069002800D001207047000068350020FA
:10C010002DE9F04105460078002828D11548164939
:10C020000026401AC008012101EB004710E02869F2
:10C03000805DFBF7C7FE040009D0112CF7D038460D
:10C0400022460EA1FEF7D2FF2046FBF7BDFD761C6F
:10C05000A88AB042EBD8A98A2869084410F8010CD4
:10C060000D2804D10A20FBF7ADFE1128FAD0BDE857
:10C07000F0810000A0DD020040DD02004661696C35
:10C08000656420726563656976696E67204E5553F5
:10C09000206D6573736167652E204572726F722023
:10C0A000307825782E20000010B550B103280CD12F
:10C0B0000220FCF7C9FE002807D0BDE81040FBF7BE
:10C0C00083BDBDE8104000F009BC10BD0078002819
:10C0D00007D104483B21408876DF002801D0FBF7D8
:10C0E00073BD7047F02A0020F0B58BB00026019692
:10C0F0000D4604468988406901AAFBF741FF0AA85A
:10C10000CDE908600227ADF82070ADF822602189E2
:10C11000A88808AAADDF002819D1A069002816D088
:10C120000998FCF728FD002811D0019E0EB10120CE
:10C130003070182102A8FBF7B2F98DF8087003944B
:10C14000A888ADF810000596A16902A888470BB031
:10C15000F0BD000070B58D88027900EBC504227334
:10C16000C97BA41D012902D0022904D101E0008865
:10C1700000E04088208021886088814211D92846CB
:10C18000A5DF0126B0B1112816D0FFF735FB024616
:10C190000B480C49401AC00806EB00400AA1FEF704
:10C1A00025FFA179E079814208D92846BDE8704091
:10C1B000FDF7C8B96671F4E72671F2E770BD0000BB
:10C1C00040DD020040DD020073645F626C655F6702
:10C1D000617474635F65786368616E67655F6D74D1
:10C1E000755F726571756573742829207265747541
:10C1F000726E65642025732E000000007CB5064633
:10C200008D88C88806EBC504A41D172800D2172006
:10C210002188814200D80846608000202071218852
:10C220002846B5DF60B1FFF7E7FA02460F4810492C
:10C23000401AC008012101EB00400EA1FEF7D6FE16
:10C240006079002810D1306900280DD01549D1E956
:10C250000201CDE90001ADF802506088ADF804009C
:10C2600032696946304690477CBD000040DD0200DF
:10C2700040DD020073645F626C655F6761747473B4
:10C280005F65786368616E67655F6D74755F726521
:10C29000706C7928292072657475726E656420252A
:10C2A000732E00005CD20200F0B587B00C46054644
:10C2B0008E1D8988406906AAFBF762FE1821684630
:10C2C000FBF7EDF80195A088069AADF808000392F7
:10C2D00031882B89002704F11200994202D1738919
:10C2E000022B0DD0AA8991421ED1A96900291BD029
:10C2F0008DF8007004907089ADF81400A96911E000
:10C30000002A11D0FCF737FC20B1069901200870F3
:10C31000022002E00698077003208DF80000A9694A
:10C32000002901D06846884707B0F0BD00680128A1
:10C3300005D0022803D0042801D000207047012036
:10C340007047000010B50549C20800F00703885C7B
:10C3500001249C402043885410BD00003435002047
:10C360000449084490F93000082801DB0120704797
:10C3700000207047D03400200449084490F9300070
:10C38000082801D20120704700207047D0340020D7
:10C390002DE9F84F314F05464FF0010900243819B7
:10C3A00090F96010491C46D090F86000294620F0B2
:10C3B000C0063046FDF7FCFF70B3204600F050F891
:10C3C000824668460096FEF7A5FB009900EB8100C7
:10C3D000D0F80007C0F30148B8F1020F1DD00221C8
:10C3E0003046FEF759FB68460096FEF793FB009A2D
:10C3F00009FA02F1C0F820153046FCF71BFF57F888
:10C4000020204AB15046BAF1030F11D0B8F1020F03
:10C4100005D0B8F1030F07D00DE00321E0E7504647
:10C42000BAF1010F04D006E05046BAF1020F02D172
:10C43000014630469047641C042CB0D32A460221A2
:10C440000020FEF741FB002055F820100029A5D15F
:10C45000401C0228F8D3BDE8F88F0000D03400203B
:10C460000249084490F8600080097047D0340020E9
:10C4700010B50C46017A052908D0407A38B1084831
:10C4800008A102682046FEF777F900E01AB106A17C
:10C490002046FEF771F92046BDE81040FEF779B955
:10C4A0000C2C0020257300000D0A000038B5C3884D
:10C4B0000D46044633B114A0009015A216A12846DB
:10C4C000FEF75AF9217A05291CD0607A48B1A08874
:10C4D000FEF746FC164951F8202016A12846FEF723
:10C4E0004BF9A0880021FEF707FE03461049207A89
:10C4F000143951F8202001B02846BDE830400EA183
:10C50000FEF73AB938BD00001B5B306D000000003B
:10C510001B5B313B33316D0025734C6F67732064B7
:10C52000726F70706564202825642925730D0A00D8
:10C530000C2C0020257300003C25733E2025733A07
:10C54000200000000349884201D1034870470020C1
:10C550007047000000200040582B002070B50546B1
:10C56000FDF73BF9134C40B1D4E904024FF0807160
:10C57000411842F10000C4E9041000212846FDF7EB
:10C5800079F830B1606820B1606800F05BFA002093
:10C59000606001212846FDF76DF818B1FDF796FAA5
:10C5A000C4E90601284600F079FA2846BDE8704043
:10C5B00000F034B8782B002070B5054600200C46FA
:10C5C0000870FDF783FAD5E90223101A63EB010323
:10C5D00000263146361A994112DAB0F5350F03D3E9
:10C5E000FBF726FB0B4942184FF4960300210A483B
:10C5F000FDF7FFF810B10D2806D009E0012070BD4D
:10C6000000210548FDF72CF8284600F01BFA2070A1
:10C61000002070BDFFFFB400802B0020F8B51A4C3D
:10C62000074600261948FFF7B1F8D0B1616871B12B
:10C63000D0E902106268D2E90232C91A904120D2D0
:10C640006068007F18B161681048FFF78EF800F04D
:10C6500091F905466946FFF7AFFF98B1606840B1B0
:10C660000AE0606800280CD13846BDE8F840FDF7C4
:10C67000BCB83846FDF7B5F865609DF800000028A5
:10C68000D0D1F8BD6660CDE7782B0020A4D202009F
:10C6900070B5054688690C4600284FF48471284619
:10C6A0000AD0FFF7B8F8D5F81805626AE16888542F
:10C6B000606A401C606270BDFFF7ADF8D5F81805E0
:10C6C00070BD1FB501238DF80030CDE90121D0E9FF
:10C6D0000012684690471FBD1FB501238DF800303A
:10C6E000CDE90121D0E90012684690471FBD10B581
:10C6F000044600684FF49271FFF78DF84FF484718F
:10C700002068FFF788F820680121016010BD000053
:10C7100038B50021012548B1012810D003280DD1DA
:10C72000FFF798F8BDE83840FDF7B8BF4FF0E020BC
:10C73000C0F88051BFF34F8FBFF36F8F38BD8DF8B6
:10C7400000106846FBF768FB064C207808B9FDF737
:10C7500085FFE068401CE060A5709DF80000FBF7D5
:10C760007FFB38BDBC3400203EB50446094968460D
:10C77000FEF7D4FF08E000BFD0E900212046904733
:10C7800030B16846FEF7E1FF02980028F4D13EBDC3
:10C7900011203EBD88D402003EB5044608496846D3
:10C7A000FEF7BCFF07E000BFD0E90021204690471C
:10C7B0006846FEF7CAFF02980028F5D13EBD00008A
:10C7C00094D4020002498969002900D008477047C3
:10C7D000243400202DE9F0411400884618D00025AB
:10C7E0000E4F032608EB050122460020FAF748FF0A
:10C7F0000544241A40B93878002809D008494FF474
:10C800007A408847761E05D001203870002CE9D187
:10C81000BDE8F08100203870FAE70000D02B00203E
:10C8200061D402002DE9F0410746806A144688462B
:10C83000C8B3002531E000BFB96A05EB450001EB44
:10C840008006B088801CFE2802D90C20BDE8F0814B
:10C850002288401C08F8020020881622401C80B262
:10C86000208008F800202088401C80B2208000EB47
:10C870000801308800F07DFB2188084480B22080C8
:10C88000B28842B1B16871B14044FAF7EFFD208837
:10C89000B188084420806D1CEDB297F82C00A842A6
:10C8A000CAD80020D2E7FFE70720CFE70A7806289A
:10C8B00022F0FF020A7010D2DFE800F0030507093A
:10C8C0000B0D002008E0112006E0212004E03120BB
:10C8D00002E0122000E022200870704710B500200E
:10C8E000FCF7B2FA08B1FBF76FF9FCF707FA08B1E9
:10C8F000FBF76AF933DF002803D0BDE81040FBF7EF
:10C9000063B910BD002805D10349012048700020FB
:10C91000FCF760BD70470000BC34002010B5162045
:10C92000FBF774F8A0B1114890F8000440090828FA
:10C9300011D20121814011F0EC0F0CD00C4882681B
:10C940004FF480016AB1016841F48001016010BDBB
:10C9500042F2010001E042F20200BDE81040FBF7A4
:10C9600033B94FF0E020C0F8001110BD16E000E030
:10C97000583600200148FEF70CBF0000A4D2020088
:10C98000C207002A03D000BF4FF00F0201E04FF0B2
:10C99000F00201D04FEA0111044B03EB5003187869
:10C9A00000EA020040EA010018707047B03500202C
:10C9B0002DE9F84F074621489146884605681E46EE
:10C9C000012269461846FCF77DFBDFF874A060B3CE
:10C9D000009800210446801C0AE000BF00EA05021E
:10C9E00059F821C00AEB8202401C491CC2F80CC055
:10C9F000B142F3D34FEA1749FCF728FE611C2940E6
:10CA00000AEB810149EA00422C40CA600AEB84012A
:10CA1000C86867F3C50066F3891068F39F2020F0AB
:10CA20000300401C20F00400C8609AF8000001E0F8
:10CA3000FEF7BCF90028FBD1BDE8F88FDC2B002005
:10CA40000838002070B50446124800250078F8B177
:10CA5000F4B1207FE0B1FDF739F8D4E90223801A60
:10CA6000994110D32069002600B92677D4E9051032
:10CA70008847206960B1217F51B1D4E902211018A3
:10CA80007141C4E9020121460348FEF76EFE01250B
:10CA9000284670BD782B0020A4D20200F8B51B4CAC
:10CAA00069462068FDF7D4FB00260127184D29E0D0
:10CAB000017821B101290CD002291BD114E0416871
:10CAC0000A7FBAB90F77416810480830FEF74DFE6B
:10CAD00010E041686868814201D16E600AE00B484D
