:020000040000FA
:10000000E03E0020D9040000E1040000F9020000F5
:10001000E5040000E7040000E9040000000000001F
:10002000000000000000000000000000EB040000E1
:10003000ED04000000000000EF040000F1040000E7
:10004000F10A0000F304000061100000D10D00006F
:10005000DD0D0000F304000039060000890C0000EB
:10006000FD0F00001110000025100000590C0000C9
:10007000F3040000310C0000F3040000F30400005E
:10008000E5100000690C0000410B00002D06000087
:10009000050E00000B0E0000110E0000170E0000F0
:1000A0001D0E0000230E0000391000004D1000004E
:1000B000010B0000050A0000000000000000000025
:1000C000F3040000110B0000210B0000E90D0000FB
:1000D000790C0000F9080000F30400006D10000026
:1000E000F3040000FD0B0000F3040000000000001A
:1000F00000000000310B000000000000F50D0000C2
:1001000000000000000000000000000000000000EF
:1001100000000000000000000000000000000000DF
:1001200000000000000000000000000000000000CF
:1001300000000000000000000000000000000000BF
:1001400000000000000000000000000000000000AF
:10015000000000000000000000000000000000009F
:10016000000000000000000000000000000000008F
:10017000000000000000000000000000000000007F
:10018000000000000000000000000000000000006F
:10019000000000000000000000000000000000005F
:1001A000000000000000000000000000000000004F
:1001B000000000000000000000000000000000003F
:1001C000000000000000000000000000000000002F
:1001D000000000000000000000000000000000001F
:1001E000000000000000000000000000000000000F
:1001F00000000000000000000000000000000000FF
:10020000DFF80CD000F0D4F900480047512B000073
:10021000E03E002030B4044654E8000F0D4644E8A8
:100220000053002BF8D1156030BC704730B4044641
:1002300054E8000F40EA010544E80053002BF7D1D1
:10024000156030BC704730B4044654E8000F00EA33
:10025000010544E80053002BF7D1156030BC70470E
:1002600030B4044654E8000F80EA010544E8005326
:10027000002BF7D1156030BC704730B4044654E809
:10028000000F00EB010544E80053002BF7D1156087
:1002900030BC704730B4044654E8000FA0EB0105B1
:1002A00044E80053002BF7D1156030BC704770B4A0
:1002B00004464FF0000054E8006F0D68AE4207BFDF
:1002C00044E80023012044E800630E60002B1CBFBB
:1002D0000020F0E770BC704730B4044654E8000FCB
:1002E00088422CBF451A054644E80053002BF5D13F
:1002F000156030BC70470000094B1EF0040F1CBF96
:10030000EFF309801847EFF308800649064A884250
:1003100001D8904202D88D464FF0000018470000E7
:10032000DD060000E03E0020E01E002030B450E872
:10033000012F93B2C48923448489A34228BF1B1B85
:100340000489A34202BFBFF32F8F002007E0C3EA56
:10035000020340E80134002CE9D14FF001000A60AB
:1003600030BC704750E8012FC2EA024240E8012148
:100370000029F7D1704730B450E8022F1FFAA2F3DA
:10038000C488A34202BFBFF32F8F00200DE0C489B1
:1003900023448489A34228BF1B1BC2EA034340E8CD
:1003A0000234002CE8D14FF001000A6030BC7047E5
:1003B00050E8022FC2EA224240E802210029F7D188
:1003C0007047034653E8022FD988B2EB324F4FF003
:1003D000000017BF92B241EA014142EA014104E044
:1003E0005A68B2EB324F08BF012043E80212002ADC
:1003F000E8D1704730B4044654E8000F0D4644E895
:100400000053002BF8D1156030BC704730B404465F
:1004100054E8000F40EA010544E80053002BF7D1EF
:10042000156030BC704730B4044654E8000F00EA51
:10043000010544E80053002BF7D1156030BC70472C
:1004400030B4044654E8000F80EA010544E8005344
:10045000002BF7D1156030BC704730B4044654E827
:10046000000F00EB010544E80053002BF7D11560A5
:1004700030BC704730B4044654E8000FA0EB0105CF
:1004800044E80053002BF7D1156030BC704770B4BE
:1004900004464FF0000054E8006F0D68AE4207BFFD
:1004A00044E80023012044E800630E60002B1CBFD9
:1004B0000020F0E770BC704730B4044654E8000FE9
:1004C00088422CBF451A054644E80053002BF5D15D
:1004D000156030BC7047000006488047064800475A
:1004E000FEE7FEE7FEE7FEE7FEE7FEE7FEE7FEE7E4
:1004F000FEE7FEE7290E00000102000000487047F9
:10050000906C000010B5431A934209D283188818E2
:1005100003E010F8011D03F8011D521EF9D210BDB1
:1005200040EA01039B0703D009E008C9121F08C075
:10053000042AFAD203E011F8013B00F8013B521EF5
:10054000F9D210BDD2B201E000F8012B491EFBD256
:1005500070470022F6E710B513460A4604461946CE
:10056000FFF7F0FF204610BD421C10F8011B0029C8
:10057000FBD1801A704710B5002200E0521C835C4A
:100580008C5CA34201D1002BF8D1D8B2E1B2401A61
:1005900010BD30B505460020034600E05B1C9342C9
:1005A00005D2EC5CC85C201A01D1002CF6D130BD1C
:1005B000064C074D06E0E06840F0010394E80700B0
:1005C00098471034AC42F6D3FFF71EFEF47B0000D0
:1005D000147C000070B58C1810F8015B15F007034F
:1005E00001D110F8013B2A1106D110F8012B03E0CC
:1005F00010F8016B01F8016B5B1EF9D12B0705D4D4
:100600000023521E0DD401F8013BFAE710F8013B1C
:10061000CB1A921C03E013F8015B01F8015B521E38
:10062000F9D5A142D8D3002070BD00000148006870
:1006300000470000480000202DE9FC410025DFF8BC
:10064000948000954FF4807601242F460195304622
:1006500003F0A2FC38B1D8F80403204203D030469E
:1006600003F090FC2543361D64007F1CB6B2082FB2
:10067000EDD34FF4BE74204603F08EFC48B1204603
:1006800003F080FC45F000456A460221002003F09B
:1006900001FC15F0FF0F16D0012600242E420ED0CB
:1006A00008EB8401D1F81005D1F81015C0F305202E
:1006B000094AC1F3014152F8242002B19047760063
:1006C000641C082CEAD3002D02DA684604F0B2FE5E
:1006D000BDE8FC8100600040300400201CB582466B
:1006E00004F0A8F803F044FE0028FBD136485FEA86
:1006F0000A05076836483749344EA0EB01004FEA37
:10070000D0004FF0010808EB004470881ED000288C
:1007100021D0204630A1AA6903F068FF7088002824
:1007200019D0D5E90201CDE90001D5E90023204621
:100730002FA103F06BFF708868B1E8690090D5E9DC
:100740000423204638A103F058FF04E018B12046E6
:100750003FA103F047FF1C48001D0068800705D536
:10076000708818B12046474903F03CFFDFF8189124
:10077000002500BF08FA05F0384208D059F82520B6
:100780002AB1708818B1204640A103F02FFF6D1CDC
:100790001A2DEFD3380608D5708830B10A480C30CE
:1007A000026820463CA103F021FF380408D5708878
:1007B00030B105481030026820463FA103F016FF13
:1007C000504600F087F8000028ED00E0D00200203D
:1007D000B47D0000647C00004841524420464155ED
:1007E0004C542061742030782530385800000000C7
:1007F000202052303A20203078253038582020529E
:10080000313A2020307825303858202052323A2092
:1008100020307825303858202052333A2020307844
:10082000253038580000000020205231323A203064
:10083000782530385820204C523A20203078253006
:10084000385820205053523A2030782530385800FC
:10085000537461636B2076696F6C6174696F6E3A73
:1008600020737461636B20706F696E746572206FA2
:1008700075747369646520737461636B206172655C
:10088000612E00006C6D0000E40000204361757370
:10089000653A2025732E00004D656D4D616E6167D0
:1008A00065204661756C7420416464726573733AA7
:1008B0002030782530385800427573204661756CB9
:1008C0007420416464726573733A2030782530383F
:1008D00058000000BFF34F8F05480168054A01F436
:1008E000E06111430160BFF34F8F00BFFDE70000DF
:1008F0000CED00E00400FA052DE9FC413F4E4FF4F9
:100900008A752946304603F04FFB3D4C70B12946AD
:10091000304603F04EFB607940F0080161718807B2
:1009200004D5C80602D541F0200060714FF48275ED
:100930002946304603F038FB70B12946304603F0B3
:1009400038FB607940F004016171C80704D0C80623
:1009500002D541F0200060714FF48477394630466B
:1009600003F022FB0025B0B13946304603F021FBED
:100970000420C6F80803C6F8005521480021226863
:10098000103090471E48002122680830904701200F
:100990002071BDE8FC81607981074FEAC07103D501
:1009A00019B1010705D4F4E709B9010703D4810798
:1009B000EFD44107EDD520F00C00607181060BD516
:1009C00020F0200040F010006071226802B0012188
:1009D000BDE8F04100201047D4E90412CDE900122F
:1009E000D4E90212A560E560C4E9041240F01000E9
:1009F00060712268012168469047CAE700500240B2
:100A00009C0400202DE9FE434FF48078404603F01B
:100A1000EFFF0126334F344C002570B3404603F0FE
:100A2000EFFFA07C26EA000104EB810252682AB99C
:100A3000627C022A02D0E07C90B119E08DF8085067
:100A4000E574627C022A08D004EB800042680192BF
:100A50004560A1748DF8006007E001956674F9E7C0
:100A600097E807008DE80700E67421686846884724
:100A7000607C022828D1667426E0FFE74FF4827874
:100A8000404603F0B5FFF8B1404603F0B9FF174800
:100A9000056065748DF808508DF80050A07C04EB5B
:100AA0008001486820B101904D6021686846884700
:100AB000A07C864304EB8600416821B1019145602A
:100AC000216868468847A574207D002808D00C3727
:100AD00097E807008DE80700257521686846884774
:100AE000BDE8FE83A0660000B404002000D50140EC
:100AF00010B504F059F9BDE8104004F021B9000028
:100B00000149024801F020BCCC04002000C0014093
:100B10000149024801F018BCD40400200010024032
:100B20000149024801F010BCDC0400200020024012
:100B30000149024801F008BCE404002000D0024052
:100B40002DE9F8432A48DFF8A4804FF48072016849
:100B5000284E002589B1D8F8041311F0010F0CD0EC
:100B6000056000680090244862F30F040068726812
:100B700060F317443946204690471D484FF4827170
:100B8000001D0268BAB1D8F8042312F0020F12D087
:100B9000056000680090184861F30F040C3000688D
:100BA00060F31F4414483C300068726860F30F071C
:100BB0003946204690470E484FF48472083041462B
:100BC0000368002B10D0D1F8041311F0040F0BD0E0
:100BD000056000680090204662F30F00726801B063
:100BE0003946BDE8F0431047BDE8F88300200140D6
:100BF00000210140580000200C25014010B50A4C8E
:100C00004FF48071204603F01EFF00280AD00748E9
:100C100000214171C4F8001102688168BDE81040EC
:100C20000020104710BD000000900240EC0400209E
:100C3000064882B000210160006800900448006806
:100C40000449C0B2496802B00847000000D1004022
:100C500008D500406000002003220021014801F077
:100C6000C1BB000000B0004002490248091F0968EA
:100C7000006808479800002004220121014801F083
:100C8000B1BB0000004002402DE9FE434FF48278E2
:100C9000404603F07FFF4C4F00254C4C012600B32B
:100CA000404603F07FFF94F82E0010B194F82F1007
:100CB000D1B18DF80050616801912189ADF808101B
:100CC000E26832B1218B618362602181E56010B1FD
:100CD00002E0257400E03E6021686846884784F899
:100CE0002F5094F82E0060B34FF48077384603F00D
:100CF00051FF30B3384603F055FF628B94F82D1046
:100D00008A420AD9A2EB010080B260832289A2EB59
:100D10000000626802EB400005E007D1E06828B1FE
:100D200084F82F60658303F02DFF04E08A4202D12E
:100D300084F82F606583404603F034FF2248001D8D
:100D400006604FF48877384603F024FF48B13846F0
:100D500003F028FF257402208DF800002168684602
:100D600088474FF48A77384603F014FF28B1384695
:100D700003F018FF2574BDE8FE834FF000484FF4E0
:100D80008C7967691DE000BFB7FA87F028FA00F197
:100D900009EB80058F43284603F0FCFE88B1284606
:100DA00003F000FFA5F58C75E8088DF8040045F305
:100DB0008000401C8DF800608DF8050021686846B1
:100DC0008847002FE0D1D6E700700040F8040020EB
:100DD000014800680047000030000020014800681A
:100DE000004700003800002001480068004700006C
:100DF000400000200149024801F044BB9405002056
:100E000000F00240002004F02BBE012004F028BEB8
:100E1000022004F025BE032004F022BE042004F0CA
:100E20001FBE052004F01CBE70B54FF08052012497
:100E3000D2E94C100023082906D1CD06C5F80C31A3
:100E4000C5F810315E4D2B60082955D15D4D2D68D8
:100E50005D4E35605B4D2D1D2D68361D3560594D3D
:100E600008352D68361D3560564D0C352D68361DFC
:100E70003560544D10352D68361D3560514D143593
:100E80002D68361D35604F4D18352D684E4E203675
:100E900035604C4D1C352D68361D3560494D20356B
:100EA0002D68361D3560474D24352D68361D35605B
:100EB000444D28352D68361D3560424D2C352D6842
:100EC000361D35603F4D30352D683F4E403635601C
:100ED0003C4D34352D68361D35603A4D38352D681A
:100EE000361D3560374D3C352D68361D3560354D26
:100EF00040352D68361D3560082904D1050002D122
:100F0000334E324D3560082904D1050002D1314EEF
:100F1000FB253560082908D1050006D192F85862F2
:100F20002D4A156866F303051560082904D10200EF
:100F300002D12A4D8A012A60082906D12848016871
:100F4000C90702D06FF0010101602648016841F431
:100F500070010160BFF34F8FBFF36F8F4FF010210F
:100F6000D1F80002002803DBD1F80402002822DABD
:100F70001D4A14601D480468002CFCD01224C1F8DE
:100F800000420568002DFCD0C1F804420168002928
:100F9000FCD0136001680029FCD0BFF34F8F1148CB
:100FA0007C380168124A01F4E06111430160BFF32B
:100FB0004F8F00BFFDE710490E48086070BD00006C
:100FC000380500400404001020C50040488103009B
:100FD0008C56004018F50040E40E00404096024058
:100FE0000004004088ED00E004E5014000E4014019
:100FF0000400FA050090D003F00100200422024909
:10100000024801F065BA0000DC05002000800040C5
:1010100004220249024801F05BBA0000E805002002
:101020000090004004220249024801F051BA000039
:10103000F405002000A0004006220249024801F009
:1010400047BA00000006002000A001400622024925
:10105000024801F03DBA00000C06002000B001403B
:101060000148006800470000500000202DE9F041D1
:101070001A48D0F80453002601240FE095FAA5F091
:10108000B0FA80F7B80000F5807003F02DFE10B1C3
:1010900004FA07F0064304FA07F08543002DEDD16A
:1010A000C6F3C05726F40005DFF834800AE000BF1D
:1010B00095FAA5F0B0FA80F658F82600804704FAB1
:1010C00006F08543002DF3D105F010F8002F03D072
:1010D000BDE8F04100F01ABDBDE8F08100700240AB
:1010E000F466000038B5064C20680025002805D0BD
:1010F00004484068804725602068009038BD0000A3
:10110000000101408800002002E008C8121F08C149
:10111000002AFAD170477047002001E001C1121F78
:10112000002AFBD17047800701D0002070470120C2
:101130007047C3688B4206D811440069491E81423A
:1011400001D80120704700207047000072B603F0FC
:1011500071FB00BF03F00CF90028FBD1144D1549B9
:1011600015486A88081AC4082AB1012000EB044017
:1011700012A103F037FA14480068C00700D000BE7F
:101180006888022805D3022000EB04400FA103F079
:1011900029FABFF34F8F0C48E43801680F4A01F475
:1011A000E06111430160BFF34F8F00BFFDE7000016
:1011B00000030020147E0000647C0000466174611E
:1011C0006C206572726F7200F0ED00E053797374F9
:1011D000656D207265736574000000000400FA05F7
:1011E0000EB500210091CDE901106A4644F20100DC
:1011F000FFF7ACFF0EBD00F003B800F009B8000027
:1012000072B602480168491C0160704790000020D6
:1012100003490868401E086000D162B670470000AC
:101220009000002070B5054608680C46411C04D0AB
:1012300002F094FE206802F001FE6068411C02D0BA
:10124000002102F0E9FD2968A069C1F82405607D4C
:10125000227D29681043C1F86C05D4E90012286882
:10126000C0F81425C0F80C15207D012814D1A06801
:10127000411C02D0002102F0CFFDE068411C04D0E7
:1012800002F06CFEE06802F0D9FDD4E90212286891
:10129000C0F80825C0F8101570BD70B5054608687F
:1012A0000C46411C04D002F063FE206802F0D0FD21
:1012B0006068411C02D0002102F0B7FD2968A069D6
:1012C000C1F82405607D217D2A680843C2F86C05B9
:1012D000D4E900122868C0F80C15C0F81425207D48
:1012E000012814D1A068411C02D0002102F09DFD0C
:1012F000E068411C04D002F03BFEE06802F0A8FD6B
:10130000D4E902122868C0F80825C0F8101570BD8D
:10131000F0B500220D4BCA60C1E901230C4B0D4D05
:101320001446EE1A0A600CE003EB0215EF683F79F1
:10133000FF2F05D0A04202D1A8680860F0BD641C50
:10134000521CB2EB161FEFD3F0BD0000706A000014
:10135000547C0000647C0000102802D31038C0B216
:10136000704740F0800070472DE9F0470546861C25
:1013700091460F464FF0010A0020FFF73CFF1B4C3F
:1013800004F21C4860683860D4E90101184F401A23
:101390003968081A0EE00121404601F0F7FC01F01F
:1013A000E5FA0146404601F0F1FCD4E90101401A9A
:1013B0003968081A401C8642EDD8B9F1000F03D0F5
:1013C000052065F3891002E0062065F39F506168EF
:1013D0003A68114004EB8101C86060683044606085
:1013E0000020FFF70AFF5046BDE8F0877C1A002076
:1013F0005401002070B50D4604460A2902D10D2182
:10140000FFF7F8FFA0682268411CA1601554D4E9D9
:101410000101814204D32046BDE8704002F017BAB2
:1014200070BD0000044881684068814201D10120FC
:1014300070470020704700007C1A002002490844D1
:1014400090F9300070470000300400202DE9F04191
:10145000044680680F46D0F84811C27F11F001069B
:10146000817FA1EB0203DDB20BD07F2901D3002DD8
:101470007ED0A068C17F0844002180F8207066B14A
:1014800013E07F297CD2002DF3D0831803F12001D3
:101490002A46481CFFF736F8EBE7A068827F521C0B
:1014A000D2B28277A068203281544DB3204601F039
:1014B00013FC8178C07881420ED1A06831A2C17F2F
:1014C000431808212046203302F004F8A81BC1B2BB
:1014D000204600F01BF921E0204600F06BF8A068E0
:1014E00028A2C17F431808212046203301F0F2FFD3
:1014F000204600F055F80121204600F0ABF90DE040
:101500003EB1A068827F521CD2B28277A06820329E
:1015100081543A461CA1206902F08CF9A168C87F69
:10152000401CC877204600F0DDF80028204603D094
:10153000BDE8F04100F0F6B800F0BAFC00281FD07A
:10154000204601F0C9FB0546C078A978401A401E24
:10155000C1B2204600F0BAF8204600F0E3F8E8787F
:10156000A978401AC1B2204600F080F9287800E03E
:1015700006E0401EC1B22046BDE8F04100F06AB965
:10158000BDE8F08125730000256300000069024A70
:1015900002A102F04FB90000496900002573000064
:1015A0000069024A024902F045B90000436900009F
:1015B0009C1500000069024A024902F03BB9000094
:1015C000406900009C1500008068D0F84801C0F315
:1015D000C000704730B4406804682469A44630BC39
:1015E0006047002801D0FEF7BFBF70472DE9F843E0
:1015F0001E4615468846074600241BE0786808EB1F
:1016000004016B460268D2F80CC02A46E0470098F5
:1016100004442D1A70B9B868017803290AD000BFB4
:10162000D0F848118906FBD5D0F8481121F02001E7
:10163000C0F84811002DE1D1002E01D00098306093
:10164000BDE8F8832DE9F05F1C460A9E15464FF071
:10165000000959B180B3017839B342683146284650
:1016600090473068D8B12660BDE8F09F144915480E
:10167000A1EB0008B5EBD80F11D2DFF84CA0002683
:10168000834609E00BEBC607786801685AF8250025
:10169000FEF771FF30B1761CB6EBD80FF2D3C4F869
:1016A0000090E1E778682060DEE7406800EB021018
:1016B000016809B11860D7E7FFE7C3F80090D3E7E6
:1016C000547C0000147C0000F4010020002904D0A8
:1016D0000A46006901A102F0ADB870471B5B2564A2
:1016E0004200000010B504460068FFF77AFF01468B
:1016F000A068C27F407E1144B1FBF0F200FB1210E3
:1017000008B1002010BD012010BD0000002904D048
:101710000A46006901A102F08DB870471B5B256481
:1017200044000000006901A102F084B80A00000032
:101730002DE9FC47002604468DF804608068354694
:10174000B146B0468021A030FEF703FF4049206932
:1017500002F070F8206902F07AF800276B46012247
:1017600001A92046FFF736FF0098D8B19DF8040084
:101770001B2806D0A16891F8A0101B29EED1522891
:101780001FD0A26808F1A001505408F1010000F038
:10179000FF08B8F1090F0AD9A168042081F8A090C8
:1017A000BDE8FC872A494FF6C010103188470098E1
:1017B0000028D3D17F1CBFB2B7F57A7FCED30D20DE
:1017C000EEE7A16808F1A0004A4601F80090A16880
:1017D00091F8A1005B2803D081F8A0200B20DFE75F
:1017E00002206FF02F0309E005EB850503EB4505AB
:1017F000401C3D44C0B2ADB2802808D200F1A00721
:10180000CF5D3B2FF0D1401CC0B2802809D30C2003
:10181000C6E700BF06EB860603EB46063E44B6B2BB
:10182000F1E700F1A007CF5D002FF3D1FA20FA2EE7
:1018300001D9087500E00E75FA2D02D9A1688875E6
:1018400001E0A0688575A06880F8A0200020A7E7C7
:1018500061690000002904D00A46006901A101F075
:10186000E9BF70471B5B256443000000002904D0DA
:101870000A46006901A101F0DDBF70471B5B2564CA
:10188000410000002DE9FF410C4620B14FF4064015
:1018900004B0BDE8F0812079002748F2096538B12D
:1018A00041F61D5601281BD0022826D0681DEFE7FF
:1018B0000220207102970397E0680190694601A811
:1018C00003F086FF50B102988188E1800088208172
:1018D000BDF80010029803F0F9FFD9E72846D7E7D2
:1018E0000A4B6A460021A01D03F02AFF38B10749C0
:1018F00018398F61CF61A842CAD13046C8E7034882
:101900008188019803F0E2FFF5E70000CC00002099
:1019100010B50021024801F049FA80F3100010BD13
:10192000981E00206FEA0061C90F61F31F10704715
:101930000106044900D5903100F00F0001EB0010C2
:10194000704700006806002003F05EB9812003F0B4
:1019500075B9822003F072B9832003F06FB9842037
:1019600003F06CB9852003F069B9862003F066B9ED
:10197000872003F063B9000038B5882504F0A8FB80
:101980002846FFF7D5FF817B0124032915D0006885
:10199000002811D12846FFF7C5FF8440E1430C48D9
:1019A00003F0C8F90B480A49806800900C398DF89B
:1019B000025049686846884738BD2846FFF7B2FF9D
:1019C0008440E143BDE83840014803F0B3B900006A
:1019D00084000020C066000038B504F079FB0020C8
:1019E000FFF7A6FF817B0124032906D0006870B1B0
:1019F000BDE838404C2003F091B90020FFF792FF7A
:101A00008440E143BDE83840094803F093B9002021
:101A1000FFF788FF8440E143054803F08BF9054850
:101A20000349C0680C39009049686846884738BD4A
:101A300084000020C0660000012003F01BB90220D2
:101A400003F018B9032003F015B9042003F012B90C
:101A5000052003F00FB9062003F00CB9072003F0AE
:101A600009B9000038B5082404F032FB2046FFF71E
:101A70005FFF817B032915D00068002812D1204622
:101A8000FFF750FF01218140C943074803F052F995
:101A900006480549406900900C398DF802404968B4
:101AA0006846884738BD000084000020C0660000FA
:101AB00070B50E4804680460BFF36F8FBFF34F8F9B
:101AC00001260CE094FAA4F0B0FA80F52846FFF75E
:101AD00043FC06FA05F18C43294604F031FC002C46
:101AE000F0D1BDE8704004F001BB00006C7402400E
:101AF00010B5054CA078FFF715FF0146A078BDE8AA
:101B0000104004F01DBC000078000020F8B51A4811
:101B100000681A4DC6B2A878FFF704FF012404FA42
:101B200000F12889EA68C04380B21043014202D024
:101B3000A87804F085FB06F08000A8700020FFF76D
:101B4000F1FE04FA00F68020FFF7ECFE04FA00F044
:101B500006430A48F1430C3003F0ECF88020FFF70D
:101B6000E1FE8440A86804430548AC60006A009028
:101B7000696868468847F8BD807402407800002094
:101B8000C066000038B5002000900F480068ADF82E
:101B900002008820FFF7C6FE012505FA00F40A4876
:101BA0006038006840B1C10301D4401C04D0082053
:101BB000FFF7B8FE85402C430449886820438860BD
:101BC00049686846884738BD207502407800002083
:101BD00070470000F8B518480568284603F094F8E7
:101BE000BFF36F8FBFF34F8F144E154CE80506D52A
:101BF00001206070706A0090616868468847A80597
:101C00004FF0000705D56770B06A009061686846BC
:101C1000884768050ED5607800280BD067700949A1
:101C200001200860582003F079F8F06A009061689C
:101C300068468847F8BD000000740240C066000096
:101C40007800002008750240054908B5002048705A
:101C5000887004484068009049686846884708BD15
:101C600078000020C066000010B503780022072B22
:101C700006D2DFE803F005040610202930000A70C0
:101C800010BD01230B7003898B818388CB81C068D1
:101C900088600A7410BD02220A7002898A818288D3
:101CA000CA81C2688A60807D062802D0002008743C
:101CB00010BD0120FBE703220A70C2888A810289D5
:101CC000CA81C068886010BD04230B70C0888881F9
:101CD000CA818A6010BD0520087010BD70B5064D20
:101CE0000646002455F8241009B130468847641C84
:101CF000042CF7D370BD0000AC08002038B50400F8
:101D000014D0694603F064FDB0B1BDF8000000EBEB
:101D100080010B4800EB8100C16851B1A17A41B14B
:101D2000C168491EC1600020A07238BD48F204603D
:101D300038BD48F2056038BD48F2096038BD000082
:101D4000480900201FB501A9684603F0F9FC04B05A
:101D500010BD0000F8B50D46040018D0BDB16946AD
:101D600003F036FDB0B1BDF800000C4900EB800077
:101D700001EB800001210C30666801F007F82E604D
:101D800060680C3068600120A0720020F8BD48F245
:101D90000460F8BD48F20960F8BD00004809002061
:101DA00018B10323002204F03FBB48F204607047DF
:101DB0000223002204F038BB2DE9F05F17460E0025
:101DC000814670D013B1F9B2FFF744FD0024FEF74D
:101DD00095FB8246006800E0641C315D415CC907E8
:101DE000FAD100253046FFF7FCFBD9F80810001B9C
:101DF0004A7ED11B814228D306EB040805E000BFD0
:101E000018F805100A290CD06D1C8542F8D3311939
:101E1000D9F8100001F00EFD4846BDE8F05FFFF76D
:101E200081BCD9F8100001F012FD414600232A467A
:101E30004846FFF7DBFB2C444846641CFFF772FC66
:101E4000F9B24846FFF706FDE1E78B46DAF80010E5
:101E500006EB040818F805000B5CDB0702D0AB4664
:101E60000A2804D0E819904201D26D1CF2E7D9F893
:101E7000100001F0ECFC414600235A464846FFF7AB
:101E8000B5FB5C44DAF8000000E0641C315D415CA5
:101E9000C907FAD14846FFF745FCF9B24846FFF7B3
:101EA000D9FC9EE7FFE7BDE8F09F406803F0DCBB8C
:101EB00010B504460068FFF794FB0146A068827FD6
:101EC000407E1144B1FBF0F200FB121008B100207B
:101ED00010BD012010BD000070B510B14FF40640D8
:101EE00070BD1C4C0025207B08B1257301E000F07B
:101EF000A5F8207808282AD2DFE800F02904080C89
:101F000010291422BDE8704000F026B8BDE87040EA
:101F100000F082B8BDE8704000F064B8BDE87040E1
:101F200000F040B80620207060880A4900EB80006D
:101F3000283901EB80004068BDE8704003F05ABAD0
:101F4000072020706560BDE8704003F061BA48F278
:101F50000E6070BD700900201149F0B48A1C002089
:101F60000346A1F128050C18A67A4EB1A37200EB26
:101F7000800405EB8404E66816B9247C012C0AD0A1
:101F8000401C80B20228EED30B704B804B60F0BC3B
:101F900041F61D5070471080F0BC00F03DB80000C5
:101FA000700900200C48418801EB8102A0F1280152
:101FB00001EB8201CA6852B1052101700748022174
:101FC0008180016800230122054801F039BD042207
:101FD00002704968F6E7000070090020DC0000206C
:101FE0001402002038B50A49084803240B684268E7
:101FF000898803EB810153880470DB1C00201B04DB
:1020000000909B0B034801F0C3FD38BD7009002010
:10201000DC00002014020020074910B54888091D83
:1020200003F026FC18B1BDE81040FFF7DBBFBDE8A8
:102030001040FFF7B7BF00007009002070B5194CC1
:102040000121207808281AD2DFE800F00419191CB1
:10205000252929182089134A401C208100206080EE
:102060002073283A00EB800312F8233043B1002399
:102070002518401C80B2AB720228F3D3217070BDCA
:102080000123F5E76068084940888A88C01C10442D
:102090008880022004E000F009F8062000E0072014
:1020A000207070BD70090020DC0000200A4909483A
:1020B0004988026801EB81030749283901EB830154
:1020C0004B6803604A6082880A8102228280002075
:1020D00008747047DC00002070090020428800EB83
:1020E00082020C328A4201D9022070478188A1F510
:1020F0007F42FF3A06D0018821B18068401C01D0A0
:102100000020704701207047884204D20068401CBC
:1021100001D0012070470020704700002DE9F041F8
:102120002D4F002520B17D604FF40640BDE8F081C1
:102130000879012258B1294E01280CD0264C4FF0C5
:1021400002080834022820D0032841D127E00A7170
:1021500003F05EF93AE0002000EB800116F8211050
:10216000022908D0401C80B20228F5D33A707D6065
:1021700041F61D50DAE700EB800006F8205006EB30
:102180008000406803F036F920E00D71A4F8048067
:10219000002301221248216801F052FC16E00D7163
:1021A000206803F027F90D4923682831498801EB9D
:1021B000810206EB8201D1F804C0C4F800C04B6074
:1021C000A3880B81A4F8048006F822500028ADD023
:1021D0007D6048F20D60A9E7D40000204809002086
:1021E000140200202DE9FC5F0E008346DDE90C4758
:1021F000C6F1000098469246814600D40846012563
:1022000003E000BF90FBFAF06D1C5045FADAA845D8
:1022100000D9454624B1002E01DB780700D5641EA5
:10222000B80702D5B8F1000F0AD0F80708D13CB1C1
:10223000A54205D220215846641EFFF7DBF8F6E7D9
:10224000002E02DA4E462D2102E0780703D52B211D
:102250005846FFF7CFF807F0030002280BD1B8F17A
:10226000000F08D13CB1A54205D230215846641E6A
:10227000FFF7C0F8F6E7CDE900474346524631463E
:10228000584603F0CBFEBDE8FC9F000070B50D463C
:10229000044600684FF4887102F0AFFC4FF490716F
:1022A000206802F0AAFC4FF49271206802F0A5FCAD
:1022B0004FF4A271206802F0A0FC4FF4AC712068CA
:1022C00002F09BFC20681249C0F8041320686907DB
:1022D00040F30730090E002804DB00F1E02080F80D
:1022E000001405E000F00F0000F1E02080F8141D5C
:1022F000206840F30730002809DB00F01F020121AD
:1023000091404009800000F1E020C0F8001170BD4C
:1023100010034200024600201268530713D502F052
:102320000300012802D002280CD105E0C2F383107B
:102330000B68801C184404E00223086803EB9252E7
:10234000104408600120704770B50C464FF4887641
:102350000546314602F06CFB50B13146284602F08A
:102360006CFB6079400703D5216809B101208847DB
:102370004FF48A763146284602F05AFB50B1314676
:10238000284602F05AFB6079000703D5216809B19D
:10239000022088474FF48E763146284602F048FBEB
:1023A00050B13146284602F048FB6079C00603D49C
:1023B000216809B1002088474FF4827631462846CB
:1023C00002F036FB00280CD03146284602F035FBDF
:1023D000012020712168002903D0BDE8704003204E
:1023E000084770BD2DE9F0479146884604464FF4F2
:1023F00080354FF4A0760027DFF884A016E000BFF8
:10240000D4F8040328420DD0A05958B1C4F8485359
:10241000C4F808533146204602F0AEFB5AF82810A3
:10242000F8B28847361D6D00B6B27F1C4F45E7D322
:10243000D4F804034FF4807110F0010F09D0D4F8E0
:10244000000130B1204602F097FB5AF82810042012
:102450008847D4F804034FF4827110F0020F0CD0B7
:10246000D4F80401002808D0204602F085FB5AF871
:102470002810BDE8F04705200847BDE8F0870000B8
:1024800070000020F8B50E4604464FF48C7102F03F
:1024900093FB00281AD00025C4F81851D4F818016D
:1024A0000090F07F3446FF2806D0A17F11B101F0E3
:1024B00009FD01E001F048FD65772572D4E90021AE
:1024C00001B004F10800BDE8F0401047F8BD00007D
:1024D0002DE9F041174688460646002417E000BF64
:1024E0004FF4A07000EB84054FF480307159A04088
:1024F00059B1D6F80413014207D02946304602F0FC
:1025000060FBD8E9002128469047641CE4B2BC4235
:10251000E6D3BDE8F081800701D00020704701209C
:1025200070470000014B00F00BBD00005D2700006C
:10253000014B00F005BD000029290000014B00F00F
:10254000FFBC000031290000014B00F0F9BC000085
:10255000112A00007CB514460546012902D001F07D
:102560001FF938B102B02846BDE87040002211467C
:1025700000F0D8BF616805A0CDE9000109A20221E1
:102580002846236800F0A6FF7CBD000020756E6B16
:102590006E6F776E20706172616D657465723A203E
:1025A0000000000025733A257325730D0A00000012
:1025B0002DE9FC41074601F0F3F838B102B0384686
:1025C000BDE8F0410022114600F0ACBF1248134EA6
:1025D000801B050900241AE006EB0410C26811797B
:1025E000FF2903D0527942B10DA207E083680EA201
:1025F0000821384600F06EFF08E013A2CDE9002163
:10260000836814A20821384600F064FF641CAC42C1
:10261000E2D3BDE8FC810000647C0000547C000033
:10262000656E61626C65640025730D0A092D205387
:1026300074617475733A206465616374697661745A
:1026400065640D0A0D0A000064697361626C65645B
:102650000000000025730D0A092D20537461747564
:10266000733A2025730D0A092D2049443A20256428
:102670000D0A0D0A0000000010B5044601F090F8A4
:1026800030B120460022BDE81040114600F04ABF9C
:1026900001F080FD30B105A202212046BDE81040C6
:1026A00000F018BF0AA20821F7E700004661696C34
:1026B000656420746F206C6F6164207468652063AA
:1026C0006F6E66696775726174696F6E2E0D0A00B0
:1026D000436F6E66696775726174696F6E206C6FA7
:1026E000616465642E0D0A0010B5044601F058F8C7
:1026F00030B120460022BDE81040114600F012BF64
:1027000001F0A2FD30B105A202212046BDE8104033
:1027100000F0E0BE0BA20821F7E700004661696CFB
:10272000656420746F2073746F726520746865200F
:10273000636F6E66696775726174696F6E2E0D0ADC
:1027400000000000436F6E66696775726174696F9F
:102750006E2073746F7265642E0D0A002DE9FF4FB1
:10276000C86881B01D46007917004FF00006009040
:1027700057D0072245A12868FDF70BFF78B1082242
:1027800044A12868FDF705FF00282FD02B6843A23D
:10279000019805B00221BDE8F04F00F09BBE012F6B
:1027A00002D0022F08D008E0019805B041A2BDE890
:1027B000F04F022100F08EBE0126DFF810810024C8
:1027C0000A2258F824106868FDF7E3FE10B1641C73
:1027D000052CF5D3052C06D004F0FF090224002EA9
:1027E00051D0002419E03AA26B68D1E7012F4FF0D5
:1027F0000009F6D0012446E04A462146009800F040
:1028000032FA48B90021204602F006F8034638A201
:102810000221019800F05EFE641C01F0A7FFA042B7
:10282000EAD805B0BDE8F08F4FF0000A55F824B0A3
:1028300001F09CFF8046002609E00021304601F0AF
:10284000EBFF20225946FDF7A4FE58B1761C464501
:10285000F3D3464508D04A465146009800F003FAA3
:1028600030B10FE0B246F4E755F8243029A205E074
:102870000021504601F0D0FF03461DA2022101981D
:1028800000F028FE641CBC42CED3CAE7656E6162CC
:102890006C65000064697361626C6500556E6B6EF7
:1028A0006F776E206F7074696F6E3A2025730D0A12
:1028B0000000000042616420706172616D657465A2
:1028C0007220636F756E742E0D0A0000580100208F
:1028D000556E6B6E6F776E2073657665726974796D
:1028E000206C6576656C3A2025730D0A00000000A7
:1028F0004C6576656C20756E617661696C61626CA1
:102900006520666F72206D6F64756C653A20257363
:102910000D0A0000556E6B6E6F776E206D6F6475DB
:102920006C653A25730D0A00C9680120487170472B
:10293000C96800204871704730B41346C4680A461D
:10294000214630BCFFF70ABFC0680121C068417151
:102950007047C0680021C0684171704730B41346A9
:10296000C4680A46214630BC00F052B82DE9FF4148
:102970000026244800F007FA2248001F074600F00E
:1029800002FA214C2149A06800900D6800E00098EF
:102990006946284004EB80000C30FFF7BBFC0028A0
:1029A000F5D101AA009901EA050304EB8303491C50
:1029B000DB6842F82030401C00910228F2D30198D5
:1029C00000F0030001280BD0022810D10198032148
:1029D00001EB90500099BDF80A6001EB900005E012
:1029E0000198BDF80A60C0F383100844009038468F
:1029F00000F0C6F908B10098A06004B03046BDE808
:102A0000F0810000941E00207C1A00205401002058
:102A10002DE9FE4F8846824601F0A8FE0746D8F809
:102A20000C00407920B922A20221504600F052FD4C
:102A300024A327A20821504600F04CFD2CA2082117
:102A4000504600F047FD00242DE000BFD8F80C00F0
:102A500001231A4605792146284601F091FE814658
:102A6000002301222146284601F08AFE054603285C
:102A700001D2064600E003260121204601F0CCFEEB
:102A80000346AE4201D22AA200E028A2294850F80B
:102A9000261050F829008DE8070027A2082150468B
:102AA00000F018FD641CBC42D0D3BDE8FE8F0000CE
:102AB0004C6F6773206172652068616C7465642176
:102AC0000D0A00006D6F64756C655F6E616D650069
:102AD000252D343073207C2063757272656E7420EE
:102AE0007C206275696C742D696E200D0A000000EF
:102AF0002D2D2D2D2D2D2D2D2D2D2D2D2D2D2D2D06
:102B00002D2D2D2D2D2D2D2D2D2D2D2D2D2D2D2DF5
:102B10002D2D2D2D2D2D2D2D2D2D2D2D2D2D2D2DE5
:102B20002D2D2D2D2D2D2D2D2D2D0D0A00000000CC
:102B30002A00000058010020252D343073207C200D
:102B4000252D3773207C20257325730D0A00000086
:102B50004FF48041002001F0BBFD08B1FEF740FBBF
:102B600001F0F8FB14481549124C401AC008032123
:102B7000628801EB00408046032A02D310A101F0D5
:102B800031FD144D0026A2464FF47A794FF47A476E
:102B9000BAF80200032804D3404632460EA101F0E1
:102BA00025FD4C46691C38468847641EFAD1761CC0
:102BB000EEE7000000030020147E0000647C0000AB
:102BC00068656C6F6F6F6F6F20616E6820656D2E2A
:102BD0002E2E00009066000056616C7565206461C1
:102BE00074613A25640000002DE9F047C5881E1D78
:102BF000B6FBF5F78946B6FBF5F1044605FB176C05
:102C0000407916686843DDF820A0F718001F874256
:102C100000D9C61A166001E02468491E0029FBD1BC
:102C2000A5EB0C078846B74216D818E004EB0C0059
:102C3000001D09EB0803BAF1000F3A4602D0014625
:102C4000184600E01946FDF75DFC2468F61B4FF0BE
:102C5000000CB844B54201D9374600E02F46002E9B
:102C6000E4D1BDE8F08770B5144600230D46064652
:102C70001A4601F085FD844201D9002070BD22462C
:102C80002946304601F0A0FD012070BD30B5024656
:102C900051B101F06BFD0021074C08E034F8213000
:102CA0001568AB4202D11160002030BD491C814241
:102CB000F4D3052030BD00002802002010B50C46DA
:102CC0000021E16061600349A160012101F0A4FDE0
:102CD000206010BD686A000070B58468006804F167
:102CE0001405FEF77EFCC1B2A971E07F6A79084441
:102CF000B0FBF2F302FB13035B1C2B70E07F084474
:102D0000B0FBF2F35B1CAB70A07F0844B0FBF2F3A6
:102D10005B1CEB70A07F0844B0FBF2F102FB1101D9
:102D2000491C6970284670BD70B50C460546FDF714
:102D3000FDFA002802D021882868084470BD10B52B
:102D40000A8849888A4203D1FDF732FB012010BD71
:102D5000002010BD70B50C460546FDF70CFB0028A1
:102D600002D061882868084470BD10B50A88498877
:102D70008A4203D1FDF7F6FA012010BD002010BDF4
:102D8000002100F00EB8012100F015B808B56A4620
:102D9000FDF763FB009808BD08B56A46FDF75DFBCB
:102DA00008BD08B56A46FDF73EFB08BD08B56A4692
:102DB000FDF720FB08BD08B56A46FDF727FB009824
:102DC00008BD08B56A46FDF755FB009808BD70B50B
:102DD000044600252846FEF70EFA21686268086856
:102DE00090420ED9401E08600178238BE26801FBF7
:102DF0000325227A2168101AC0B20A79824200D2D1
:102E000008710020FEF7F9F9284670BD70B5054637
:102E10000C460020FEF7EFF9E868298B201AB0FB7A
:102E2000F1F12A681068431C13600170BDE870401E
:102E30000020FEF7E2B910B530B1017A42680368AC
:102E4000891AC9B21A6006E00E2010BD03681A681C
:102E5000541C1C601170491EC9B2F7D200680021D1
:102E60000171084610BD00002DE9F0470646806854
:102E700088B0D0F84801C0F3400038B108B03046FF
:102E8000BDE8F0470022114600F04CBB012907D9EC
:102E900008B03046BDE8F0471DA2022100F01ABB81
:102EA0002049DFF884A0A1EB0A001C21B0FBF1F55A
:102EB000002428E0C4EBC4010AEB81034FF00009B1
:102EC0001F68D3E901103A793F78411AB3F81880A6
:102ED000C01B5B69C0B2642712FB07F7B7FBF1FCAC
:102EE000642710FB07F7B7FBF1F7CDE90621CDE921
:102EF000041CCDE902700D4A08213046CDE9008955
:102F000000F0E8FA641CAC42D4D308B0BDE8F08706
:102F100042616420617267756D656E7420636F75C0
:102F20006E740000387E00001C7E000000720000FD
:102F3000C20800F007030120895C984008407047F0
:102F40002DE9FF5F8B46164814499A46091A0F0966
:102F5000914652F8046C0025804607E008EB051402
:102F60003046A168FDF707FB18B16D1CBD42F5D3D3
:102F70000BE0210009D0009804B04B465A46D446D5
:102F8000BDE8F04F5DF804EB6047009804B03346AD
:102F9000BDE8F05F03A2022100F09CBA647C00004F
:102FA000547C0000496E76616C6964206261636BD9
:102FB000656E643A2025730D0A00000070B5154651
:102FC0008268D2F84841C4F3400424B11A46294625
:102FD00000F0A8FA05E031B1536804A2022100F024
:102FE00079FA012070BD002070BD000025733A20E1
:102FF00077726F6E6720706172616D6574657220A3
:10300000636F756E740A000010B5044602290CD176
:10301000A068D0F84801C0F3400030B1204600223B
:10302000BDE81040114600F07DBA064A06A12069AD
:1030300000F000FC034A2069BDE81040093202A1FB
:1030400000F0F8BB5D69000025730000012907D07E
:10305000022909D18168D1F84811C1F3400119B1A1
:103060000022114600F05EBA01A2022100F032BA3D
:10307000506C656173652073706563696679206162
:1030800020737562636F6D6D616E642E0A000000BF
:103090001CB5012905D002290BD014D94FF001012C
:1030A00012E002B04FF00002BDE81040114600F0FF
:1030B00039BA536808A1CDE9001313680CA20221A4
:1030C00000F008FA1CBD002102B00023BDE810404A
:1030D0001A46FFF773BF000020756E6B6E6F776E38
:1030E00020706172616D657465723A2000000000A5
:1030F00025733A257325730A0000000010B50446B5
:10310000012901D0012100E0002100231A46FFF728
:1031100055FF002809D1A168C1F83801E06840686E
:103120000068BDE8104001F096BC10BD3EB50546F4
:10313000012901D0012100E0002100231A46FFF7F8
:103140003DFF002818D1E86840680468204601F077
:103150007FFCC0B2642110FB01F2A168B2FBF1F266
:10316000D2B20092CDE90101A86804A20021D0F8F2
:103170003831284600F0AEF93EBD00004C6F737444
:10318000206C6F67733A2025750A4D6178206C6F4B
:1031900067207175657565207574696C697A6174ED
:1031A000696F6E3A2025752525205B25752F2575BD
:1031B0005D0A00007CB514460546012903D00229AA
:1031C00008D0012107E002B00022BDE8704011469E
:1031D00000F0A8B9002100231A46FFF7EFFE0028EF
:1031E00009D1616804A0CDE9000109A202212846A5
:1031F000236800F06FF97CBD20756E6B6E6F776E83
:1032000020706172616D657465723A200000000083
:1032100025733A257325730A0000000010B5044693
:10322000012901D0012100E0002100231A46FFF707
:10323000C5FE002806D1A068D0F8481121F004018D
:10324000C0F8481110BD10B50446012901D0012174
:1032500000E0002100231A46FFF7B0FE002806D147
:10326000A068D0F8481141F00401C0F8481110BD21
:103270007CB514460D460646022901D9012100E01D
:10328000002100231A46FFF799FE002811D1022DD4
:1032900005D03046FEF798F960B10BA30BE06168EA
:1032A0000AA0CDE900010FA202213046236800F0F8
:1032B00011F97CBD0EA302B03046BDE870400DA2EE
:1032C000002100F007B900006F6E000020756E6BE2
:1032D0006E6F776E20706172616D657465723A20F1
:1032E0000000000025733A257325730A00000000D2
:1032F0006F6666004563686F207374617475733A16
:103300002025730A0000000010B50446012901D0F1
:10331000012100E0002100231A46FFF74FFE00289C
:1033200006D1A068D0F8481121F00801C0F8481172
:1033300010BD10B50446012901D0012100E0002193
:1033400000231A46FFF73AFE002806D1A068D0F8FD
:10335000481141F00801C0F8481110BD7FB504467E
:10336000012901D0012100E0002100231A46FFF7C6
:1033700025FE002827D1A0680026D0F84051F5B1DD
:1033800001E0082E1BD20023092201A9284601F0E2
:103390001EFB9DF80C20A16809232846A031521C71
:1033A00001F015FBA0683346A0300090029D761C0A
:1033B00005A20021204600F08DF8002DE1D1A16882
:1033C000002081F8A0007FBD5B2533645D2025735C
:1033D0000A0000007CB515460446012903D00229E5
:1033E00017D9012116E0A16801F11802193102F084
:1033F0003DFC00281ED0A16850200FA24876A1688D
:103400001820087602B02046BDE87040042100F084
:1034100061B8002100231A46FFF7D0FD002809D12A
:10342000696814A0CDE9000118A2022120462B688A
:1034300000F050F87CBD00004E6F20726573706F15
:103440006E73652066726F6D207468652074657296
:103450006D696E616C2C20617373756D65642038C5
:10346000307832342073637265656E2073697A65D3
:103470000A00000020756E6B6E6F776E20706172AF
:10348000616D657465723A200000000025733A256D
:103490007325730A0000000010B50446012901D00D
:1034A000012100E0002100231A46FFF787FD0028D4
:1034B0000AD1064A06A1206900F0BCF9A168502093
:1034C0004876A1681820087610BD000076690000D3
:1034D000257300000FB438B5044607A80090A06813
:1034E000D0F84821520717D5C27E8A4214D0B0F8CE
:1034F0001B50204602F070FF6A462069069900F0D2
:10350000B2F9E9B2204602F067FF290A204602F02C
:1035100045FF38BC5DF814FB6A462069069900F047
:10352000A2F9F6E72DE9F04F804689B017460C4620
:103530008648FEF756F8054684483638FEF751F8B7
:10354000281A1FFA80F9814881A223380090D8F800
:103550000800082143684046FFF7BCFFD8F8080080
:103560004068FEF73EF8054678482338FEF739F8FC
:10357000284482B2D8F80800002381684046FEF74C
:103580001BFC75A200214046FFF7A4FF0FB304B354
:1035900000251CE005EB450A04EB8A0BDBF8040070
:1035A000FEF71FF8064654F82A00FEF71AF83118FD
:1035B00049450BD9DBF80400FEF713F8064654F82A
:1035C0002A00FEF70EF830441FFA80F96D1CBD4248
:1035D000E0D35E483638FEF704F84844801C1FFAF2
:1035E00080F95A4800904B465EA208214046FFF7FA
:1035F00071FF09F1030086B20790002332465BA1F8
:103600004046FEF7D9FB002C52D000254EE000BF0B
:1036100005EB450A04EB8A0B54F82A00DBF804306A
:103620006BB350B3494956A23639CDE90010082191
:103630004046FFF74FFF09F102000090DBF804005D
:10364000FDF7CFFF064654F82A00FDF7CAFF0644EF
:103650003E483638FDF7C5FF31180098401A801EE5
:10366000C1B24046FEF7F6F83A224849D8F81000B1
:1036700000F0E0F80098401C0AE0009301E040B13F
:1036800000904B4637A208214046FFF723FF0798DA
:1036900086B2DBF8081029B1002332464046FEF717
:1036A0008BFB02E04046FEF73DF86D1CBD42AFD3F8
:1036B000D8F80800C068002845D08146002004469C
:1036C000064603AD02903246761C02AB0121484605
:1036D0000095FDF7B7FF029850B10068FDF781FF34
:1036E000A042F0D902980068FDF77BFF84B2EAE7B8
:1036F000012E28D026A200214046FFF7EBFE00262F
:103700003246761C02AB012148460095FDF79AFF30
:103710000298002817D0A11C8FB2006800903B4689
:1037200010A208214046FFF7D5FE0298FF1CBAB24E
:10373000416821B100234046FEF73EFBE0E74046EA
:10374000FDF7F0FFDCE709B0BDE8F08F7C69000011
:1037500025732573000000004F7074696F6E733A13
:103760000A0000002020252D2A733A0053686F7745
:1037700020636F6D6D616E642068656C702E000053
:103780002020257325732573000000008815000094
:10379000537562636F6D6D616E64733A0A00000069
:1037A0008068D0F84801C0F34000704700F18040C5
:1037B0000068002800D00120704708B500F1804063
:1037C000002101600068009008BD0000F0B50546CA
:1037D0000478154889B0164640F82420124A086932
:1037E0000832A2F10C0742F82400487F3855202205
:1037F0006846FCF787FE04942878385C48B10EB11F
:103800000A4A00E000226946281D01F075FC09B053
:10381000F0BD0EB1064A00E00022694605F10C0039
:1038200001F034FBF3E7000004000020D95E000043
:10383000215D00000FB408B50399002904D004AA43
:1038400000926A4600F00FF801B05DF814FB10B565
:1038500082680446002A05D0D4E904032168984709
:103860000020A06010BD2DE9FC4791460C00804669
:1038700076D014F8011B39B125290ED04046FDF74A
:10388000B9FD20780028F4D198F80C00002867D002
:103890004046BDE8FC47FFF7DABF0020012221784F
:1038A0002B291BD02D2902D0302908D102E040F06D
:1038B000010001E040F00200641C002AEFD1002565
:1038C0002A290ED02178A1F130020A2A11D205EB63
:1038D000850201EB4205641C303DF1E740F0040035
:1038E000EAE7D9F800100B1DC9F800300968641C1C
:1038F0000D44217800232E290BD114F8011FA1F1CA
:1039000030020A2A05D203EB830201EB4203303B6B
:10391000F3E76C290DD068290BD0692921D00BDC85
:10392000252918D0582931D063290ED0642915D102
:1039300017E014F8011FECE7702969D0732932D021
:1039400075291BD0782909D120E0D9F80000011D84
:10395000C9F8001001784046FDF74CFD641C90E763
:103960006CE0D9F800100A1DC9F800200968CDE9FB
:1039700000500A224046FEF735FCEFE7D9F8001068
:103980000A1DC9F8002009680A2206E0D9F80010CB
:103990000A1DC9F8002009681022CDE900504046F0
:1039A00002F03CFBDAE7D9F8001000270A1DC9F83D
:1039B00000200E68C00705D112E04046761C7F1C2F
:1039C000FDF718FD31780029F7D104E020214046A9
:1039D0006D1EFDF70FFDBD42C0D9002DF6D1BDE72C
:1039E0004EB13046FCF7C0FD074604E020214046BA
:1039F0006D1EFDF7FFFCBD4206D9002DF6D103E098
:103A00004046761CFDF7F6FC31780029F8D1A5E791
:103A1000D9F80000011DC9F80010056830214046A2
:103A2000FDF7E8FC78214046FDF7E4FC0820002182
:103A3000CDE90001034610222946B0E7BDE8FC8726
:103A40002DE9F84F8946050032483349304FA0EB45
:103A500001004FEAD0004FF0010101EB00447888EB
:103A60009A46164626D0296800292FD0002E38D035
:103A70006A6849464FF010081268531E13EA090F8E
:103A800010D172432846FDF754FB002834D0286833
:103A900053463246046901B049462846A446BDE86B
:103AA000F04F6047002831D020461C4B1CA2CDF8B7
:103AB000008028E038B10E2000902046174B22A24B
:103AC00023A100F09AFD0E20BDE8F88F38B1082040
:103AD00000902046114B29A21DA100F08EFD082068
:103AE000F2E738B10920009020460C4B26A218A11D
:103AF00000F083FD0920E7E7788838B1074B234AB7
:103B00002046CDF8008012A100F077FD1020DBE701
:103B1000E8020020E47D0000647C0000E26900000F
:103B2000616464725F69735F706167655F616C692E
:103B3000676E656428705F66732C20706167655FCF
:103B40006164647229000000705F66730000000009
:103B5000257320636865636B206661696C6564200A
:103B6000696E202573282920776974682076616C36
:103B7000756520307825782E00000000705F667330
:103B80002D3E705F617069006C656E0044750000C9
:103B90002DE9F84F914605004348444A414EA0EBB9
:103BA00002004FEAD0004FF0010202EB00448B46C6
:103BB0007088DDF828A098464FF00E011CD0B9F1AE
:103BC000000F1FD02968002926D00921B8F1000F65
:103BD0002DD06A685368B8FBF3F703FB1782002AFD
:103BE0002CD030B1324B204632A200913CA100F0E3
:103BF00004FD0920BDE8F88F60B120462C4B43A29C
:103C0000009104E030B12A4B204642A2009134A139
:103C100000F0F3FC0E20EDE738B1082000902046BC
:103C2000234B3EA22EA100F0E8FC0820E2E700288A
:103C3000DFD020461E4B3CA20091D7E75846FDF747
:103C400072FA102798B14846FDF76DFAB8B14246AE
:103C500059462846FDF76DFAD8B1CDF800A028687E
:103C600043464A46C46859462846A047C2E770887A
:103C7000002815D020460E4B2CA2009705E0708836
:103C800070B10B4B20462FA2009715A100F0B5FC98
:103C900006E0708820B12046054B33A20097F4E778
:103CA0001020A7E7E8020020E47D0000647C00000B
:103CB000CF69000021286C656E202520705F667337
:103CC0002D3E705F666C6173685F696E666F2D3E36
:103CD00070726F6772616D5F756E697429000000A4
:103CE000257320636865636B206661696C65642079
:103CF000696E202573282920776974682076616CA5
:103D0000756520307825782E00000000705F66739E
:103D100000000000705F737263000000705F6673E4
:103D20002D3E705F617069006C656E006164647245
:103D30005F69735F616C69676E65643332286465BF
:103D400073742900616464725F69735F616C696791
:103D50006E65643332282875696E7433325F742956
:103D6000705F737263290000616464725F69735FDE
:103D700077697468696E5F626F756E647328705FCF
:103D800066732C20646573742C206C656E290000AA
:103D90002DE9FF411C46DDE90A7815460E466846C6
:103DA00000F0B6F846EA450141EA840141EA0722FB
:103DB00042EA0841009A00EB8200C0F80017BDE813
:103DC000FF812DE9FF411C46DDE90A7815460E46C4
:103DD000684600F0ABF846EA450141EA840141EA51
:103DE000072242EA0841009A00EB8200C0F800175F
:103DF000BDE8FF811CB5002100910B460122019115
:103E0000FFF7C6FF1CBD1CB5002100910B46012227
:103E10000191FFF7D6FF1CBD1CB500220B46009296
:103E200011460192FFF7B4FF1CBD1CB500220B46E2
:103E3000009211460192FFF7C4FF1CBD1CB5002182
:103E400000910B46012201911146FFF7A1FF1CBD15
:103E50001CB5002100910B46012201911146FFF78C
:103E6000B0FF1CBD13B50C46684600F035F800994C
:103E700000EB8101D1F8002722F44032C1F800277D
:103E8000009900EB8100D0F8001741EA0441C0F826
:103E900000171CBD3CB50A4CD4E90034CDE9003410
:103EA0006B46441808E000BF53F82010D1F82055A5
:103EB00020C2C1F82055401C8442F5D83CBD00000A
:103EC0009866000001B5684600F014F8009A0121D8
:103ED0009140C0F80C1508BD0168202902D24FF0AE
:103EE000A040704701F01F010160014870470000C9
:103EF000000300500168202902D24FF0A040704713
:103F000001F01F01016001487047000000030050EC
:103F10000168202902D24FF0A040704701F01F0134
:103F2000016001487047000000030050016820292B
:103F300002D24FF0A040704701F01F01016001481C
:103F4000704700000003005001B56846FFF7D2FF3C
:103F5000009A01219140C0F8081508BD01B56846D6
:103F6000FFF7D6FF009A01219140C0F8081508BD5F
:103F700001B56846FFF7DAFF009A01219140C0F8C9
:103F8000081508BD034908B5084400210160006810
:103F9000009008BD0060004002494058012800D050
:103FA00000207047006000404058002800D00120E9
:103FB000704708B5002242504058009008BD0000EC
:103FC0002DE9F041054620480E460024D0F8103473
:103FD00019460AE0CA681179A14205D1641C0A2C6D
:103FE000F6DB4FF0FF342BE011680029F2D1611CA1
:103FF00026D0E9680C71D0F8101459B1C968EA6884
:1040000009681160D0F81004C06805600027DFF867
:104010003C8011E0C0F81054E96800200860F5E722
:1040200008EBC700C279B24200D33246E86839468D
:10403000007900F0C9FB7F1C00F098FBB842EFD874
:104040002046BDE8F08100007C1A0020647C00005E
:10405000F0B595B01C4615460F4608461A9E00F06E
:10406000A1FC182109A8FCF774FA0E96CDE90954B1
:104070000023082203A9384600F0A9FC0598069001
:10408000BDF81000ADF81C00BDF81200ADF81E0020
:1040900000208DF821000398082600F00300012875
:1040A00002D0022818D032E003983346850AC0F3C4
:1040B000C2008DF8200003980FA9C0F38314A2005A
:1040C000384600F084FC09A8009006AB22460FA9F0
:1040D000284600F0C3FB1AE00398840DC0F3C20029
:1040E0008DF82000082C01D2254600E00825334633
:1040F0002A460FA9384600F06AFC2E44641B09AB1F
:1041000006AA29460FA800F08BFA002CEAD13846FF
:1041100000F04EFC15B0F0BD7047002001F01EBE4F
:10412000084810B50178084A515C19B1001D01F02A
:104130007DF802E00C3000F077FFBDE81040002071
:1041400001F00CBED40100200000002008B5034A95
:1041500000924023024AFFF77BFF08BD6959000027
:104160009C1E00200A4A012902EBC00007D0022948
:1041700007D0032907D0042907D000207047022068
:1041800070470420704700797047407970470000FD
:10419000647C000010B588B0002403940494059456
:1041A000069406AB03AA43F2274141F26E0007943E
:1041B000FDF7C8FDB0B1A0F50641093902D00320D2
:1041C00008B010BD11484088022809D31048114991
:1041D000401AC008022101EB00400FA100F002FAD2
:1041E0000520EDE7019401A903A80294FDF7B2FDB3
:1041F0000028E5D11248134902468A1A0299FCF7B1
:1042000081F903A8FDF77AFDDAE70000000300203A
:10421000147E0000647C00004C6F67676572206349
:104220006F6E66696775726174696F6E2066696C1E
:1042300065206E6F7420666F756E642E000000003E
:1042400004030020E003002070B58AB0002021495B
:1042500002900090019007900890D1E90701CDE904
:1042600004011D481D4907AB401A800806906A46A4
:1042700043F2274141F26E00FDF764FD19491A4AE5
:10428000174E891AC908032202EB0144A8B1A0F510
:104290000641093903D003250AB0284670BD04A998
:1042A0006846FDF785FD054670880328F4D320464F
:1042B0002A460EA100F09AF9EEE704A96846FDF738
:1042C0006FFD054670880328E6D320462A4614A1D0
:1042D000F0E70000686A0000E0030020040300200B
:1042E00000030020147E0000647C00004C6F6767B0
:1042F000657220636F6E66696775726174696F6E4F
:104300002066696C65207772697474656E207769C0
:10431000746820726573756C743A2564000000003F
:104320004C6F6767657220636F6E6669677572614F
:1043300074696F6E2066696C652075706461746560
:1043400064207769746820726573756C743A2564AB
:104350000000000010B5FFF7E0FE04210348FFF75E
:104360002FFE02490120C968487110BD547C00002D
:104370002DE9FF5FFDF756F818B1002004B0BDE845
:10438000F09F8C4C0020C4F81804BFF34F8F8A496B
:10439000A06800900D684FF00009284004EB8000F1
:1043A0000CE000BFD4F8180470B96168009881422D
:1043B00001D8A160E1E7284004EB80000C30694699
:1043C000FDF7A8FF0028EDD1002001A9A046009A22
:1043D00002EA050308EB8303521CDB6841F8203036
:1043E000401C00920228F2D3019800F0030002283A
:1043F00002D0012850D0BEE001985022810D8A469B
:10440000B2EB905F00D850210C4664F39F50C0F38C
:10441000C20701900831694800F07BFA0600EAD033
:1044200000F0C0FA4B46082201A9304600F0D7FA46
:10443000009909F1080B2940681A8000001D844288
:1044400023D95C4D0C3530B1C2B208EB8101201A82
:1044500091460C3104E02946E2B2002591462846F7
:10446000C4B25B46304600F0BAFA0BEB09032DB13B
:10447000224629464FEA060000F0B1FA00990AF1F7
:10448000030001EB900000903DE008EB81015B46EA
:10449000224630460C31EFE70198C0F3831006281E
:1044A00000D30620019960F38911C1F38310C1F391
:1044B000C207801C01918100404800F02AFA0600E2
:1044C00059D000F06FFA4B46082201A9304600F09F
:1044D00086FA09F1080900240FE000984B4600EA2B
:1044E0000501401C08EB81010090042230460C318C
:1044F00000F075FA09F10409641C0198C0F38310F7
:10450000A042EAD8B6B3D8F81044D8F81804454603
:10451000F8B1304600F04CFA46E0E06841790129F4
:1045200015D10179BDF80800254A01EB410152F887
:10453000200007228A401040C840052F00D10327E1
:10454000B84204D322682046314612689047E0689A
:104550000468002CE1D1304600F02AFA0020FCF774
:104560004AFED5F8180408B90098A8600020FCF7A6
:1045700044FE19E0FFE7D8F8104405E02168204622
:1045800089688847E0680468002CF7D10D484088A6
:10459000022809D30C480D49401AC008022101EB3A
:1045A00000400BA100F01EF8FCF73CFF80F001007A
:1045B000E4E600007C1A0020540100201C7E00006C
:1045C0000403002000030020147E0000647C00002F
:1045D0004261636B656E647320666C7573686564B5
:1045E0000000000000231A4601F0F0B908B50123CD
:1045F00000926A4601F0EAF908BD3EB5069C8DE8D6
:104600001C0003236A4601F0E1F93EBD7FB5DDE9F8
:1046100008458DE83C0004236A4601F0D7F97FBDC8
:104620002DE9F0470E4680461C469246082940D8A0
:1046300094F80C90002020731946104600F088FF73
:104640000025B54206D218F805201BA12046FFF729
:10465000F1F803E01AA12046FFF7ECF86D1C082DD5
:10466000EFD318A12046FFF7E5F80025B54212D296
:1046700018F805707E2F08D8FBF740FF0068C05D72
:1046800010F03E0F01D03A4600E02E220EA1204647
:10469000FFF7D0F803E00DA12046FFF7CBF86D1C23
:1046A000082DE3D301222146504600F033FF84F861
:1046B0000C90BDE8F0870000202530327800000023
:1046C000202020007C000000256300002000000066
:1046D0002DE9F0471E49012008701E4800F066F9D8
:1046E000002832D11C4800F039FA1C49DFF87080EC
:1046F000DFF87090A1EB0800C608002414E0002742
:104700003D460CE0AC4209D058F8340058F835105A
:104710001422FBF73EFF002800DD7F1C6D1CB54214
:10472000F0D329F82470641CB442E8D30020014679
:104730004A460D4D06E000BF02EB8004618045F85B
:104740002010401CB042F7D30020BDE8F0870000E5
:104750007C1A00201C7E0000786A00001C7E00008D
:10476000647C000028020020040300200248034962
:10477000401AC008704700001C7E0000647C0000E6
:104780007FB505461146002401A873B1FEF77EFAF5
:1047900098B90B480199072250F8210005EB450113
:1047A0008A401040C840C4B207E0FEF76FFA20B953
:1047B0000448019900EBC100847904B0204670BD23
:1047C00004030020647C000070B5114B00EB400036
:1047D00003EB81040F4B02F0070203EB8101072377
:1047E00003FA00F60D688240B5432A4300200A60B0
:1047F0004FEA000103FA01F51540CD40ADB2854204
:1048000000D92846C91C0A29F4D3608070BD000075
:10481000280200200403002013B56846FEF736FA8C
:1048200008B100201CBD0248009950F831001CBDA1
:10483000647C000070B508480125D0F8104405706C
:1048400007E0E06845712168204649688847E068CC
:104850000468002CF5D170BD7C1A00202DE9FF47BB
:1048600081460C9D00200C462F7B287398461646E7
:104870002946184600F06CFE072E42D2DFE806F00B
:1048800004090F161F2A360049462846FEF7D2FFB4
:1048900037E0494628462268FEF7CCFF31E0D4E9EC
:1048A000002349462846FEF7C5FF2AE0A06800908D
:1048B000D4E9002349462846FEF7BCFF21E0D4E9AD
:1048C0000201CDE90001D4E9002349462846FEF75C
:1048D000B1FF16E004F1080007C88DE80700D4E92D
:1048E000002349462846FEF7A5FF0AE004F1080028
:1048F0000FC88DE80F00D4E9002349462846FEF78B
:1049000099FF00222946404600F004FE2F73BDE8BF
:10491000FF872DE9F041058B80462D1F4819C01CEB
:10492000B0FBF5F0C6B24046FEF751FA041E19D0AE
:104930000020207101206071E58000272546761E49
:10494000C4F800800BE04046FEF741FA60B161799F
:10495000491C6171286005467F1CC0F80080B74281
:10496000F1D32046BDE8F081204600F002F8002097
:10497000F8E72DE9F041457901466B1E002201E080
:104980000968521C9A42FBD30F680146002605E0D5
:1049900038460C68FEF73AFA2146761CAE42F7D349
:1049A000BDE8F0810121001DFEF7F0B9FEF743BA22
:1049B00010B504460121001DFEF703FA10F0FF0FA9
:1049C00004D12046BDE81040FFF7D3BF10BD1CB591
:1049D00001920122009201AAFEF706F91CBD1CB546
:1049E00001920022009201AAFEF7FEF81CBD000011
:1049F00002494058002800D00120704700D00140F3
:104A0000034908B50844002202600068009008BD10
:104A100000D0014008B500F1804001460068002246
:104A200020B101200A600968009108BD104608BD48
:104A30004058002800D00120704708B5002242509D
:104A40004058009008BD4058002800D00120704711
:104A5000006880687047006800218160704700002E
:104A60002DE9F04F8146806889B0D0F84801C0F345
:104A7000400038B109B04846BDE8F04F0022114669
:104A8000FEF750BD012907D909B04846BDE8F04FEF
:104A90001DA20221FEF71EBD2049DFF884B0A1EB64
:104AA0000B001C21B0FBF1F8002526E0C5EBC50189
:104AB0000BEB81042068D4E9026A8768204600F085
:104AC0003FF86421794364224243B1FBF6F1B2FB23
:104AD000F6F26369247CACB112A400BFCDE9066490
:104AE000CDF800A00597CDE90120CDE90361104A7A
:104AF00008214846FEF7EEFC6D1C4545D6D309B0AB
:104B0000BDE8F08F0BA4E9E742616420617267752C
:104B10006D656E7420636F756E740000547E0000C6
:104B2000387E00004E6F206F766572666C6F77007E
:104B3000C07500004F766572666C6F7700000000EC
:104B400010B504460020FCF756FB204600F0ECFDB3
:104B500004460020FCF751FB204610BD826800216E
:104B6000916082681161826851618268D160826857
:104B7000516080680160704708B50022425040587B
:104B8000009008BD024A1060101D016070470000CF
:104B90002C76004002494058002800D00120704780
:104BA00000700040034908B5084400220260006814
:104BB000009008BD007000404058002800D001203F
:104BC000704708B5002242504058009008BD405838
:104BD000002800D00120704708B5002242504058FC
:104BE000009008BDD0F80403084000D001207047B1
:104BF0004058002800D00120704708B500224250DC
:104C00004058009008BD000010B501F061FA802006
:104C1000FCF78EFE817B0124032902D00068002866
:104C200009D18020FCF77EFE8440E143BDE81040BE
:104C3000014800F07FB810BD8400002070B5054623
:104C400001F046FA2846FCF773FE817B0124032914
:104C500002D00068002809D12846FCF763FE844092
:104C6000E143BDE87040024800F064B870BD000048
:104C70008400002038B5054601F02AFA2846FCF7E2
:104C800057FE817B0124032902D0006848B11AE055
:104C90002846FCF747FE8440E1430D4800F04AF8FF
:104CA00011E02846FCF73EFE8440E143084800F04E
:104CB00041F808480649006900900C398DF8025007
:104CC000496868468847BDE8384001F00FBA0000DF
:104CD00084000020C066000002494058002800D02F
:104CE000012070470070024010B50446FFF7F4FF42
:104CF000002806D0034900226250BFF36F8FBFF334
:104D00004F8F10BD0070024003490860BFF36F8FE2
:104D1000BFF34F8F704700000074024004490844FD
:104D200001210160BFF36F8FBFF34F8F7047000009
:104D30000070024008B56A46FBF785FA08BD00001E
:104D400070B54FF480763046FEF730FD114CB50556
:104D500060B13046FEF731FD0120C5F808036079E7
:104D600020B9012060712168002088474FF48276C5
:104D70003046FEF71BFD00280AD03046FEF71DFD29
:104D80000220C5F808032168BDE8704001200847EB
:104D900070BD0000180000200121B1EB507F01D14F
:104DA000012070470020704770B54FF08040D0F868
:104DB0000443204D600706D54FF48470FFF72AFEA8
:104DC00008B168688047A00607D54FF48A70FFF7DE
:104DD00021FE10B1A96800208847600607D54FF46E
:104DE0008C70FFF717FE10B1A968012088472006D4
:104DF00007D54FF48E70FFF70DFE10B1E968002063
:104E00008847E00507D54FF49070FFF703FE10B117
:104E1000E96801208847A0050AD54FF49270FFF792
:104E2000F9FD002804D0E968BDE870400220084779
:104E300070BD00002000002070B50D4600F0D4FBCE
:104E400004000FD00020FCF7D6F9207920B1002013
:104E5000FCF7D3F9112070BD0120256020710020DE
:104E6000FCF7CBF9002070BD10B500F0BDFB0028A9
:104E700002D000210160017110BD0000014902480B
:104E800000F094BF18060020002000402DE9F041FA
:104E90000546007916460F4600EB40012D4A01EB0E
:104EA000C00102EB810494F82A1011B10820BDE87A
:104EB000F081294951F820102868FFF7BDFF08B19B
:104EC0001120F4E739462846FCF7ACF966603869EA
:104ED000206030004FF001062FD03F7F4FF48E71DD
:104EE0002868FFF779FE4FF4A2712868FFF774FE77
:104EF00028681A49C0F8041328684FEA471140F39C
:104F00000730002804DB00F1E02080F8001405E001
:104F100000F00F0000F1E02080F8141D286840F335
:104F20000730002809DB00F01F0106FA01F14009F3
:104F3000800000F1E020C0F8001128680421C0F8CA
:104F400000150020A061E06184F8290044F8140FE6
:104F5000A675ACE718060020B866000080000200C5
:104F60002DE9F05F054600790B4600EB400101EBAF
:104F7000C000244901EB8004284600F045F810B138
:104F80001120BDE8F09F62614FF00009C4F8209045
:104F9000A36084F828904FF48E784E4641462868E6
:104FA000FFF71AFE28684FF0010AC0F808A0214652
:104FB000286800F08BFE606808BBD5F800B0676910
:104FC0000FE000BF94F8280008B10F2615E0414615
:104FD0005846FFF7FCFD0028F4D02146584600F063
:104FE00075FE206AB842F2D3574641462868FFF75B
:104FF000EEFD0028F9D02868C760C4F81490304648
:10500000BFE7000018060020007900EB400101EB2B
:10501000C000044901EB80004069002800D0012055
:1050200070470000180600202DE9F047044600797B
:105030004FF0000900EB400101EBC000284901EBF3
:1050400080072068C0F800957868B0B120682549CD
:10505000C0F80813206840F3073000280DDB00F08B
:105060001F02012191404009800000F1E020C0F8BA
:105070008011BFF34F8FBFF36F8F2068D0F80C25DE
:10508000D0F81485D0F80865D0F810554FF0FF31EE
:10509000C0F81415C0F80C152068C0F80815C0F841
:1050A0001015501C02D01046FEF7A4FEB8F1FF3FC9
:1050B00002D04046FEF79EFE681C02D02846FEF74E
:1050C00099FE701C02D03046FEF794FE2068FFF770
:1050D000CBFE87F82A90C7F80490BDE8F08700005F
:1050E00018060020840202000149024800F00CBFAB
:1050F00044060020002000402DE9F04105461646F8
:1051000000790F46154A00EBC00102EB810494F8C8
:10511000201011B10820BDE8F081114951F820108C
:105120002868FFF789FE08B11120F4E739462846C0
:10513000FCF7B3F86660386920601EB1397F2846F5
:10514000FDF7A4F828680821C0F800150020A06128
:10515000E0616061012184F82010DCE74406002052
:10516000BC6600002DE9F04704460E460079274949
:1051700000EBC00001EB800517463046FFF70CFE40
:1051800030B1204600F044F820B11120BDE8F0878E
:105190001020FBE76F61AE604FF490774FF000088E
:1051A00039462068FFF729FD4FF4AC763146206878
:1051B000FFF723FD2068AA686969C0F84425C0F894
:1051C000481520684FF00109C0F808906868D0B908
:1051D000BA4651462068FFF70BFD07463146206866
:1051E000FFF706FD0743F4D010B14FF00F0808E0B9
:1051F0002068C0F80C9031462068FFF7F9FC0028C1
:10520000F9D0002068614046C0E700004406002055
:105210000079054900EBC00001EB800040690028DF
:1052200000D0012070470000440600202DE9F0471F
:10523000064600793D4900EBC00001EB800534686B
:1052400068680127A8B13A49C4F80813306840F3E8
:10525000073000280DDB00F01F0107FA01F14009BB
:10526000800000F1E020C0F88011BFF34F8FBFF342
:105270006F8FD4F8000220F02000C4F80002A86963
:105280004FF4A27820B141462046FFF7B6FC676094
:105290004FF4AC7949462046FFF7AFFCE76047463C
:1052A00049462046FFF7A4FC0028F9D0A86928B198
:1052B00039462046FFF79CFC0028F1D04FF0000A49
:1052C000C4F800A53068D0F80C25D0F81495D0F8B3
:1052D0000885D0F810754FF0FF31C0F80C15C0F8F4
:1052E00014153068C0F80815C0F81015501C02D00D
:1052F0001046FEF788FDB9F1FF3F02D04846FEF7A1
:1053000082FD781C02D03846FEF77DFDB8F1FF3FE4
:1053100002D04046FEF777FD2046FFF7A5FD85F851
:1053200020A0C5F804A0BDE8F087000044060020D6
:1053300010034200010601D5044901E0034912317E
:1053400000F00F0031F810007047000058670000AF
:1053500000F00F00082805D305480068C10300D5F8
:1053600000207047034901EB8000D0F8A00470478B
:10537000C0740240007002404FF08051D1E94C01EE
:10538000082801D0002070470120704710B504465E
:105390000020FBF730FF2046FCF7C4FA01218140D2
:1053A0000B4882688A43826004F00F00082809D203
:1053B000084A002102EB8000C0F8A014BFF36F8FF1
:1053C000BFF34F8FBDE810400020FBF716BF000071
:1053D00078000020007002408A7D022A04D90289E8
:1053E000CB881A44D21C02814289C988511AC91E2D
:1053F0004181704708B50021009101460823024A07
:105400000248FEF7C5FB08BDA0670000140200209B
:1054100008B50020009004480823044A01680448A5
:10542000FEF7B6FB08BD0000DC0000209867000016
:10543000140200202DE9F84F314F05464FF00109C5
:105440000024381990F96010491C46D090F860008B
:10545000294620F0C0063046FDF76AFD70B32046AD
:1054600000F050F8824668460096FEF735FD009938
:1054700000EB8100D0F80007C0F30148B8F1020F3B
:105480001DD002213046FEF7EDFC68460096FEF77F
:1054900023FD009A09FA02F1C0F820153046FBF707
:1054A000CDFF57F820204AB15046BAF1030F11D072
:1054B000B8F1020F05D0B8F1030F07D00DE00321BA
:1054C000E0E75046BAF1010F04D006E05046BAF1C9
:1054D000020F02D1014630469047641C042CB0D321
:1054E0002A4602210020FEF7D5FC002055F82010A6
:1054F0000029A5D1401C0228F8D3BDE8F88F000090
:10550000300400200249084490F860008009704788
:105510003004002010B50C46017A052908D0407AE5
:1055200038B1084808A102682046FEF783F900E078
:105530001AB106A12046FEF77DF92046BDE81040CD
:10554000FEF785B9AC010020257300000D0A0000AC
:1055500038B5C3880D46044633B114A0009015A297
:1055600016A12846FEF766F9217A05291CD0607A33
:1055700048B1A088FEF7F6FD164951F8202016A183
:105580002846FEF757F9A0880021FFF745F90346A2
:105590001049207A143951F8202001B02846BDE87E
:1055A00030400EA1FEF746B938BD00001B5B306DE0
:1055B000000000001B5B313B33316D0025734C6FE5
:1055C00067732064726F70706564202825642925D4
:1055D000730D0A00AC010020257300003C25733ECA
:1055E0002025733A200000000F49884201D10F485E
:1055F0007047B0F1402F05D00D49884205D10B48C6
:10560000103070470948083070470A49884202D173
:105610000648183070470849884202D103482030B4
:10562000704700207047000000300040300000202C
:105630000030024000300140002000400146054893
:1056400010B50068FDF770FB04461C21FAF781FFD6
:10565000204610BD90670000014602480068FDF733
:1056600084BB000090670000F0B5264D264E85B043
:1056700004460027686828B9224930680831FDF7D8
:1056800069FB686001460078072817D2DFE800F060
:10569000160408080E0E12002046FCF73FFD02E03B
:1056A000204600F03BFF040029D009E02046FCF72B
:1056B000E9F8F8E72046FCF70FFCF4E748F20E643F
:1056C00014216846FAF745FFA4F5E8501D3800D1CB
:1056D0000024019469466868FCF7C6FA6846FCF73E
:1056E000FDFA08496F60002408313068FDF727FB98
:1056F000044801210C30FDF764FB0028BAD105B045
:10570000F0BD0000B40000209067000010B501213A
:105710000448FDF741FB002803D1BDE81040FFF726
:10572000A3BF10BDC000002001680A68496891420B
:1057300001D3881A70478068801A0844401C70475B
:105740002DE9F047074620481C46154600780E46CE
:1057500070B18DB184B1DFF874804FF00009A0887A
:1057600002282DD200EB800118F8210020BB1BE09D
:1057700048F20160BDE8F08748F20460FAE720686B
:105780001FB181883A8891420ED11EB101883288BA
:10579000914209D180682860206868600B482830F1
:1057A000008928810020E5E7A088214600F060F804
:1057B0000028E4D1C4F80090A088401CA080CEE767
:1057C00048F20960D6E70000D40000204809002014
:1057D000F8B505464068244F0C46002648B32349D7
:1057E000CA68824225D80969814222D3FCF793FE18
:1057F000F8B12889398988421BD1D5E900018A6826
:10580000904216D10020A7F1280200BF00EB8003D0
:1058100002EB83035B688B4205D203F580538B4216
:1058200001D9208011E0401C80B20228EED3002074
:10583000F8BD268000960AE00098296880688842B2
:1058400005D100986860388928810120F8BD20883A
:10585000694600F00DF80028EED12088401C80B287
:1058600020800228E6D3E2E770090020140200201D
:1058700070B50E4600EB8001134800EB81004468D0
:10588000306804F5805518B1418800EB810411E0BF
:10589000083410E029462046FCF720FC20B10128FE
:1058A00005D0022807D10DE00120346070BD60886A
:1058B00004EB80040C3429462046FCF725FC002824
:1058C000E8D170BD002070BD4809002038B50C46F5
:1058D0000021009101460423084A0948FEF758F9BF
:1058E00010B148F20D6038BD064A04EB840102EBAA
:1058F000810101200874002038BD00009467000079
:10590000140200204809002070B5054688690C463D
:1059100000284FF4847128460AD0FFF75DF9D5F8C6
:105920001805626AE1688854606A401C606270BD54
:10593000FFF752F9D5F8180570BD1FB501238DF892
:105940000030CDE90121D0E90012684690471FBD23
:105950001FB501238DF80030CDE90121D0E90012F7
:10596000684690471FBD000070B50D4C0020D2B2B4
:105970002070201D0B4D0378EB5C1BB1001DFFF761
:10598000F1FB02E00C30FFF7EBFA08B1FBF728FC63
:105990006078002802D021780029FAD070BD00007C
:1059A000D0010020000000200022CA604A60054AA1
:1059B0008A60052803D2044A52F8200000E0002043
:1059C00008607047686A00006C0100202DE9F84FFC
:1059D000074621489146884605681E4601226946C9
:1059E0001846FBF7C1FCDFF874A060B300980021F3
:1059F0000446801C0AE000BF00EA050259F821C0F5
:105A00000AEB8202401C491CC2F80CC0B142F3D31D
:105A10004FEA1749FBF77CFF611C29400AEB810123
:105A200049EA00422C40CA600AEB8401C86867F367
:105A3000C50066F3891068F39F2020F00300401C26
:105A400020F00400C8609AF8000001E0FEF790FC26
:105A50000028FBD1BDE8F88F540100207C1A0020FB
:105A600030B406490024A1F10C0351F8202033F88A
:105A7000101023F8104030BC10470000C40500206F
:105A80002DE9FF5FDFF8EC80DFF8EC90834600241F
:105A900008F570660020FBF7AEFB04EB440056F8F7
:105AA0002010002933D006EB80077D6805B933A5A7
:105AB0000020FBF7A2FB002D56D0204600F0BCF8DA
:105AC000824623462FA208215846FDF703FD2B46A8
:105AD0002FA208215846FDF7FDFCBAF100001AD0AC
