:020000040000FA
:10000000E03E0020D9040000E1040000F9020000F5
:10001000E5040000E7040000E9040000000000001F
:10002000000000000000000000000000EB040000E1
:10003000ED04000000000000EF040000F1040000E7
:1000400031100000F3040000A1150000111300009E
:100050001D130000F3040000790B0000C91100001B
:100060003D150000511500006515000099110000B4
:10007000F304000071110000F3040000F304000019
:1000800025160000A9110000811000006D0B000072
:10009000451300004B1300005113000057130000DC
:1000A0005D13000063130000791500008D1500003A
:1000B00041100000450F000000000000000000009B
:1000C000F30400005110000061100000291300002B
:1000D000B9110000390E0000F3040000AD15000056
:1000E000F30400003D110000F304000000000000D4
:1000F0000000000071100000000000003513000037
:1001000000000000000000000000000000000000EF
:1001100000000000000000000000000000000000DF
:1001200000000000000000000000000000000000CF
:1001300000000000000000000000000000000000BF
:1001400000000000000000000000000000000000AF
:10015000000000000000000000000000000000009F
:10016000000000000000000000000000000000008F
:10017000000000000000000000000000000000007F
:10018000000000000000000000000000000000006F
:10019000000000000000000000000000000000005F
:1001A000000000000000000000000000000000004F
:1001B000000000000000000000000000000000003F
:1001C000000000000000000000000000000000002F
:1001D000000000000000000000000000000000001F
:1001E000000000000000000000000000000000000F
:1001F00000000000000000000000000000000000FF
:10020000DFF80CD000F062FC004800472D3B0000F6
:10021000E03E002030B4044654E8000F0D4644E8A8
:100220000053002BF8D1156030BC704730B4044641
:1002300054E8000F40EA010544E80053002BF7D1D1
:10024000156030BC704730B4044654E8000F00EA33
:10025000010544E80053002BF7D1156030BC70470E
:1002600030B4044654E8000F80EA010544E8005326
:10027000002BF7D1156030BC704730B4044654E809
:10028000000F00EB010544E80053002BF7D1156087
:1002900030BC704730B4044654E8000FA0EB0105B1
:1002A00044E80053002BF7D1156030BC704770B4A0
:1002B00004464FF0000054E8006F0D68AE4207BFDF
:1002C00044E80023012044E800630E60002B1CBFBB
:1002D0000020F0E770BC704730B4044654E8000FCB
:1002E00088422CBF451A054644E80053002BF5D13F
:1002F000156030BC70470000094B1EF0040F1CBF96
:10030000EFF309801847EFF308800649064A884250
:1003100001D8904202D88D464FF0000018470000E7
:100320001D0C0000E03E0020E01E002030B450E82C
:10033000012F93B2C48923448489A34228BF1B1B85
:100340000489A34202BFBFF32F8F002007E0C3EA56
:10035000020340E80134002CE9D14FF001000A60AB
:1003600030BC704750E8012FC2EA024240E8012148
:100370000029F7D1704730B450E8022F1FFAA2F3DA
:10038000C488A34202BFBFF32F8F00200DE0C489B1
:1003900023448489A34228BF1B1BC2EA034340E8CD
:1003A0000234002CE8D14FF001000A6030BC7047E5
:1003B00050E8022FC2EA224240E802210029F7D188
:1003C0007047034653E8022FD988B2EB324F4FF003
:1003D000000017BF92B241EA014142EA014104E044
:1003E0005A68B2EB324F08BF012043E80212002ADC
:1003F000E8D1704730B4044654E8000F0D4644E895
:100400000053002BF8D1156030BC704730B404465F
:1004100054E8000F40EA010544E80053002BF7D1EF
:10042000156030BC704730B4044654E8000F00EA51
:10043000010544E80053002BF7D1156030BC70472C
:1004400030B4044654E8000F80EA010544E8005344
:10045000002BF7D1156030BC704730B4044654E827
:10046000000F00EB010544E80053002BF7D11560A5
:1004700030BC704730B4044654E8000FA0EB0105CF
:1004800044E80053002BF7D1156030BC704770B4BE
:1004900004464FF0000054E8006F0D68AE4207BFFD
:1004A00044E80023012044E800630E60002B1CBFD9
:1004B0000020F0E770BC704730B4044654E8000FE9
:1004C00088422CBF451A054644E80053002BF5D15D
:1004D000156030BC7047000006488047064800475A
:1004E000FEE7FEE7FEE7FEE7FEE7FEE7FEE7FEE7E4
:1004F000FEE7FEE769130000010200002DE9F05F4E
:100500000546002092469B46884606468146402482
:100510001BE0284641464746224600F02FF8534646
:100520005A46C01A914110D311461846224600F08F
:1005300016F82D1A67EB01084F46224601200021CC
:1005400000F00DF817EB00094E41201EA4F1010444
:10055000DFDC484631462A464346BDE8F09F202A64
:1005600004DB203A00FA02F1002070479140C2F10A
:10057000200320FA03F3194390407047202A04DB3C
:10058000203A21FA02F00021704721FA02F3D0400C
:10059000C2F1200291400843194670470048704755
:1005A000907D000010B5431A934209D28318881831
:1005B00003E010F8011D03F8011D521EF9D210BD11
:1005C00040EA01039B0703D009E008C9121F08C0D5
:1005D000042AFAD203E011F8013B00F8013B521E55
:1005E000F9D210BDD2B201E000F8012B491EFBD2B6
:1005F00070470022F6E710B513460A46044619462E
:10060000FFF7F0FF204610BD421C10F8011B002927
:10061000FBD1801A704710B5002200E0521C835CA9
:100620008C5CA34201D1002BF8D1D8B2E1B2401AC0
:1006300010BD30B505460020034600E05B1C934228
:1006400005D2EC5CC85C201A01D1002CF6D130BD7B
:100650002DE9FE4F81EA030404F0004421F000413B
:1006600000944FF0000B23F0004350EA01045ED0E9
:1006700052EA03045BD0C3F30A54C1F30A552C4475
:10068000A4F2F3340194A0FB0254C1F3130141F42A
:100690008011C3F3130343F4801301FB024400FBF6
:1006A000034E840A970A44EA815447EA8357A4FB1D
:1006B000076802958D0A05FB07854FEA932C04FB1A
:1006C0000C542705029D4FEA065847EA1637B5EB4A
:1006D00008056EEB070C870E920E47EA811742EA77
:1006E0008312A7FB0201B6EB0B0164EB00042B0D98
:1006F00043EA0C335E1844EB1C50DA465146E7FBE4
:100700000201C5F313044FEA0B3343EA14534FEAD3
:100710000432019C43EA0603A4F10C040294009CF9
:10072000CDE900B400F03EF803B0BDE8F08F002042
:100730000146F9E700F0004230F000400AD0C10D58
:1007400001F56071C0F3160042EA0151C20840078A
:100750001143704700200146704730B50B460146F3
:1007600000202022012409E021FA02F59D4205D350
:1007700003FA02F5491B04FA02F52844151EA2F1FA
:100780000102F1DC30BD10B5141E73F1000408DA6B
:10079000401C41F1000192185B411A4301D120F045
:1007A000010010BD2DE9F04D92469B4611B1B1FA02
:1007B00081F202E0B0FA80F220329046FFF7CFFEDD
:1007C00004460F4640EA0A0041EA0B0153465A46E6
:1007D000084313D0114653EA010019D0C8F1400272
:1007E0005046FFF7CBFE05460E4650465946424658
:1007F000FFF7B5FE084305D0012004E02046394646
:10080000BDE8F08D0020054346EAE0762C433743EF
:100810000A986305E40AA0EB08000022FD0A44EAF6
:1008200047540A3002D500200146E9E701051019B6
:100830006941DDE9084500196941BDE8F04DA2E7CD
:100840002DE9FE4F804681EA0300C00F0C46009060
:1008500021F0004123F00045B8EB0200A94105D288
:100860004046214690461C460B46024623F0004077
:10087000104347D0270DC7F30A00C3F30A51029073
:10088000401A019040286BDAC3F3130040F4801B38
:100890000098924620B10023D2EB030A63EB0B0BC6
:1008A00001985946C0F140025046FFF758FE0646EF
:1008B0000D4650465946019A00F01AF910EB08000F
:1008C0006141002487EA115284EAE7731A4340D059
:1008D000009A62B3019A012A4FEA075215DC001B05
:1008E00061EB02014FF0004202EA0752CDE90042FB
:1008F000001C41F5801132462B46FFF753FF03B031
:10090000BDE8F08F40462146F9E7001B61EB02018C
:10091000001C41F5801300185B412018A2F5001758
:1009200047EB030140EAD570B6196D4111E06D083F
:100930004FEA360645EAC0754FEA0752001B61EBE5
:100940000201001C41F5801149084FEA30000019EE
:10095000514132462B4603B0BDE8F04FFFF713BFBD
:100960000098012240000023D0EB020263EBE07309
:10097000009821464FEAE074B8EB000061EB0401F7
:10098000E9E783F000435BE781F0004158E72DE998
:10099000F04D81EA030404F0004B21F000451446B9
:1009A0004FF0000A23F0004150EA050220D054EA3B
:1009B00001021DD0C5F30A570246C5F31303C1F364
:1009C0001300C1F30A5640F4801543F48013A7EBDB
:1009D0000608101BD64608F2FD3873EB050002D35B
:1009E00008F1010801E092185B41B8F1000F03DA49
:1009F00000200146BDE8F08D00204FF4801106462E
:100A000084460EE0171B73EB050705D3121B63EB3F
:100A1000050306434CEA010C49084FEA30009218DE
:100A20005B4150EA0107EDD152EA030012D082EA9D
:100A3000040083EA0501084305D0101BAB4106D230
:100A40000122002306E000224FF0004302E06FF095
:100A5000010253101AEB06004CEB085110EB0A0090
:100A600041EB0B01BDE8F04DFFF78DBEC1F30A521B
:100A7000C1F3130140F2FF3341F480119A4202DACC
:100A800000200146704740F233439A42A2F23342BB
:100A900002DC5242FFF772BDFFF761BD30B5041EA4
:100AA00071F1000404DB4FF00044404264EB0101AB
:100AB000141E73F1000405DB1C464FF00043524244
:100AC00063EB0403994208BF904230BD064C074DCA
:100AD00006E0E06840F0010394E80700984710340E
:100AE000AC42F6D3FFF790FBF48C0000148D0000AD
:100AF000202A06DBCB17203A41FA02F043EAE073E2
:100B000006E041FA02F3D040C2F1200291400843CE
:100B10001946704770B58C1810F8015B15F0070383
:100B200001D110F8013B2A1106D110F8012B03E086
:100B300010F8016B01F8016B5B1EF9D12B0705D48E
:100B40000023521E0DD401F8013BFAE710F8013BD7
:100B5000CB1A921C03E013F8015B01F8015B521EF3
:100B6000F9D5A142D8D3002070BD0000014800682B
:100B7000004700004C0000202DE9FC410025DFF873
:100B8000948000954FF4807601242F4601953046DD
:100B900004F06CFA38B1D8F80403204203D0304690
:100BA00004F05AFA2543361D64007F1CB6B2082FA4
:100BB000EDD34FF4BE74204604F058FA48B12046F5
:100BC00004F04AFA45F000456A460221002004F08C
:100BD0009DF915F0FF0F16D0012600242E420ED0ED
:100BE00008EB8401D1F81005D1F81015C0F30520E9
:100BF000094AC1F3014152F8242002B1904776001E
:100C0000641C082CEAD3002D02DA684605F08CFC3F
:100C1000BDE8FC8100600040640400201CB58246F1
:100C200004F07AFE04F00EFC0028FBD136485FEA9F
:100C30000A05076836483749344EA0EB01004FEAF1
:100C4000D0004FF0010808EB004470881ED0002847
:100C500021D0204630A1AA6904F032FD7088002816
:100C600019D0D5E90201CDE90001D5E900232046DC
:100C70002FA104F03DFD708868B1E8690090D5E9C6
:100C80000423204638A104F02AFD04E018B12046D0
:100C90003FA104F011FD1C48001D0068800705D528
:100CA000708818B12046474904F006FDDFF8189116
:100CB000002500BF08FA05F0384208D059F8252071
:100CC0002AB1708818B1204640A104F0F9FC6D1CCF
:100CD0001A2DEFD3380608D5708830B10A480C3089
:100CE000026820463CA104F0EBFC380408D570886B
:100CF00030B105481030026820463FA104F0E0FC06
:100D0000504600F087F8000028ED00E0D4020020F3
:100D1000B48E0000648D0000484152442046415585
:100D20004C54206174203078253038580000000081
:100D3000202052303A202030782530385820205258
:100D4000313A2020307825303858202052323A204D
:100D500020307825303858202052333A20203078FF
:100D6000253038580000000020205231323A20301F
:100D7000782530385820204C523A202030782530C1
:100D8000385820205053523A2030782530385800B7
:100D9000537461636B2076696F6C6174696F6E3A2E
:100DA00020737461636B20706F696E746572206F5D
:100DB00075747369646520737461636B2061726517
:100DC000612E00006C7E0000E80000204361757316
:100DD000653A2025732E00004D656D4D616E61678B
:100DE00065204661756C7420416464726573733A62
:100DF0002030782530385800427573204661756C74
:100E00007420416464726573733A203078253038F9
:100E100058000000BFF34F8F05480168054A01F4F0
:100E2000E06111430160BFF34F8F00BFFDE7000099
:100E30000CED00E00400FA052DE9FC413F4E4FF4B3
:100E40008A752946304604F019F93D4C70B129469F
:100E5000304604F018F9607940F0080161718807A4
:100E600004D5C80602D541F0200060714FF48275A8
:100E70002946304604F002F970B12946304604F0A4
:100E800002F9607940F004016171C80704D0C80616
:100E900002D541F0200060714FF484773946304626
:100EA00004F0ECF80025B0B13946304604F0EBF818
:100EB0000420C6F80803C6F800552148002122681E
:100EC000103090471E4800212268083090470120CA
:100ED0002071BDE8FC81607981074FEAC07103D5BC
:100EE00019B1010705D4F4E709B9010703D4810753
:100EF000EFD44107EDD520F00C00607181060BD5D1
:100F000020F0200040F010006071226802B0012142
:100F1000BDE8F04100201047D4E90412CDE90012E9
:100F2000D4E90212A560E560C4E9041240F01000A3
:100F300060712268012168469047CAE7005002406C
:100F4000D00400202DE9FE434FF48078404604F0A1
:100F5000C1FD0126334F344C002570B3404604F0E8
:100F6000C1FDA07C26EA000104EB810252682AB987
:100F7000627C022A02D0E07C90B119E08DF8085022
:100F8000E574627C022A08D004EB8000426801927A
:100F90004560A1748DF8006007E001956674F9E77B
:100FA00097E807008DE80700E674216868468847DF
:100FB000607C022828D1667426E0FFE74FF482782F
:100FC000404604F087FDF8B1404604F08BFD174819
:100FD000056065748DF808508DF80050A07C04EB16
:100FE0008001486820B101904D60216868468847BB
:100FF000A07C864304EB8600416821B101914560E5
:10100000216868468847A574207D002808D00C37E1
:1010100097E807008DE8070025752168684688472E
:10102000BDE8FE83A0770000E804002000D5014061
:1010300010B504F033FFBDE8104004F0F3BE00002B
:101040000149024802F06EB90005002000C00140CD
:101050000149024802F066B908050020001002406C
:101060000149024802F05EB910050020002002404C
:101070000149024802F056B91805002000D002408C
:101080002DE9F8432A48DFF8A4804FF48072016804
:10109000284E002589B1D8F8041311F0010F0CD0A7
:1010A000056000680090244862F30F0400687268CD
:1010B00060F317443946204690471D484FF482712B
:1010C000001D0268BAB1D8F8042312F0020F12D042
:1010D000056000680090184861F30F040C30006848
:1010E00060F31F4414483C300068726860F30F07D7
:1010F0003946204690470E484FF4847208304146E6
:101100000368002B10D0D1F8041311F0040F0BD09A
:10111000056000680090204662F30F00726801B01D
:101120003946BDE8F0431047BDE8F8830020014090
:10113000002101405C0000200C25014010B50A4C44
:101140004FF48071204604F0F0FC00280AD00748D4
:1011500000214171C4F8001102688168BDE81040A7
:101160000020104710BD0000009002402005002024
:10117000064882B0002101600068009004480068C1
:101180000449C0B2496802B00847000000D10040DD
:1011900008D500406400002003220021014802F02D
:1011A0000FB9000000B0004002490248091F096859
:1011B000006808479C00002004220121014802F039
:1011C000FFB80000004002402DE9FE434FF4827852
:1011D000404604F051FD4C4F00254C4C012600B315
:1011E000404604F051FD94F82E0010B194F82F10F1
:1011F000D1B18DF80050616801912189ADF80810D6
:10120000E26832B1218B618362602181E56010B1B7
:1012100002E0257400E03E6021686846884784F853
:101220002F5094F82E0060B34FF48077384604F0C6
:1012300023FD30B3384604F027FD628B94F82D105F
:101240008A420AD9A2EB010080B260832289A2EB14
:101250000000626802EB400005E007D1E06828B1B9
:1012600084F82F60658304F0FFFC04E08A4202D119
:1012700084F82F606583404604F006FD2248001D77
:1012800006604FF48877384604F0F6FC48B13846DB
:1012900004F0FAFC257402208DF8000021686846ED
:1012A00088474FF48A77384604F0E6FC28B1384680
:1012B00004F0EAFC2574BDE8FE834FF000484FF4CB
:1012C0008C7967691DE000BFB7FA87F028FA00F152
:1012D00009EB80058F43284604F0CEFC88B12846F0
:1012E00004F0D2FCA5F58C75E8088DF8040045F3F0
:1012F0008000401C8DF800608DF80500216868466C
:101300008847002FE0D1D6E7007000402C05002070
:1013100001480068004700003400002001480068D0
:10132000004700003C000020014800680047000022
:10133000440000200149024802F092B8C80500208C
:1013400000F00240002005F005BC012005F002BCC1
:10135000022005F0FFBB032005F0FCBB042005F0D4
:10136000F9BB052005F0F6BB70B54FF080520124A3
:10137000D2E94C100023082906D1CD06C5F80C315E
:10138000C5F810315E4D2B60082955D15D4D2D6893
:101390005D4E35605B4D2D1D2D68361D3560594DF8
:1013A00008352D68361D3560564D0C352D68361DB7
:1013B0003560544D10352D68361D3560514D14354E
:1013C0002D68361D35604F4D18352D684E4E203630
:1013D00035604C4D1C352D68361D3560494D203526
:1013E0002D68361D3560474D24352D68361D356016
:1013F000444D28352D68361D3560424D2C352D68FD
:10140000361D35603F4D30352D683F4E40363560D6
:101410003C4D34352D68361D35603A4D38352D68D4
:10142000361D3560374D3C352D68361D3560354DE0
:1014300040352D68361D3560082904D1050002D1DC
:10144000334E324D3560082904D1050002D1314EAA
:10145000FB253560082908D1050006D192F85862AD
:101460002D4A156866F303051560082904D10200AA
:1014700002D12A4D8A012A60082906D1284801682C
:10148000C90702D06FF0010101602648016841F4EC
:1014900070010160BFF34F8FBFF36F8F4FF01021CA
:1014A000D1F80002002803DBD1F80402002822DA78
:1014B0001D4A14601D480468002CFCD01224C1F899
:1014C00000420568002DFCD0C1F8044201680029E3
:1014D000FCD0136001680029FCD0BFF34F8F114886
:1014E0007C380168124A01F4E06111430160BFF3E6
:1014F0004F8F00BFFDE710490E48086070BD000027
:10150000380500400404001020C500404881030055
:101510008C56004018F50040E40E00404096024012
:101520000004004088ED00E004E5014000E40140D3
:101530000400FA050090D003F401002004220249BF
:10154000024801F0B3BF00001006002000800040F8
:1015500004220249024801F0A9BF00001C06002035
:101560000090004004220249024801F09FBF0000A1
:101570002806002000A0004006220249024801F08F
:1015800095BF00003406002000A001400622024959
:10159000024801F08BBF00004006002000B001406F
:1015A0000148006800470000540000202DE9F04188
:1015B0001A48D0F80453002601240FE095FAA5F04C
:1015C000B0FA80F7B80000F5807004F0FFFB10B1AE
:1015D00004FA07F0064304FA07F08543002DEDD125
:1015E000C6F3C05726F40005DFF834800AE000BFD8
:1015F00095FAA5F0B0FA80F658F82600804704FA6C
:1016000006F08543002DF3D105F0EAFD002F03D04D
:10161000BDE8F04101F068BABDE8F0810070024019
:10162000F477000038B5064C20680025002805D066
:1016300004484068804725602068009038BD00005D
:10164000000101408C0000200FB4084B10B504A924
:1016500002AA039800F0DEF8044602A9002000F078
:1016600070FC204610BC5DF814FB0000431F000016
:1016700002E008C8121F08C1002AFAD1704770475B
:10168000002001E001C1121F002AFBD170470000B9
:101690002DE9FF5F82B00021DDE90430020DDDF8A5
:1016A00040B0034318D044F61050A2F2FF32424338
:1016B0001514119801281FD0A5EB0B00401C5FEA00
:1016C000000A4FF000064E4FDFF83891B046504602
:1016D00015D5CAF1000413E0119801244AA301288A
:1016E00001D16FEA0B010298119AC0E90031C0E9FB
:1016F000024206B0BDE8F09FCBF10000DFE70446F0
:101700000021404A491842EB0450CDE9001012E094
:10171000E00707D032463B4640464946FEF798FF71
:101720008046894632463B4610461946FEF790FFF2
:1017300006460F466410002CEAD1DDE90401DDE91C
:101740000023BAF1000F06DAFEF782FF42464B464D
:10175000FEF77EFF05E0FFF71AF942464B46FFF71A
:1017600016F904460E460022284BFFF797F903D8D6
:101770004FF0FF30014607E00022254B204631465E
:10178000FFF75EF8FFF772F9102409E0002C0ADB7E
:101790000A220023FEF7B2FE039B30321A55641E64
:1017A00050EA0102F2D1641C039AC4F111031444FB
:1017B000119A012A03D0012208430DD10AE00843FF
:1017C00004D000204FF0110B119072E7A3EB0B0532
:1017D0006D1E0DE05B4504DD4FF0000205F10105D3
:1017E00004E003DA4FF00002A5F10105002AECD075
:1017F00002981199C0E90231C0E9004579E700007B
:10180000000014400000F03F300000000000F043F2
:101810000000E03F2DE9FF4F95B09B468946064604
:1018200000250FE2252877D100242746F84A012118
:10183000059400E0044316F8013F203B01FA03F051
:101840001042F7D130782A2811D06FF02F0330786A
:10185000A0F13002092A16D8059A44F0020402EBDE
:10186000820203EB42021044761C0590EFE759F820
:10187000042B0592002A03DA504244F400540590E8
:1018800044F00204761C30782E2816D116F8010F89
:1018900044F004042A280DD06FF02F023078A0F114
:1018A0003003092B09D807EB870302EB4303C71862
:1018B000761CF3E759F8047B761C30786C280FD03F
:1018C00006DC4C2817D068280DD06A2814D104E013
:1018D000742810D07A280FD10DE044F400140AE0E7
:1018E00044F4801401E044F440147278824202D13E
:1018F00004F58014761C761C307866280BD013DC37
:10190000582877D009DC002875D04528F6D046281D
:10191000F4D047281AD19DE118E0632835D0642817
:1019200079D0652812D195E1702873D008DC67283A
:10193000F1D069286FD06E280DD06F2806D1B5E0A0
:1019400073282CD0752875D0782874D05A461799EA
:1019500090476D1C75E1C4F30250022809D003289A
:101960000DD0D9F8001004280DD00D6009F104093C
:1019700067E1D9F80010EA17C1E90052F6E7D9F893
:1019800000100D80F2E70D70F0E719F8041B8DF8D8
:10199000001000208DF80100EA46012003E059F80C
:1019A00004AB4FF0FF3061074FF0000102D40DE0AF
:1019B00008F101018846B9420FDA8045F8DB1AF8D0
:1019C00008100029F4D108E008F10101884681429D
:1019D000FADB1AF808100029F6D105985B46A0EB4F
:1019E000080721463846179A00F094FA284400EB7D
:1019F000080507E04DE029E10DE01AF8010B5A4611
:101A000017999047B8F10108F7D25B46214638464E
:101A1000179A13E142E00A220092C4F302524FF0F7
:101A2000000A022A08D059F804CB032A4FEAEC71C5
:101A30000AD00DE029E02AE009F1070121F00702B0
:101A4000F2E802C1914609E00FFA8CFC4FEAEC7112
:101A5000042A03D14FFA8CFC4FEAEC71002907DA13
:101A60000A460021DCF1000C61EB02012D2202E0AC
:101A7000220504D52B228DF80420012203E0E20781
:101A800001D02022F7E7904659E00A2102E0102217
:101A90000DE010214FF0000A00910BE010224FF0F2
:101AA000000A44F004040827009203E008224FF0E3
:101AB000000A0092C4F30252022A05D059F804CB5E
:101AC0000021032A08D009E009F1070121F00702EB
:101AD000F2E802C1914605E01FFA8CFC042A01D10C
:101AE0000CF0FF0C4FF00008220728D5702806D014
:101AF000009B83F0100353EA0A0305D00EE0402256
:101B00008DF80420012208E05CEA010206D03022B0
:101B10008DF804208DF8050002229046009B83F08A
:101B2000080353EA0A030AD15CEA010201D1620701
:101B300005D530228DF804204FF001087F1E58286B
:101B400004D034A003900EA802900DE036A0F9E76F
:101B500053466046009AFEF7D1FC84460398825CA7
:101B60000298401E029002705CEA0100F0D10298D7
:101B700006A9081A00F1200A600702D524F480346F
:101B800000E00127574502DDA7EB0A0000E0002036
:101B900000EB0A01009005984144401A0590E003CB
:101BA00006D45B462146179A059800F0B3F9054420
:101BB000002706E001A85A46C05D179990476D1CA2
:101BC0007F1C4745F6DBE0030CD55B462146179AA0
:101BD000059800F09FF9054404E030205A46179913
:101BE00090476D1C0099481E00900029F5DC08E024
:101BF000029802995A460078491C02911799904719
:101C00006D1CBAF10001AAF1010AF1DC65E10000E6
:101C100009280100303132333435363738396162C2
:101C20006364656600000000303132333435363786
:101C300038394142434445460000000000F058F95D
:101C40000544761C307800287FF4ECAD19B02846A6
:101C5000BDE8F08F620700D4062709F1070222F0E1
:101C6000070CFCE80223E14603F000485FEA080C99
:101C700002D00FF2702C0DE05FEA045C02D50FF287
:101C8000682C07E05FEAC47C02D00FF2602C01E010
:101C9000AFF2700C4FF0FF3823F00043CDF850C086
:101CA00065280CD006DC452809D046281DD04728D9
:101CB0003DD13DE0662818D067287ED138E000216C
:101CC000112F01DB112000E0781CCDE9000106A9ED
:101CD0000EA8FFF7DDFCDDE90F010E9A039100214C
:101CE000009207F1010A04914DE04FF00040009787
:101CF000CDE9011006A90EA8FFF7CAFCDDE90F0225
:101D000003920E9B11990022DDF80CA0009304921F
:101D100011B9791C00EB010AB7EB0A0004D4C0F139
:101D2000FF3007F1010A0490AAEB0700019044E09C
:101D3000012F00DA01270021112F01DD112000E021
:101D40003846CDE9000106A90EA8FFF7A1FCDDE9A0
:101D50000F010E9A0391002104910092BA462107C7
:101D60000CD40399514500DA8A46BAF1010F05DD1A
:101D7000009AAAF10101515C302908D0B84202DA78
:101D800010F1040F06DA0121CDE9011015E0AAF1E6
:101D90000101E9E7002805DC049901440491AAEB5C
:101DA000000102E0411C514500DD8A460499401AB9
:101DB000401C01904FF000400290200704D401988D
:101DC000504501DBCDF8048000208DF84F000298CB
:101DD0000DF14F07B0F1004F25D02B200E90029847
:101DE0004FF0020800280CDA404202902D200E909D
:101DF00007E00A210298FEF7B0FC3031029007F8A4
:101E0000011DB8F10001A8F10108F2DC02980028D8
:101E1000EFD1791E0E980870307800F0200040F065
:101E2000450007F8020D12A8C01B00F1070814981E
:101E3000007800B1012000EB0A01019801EBE0718C
:101E400005984144401A401E0590E00306D45B46C5
:101E50002146179A059800F05DF80544149800781B
:101E600018B15A46179990476D1CE00324D55B467C
:101E70002146179A059800F04DF805441CE0049897
:101E8000002807DBDDE90301884203DD0098405CA0
:101E9000179901E0179930205A469047049805F1A8
:101EA0000105401C04900198401E019004D12E2091
:101EB0005A46179990476D1CBAF10001AAF1010A20
:101EC000DDDC05E017F8010B5A46179990476D1CA9
:101ED000B8F10001A8F10108F4DC5B462146179A2D
:101EE0000598ABE62D0000002B000000200000004C
:101EF0002DE9F041044600251E461746880404D407
:101F000005E039462020B0476D1C641EF9D52846EF
:101F1000BDE8F0812DE9F041044600251E469046BB
:101F2000C80301D5302700E02027880404D505E048
:101F300041463846B0476D1C641EF9D52846BDE8B9
:101F4000F0810A68531C0B6010707047800701D045
:101F50000020704701207047C3688B4206D81144A7
:101F60000069491E814201D8012070470020704756
:101F700072B603F0D1FC00BF03F064FA0028FBD175
:101F8000144D154915486A88081AC4082AB1012059
:101F900000EB044012A103F08FFB14480068C00757
:101FA00000D000BE6888022805D3022000EB044060
:101FB0000FA103F081FBBFF34F8F0C48E438016899
:101FC0000F4A01F4E06111430160BFF34F8F00BF7E
:101FD000FDE7000004030020148F0000648D000062
:101FE000466174616C206572726F7200F0ED00E002
:101FF00053797374656D2072657365740000000019
:102000000400FA050EB500210091CDE901106A46E1
:1020100044F20100FFF7ACFF0EBD00F003B800F082
:1020200009B8000072B602480168491C0160704797
:102030009400002003490868401E086000D162B681
:10204000704700009400002070B5054608680C46F3
:10205000411C04D002F0EBFF206802F02BFF606807
:10206000411C02D0002102F009FF2968A069C1F8D3
:102070002405607D227D29681043C1F86C05D4E9F0
:1020800000122868C0F81425C0F80C15207D01281E
:1020900014D1A068411C02D0002102F0EFFEE068DC
:1020A000411C04D002F0C3FFE06802F003FFD4E952
:1020B00002122868C0F80825C0F8101570BD70B568
:1020C000054608680C46411C04D002F0BAFF20689F
:1020D00002F0FAFE6068411C02D0002102F0D7FE37
:1020E0002968A069C1F82405607D217D2A6808431C
:1020F000C2F86C05D4E900122868C0F80C15C0F8C5
:102100001425207D012814D1A068411C02D0002193
:1021100002F0BDFEE068411C04D002F092FFE068CE
:1021200002F0D2FED4E902122868C0F80825C0F8EF
:10213000101570BDF0B500220D4BCA60C1E9012336
:102140000C4B0D4D1446EE1A0A600CE003EB021521
:10215000EF683F79FF2F05D0A04202D1A868086040
:10216000F0BD641C521CB2EB161FEFD3F0BD000093
:10217000707B0000548D0000648D0000102802D395
:102180001038C0B2704740F0800070472DE9F0472A
:102190000546861C91460F464FF0010A0020FFF7C6
:1021A0003CFF1B4C04F21C4860683860D4E9010114
:1021B000184F401A3968081A0EE00121404601F014
:1021C000F5FD01F0C1FB0146404601F0EFFDD4E909
:1021D0000101401A3968081A401C8642EDD8B9F14D
:1021E000000F03D0052065F3891002E0062065F397
:1021F0009F5061683A68114004EB8101C8606068D3
:10220000304460600020FFF70AFF5046BDE8F087C9
:102210007C1A00205801002070B50D4604460A299A
:1022200002D10D21FFF7F8FFA0682268411CA160D0
:102230001554D4E90101814204D32046BDE8704021
:1022400002F015BB70BD00000448816840688142FF
:1022500001D1012070470020704700007C1A002047
:102260000249084490F930007047000064040020DF
:102270002DE9F041044680680F46D0F84811C27F2E
:1022800011F00106817FA1EB0203DDB20BD07F29A3
:1022900001D3002D7ED0A068C17F0844002180F8C2
:1022A000207066B113E07F297CD2002DF3D0831813
:1022B00003F120012A46481CFEF774F9EBE7A068F9
:1022C000827F521CD2B28277A068203281544DB3F3
:1022D000204601F011FD8178C07881420ED1A068BE
:1022E00031A2C17F431808212046203302F002F9B1
:1022F000A81BC1B2204600F01BF921E0204600F0E7
:102300006BF8A06828A2C17F43180821204620331B
:1023100002F0F0F8204600F055F80121204600F0C8
:10232000ABF90DE03EB1A068827F521CD2B2827739
:10233000A068203281543A461CA1206902F08AFA32
:10234000A168C87F401CC877204600F0DDF800284F
:10235000204603D0BDE8F04100F0F6B800F096FD4D
:1023600000281FD0204601F0C7FC0546C078A97898
:10237000401A401EC1B2204600F0BAF8204600F0D4
:10238000E3F8E878A978401AC1B2204600F080F955
:10239000287800E006E0401EC1B22046BDE8F041CA
:1023A00000F06AB9BDE8F0812573000025630000E4
:1023B0000069024A02A102F04DBA0000497A000009
:1023C000257300000069024A024902F043BA000086
:1023D000437A0000C02300000069024A024902F06B
:1023E00039BA0000407A0000C02300008068D0F8AD
:1023F0004801C0F3C000704730B4406804682469E5
:10240000A44630BC6047002801D0FEF7FDB87047F5
:102410002DE9F8431E4615468846074600241BE072
:10242000786808EB04016B460268D2F80CC02A46B3
:10243000E047009804442D1A70B9B8680178032960
:102440000AD000BFD0F848118906FBD5D0F8481152
:1024500021F02001C0F84811002DE1D1002E01D05B
:1024600000983060BDE8F8832DE9F05F1C460A9EB5
:1024700015464FF0000959B180B3017839B342686D
:102480003146284690473068D8B12660BDE8F09FB5
:1024900014491548A1EB0008B5EBD80F11D2DFF8AD
:1024A0004CA00026834609E00BEBC607786801685C
:1024B0005AF82500FEF7AFF830B1761CB6EBD80F0E
:1024C000F2D3C4F80090E1E778682060DEE7406866
:1024D00000EB0210016809B11860D7E7FFE7C3F805
:1024E0000090D3E7548D0000148D0000F801002007
:1024F000002904D00A46006901A102F0ABB9704777
:102500001B5B25644200000010B504460068FFF71D
:102510007AFF0146A068C27F407E1144B1FBF0F211
:1025200000FB121008B1002010BD012010BD0000FA
:10253000002904D00A46006901A102F08BB9704756
:102540001B5B256444000000006901A102F082B910
:102550000A0000002DE9FC47002604468DF80460BF
:1025600080683546B146B0468021A030FEF741F87C
:102570004049206902F06EF9206902F078F90027DD
:102580006B46012201A92046FFF736FF0098D8B11B
:102590009DF804001B2806D0A16891F8A0101B2903
:1025A000EED152281FD0A26808F1A001505408F1C2
:1025B000010000F0FF08B8F1090F0AD9A168042052
:1025C00081F8A090BDE8FC872A494FF6C010103171
:1025D000884700980028D3D17F1CBFB2B7F57A7F17
:1025E000CED30D20EEE7A16808F1A0004A4601F81D
:1025F0000090A16891F8A1005B2803D081F8A02089
:102600000B20DFE702206FF02F0309E005EB8505C3
:1026100003EB4505401C3D44C0B2ADB2802808D252
:1026200000F1A007CF5D3B2FF0D1401CC0B2802845
:1026300009D30C20C6E700BF06EB860603EB46066F
:102640003E44B6B2F1E700F1A007CF5D002FF3D111
:10265000FA20FA2E01D9087500E00E75FA2D02D97C
:10266000A168887501E0A0688575A06880F8A02041
:102670000020A7E7617A0000002904D00A4600691B
:1026800001A102F0E7B870471B5B2564430000001E
:10269000002904D00A46006901A102F0DBB87047A6
:1026A0001B5B2564410000002DE9FF410C4620B171
:1026B0004FF4064004B0BDE8F0812079002748F2CD
:1026C000096538B141F61D5601281BD0022826D0D5
:1026D000681DEFE70220207102970397E0680190E0
:1026E000694601A804F0EEF850B102988188E180B3
:1026F00000882081BDF80010029804F061F9D9E744
:102700002846D7E70A4B6A460021A01D04F092F83C
:1027100038B1074918398F61CF61A842CAD1304614
:10272000C8E703488188019804F04AF9F5E70000FA
:10273000D000002010B50021024801F047FB80F3D3
:10274000100010BD981E002070B500F068F89FEDD5
:10275000180A00282BD0CC2000F09CF8442000F070
:1027600099F84FF47A75284603F088FB40F2572415
:10277000284603F083FB641EFAD100F050F8CC2009
:1027800000F088F8BE2000F085F800F031F805462A
:1027900000F02EF8044600F042F805EB042000EEAD
:1027A000100ADFED040AB8EE400A20EE200A70BDE0
:1027B000000000000000803D10B50024112002F050
:1027C0006FFB112002F0BAFB022003F057FB11202F
:1027D00002F019FC0F2003F051FB0021112002F040
:1027E00044FB112002F004FC00B10124204610BD7E
:1027F0002DE9F04100252C465FF00107FFF7DCFFD3
:1028000018B107FA04F62E43F5B20F2003F036FB99
:10281000641CE4B2082CF1D32846BDE8F08110B561
:10282000112002F03DFB112002F088FB4FF4FA70FA
:1028300003F024FB112002F0E6FB0021112002F03E
:1028400014FB1E2003F01AFB112002F0D1FB4FF401
:10285000EB7003F013FB112002F0CAFB012800D03B
:10286000002010BD10B50446112002F019FB112004
:1028700002F064FB052003F001FB012C02D11120C2
:1028800002F0C1FB502003F0F9FABDE8104011201E
:1028900002F0B9BB70B506465FF0000426FA04F5F5
:1028A00005F00100FFF7DEFF641CE4B2082CF5D34D
:1028B000BDE87040642003F0E1BA10B50446FFF7AC
:1028C000AEFFCC20FFF7E6FF4E20FFF7E3FF00202E
:1028D000FFF7E0FF6420FFF7DDFF0A2C0ED00B2C82
:1028E00005D00C2C01D01F2002E07F2000E05F20EB
:1028F000FFF7D0FFBDE81040FFF791BF3F20F7E79B
:102900006FEA0061C90F61F31F10704701060449A7
:1029100000D5903100F00F0001EB0010704700006F
:102920009C06002003F0E2B9812003F0F9B982206F
:1029300003F0F6B9832003F0F3B9842003F0F0B973
:10294000852003F0EDB9862003F0EAB9872003F073
:10295000E7B9000038B5882504F034FC2846FFF7B5
:10296000D5FF817B0124032915D00068002811D1EF
:102970002846FFF7C5FF8440E1430C4803F04CFABA
:102980000B480A49806800900C398DF8025049685C
:102990006846884738BD2846FFF7B2FF8440E143C8
:1029A000BDE83840014803F037BA00008800002035
:1029B000C077000038B504F005FC0020FFF7A6FF43
:1029C000817B0124032906D0006870B1BDE838403E
:1029D0004C2003F015BA0020FFF792FF8440E1433A
:1029E000BDE83840094803F017BA0020FFF788FF18
:1029F0008440E143054803F00FFA05480349C068E5
:102A00000C39009049686846884738BD8800002026
:102A1000C0770000012003F09FB9022003F09CB9A9
:102A2000032003F099B9042003F096B9052003F0C0
:102A300093B9062003F090B9072003F08DB9000088
:102A400038B5082404F0BEFB2046FFF75FFF817B0A
:102A5000032915D00068002812D12046FFF750FF47
:102A600001218140C943074803F0D6F906480549CA
:102A7000406900900C398DF80240496868468847E3
:102A800038BD000088000020C077000070B50E48F7
:102A900004680460BFF36F8FBFF34F8F01260CE013
:102AA00094FAA4F0B0FA80F52846FFF767FB06FA1F
:102AB00005F18C43294604F0BDFC002CF0D1BDE8A3
:102AC000704004F08DBB00006C74024010B5054CE2
:102AD000A078FFF715FF0146A078BDE8104004F08C
:102AE000A9BC00007C000020F8B51A4800681A4D07
:102AF000C6B2A878FFF704FF012404FA00F1288980
:102B0000EA68C04380B21043014202D0A87804F0C2
:102B100011FC06F08000A8700020FFF7F1FE04FA17
:102B200000F68020FFF7ECFE04FA00F006430A48A6
:102B3000F1430C3003F070F98020FFF7E1FE844090
:102B4000A86804430548AC60006A0090696868465C
:102B50008847F8BD807402407C000020C0770000E8
:102B600038B5002000900F480068ADF802008820BA
:102B7000FFF7C6FE012505FA00F40A486038006830
:102B800040B1C10301D4401C04D00820FFF7B8FEB7
:102B900085402C430449886820438860496868461A
:102BA000884738BD207502407C0000207047000037
:102BB000F8B518480568284603F018F9BFF36F8F79
:102BC000BFF34F8F144E154CE80506D501206070F9
:102BD000706A0090616868468847A8054FF0000752
:102BE00005D56770B06A00906168684688476805D7
:102BF0000ED5607800280BD0677009490120086065
:102C0000582003F0FDF8F06A009061686846884734
:102C1000F8BD000000740240C07700007C00002076
:102C200008750240054908B50020487088700448BE
:102C30004068009049686846884708BD7C000020CD
:102C4000C077000010B503780022072B06D2DFE81A
:102C500003F005040610202930000A7010BD01237E
:102C60000B7003898B818388CB81C06888600A746C
:102C700010BD02220A7002898A818288CA81C268D4
:102C80008A60807D062802D00020087410BD0120D3
:102C9000FBE703220A70C2888A810289CA81C06860
:102CA000886010BD04230B70C0888881CA818A6047
:102CB00010BD0520087010BD70B5064D06460024F5
:102CC00055F8241009B130468847641C042CF7D30A
:102CD00070BD0000E008002038B5040014D069463B
:102CE00003F0F0FDB0B1BDF8000000EB80010B482F
:102CF00000EB8100C16851B1A17A41B1C168491EA0
:102D0000C1600020A07238BD48F2046038BD48F2AE
:102D1000056038BD48F2096038BD00007C0900201C
:102D20001FB501A9684603F085FD04B010BD000081
:102D3000F8B50D46040018D0BDB1694603F0C2FDD8
:102D4000B0B1BDF800000C4900EB800001EB800041
:102D500001210C30666801F029F82E6060680C30A3
:102D600068600120A0720020F8BD48F20460F8BD40
:102D700048F20960F8BD00007C09002018B1032367
:102D8000002204F0CBBB48F204607047022300220B
:102D900004F0C4BB2DE9F05F17460E00814670D0E9
:102DA00013B1F9B2FFF768FC0024FDF7F7FB824688
:102DB000006800E0641C315D415CC907FAD1002560
:102DC0003046FFF720FBD9F80810001B4A7ED11BC4
:102DD000814228D306EB040805E000BF18F805106F
:102DE0000A290CD06D1C8542F8D33119D9F810008E
:102DF00001F030FD4846BDE8F05FFFF7A5BBD9F80C
:102E0000100001F034FD414600232A464846FFF7F2
:102E1000FFFA2C444846641CFFF796FBF9B248467B
:102E2000FFF72AFCE1E78B46DAF8001006EB04080E
:102E300018F805000B5CDB0702D0AB460A2804D06B
:102E4000E819904201D26D1CF2E7D9F8100001F0A8
:102E50000EFD414600235A464846FFF7D9FA5C4426
:102E6000DAF8000000E0641C315D415CC907FAD16A
:102E70004846FFF769FBF9B24846FFF7FDFB9EE7BE
:102E8000FFE7BDE8F09F406803F068BC10B504465A
:102E90000068FFF7B8FA0146A068827F407E1144BF
:102EA000B1FBF0F200FB121008B1002010BD0120B0
:102EB00010BD000070B510B14FF4064070BD1C4C41
:102EC0000025207B08B1257301E000F0A5F82078EB
:102ED00008282AD2DFE800F02904080C102914225F
:102EE000BDE8704000F026B8BDE8704000F082B840
:102EF000BDE8704000F064B8BDE8704000F040B834
:102F00000620207060880A4900EB8000283901EB18
:102F100080004068BDE8704003F0E6BA07202070EA
:102F20006560BDE8704003F0EDBA48F20E6070BD18
:102F3000A40900201149F0B48A1C00200346A1F125
:102F400028050C18A67A4EB1A37200EB800405EB9D
:102F50008404E66816B9247C012C0AD0401C80B297
:102F60000228EED30B704B804B60F0BC41F61D5035
:102F700070471080F0BC00F03DB80000A4090020AC
:102F80000C48418801EB8102A0F1280101EB82018C
:102F9000CA6852B105210170074802218180016889
:102FA00000230122054801F05BBD0422027049683C
:102FB000F6E70000A4090020E0000020180200202D
:102FC00038B50A49084803240B684268898803EB2E
:102FD000810153880470DB1C00201B0400909B0BB4
:102FE000034801F0E5FD38BDA4090020E000002001
:102FF00018020020074910B54888091D03F0B2FCEB
:1030000018B1BDE81040FFF7DBBFBDE81040FFF787
:10301000B7BF0000A409002070B5194C0121207829
:1030200008281AD2DFE800F00419191C25292918EC
:103030002089134A401C2081002060802073283A98
:1030400000EB800312F8233043B100232518401C05
:1030500080B2AB720228F3D3217070BD0123F5E773
:103060006068084940888A88C01C10448880022013
:1030700004E000F009F8062000E00720207070BD91
:10308000A4090020E00000200A4909484988026894
:1030900001EB81030749283901EB83014B68036089
:1030A0004A6082880A810222828000200874704768
:1030B000E0000020A4090020428800EB82020C32CC
:1030C0008A4201D9022070478188A1F57F42FF3AE8
:1030D00006D0018821B18068401C01D000207047D3
:1030E00001207047884204D20068401C01D00120B2
:1030F00070470020704700002DE9F0412D4F00255A
:1031000020B17D604FF40640BDE8F08108790122CE
:1031100058B1294E01280CD0264C4FF00208083433
:10312000022820D0032841D127E00A7103F0EAF9F0
:103130003AE0002000EB800116F82110022908D0A7
:10314000401C80B20228F5D33A707D6041F61D50D4
:10315000DAE700EB800006F8205006EB80004068BC
:1031600003F0C2F920E00D71A4F8048000230122CD
:103170001248216801F074FC16E00D71206803F01C
:10318000B3F90D4923682831498801EB810206EB28
:103190008201D1F804C0C4F800C04B60A3880B8141
:1031A000A4F8048006F822500028ADD07D6048F2D3
:1031B0000D60A9E7D80000207C090020180200203B
:1031C0002DE9FC5F0E008346DDE90C47C6F10000E7
:1031D00098469246814600D40846012503E000BF88
:1031E00090FBFAF06D1C5045FADAA84500D9454627
:1031F00024B1002E01DB780700D5641EB80702D584
:10320000B8F1000F0AD0F80708D13CB1A54205D2A9
:1032100020215846641EFEF7FFFFF6E7002E02DA73
:103220004E462D2102E0780703D52B215846FEF7A4
:10323000F3FF07F0030002280BD1B8F1000F08D10B
:103240003CB1A54205D230215846641EFEF7E4FF8A
:10325000F6E7CDE90047434652463146584603F06B
:1032600057FFBDE8FC9F000070B50D46044600689E
:103270004FF4887102F033FD4FF49071206802F032
:103280002EFD4FF49271206802F029FD4FF4A271D7
:10329000206802F024FD4FF4AC71206802F01FFD9D
:1032A00020681249C0F804132068690740F307300A
:1032B000090E002804DB00F1E02080F8001405E08E
:1032C00000F00F0000F1E02080F8141D206840F3AA
:1032D0000730002809DB00F01F020121914040095E
:1032E000800000F1E020C0F8001170BD1003420022
:1032F000024600201268530713D502F0030001288C
:1033000002D002280CD105E0C2F383100B68801CA8
:10331000184404E00223086803EB9252104408604A
:103320000120704770B50C464FF48876054631464B
:1033300002F0F0FB50B13146284602F0F0FB607914
:10334000400703D5216809B1012088474FF48A76E8
:103350003146284602F0DEFB50B13146284602F0E5
:10336000DEFB6079000703D5216809B10220884798
:103370004FF48E763146284602F0CCFB50B13146F0
:10338000284602F0CCFB6079C00603D4216809B15D
:10339000002088474FF482763146284602F0BAFB77
:1033A00000280CD03146284602F0B9FB01202071DC
:1033B0002168002903D0BDE870400320084770BD94
:1033C0002DE9F0479146884604464FF480354FF486
:1033D000A0760027DFF884A016E000BFD4F804032D
:1033E00028420DD0A05958B1C4F84853C4F8085326
:1033F0003146204602F032FC5AF82810F8B28847CD
:10340000361D6D00B6B27F1C4F45E7D3D4F80403D8
:103410004FF4807110F0010F09D0D4F8000130B1E1
:10342000204602F01BFC5AF8281004208847D4F8E4
:1034300004034FF4827110F0020F0CD0D4F8040191
:10344000002808D0204602F009FC5AF82810BDE8F0
:10345000F04705200847BDE8F08700007400002011
:10346000F8B50E4604464FF48C7102F017FC0028A4
:103470001AD00025C4F81851D4F818010090F07F34
:103480003446FF2806D0A17F11B101F061FD01E0B3
:1034900001F0C3FD65772572D4E9002101B004F184
:1034A0000800BDE8F0401047F8BD00002DE9F041EC
:1034B000174688460646002417E000BF4FF4A07068
:1034C00000EB84054FF480307159A04059B1D6F813
:1034D0000413014207D02946304602F0E4FBD8E944
:1034E000002128469047641CE4B2BC42E6D3BDE804
:1034F000F081800701D00020704701207047000054
:10350000014B00F02DBD000039370000014B00F0E9
:1035100027BD000005390000014B00F021BD00006F
:103520000D390000014B00F01BBD0000ED3900001B
:103530007CB514460546012902D001F041F938B1A5
:1035400002B02846BDE870400022114600F0FABFE4
:10355000616805A0CDE9000109A20221284623687F
:1035600000F0C8FF7CBD000020756E6B6E6F776E3B
:1035700020706172616D657465723A200000000010
:1035800025733A257325730D0A0000002DE9FC41CF
:10359000074601F015F938B102B03846BDE8F041F0
:1035A0000022114600F0CEBF1248134E801B0509C1
:1035B00000241AE006EB0410C2681179FF2903D039
:1035C000527942B10DA207E083680EA20821384665
:1035D00000F090FF08E013A2CDE90021836814A257
:1035E0000821384600F086FF641CAC42E2D3BDE8F7
:1035F000FC810000648D0000548D0000656E6162E6
:103600006C65640025730D0A092D2053746174756F
:10361000733A2064656163746976617465640D0A48
:103620000D0A000064697361626C6564000000004B
:1036300025730D0A092D205374617475733A202582
:10364000730D0A092D2049443A2025640D0A0D0AFC
:103650000000000010B5044601F0B2F830B1204679
:103660000022BDE81040114600F06CBF01F0FCFDE7
:1036700030B105A202212046BDE8104000F03ABF5B
:103680000AA20821F7E700004661696C65642074AE
:103690006F206C6F61642074686520636F6E66696B
:1036A0006775726174696F6E2E0D0A00436F6E66E6
:1036B000696775726174696F6E206C6F61646564AF
:1036C0002E0D0A0010B5044601F07AF830B12046FC
:1036D0000022BDE81040114600F034BF01F01EFE8C
:1036E00030B105A202212046BDE8104000F002BF23
:1036F0000BA20821F7E700004661696C656420743D
:103700006F2073746F72652074686520636F6E66D6
:10371000696775726174696F6E2E0D0A0000000092
:10372000436F6E66696775726174696F6E2073743A
:103730006F7265642E0D0A002DE9FF4FC86881B0D5
:103740001D46007917004FF00006009057D0072261
:1037500045A12868FCF76DFF78B1082244A12868CC
:10376000FCF767FF00282FD02B6843A2019805B013
:103770000221BDE8F04F00F0BDBE012F02D0022FA4
:1037800008D008E0019805B041A2BDE8F04F022141
:1037900000F0B0BE0126DFF8108100240A2258F89C
:1037A00024106868FCF745FF10B1641C052CF5D3A4
:1037B000052C06D004F0FF090224002E51D000246D
:1037C00019E03AA26B68D1E7012F4FF00009F6D05B
:1037D000012446E04A462146009800F054FA48B9D0
:1037E0000021204602F08AF8034638A202210198FF
:1037F00000F080FE641C02F02BF8A042EAD805B06D
:10380000BDE8F08F4FF0000A55F824B002F020F820
:103810008046002609E00021304602F06FF82022A1
:103820005946FCF706FF58B1761C4645F3D346458A
:1038300008D04A465146009800F025FA30B10FE012
:10384000B246F4E755F8243029A205E0002150469D
:1038500002F054F803461DA20221019800F04AFE2E
:10386000641CBC42CED3CAE7656E61626C65000021
:1038700064697361626C6500556E6B6E6F776E2064
:103880006F7074696F6E3A2025730D0A0000000096
:1038900042616420706172616D6574657220636F4E
:1038A000756E742E0D0A00005C010020556E6B6E63
:1038B0006F776E207365766572697479206C6576B2
:1038C000656C3A2025730D0A000000004C65766592
:1038D0006C20756E617661696C61626C6520666FE3
:1038E00072206D6F64756C653A2025730D0A0000B7
:1038F000556E6B6E6F776E206D6F64756C653A25D3
:10390000730D0A00C968012048717047C96800201A
:103910004871704730B41346C4680A46214630BC2B
:10392000FFF70ABFC0680121C06841717047C068D5
:103930000021C0684171704730B41346C4680A461C
:10394000214630BC00F052B82DE9FF410026244842
:1039500000F029FA2248001F074600F024FA214C03
:103960002149A06800900D6800E000986946284051
:1039700004EB80000C30FFF7BBFC0028F5D101AA56
:10398000009901EA050304EB8303491CDB6842F854
:103990002030401C00910228F2D3019800F003006F
:1039A00001280BD0022810D10198032101EB90507F
:1039B0000099BDF80A6001EB900005E00198BDF8A0
:1039C0000A60C0F3831008440090384600F0E8F91C
:1039D00008B10098A06004B03046BDE8F081000056
:1039E000941E00207C1A0020580100202DE9FE4F73
:1039F0008846824601F02CFF0746D8F80C00407933
:103A000020B922A20221504600F074FD24A327A26F
:103A10000821504600F06EFD2CA20821504600F00F
:103A200069FD00242DE000BFD8F80C0001231A46E0
:103A300005792146284601F015FF81460023012221
:103A40002146284601F00EFF0546032801D206460E
:103A500000E003260121204601F050FF0346AE425C
:103A600001D22AA200E028A2294850F8261050F8D6
:103A700029008DE8070027A20821504600F03AFDF2
:103A8000641CBC42D0D3BDE8FE8F00004C6F67734E
:103A9000206172652068616C746564210D0A000004
:103AA0006D6F64756C655F6E616D6500252D3430DA
:103AB00073207C2063757272656E74207C20627541
:103AC000696C742D696E200D0A0000002D2D2D2DBE
:103AD0002D2D2D2D2D2D2D2D2D2D2D2D2D2D2D2D16
:103AE0002D2D2D2D2D2D2D2D2D2D2D2D2D2D2D2D06
:103AF0002D2D2D2D2D2D2D2D2D2D2D2D2D2D2D2DF6
:103B00002D2D2D2D2D2D0D0A000000002A00000066
:103B10005C010020252D343073207C20252D377347
:103B2000207C20257325730D0A0000004FF480418E
:103B3000002001F03FFE08B1FEF764FA01F074FCCA
:103B40001F482049DFF874A0401AC0080321BAF8C2
:103B5000022001EB00408146032A02D31AA101F0A2
:103B6000ABFD00260C20FEF7A8FE1C4D1C4F4FF4A9
:103B7000FA6B4FF47A4800BFFEF7E6FD87ED000AC6
:103B80005C46691C40468847641EFAD13868FCF7D9
:103B9000D1FD41EC100B13A153EC102B1648FDF78F
:103BA00053FDBAF80200032805D34846124B3246AB
:103BB00012A101F08CFD761CDEE70000040300205A
:103BC000148F0000648D000068656C6F6F6F6F6FFD
:103BD00020616E6820656D2E2E2E0000807700001B
:103BE0000000002076616C75655F64733138623265
:103BF000303A20252E336600E403002025643A2065
:103C00002573200D0A0000002DE9F047C5881E1D10
:103C1000B6FBF5F78946B6FBF5F1044605FB176CD4
:103C2000407916686843DDF820A0F718001F874226
:103C300000D9C61A166001E02468491E0029FBD18C
:103C4000A5EB0C078846B74216D818E004EB0C0029
:103C5000001D09EB0803BAF1000F3A4602D00146F5
:103C6000184600E01946FCF79DFC2468F61B4FF04F
:103C7000000CB844B54201D9374600E02F46002E6B
:103C8000E4D1BDE8F08770B5144600230D46064622
:103C90001A4601F0E7FD844201D9002070BD22469A
:103CA0002946304601F002FE012070BD30B50246C3
:103CB00051B101F0CDFD0021074C08E034F821306E
:103CC0001568AB4202D11160002030BD491C814211
:103CD000F4D3052030BD00002C02002010B50C46A6
:103CE0000021E16061600349A160012101F006FE4D
:103CF000206010BD687B000070B58468006804F126
:103D00001405FEF780FBC1B2A971E07F6A7908440F
:103D1000B0FBF2F302FB13035B1C2B70E07F084443
:103D2000B0FBF2F35B1CAB70A07F0844B0FBF2F376
:103D30005B1CEB70A07F0844B0FBF2F102FB1101A9
:103D4000491C6970284670BD70B50C460546FCF7E5
:103D5000EDFA002802D021882868084470BD10B50B
:103D60000A8849888A4203D1FCF722FB012010BD52
:103D7000002010BD70B50C460546FCF7FCFA002883
:103D800002D061882868084470BD10B50A88498847
:103D90008A4203D1FCF7E6FA012010BD002010BDD5
:103DA000002100F00EB8012100F015B808B56A46F0
:103DB000FCF753FB009808BD08B56A46FCF74DFBBD
:103DC00008BD08B56A46FCF72EFB08BD08B56A4673
:103DD000FCF710FB08BD08B56A46FCF717FB009816
:103DE00008BD08B56A46FCF745FB009808BD70B5EC
:103DF000044600252846FEF710F921686268086825
:103E000090420ED9401E08600178238BE26801FBC6
:103E10000325227A2168101AC0B20A79824200D2A0
:103E200008710020FEF7FBF8284670BD70B5054606
:103E30000C460020FEF7F1F8E868298B201AB0FB49
:103E4000F1F12A681068431C13600170BDE87040EE
:103E50000020FEF7E4B810B530B1017A426803687B
:103E6000891AC9B21A6006E00E2010BD03681A68EC
:103E7000541C1C601170491EC9B2F7D200680021A1
:103E80000171084610BD00002DE9F0470646806824
:103E900088B0D0F84801C0F3400038B108B03046CF
:103EA000BDE8F0470022114600F04CBB012907D9BC
:103EB00008B03046BDE8F0471DA2022100F01ABB51
:103EC0002049DFF884A0A1EB0A001C21B0FBF1F52A
:103ED000002428E0C4EBC4010AEB81034FF0000981
:103EE0001F68D3E901103A793F78411AB3F8188076
:103EF000C01B5B69C0B2642712FB07F7B7FBF1FC7C
:103F0000642710FB07F7B7FBF1F7CDE90621CDE9F0
:103F1000041CCDE902700D4A08213046CDE9008924
:103F200000F0E8FA641CAC42D4D308B0BDE8F087D6
:103F300042616420617267756D656E7420636F7590
:103F40006E740000388F00001C8F0000008300009A
:103F5000C20800F007030120895C984008407047C0
:103F60002DE9FF5F8B46164814499A46091A0F0936
:103F7000914652F8046C0025804607E008EB0514D2
:103F80003046A168FCF747FB18B16D1CBD42F5D364
:103F90000BE0210009D0009804B04B465A46D446A5
:103FA000BDE8F04F5DF804EB6047009804B033467D
:103FB000BDE8F05F03A2022100F09CBA648D00000E
:103FC000548D0000496E76616C6964206261636B98
:103FD000656E643A2025730D0A00000070B5154621
:103FE0008268D2F84841C4F3400424B11A462946F5
:103FF00000F0A8FA05E031B1536804A2022100F0F4
:1040000079FA012070BD002070BD000025733A20B0
:1040100077726F6E6720706172616D657465722072
:10402000636F756E740A000010B5044602290CD146
:10403000A068D0F84801C0F3400030B1204600220B
:10404000BDE81040114600F07DBA064A06A120697D
:1040500000F000FC034A2069BDE81040093202A1CB
:1040600000F0F8BB5D7A000025730000012907D03D
:10407000022909D18168D1F84811C1F3400119B171
:104080000022114600F05EBA01A2022100F032BA0D
:10409000506C656173652073706563696679206132
:1040A00020737562636F6D6D616E642E0A0000008F
:1040B0001CB5012905D002290BD014D94FF00101FC
:1040C00012E002B04FF00002BDE81040114600F0CF
:1040D00039BA536808A1CDE9001313680CA2022174
:1040E00000F008FA1CBD002102B00023BDE810401A
:1040F0001A46FFF773BF000020756E6B6E6F776E08
:1041000020706172616D657465723A200000000074
:1041100025733A257325730A0000000010B5044684
:10412000012901D0012100E0002100231A46FFF7F8
:1041300055FF002809D1A168C1F83801E06840683E
:104140000068BDE8104001F0F8BC10BD3EB5054662
:10415000012901D0012100E0002100231A46FFF7C8
:104160003DFF002818D1E86840680468204601F047
:10417000E1FCC0B2642110FB01F2A168B2FBF1F2D4
:10418000D2B20092CDE90101A86804A20021D0F8C2
:104190003831284600F0AEF93EBD00004C6F737414
:1041A000206C6F67733A2025750A4D6178206C6F1B
:1041B00067207175657565207574696C697A6174BD
:1041C000696F6E3A2025752525205B25752F25758D
:1041D0005D0A00007CB514460546012903D002297A
:1041E00008D0012107E002B00022BDE8704011466E
:1041F00000F0A8B9002100231A46FFF7EFFE0028BF
:1042000009D1616804A0CDE9000109A20221284674
:10421000236800F06FF97CBD20756E6B6E6F776E52
:1042200020706172616D657465723A200000000053
:1042300025733A257325730A0000000010B5044663
:10424000012901D0012100E0002100231A46FFF7D7
:10425000C5FE002806D1A068D0F8481121F004015D
:10426000C0F8481110BD10B50446012901D0012144
:1042700000E0002100231A46FFF7B0FE002806D117
:10428000A068D0F8481141F00401C0F8481110BDF1
:104290007CB514460D460646022901D9012100E0ED
:1042A000002100231A46FFF799FE002811D1022DA4
:1042B00005D03046FEF79AF860B10BA30BE06168B9
:1042C0000AA0CDE900010FA202213046236800F0C8
:1042D00011F97CBD0EA302B03046BDE870400DA2BE
:1042E000002100F007B900006F6E000020756E6BB2
:1042F0006E6F776E20706172616D657465723A20C1
:104300000000000025733A257325730A00000000A1
:104310006F6666004563686F207374617475733AE5
:104320002025730A0000000010B50446012901D0C1
:10433000012100E0002100231A46FFF74FFE00286C
:1043400006D1A068D0F8481121F00801C0F8481142
:1043500010BD10B50446012901D0012100E0002163
:1043600000231A46FFF73AFE002806D1A068D0F8CD
:10437000481141F00801C0F8481110BD7FB504464E
:10438000012901D0012100E0002100231A46FFF796
:1043900025FE002827D1A0680026D0F84051F5B1AD
:1043A00001E0082E1BD20023092201A9284601F0B2
:1043B00080FB9DF80C20A16809232846A031521CDF
:1043C00001F077FBA0683346A0300090029D761C78
:1043D00005A20021204600F08DF8002DE1D1A16852
:1043E000002081F8A0007FBD5B2533645D2025732C
:1043F0000A0000007CB515460446012903D00229B5
:1044000017D9012116E0A16801F11802193102F053
:10441000A7FC00281ED0A16850200FA24876A168F2
:104420001820087602B02046BDE87040042100F054
:1044300061B8002100231A46FFF7D0FD002809D1FA
:10444000696814A0CDE9000118A2022120462B685A
:1044500000F050F87CBD00004E6F20726573706FE5
:104460006E73652066726F6D207468652074657266
:104470006D696E616C2C20617373756D6564203895
:10448000307832342073637265656E2073697A65A3
:104490000A00000020756E6B6E6F776E207061727F
:1044A000616D657465723A200000000025733A253D
:1044B0007325730A0000000010B50446012901D0DD
:1044C000012100E0002100231A46FFF787FD0028A4
:1044D0000AD1064A06A1206900F0BCF9A168502063
:1044E0004876A1681820087610BD0000767A000092
:1044F000257300000FB438B5044607A80090A068E3
:10450000D0F84821520717D5C27E8A4214D0B0F89D
:104510001B50204602F0DAFF6A462069069900F037
:10452000B2F9E9B2204602F0D1FF290A204602F092
:10453000AFFF38BC5DF814FB6A462069069900F0AD
:10454000A2F9F6E72DE9F04F804689B017460C46F0
:104550008648FDF758FF054684483638FDF753FF77
:10456000281A1FFA80F9814881A223380090D8F8D0
:104570000800082143684046FFF7BCFFD8F8080050
:104580004068FDF740FF054678482338FDF73BFFBC
:10459000284482B2D8F80800002381684046FEF71C
:1045A000F9FB75A200214046FFF7A4FF0FB304B347
:1045B00000251CE005EB450A04EB8A0BDBF8040040
:1045C000FDF721FF064654F82A00FDF71CFF3118BD
:1045D00049450BD9DBF80400FDF715FF064654F8F2
:1045E0002A00FDF710FF30441FFA80F96D1CBD4210
:1045F000E0D35E483638FDF706FF4844801C1FFABA
:1046000080F95A4800904B465EA208214046FFF7C9
:1046100071FF09F1030086B20790002332465BA1C7
:104620004046FEF7B7FB002C52D000254EE000BFFD
:1046300005EB450A04EB8A0B54F82A00DBF804303A
:104640006BB350B3494956A23639CDE90010082161
:104650004046FFF74FFF09F102000090DBF804002D
:10466000FDF7D1FE064654F82A00FDF7CCFE0644BD
:104670003E483638FDF7C7FE31180098401A801EB4
:10468000C1B24046FDF7F8FF3A224849D8F8100079
:1046900000F0E0F80098401C0AE0009301E040B10F
:1046A00000904B4637A208214046FFF723FF0798AA
:1046B00086B2DBF8081029B1002332464046FEF7E7
:1046C00069FB02E04046FDF73FFF6D1CBD42AFD3E2
:1046D000D8F80800C068002845D08146002004466C
:1046E000064603AD02903246761C02AB01214846D5
:1046F0000095FDF7B9FE029850B10068FDF783FE02
:10470000A042F0D902980068FDF77DFE84B2EAE786
:10471000012E28D026A200214046FFF7EBFE0026FE
:104720003246761C02AB012148460095FDF79CFEFF
:104730000298002817D0A11C8FB2006800903B4659
:1047400010A208214046FFF7D5FE0298FF1CBAB21E
:10475000416821B100234046FEF71CFBE0E74046DC
:10476000FDF7F2FEDCE709B0BDE8F08F7C7A0000CF
:1047700025732573000000004F7074696F6E733AE3
:104780000A0000002020252D2A733A0053686F7715
:1047900020636F6D6D616E642068656C702E000023
:1047A000202025732573257300000000AC23000032
:1047B000537562636F6D6D616E64733A0A00000039
:1047C0008068D0F84801C0F34000704700F1804095
:1047D0000068002800D00120704708B500F1804033
:1047E000002101600068009008BD0000F0B505469A
:1047F0000478154889B0164640F82420124A086902
:104800000832A2F10C0742F82400487F38552022D4
:104810006846FBF7C7FE04942878385C48B10EB1AF
:104820000A4A00E000226946281D01F0DFFC09B0B9
:10483000F0BD0EB1064A00E00022694605F10C0009
:1048400001F09EFBF3E7000008000020CD6F0000A0
:10485000156E00000FB408B50399002904D004AA0E
:1048600000926A4600F00FF801B05DF814FB10B535
:1048700082680446002A05D0D4E9040321689847D9
:104880000020A06010BD2DE9FC4791460C00804639
:1048900076D014F8011B39B125290ED04046FDF71A
:1048A000BBFC20780028F4D198F80C00002867D0D1
:1048B0004046BDE8FC47FFF7DABF0020012221781F
:1048C0002B291BD02D2902D0302908D102E040F03D
:1048D000010001E040F00200641C002AEFD1002535
:1048E0002A290ED02178A1F130020A2A11D205EB33
:1048F000850201EB4205641C303DF1E740F0040005
:10490000EAE7D9F800100B1DC9F800300968641CEB
:104910000D44217800232E290BD114F8011FA1F199
:1049200030020A2A05D203EB830201EB4203303B3B
:10493000F3E76C290DD068290BD0692921D00BDC55
:10494000252918D0582931D063290ED0642915D1D2
:1049500017E014F8011FECE7702969D0732932D0F1
:1049600075291BD0782909D120E0D9F80000011D54
:10497000C9F8001001784046FDF74EFC641C90E732
:104980006CE0D9F800100A1DC9F800200968CDE9CB
:1049900000500A224046FEF713FCEFE7D9F800105A
:1049A0000A1DC9F8002009680A2206E0D9F800109B
:1049B0000A1DC9F8002009681022CDE900504046C0
:1049C00002F0A6FBDAE7D9F8001000270A1DC9F8A3
:1049D00000200E68C00705D112E04046761C7F1CFF
:1049E000FDF71AFC31780029F7D104E02021404678
:1049F0006D1EFDF711FCBD42C0D9002DF6D1BDE7FB
:104A00004EB13046FBF700FE074604E02021404649
:104A10006D1EFDF701FCBD4206D9002DF6D103E065
:104A20004046761CFDF7F8FB31780029F8D1A5E760
:104A3000D9F80000011DC9F8001005683021404672
:104A4000FDF7EAFB78214046FDF7E6FB0820002150
:104A5000CDE90001034610222946B0E7BDE8FC87F6
:104A60002DE9F84F8946050032483349304FA0EB15
:104A700001004FEAD0004FF0010101EB00447888BB
:104A80009A46164626D0296800292FD0002E38D005
:104A90006A6849464FF010081268531E13EA090F5E
:104AA00010D172432846FDF757FA002834D0286801
:104AB00053463246046901B049462846A446BDE83B
:104AC000F04F6047002831D020461C4B1CA2CDF887
:104AD000008028E038B10E2000902046174B22A21B
:104AE00023A100F0FCFD0E20BDE8F88F38B10820AE
:104AF00000902046114B29A21DA100F0F0FD0820D6
:104B0000F2E738B10920009020460C4B26A218A1EC
:104B100000F0E5FD0920E7E7788838B1074B234A24
:104B20002046CDF8008012A100F0D9FD1020DBE76F
:104B3000EC020020E48E0000648D0000E27A0000A8
:104B4000616464725F69735F706167655F616C69FE
:104B5000676E656428705F66732C20706167655F9F
:104B60006164647229000000705F667300000000D9
:104B7000257320636865636B206661696C656420DA
:104B8000696E202573282920776974682076616C06
:104B9000756520307825782E00000000705F667300
:104BA0002D3E705F617069006C656E004486000088
:104BB0002DE9F84F914605004348444A414EA0EB89
:104BC00002004FEAD0004FF0010202EB00448B4696
:104BD0007088DDF828A098464FF00E011CD0B9F17E
:104BE000000F1FD02968002926D00921B8F1000F35
:104BF0002DD06A685368B8FBF3F703FB1782002ACD
:104C00002CD030B1324B204632A200913CA100F0B2
:104C100066FD0920BDE8F88F60B120462C4B43A209
:104C2000009104E030B12A4B204642A2009134A109
:104C300000F055FD0E20EDE738B108200090204629
:104C4000234B3EA22EA100F04AFD0820E2E70028F7
:104C5000DFD020461E4B3CA20091D7E75846FDF717
:104C600075F9102798B14846FDF770F9B8B142467A
:104C700059462846FDF770F9D8B1CDF800A028684C
:104C800043464A46C46859462846A047C2E770884A
:104C9000002815D020460E4B2CA2009705E0708806
:104CA00070B10B4B20462FA2009715A100F017FD05
:104CB00006E0708820B12046054B33A20097F4E748
:104CC0001020A7E7EC020020E48E0000648D0000B5
:104CD000CF7A000021286C656E202520705F6673F6
:104CE0002D3E705F666C6173685F696E666F2D3E06
:104CF00070726F6772616D5F756E69742900000074
:104D0000257320636865636B206661696C65642048
:104D1000696E202573282920776974682076616C74
:104D2000756520307825782E00000000705F66736E
:104D300000000000705F737263000000705F6673B4
:104D40002D3E705F617069006C656E006164647215
:104D50005F69735F616C69676E656433322864658F
:104D600073742900616464725F69735F616C696761
:104D70006E65643332282875696E7433325F742926
:104D8000705F737263290000616464725F69735FAE
:104D900077697468696E5F626F756E647328705F9F
:104DA00066732C20646573742C206C656E2900007A
:104DB0002DE9FF411C46DDE90A7815460E46684696
:104DC00000F0D0F846EA450141EA840141EA0722B1
:104DD00042EA0841009A00EB8200C0F80017BDE8E3
:104DE000FF812DE9FF411C46DDE90A7815460E4694
:104DF000684600F0E1F846EA450141EA840141EAEB
:104E0000072242EA0841009A00EB8200C0F800172E
:104E1000BDE8FF812DE9FF411C46DDE90A78154612
:104E20000E46684600F0D6F846EA450141EA84019C
:104E300041EA072242EA0841009A00EB8200C0F8EA
:104E40000017BDE8FF811CB5002100910B4601222F
:104E50000191FFF7C6FF1CBD1CB5002100910B4658
:104E600001220191FFF7D6FF1CBD1CB500220B46A5
:104E7000009211460192FFF79BFF1CBD1CB500225A
:104E80000B46009211460192FFF7ABFF1CBD1CB50B
:104E900000220B46009211460192FFF7BBFF1CBD9A
:104EA0001CB5002100910B46012201911146FFF72C
:104EB0007FFF1CBD1CB5002100910B460122019112
:104EC0001146FFF78EFF1CBD1CB5002100910B465B
:104ED000012201911146FFF79DFF1CBD13B50C4641
:104EE000684600F04DF8009900EB8101D1F80027E9
:104EF00022F44032C1F80027009900EB8100D0F87D
:104F0000001741EA0441C0F800171CBD3CB50A4C2B
:104F1000D4E90034CDE900346B46441808E000BF02
:104F200053F82010D1F8205520C2C1F82055401C5C
:104F30008442F5D83CBD00009877000001B5684672
:104F400000F010F8009A01219140C0F80C1508BD3E
:104F500001B5684600F022F8009A01219140C0F89E
:104F60000C1508BD0168202902D24FF0A0407047FF
:104F700001F01F010160014870470000000300506C
:104F80000168202902D24FF0A040704701F01F01B4
:104F900001600148704700000003005001682029AB
:104FA00002D24FF0A040704701F01F01016001489C
:104FB00070470000000300500168202902D24FF022
:104FC000A040704701F01F010160014870470000D8
:104FD000000300500168202902D24FF0A040704722
:104FE00001F01F01016001487047000000030050FC
:104FF00001B56846FFF7B6FFD0F810050099C84024
:1050000000F0010008BD01B56846FFF7ABFF009A4C
:1050100001219140C0F8081508BD01B56846FFF7A9
:10502000BDFF009A01219140C0F8081508BD01B5E7
:105030006846FFF7C1FF009A01219140C0F80815AA
:1050400008BD01B56846FFF7C5FF009A01219140F0
:10505000C0F8081508BD0000034908B50844002140
:1050600001600068009008BD00600040024940589F
:10507000012800D000207047006000404058002800
:1050800000D00120704708B50022425040580090DF
:1050900008BD00002DE9F041054620480E460024D9
:1050A000D0F8103419460AE0CA681179A14205D136
:1050B000641C0A2CF6DB4FF0FF342BE0116800294A
:1050C000F2D1611C26D0E9680C71D0F8101459B1E6
:1050D000C968EA6809681160D0F81004C068056002
:1050E0000027DFF83C8011E0C0F81054E968002088
:1050F0000860F5E708EBC700C279B24200D3324638
:10510000E8683946007900F0D1FB7F1C00F0A0FB75
:10511000B842EFD82046BDE8F08100007C1A00209C
:10512000648D0000F0B595B01C4615460F46084644
:105130001A9E00F0A9FC182109A8FBF75AFA0E964E
:10514000CDE909540023082203A9384600F0B1FC38
:1051500005980690BDF81000ADF81C00BDF81200CF
:10516000ADF81E0000208DF821000398082600F0FD
:105170000300012802D0022818D032E003983346F9
:10518000850AC0F3C2008DF8200003980FA9C0F370
:105190008314A200384600F08CFC09A8009006ABEE
:1051A00022460FA9284600F0CBFB1AE00398840D95
:1051B000C0F3C2008DF82000082C01D2254600E083
:1051C000082533462A460FA9384600F072FC2E44C3
:1051D000641B09AB06AA29460FA800F093FA002C1D
:1051E000EAD1384600F056FC15B0F0BD70470020FB
:1051F00001F02EBE084810B50178084A515C19B17B
:10520000001D01F08DF802E00C3000F087FFBDE8D2
:105210001040002001F01CBED80100200400002036
:1052200008B5034A00924023024AFFF77BFF08BDFE
:105230005D6A00009C1E00200A4A012902EBC000A2
:1052400007D0022907D0032907D0042907D000205E
:1052500070470220704704207047007970474079FA
:1052600070470000648D000010B588B000240394DE
:1052700004940594069406AB03AA43F2274141F235
:105280006E000794FDF74CFDB0B1A0F50641093959
:1052900002D0032008B010BD11484088022809D36D
:1052A00010481149401AC008022101EB00400FA12B
:1052B00000F002FA0520EDE7019401A903A8029489
:1052C000FDF736FD0028E5D11248134902468A1A37
:1052D0000299FBF767F903A8FDF7FEFCDAE7000087
:1052E00004030020148F0000648D00004C6F67677A
:1052F000657220636F6E66696775726174696F6E3F
:105300002066696C65206E6F7420666F756E642E02
:105310000000000008030020E403002070B58AB0FC
:105320000020214902900090019007900890D1E957
:105330000701CDE904011D481D4907AB401A80084B
:1053400006906A4643F2274141F26E00FDF7E8FC01
:1053500019491A4A174E891AC908032202EB014457
:10536000A8B1A0F50641093903D003250AB02846A3
:1053700070BD04A96846FDF709FD0546708803283D
:10538000F4D320462A460EA100F09AF9EEE704A9CC
:105390006846FDF7F3FC054670880328E6D32046EF
:1053A0002A4614A1F0E70000687B0000E403002017
:1053B0000803002004030020148F0000648D000007
:1053C0004C6F6767657220636F6E6669677572619F
:1053D00074696F6E2066696C652077726974746594
:1053E0006E207769746820726573756C743A2564F1
:1053F000000000004C6F6767657220636F6E66691E
:105400006775726174696F6E2066696C652075706E
:105410006461746564207769746820726573756C63
:10542000743A25640000000010B5FFF7E0FE042187
:105430000348FFF72FFE02490120C968487110BDDB
:10544000548D00002DE9FF5FFCF7FEFE18B100202F
:1054500004B0BDE8F09F8C4C0020C4F81804BFF3E2
:105460004F8F8A49A06800900D684FF000092840CE
:1054700004EB80000CE000BFD4F8180470B9616838
:105480000098814201D8A160E1E7284004EB800048
:105490000C306946FDF72CFF0028EDD1002001A952
:1054A000A046009A02EA050308EB8303521CDB685E
:1054B00041F82030401C00920228F2D3019800F0FD
:1054C0000300022802D0012850D0BEE001985022EB
:1054D000810D8A46B2EB905F00D850210C4664F3F0
:1054E0009F50C0F3C20701900831694800F083FA69
:1054F0000600EAD000F0C8FA4B46082201A930465F
:1055000000F0DFFA009909F1080B2940681A8000C1
:10551000001D844223D95C4D0C3530B1C2B208EB7A
:105520008101201A91460C3104E02946E2B200259F
:1055300091462846C4B25B46304600F0C2FA0BEBF7
:1055400009032DB1224629464FEA060000F0B9FAB8
:1055500000990AF1030001EB900000903DE008EB98
:1055600081015B46224630460C31EFE70198C0F3DB
:105570008310062800D30620019960F38911C1F336
:105580008310C1F3C207801C01918100404800F0E4
:1055900032FA060059D000F077FA4B46082201A9EA
:1055A000304600F08EFA09F1080900240FE0009857
:1055B0004B4600EA0501401C08EB810100900422E3
:1055C00030460C3100F07DFA09F10409641C0198A1
:1055D000C0F38310A042EAD8B6B3D8F81044D8F884
:1055E00018044546F8B1304600F054FA46E0E06849
:1055F0004179012915D10179BDF80800254A01EB4F
:10560000410152F8200007228A401040C840052F6F
:1056100000D10327B84204D32268204631461268DD
:105620009047E0680468002CE1D1304600F032FA7F
:105630000020FCF7F2FCD5F8180408B90098A8601F
:105640000020FCF7ECFC19E0FFE7D8F8104405E077
:105650002168204689688847E0680468002CF7D1F3
:105660000D484088022809D30C480D49401AC0084B
:10567000022101EB00400BA100F01EF8FCF7E4FD55
:1056800080F00100E4E600007C1A002058010020B0
:105690001C8F00000803002004030020148F00006A
:1056A000648D00004261636B656E647320666C7587
:1056B000736865640000000000231A4601F000BA18
:1056C00008B5012300926A4601F0FAF908BD1CB53D
:1056D000CDE9002302236A4601F0F2F91CBD3EB574
:1056E000069C8DE81C0003236A4601F0E9F93EBDE3
:1056F0007FB5DDE908458DE83C0004236A4601F0EA
:10570000DFF97FBD2DE9F0470E4680461C469246E4
:10571000082940D894F80C900020207319461046B0
:1057200000F090FF0025B54206D218F805201BA115
:105730002046FFF78FF803E01AA12046FFF78AF80A
:105740006D1C082DEFD318A12046FFF783F8002524
:10575000B54212D218F805707E2F08D8FAF71EFF4E
:105760000068C05D10F03E0F01D03A4600E02E22E6
:105770000EA12046FFF76EF803E00DA12046FFF7CB
:1057800069F86D1C082DE3D301222146504600F034
:105790003BFF84F80C90BDE8F087000020253032F4
:1057A00078000000202020007C000000256300001D
:1057B000200000002DE9F0471E49012008701E4816
:1057C00000F066F9002832D11C4800F039FA1C4973
:1057D000DFF87080DFF87090A1EB0800C6080024A5
:1057E00014E000273D460CE0AC4209D058F83400E4
:1057F00058F835101422FAF71CFF002800DD7F1C32
:105800006D1CB542F0D329F82470641CB442E8D36F
:10581000002001464A460D4D06E000BF02EB800421
:10582000618045F82010401CB042F7D30020BDE84D
:10583000F08700007C1A00201C8F0000787B00009D
:105840001C8F0000648D00002C0200200803002043
:1058500002480349401AC008704700001C8F00002E
:10586000648D00007FB505461146002401A873B180
:10587000FEF71CFA98B90B480199072250F821004D
:1058800005EB45018A401040C840C4B207E0FEF76E
:105890000DFA20B90448019900EBC100847904B0E5
:1058A000204670BD08030020648D000070B5114BC8
:1058B00000EB400003EB81040F4B02F0070203EB07
:1058C0008101072303FA00F60D688240B5432A439D
:1058D00000200A604FEA000103FA01F51540CD40AF
:1058E000ADB2854200D92846C91C0A29F4D360808C
:1058F00070BD00002C0200200803002013B568468C
:10590000FEF7D4F908B100201CBD0248009950F8F8
:1059100031001CBD648D000070B508480125D0F829
:105920001044057007E0E068457121682046496829
:105930008847E0680468002CF5D170BD7C1A00200F
:105940002DE9FF4781460C9D00200C462F7B2873D4
:10595000984616462946184600F074FE072E42D295
:10596000DFE806F004090F161F2A360049462846CC
:10597000FEF770FF37E0494628462268FEF76AFFC7
:1059800031E0D4E9002349462846FEF763FF2AE0C8
:10599000A0680090D4E9002349462846FEF75AFF44
:1059A00021E0D4E90201CDE90001D4E90023494610
:1059B0002846FEF74FFF16E004F1080007C88DE8FF
:1059C0000700D4E9002349462846FEF743FF0AE0D2
:1059D00004F108000FC88DE80F00D4E90023494600
:1059E0002846FEF737FF00222946404600F00CFE0D
:1059F0002F73BDE8FF872DE9F041058B80462D1FF1
:105A00004819C01CB0FBF5F0C6B24046FEF7EFF9EE
:105A1000041E19D00020207101206071E58000274C
:105A20002546761EC4F800800BE04046FEF7DFF9FD
:105A300060B16179491C6171286005467F1CC0F81E
:105A40000080B742F1D32046BDE8F081204600F047
:105A500002F80020F8E72DE9F041457901466B1E78
:105A6000002201E00968521C9A42FBD30F680146EC
:105A7000002605E038460C68FEF7D8F92146761C6A
:105A8000AE42F7D3BDE8F0810121001DFEF78EB9CB
:105A9000FEF7E1B910B504460121001DFEF7A1F99A
:105AA00010F0FF0F04D12046BDE81040FFF7D3BF30
:105AB00010BD1CB501920122009201AAFEF7A4F8C4
:105AC0001CBD1CB501920022009201AAFEF79CF8B1
:105AD0001CBD000002494058002800D0012070473A
